:020000040001F9
:10600000B03E002095610100AF61010075620100A2
:106010000000000000000000000000000000000080
:10602000000000000000000000000000B36101005B
:106030000000000000000000B5610100B761010030
:10604000B9610100B9610100B961010045120200A6
:10605000B96101000000000021170200B5AC010089
:10606000B9610100B9610100CDC40100B96101004D
:10607000B9610100B9610100B9610100B9610100B4
:10608000B961010093FB0100B9610100B961010030
:10609000A9FB0100B9610100CF030200B961010051
:1060A000B9610100B96101000000000000000000BA
:1060B00000000000000000000000000000000000E0
:1060C000034885460DF0DEFA00480047276C0100C2
:1060D000B03E0020401E00BF00BF00BF00BF00BF99
:1060E00000BF00BF00BF00BF00BF00BF00BFF1D1B5
:1060F00070470000401E00BF00BF00BF00BF00BFD0
:1061000000BF00BF00BF00BF00BF00BF00BFF1D194
:1061100070470000401E00BF00BF00BF00BF00BFAF
:1061200000BF00BF00BF00BF00BF00BF00BFF1D174
:1061300070470000401E00BF00BF00BF00BF00BF8F
:1061400000BF00BF00BF00BF00BF00BF00BFF1D154
:1061500070470000401E00BF00BF00BF00BF00BF6F
:1061600000BF00BF00BF00BF00BF00BF00BFF1D134
:1061700070470000401E00BF00BF00BF00BF00BF4F
:1061800000BF00BF00BF00BF00BF00BF00BFF1D114
:10619000704700000321094802680A43026008486A
:1061A00002680A4302600748804707480047FEE745
:1061B000FEE7FEE7FEE7FEE7FEE7000024050040FD
:1061C00054050040D5610100C16001002349224807
:1061D0000860704710B500F01DF8002805D021496F
:1061E0001F484860C813204988612048018CC9B203
:1061F00001290ED1818C09070BD1018D0906090FE8
:10620000042906D1808D0006000F02D11849012013
:10621000886010BD1548018CC9B2012917D1818C45
:10622000090714D1018D09060A0F03D1828D1206C8
:10623000120F0ED0090F012903D1828D1206120F01
:1062400007D0032903D1808D0006000F01D0002064
:1062500070470120704700000024F4000020002057
:10626000DFFF07C000050040006C0040C00F00F0D9
:106270000006004006F038FC05F0E4F800F0A0FD50
:1062800006F032FC05F0DEF800F09AFD06F02CFC7A
:1062900005F0D8F800F094FDFF21F7A20B31FFF7CD
:1062A000EFFF10B5F74801218171408AF649884215
:1062B00002D0132176DF05E007F0FAFD002801D1B6
:1062C00007F0EAFD01F056FB01F0E9FB06F002F8E9
:1062D00001F0EEFF00200BF0D3FF00200DF084F85A
:1062E00006F002FC05F0AEF810BD10B5012001F07B
:1062F0000CFE0446800701D504F0C8FEE00720D05C
:1063000004F030FE06F093FD04F0F5FE04F0EFFC1F
:1063100004F015FDDB49022810D2487900280DD081
:106320000A7B052A02D3C879002802D0521C0A73BE
:1063300007E00120C871FFF7B4FF10BD002008730B
:10634000C8716007F9D501F08BFD04F001FE04F07F
:1063500099FE04F09BFE06F0DCFD10BD10B5006850
:10636000002806D0012807D0022801D104F08AFEB7
:1063700010BDFFF7BAFF10BD04F0EAFD10BDF8B57F
:1063800006464179C14D08306F1CC14C009001296F
:1063900015D0032912D1A07B00280FD02878F288CD
:1063A000C01900990DF014F92878B17940182870B7
:1063B000B44881690122920311438161F8BDB1485B
:1063C000C07B01280BD00428F8D1B179009806F0E1
:1063D00067F9002810D00020A0732060F8BD0120CC
:1063E000A0732060A7606060B0792870F288681C94
:1063F00000990DF0EDF8DBE70120A073206002208A
:10640000A7606060B0792870F288681C00990DF070
:10641000DFF8F8BD08B50168002908D0012907D0C8
:10642000032921D0042902D10830FFF7A8FF08BDB5
:106430009448694620300AF040FA002803D0FF2132
:106440008DA288310EE00098002802D000F0C0FC38
:1064500008BD8C4820300AF008FA0028F8D0FF2147
:1064600085A28E31FFF70CFF8649807AC87308BD7C
:1064700008B5684608F045FF002803D07EA285498C
:10648000FFF7FEFE0098002803D07E4901204870E7
:1064900008BD2DDF08BD10B506F026FB05F090F80D
:1064A000784900208871FFF7E3FF10BD7CB50546F1
:1064B0000024744800940194406A09F09FFCFF2175
:1064C000F531002D0BD00822684602801822428048
:1064D0008480C18009F0CFFE01F0D0FF7CBD402256
:1064E00068460280F02242808480C18009F0C3FEA9
:1064F0007CBD01B5002301226946402007F01CFE47
:1065000008BD3EB55F4C207A032831D1002569468D
:106510000D7001956846029501F0DBFE04E001A8CC
:1065200001F0F6FE6D1CEDB2684600788542F6D3A8
:10653000607B544D3935002811D0A07B6871A07B59
:10654000401CA0732846062201A90C300DF040F82B
:1065500000230E22291D422007F0EEFD04E0062252
:1065600001A9A81D0DF034F8607B0121484060733B
:106570003EBD10B58AB0684671DF002802D03EA249
:10658000454965E06946002070DF002803D0424994
:1065900039A2C91C5CE06946887849780002084342
:1065A0003E490CF0BBFF0024084603940494059474
:1065B0003BA2069406CA039104920A210CF0AEFF96
:1065C0000A46303269460A760A210CF0A7FF0A46CD
:1065D00030326946CA750A210CF0A0FF0A463032F3
:1065E00069468A75303048752D200875112008726B
:1065F00003A80DF011F882B203A902A87CDF0028DD
:1066000003D025491CA2113122E05120800178DFFE
:10661000002803D0204918A2143119E00794402122
:10662000684608948183F021C183FF210484F531F9
:10663000418407A87ADF002803D0AF210EA2890089
:1066400006E0002077DF002804D013490AA2213198
:10665000FFF716FE0AB010BD10B5006800280AD179
:1066600008483B21408A76DF002804D00A4902A26C
:106670004C31FFF705FE10BD2E2E5C6D61696E2E4C
:106680006300000004200020FFFF0000CC2B00204E
:106690006C2E0020E50300009E0200001027000081
:1066A00042726163656C693500000000F64AF74983
:1066B000FFF7E6FD70B515460C460A46064601464C
:1066C000F34807F048F92078112804D10422314614
:1066D000F0480CF07DFFF048854205D1ED482038A8
:1066E0008169222211438161002070BDFEB5E94C11
:1066F0000188203C172979D013DC0025102924D0EB
:106700002246506A127A11294BD0122908D1032A45
:1067100006D109F073FB0022E049606A09F004FB2E
:10672000FEBD192965D0DB482038408A392903D0BD
:10673000522952D05529F3D1132176DF0028EFD00A
:10674000D249D14AAD31FFF79BFD8088608202209B
:1067500007F088FBFF272D3738460AF0B1FFE572B6
:10676000607A0128DCD100950821684601950180F6
:1067700018214180FF268580F536C68009F07BFD13
:1067800038460AF09DFF402168460180F021418093
:106790008580C68009F06FFD657238460AF090FF6B
:1067A000FEBD0126032A02D1667209F027FB207A7A
:1067B000012802D10D2000F0DFFC00202572C0432B
:1067C0006082B448E6720C388078002802D0052038
:1067D00001F064FC032010E008E000221146A9DF6C
:1067E0000028DDD0A949A84A8C31ACE700F0F0FAC6
:1067F000FEBD80790028FBD1012007F033FBFEBDF0
:10680000A44810B50E30807A012806D1A148002195
:106810002038C27A012A01D001712CE70279521C7A
:10682000D2B20271052AF8D10171C172032001F0C0
:1068300035FC092000F0A0FC1DE708B5684608F00B
:1068400060FD002804D095498F4A8139FFF718FD73
:106850000098002804D08F4901202039887008BD95
:10686000B1203CDF2DDF08BD38B5022801D0032858
:1068700014D1884C0020203C217800291BD02070A6
:10688000684608F03EFD002803D084497E4AAE39B0
:106890000FE00098002802D00120207038BD0120B0
:1068A0007F494004086034DF0028F7D07B21764A16
:1068B000C900FFF7E5FC6178002903D06070FFF79D
:1068C000D7FD38BDA178002903D0A070FFF7B5FF30
:1068D00038BDE1780029FBD0E070032007F00CFB05
:1068E00007F04FFA38BD10B504460AF079FA214690
:1068F000674807F038F8204606F0CDFC204609F03E
:1069000077FC2046FFF7F2FEB5E610B5044608F026
:1069100088FA2046FFF7A8FFADE65E4A203A012933
:1069200008D003290DD0022911D104280FD1906974
:1069300080210AE001210E2801D00F2807D190699B
:1069400003E0072803D19069402108439061704714
:106950001CB50446684601F001FA6846C0887D21EE
:106960000901401A20706846007960706846C07856
:10697000A07068468078E0706846407820711CBD41
:1069800010B5002802D001F099FD74E601F076FD03
:1069900071E6F0B504463F480026203885B017461A
:1069A0000D46012C06D0022C09D0052C07D0062C50
:1069B00005D007E00121C16106F0B9F802E0C66127
:1069C00006F0B6F800960196029603962978684676
:1069D000017069784170A9788170C67003202856CB
:1069E00081018000081A04216956401881B2684666
:1069F00081800320385682018000101A0422BA5682
:106A0000801882B26846C280914204D9501A2D2162
:106A10004901401800E0501A694608818C726846A6
:106A200004F05BFE05B0F0BD1A4910B52039C96904
:106A3000002911D117490E31497800290CD00128BD
:106A40000BD000280FD0022806D10121282005F004
:106A50000BFC0D20FFF74DFD0DE604F0ABF8002810
:106A6000FAD104200CE00F480068002803D00E483B
:106A700000680428F0D104F09DF80028ECD105202E
:106A800000F07AFBF7E5000078660100F5020000EF
:106A9000BC2B002024200020438000007B04000049
:106AA00014070050902000209820002010B5F94CC9
:106AB000A069C004A06906D5012109038843A0612B
:106AC00006F055F8D7E58004A06906D501214903F1
:106AD0008843A061FFF709FCCDE5C006A06905D594
:106AE00010218843A06106F036FCC4E54006A06989
:106AF00005D540218843A06100F074F9BBE540044E
:106B0000A06909D5012189038843A061E0690028B3
:106B1000D8D100F0F9FBAEE5000606D505F056F930
:106B2000A06980218843A061A5E5A069C105D94875
:106B3000A169807907D5FF2201329143A161002824
:106B4000C0D1022010E08905A16910D501225202AE
:106B50009143A161E17962791142B3D1002802D059
:106B6000FFF799FC87E5032000F006FB83E5490564
:106B7000A16906D5012292029143A1610028A1D109
:106B8000F2E7090508D5A1690122D2029143A1616A
:106B9000002897D10120E7E7A0698107BD48A169D6
:106BA000408A05D502229143A161132176DF62E577
:106BB000890608D5A06920218843A061B548103016
:106BC00009F019FF57E5A1694A07B3490ED5884274
:106BD0008BD1A06904218843A06105F085FF04F0F2
:106BE00031FC00F05CFFFFF743FC44E5A2691207AB
:106BF00012D588428FD1A06908218843A061A021C5
:106C0000A6480CF0FEFC05F06FFF04F01BFC00F042
:106C100046FFFFF712FE2EE50020A06108F05AFEA5
:106C200000F0ECF927E59E4988B0012048609D49B5
:106C30000320086001259C4C6D07A560FF202D30C6
:106C40000AF03EFDE56000F000F90024934B0A22B3
:106C5000A03309212046009408F0CCFF002802D080
:106C6000924A93498FE08B48924A0121243009F0DF
:106C700014F8914902200AF0ADFD002802D08B4A99
:106C80008E4980E001F032F8002828D000F005FCA1
:106C900004F026FE04F0A6FF05F09AFA00F0D2FEFA
:106CA00000281FD001F091F9002820D001F0F5FA5A
:106CB000002820D000F04AFA002820D004F0BAFAC8
:106CC000002820D000F06CF97D4A1421082008F03B
:106CD00077FD00281BD07949744A2E3953E0734A56
:106CE000784902E0714AB721C90000204BE075499C
:106CF0006E4A891DF9E773496C4AC91DF5E7714968
:106D00006A4A0831F1E76F49684A0931EDE700F056
:106D100010F9FFF72EFC00F0EAF81C2168460CF091
:106D200070FC0520C00301900F2000040290009425
:106D3000022168460173C481047463480590634866
:106D40000690684609F0FFF9002803D0C321574A8E
:106D5000890018E004F0C4FD05F05BF900F058F973
:106D600004F0F6F804F08EF905F042FC03F0BFFFE2
:106D70004848002204214C3000F070FD002804D067
:106D80004B214A4A0901FFF77BFA00F093FD00F01E
:106D9000C2FF00280BD005F06DFE0A2000F0ECF9D0
:106DA0003C4CA069002806D0FFF780FEF9E7454972
:106DB0003E4A203199E708F08DFD00F01FF9F0E719
:106DC000BFF34F8F43494248C860BFF34F8FFEE780
:106DD000394810B5283006F0A9FE3748283006F0AB
:106DE000AFFE48E410B5304800690006C00F01D07E
:106DF000012100E000212748427991420FD04171E2
:106E000000290DD0002181722E300079002800D099
:106E100001200CF0E9FA03F06AFF05F05BFA2AE4BE
:106E2000012181728079002801D0FFF734FB002016
:106E30000BF026FA00200CF0D7FA042001F02EF90E
:106E40000021322005F0D4F915E410B50024132CEC
:106E500042D009DC072C15D010DC042C12D0052CF4
:106E60000ED0062C0AD10BE02046143803000CF09B
:106E70005BFC08050509050505070705012102E07A
:106E8000002100E00321204600F0F4F8641C202CCF
:106E9000DDD3C2E404200020FFFF0000BC2400205A
:106EA000400500407407005000050050786601005E
:106EB0008A02000003650100942B00209F0400005B
:106EC000442A0020B305000059660100AD660100A8
:106ED0000400FA0500ED00E0694A0320A1008918CA
:106EE000086001206749A0408860641CAFE71FB5B7
:106EF00065484268016801920091C1688068039109
:106F0000029002A9614806F093FD002803D02D21CC
:106F10005F4A090108E069465E4806F0EDF800287E
:106F200004D0B5215A4A8900FFF7AAF906F0A6F95C
:106F30001FBD1FB507F0DCFF002802D0544A564998
:106F40002BE001246846047303A809F0FDFB002828
:106F500003D0CD214E4A89001FE001A8062102304E
:106F60000CF04FFB1E206946C880087AE1212043BF
:106F700008400C30DF21084069460872072048723B
:106F800010208872454800900C71454809F033FC88
:106F9000002804D040493E4A1531FFF771F91FBD62
:106FA00038B540480124C463002350223E490820DC
:106FB00009F0E0F9002802D0354A3C491BE00020E6
:106FC00000906846047060DF002803D03749304ADB
:106FD000C91D10E0364809F0EAF9002803D033490A
:106FE0002B4A0B3107E0334809F0E9F9002804D0B7
:106FF0002E49274A0F31FFF743F938BD10B540DF5E
:10700000002804D02949224A5F31FFF739F904E406
:1070100000B587B00AF0AAFC27480CF006F827480C
:107020000BF0FEFF26480CF007F826480CF05BFA40
:107030001B486946183082780A8064220A810079E8
:10704000002800D00120019008460988818101981C
:10705000049068460189818203A807C80CF002F8F1
:107060000F481E300079002800D001200CF0BCF938
:1070700007B000BD024A8900800080180160704797
:107080000007005000050050343C0200BC2B0020DB
:1070900078660100DC2F00202E030000B566010099
:1070A0001420002040000040F42900205A04000071
:1070B000E76801000B690100516901008169010065
:1070C00093690100296A010070B5A3480025007882
:1070D000A24C002800D0E560A068122800D3A5606B
:1070E000A0689F49C0004618E06800280DD02078AD
:1070F000012148402070E068401EE060A16860689F
:10710000884216D0A068606017E06570257000F0B6
:1071100031FC00F0C4FCA0680A2804D2A06803284F
:1071200001D0A56070BDA0680328FBD105F07BFDF0
:1071300070BD04F09DFE002801D130688047012118
:1071400000228903206908F0EFFD70BD834810B567
:10715000844A0021103008F0A0FD002801D0002052
:1071600010BD7E4800218160C160012010BD7B48B8
:1071700000218160C160704770B50546764800788F
:10718000002824D1754CA068122801D30020A060EB
:10719000206908F033FEA0687149C00046182846EF
:1071A00003F019FD002802D171682846884700F0D5
:1071B00073FC002803D106F055FE00F056FC606910
:1071C0006561A06100226849206908F0ADFD70BDCD
:1071D000F0B58FB0002668460670644C0685A56839
:1071E000002D7DD0206800287AD0A68160480C90C0
:1071F000FF3001300B905F480178401C0F1804F0FD
:107200009BFE00287CD075E028780146C0392029F3
:1072100005D2791B012902DCA66026606CE0E0380B
:10722000102802D2781B0228F6DD0AA9284604F0AD
:10723000A8FE0D9000280DD06A4601A9108D04F01B
:10724000CFFE002854D068460079102804D02028AA
:107250001DD04DE06D1C4DE0A089FF2108300131AB
:10726000884201D9A56047E0A08101A90822013127
:107270000C980CF0ADF903A9082201310B980CF021
:10728000A7F90C9808300C900B9808302FE0A089D3
:10729000F82801D078280FD10830A08108210C9857
:1072A0000CF0AFF908210B980CF0ABF90C980830F2
:1072B0000C900B9808300B90A089FF211030013101
:1072C0008842CFD8A08101A9102201310C980CF07E
:1072D0007FF905A9102201310B980CF079F901E032
:1072E00010E00DE00C9810300C900B9810300B90C3
:1072F0000D982D18BD4287D304F02FFEBD4201D357
:10730000A66026600FB0F0BD10B503F053FC002856
:1073100001D003F055FC15484068012806D002282A
:107320000AD004F0D7FF00F017FF10BD052114208C
:1073300004F05EFF012004E00521142004F058FF52
:10734000022000F0ABFE0820FFF716FF10BD074833
:1073500000210160816070470A2000208420002005
:10736000443C0200C9700100CD0C00006C2E0020CE
:107370006C2C0020CC2B0020F8B50C214843FF4E8C
:10738000074680190090017901242046FC4D884071
:10739000E860F15D20468840A8602046FEF79AFE2E
:1073A0000098017920468840A860E861F05D84403B
:1073B000EC61F8BD70B50C22F04E504382190123E8
:1073C00055681C46EE4AAC409461305C8340D36003
:1073D00080200E46064201D0946000E0D46000BFD9
:1073E00000BF00BF00BF936000BF00BF00BF00BF71
:1073F000D3604008EDD1D461936000BF00BF00BFEF
:1074000000BF1069D360E840C007C017401C9461FA
:1074100070BDF3B504460C204443D8480025271816
:107420003A7901239340D64A81B0D3618026D3486C
:107430000121005D8140D248816000BF00BF00BFD4
:1074400000BF02693B79DA40D20701D03543EDB283
:10745000C1600120FEF73EFE00BF00BF00BF00BFBD
:107460007608E4D13A79012108469040C44AC34BDA
:107470009061029E002E01D0D06000E0906000BFBD
:1074800000BF00BF00BF185D8140916000BF00BF1A
:1074900000BF00BFD1602846FEBDF8B5B74E00273B
:1074A00037721820306017207060B749B5480862FD
:1074B000C8610124B24D2006A861A8604010E861AF
:1074C0002046FEF707FE28697168C840C00718D13A
:1074D00020468840A861317820468840E860012035
:1074E000FEF7F8FD00BF00BF00BF00BF30782146A7
:1074F0008140A9600120FEF7EDFD7F1CFFB2092F3E
:10750000E9D3317820468840A860A86131792046C7
:107510008840A860A861002030750D20F0600C2024
:107520009949306197484039486308630120400316
:10753000A861A8604010E8610120FEF7CBFD296931
:107540003069C140C90719D121468140A96100278E
:10755000317B20468840E8600120FEF7BBFD00BF7C
:1075600000BF00BF00BF307B21468140A9600120E1
:10757000FEF7B0FD7F1CFFB2092FE9D3317B204617
:107580008840A860A861317C20468840A860A86136
:107590007A4800212030009001700820B061092055
:1075A0007949F0617748403908624862FF2001302C
:1075B000A861A8604000E8610120FEF78BFD296901
:1075C000F069C140C90719D121468140A96100274E
:1075D000317E20468840E8600120FEF77BFD00BF39
:1075E00000BF00BF00BF307E21468140A96001205E
:1075F000FEF770FD7F1CFFB2092FE9D3317E2046D4
:107600008840A860A861317F20468840A860A861B2
:107610000099002008730220706203205A49B0626A
:10762000584840398860C8600420A861A8600820D4
:10763000E8610120FEF74EFD2969B06AC140C90723
:1076400019D121468140A9610027B18C204688408C
:10765000E8600120FEF73EFD00BF00BF00BF00BF95
:10766000B08C21468140A9600120FEF733FD7F1CCC
:10767000FFB2092FE9D3B18C20468840A860A861E9
:10768000308D8440AC60AC61F8BDFFB581B01C4664
:10769000150013D001980C2148433849012247189E
:1076A0003A72019800F054F802990198FFF782FEAF
:1076B000060023D00298C0070BD118E0012005B0C6
:1076C000F0BD002C0BD001210198FFF7A2FE28701D
:1076D0006D1C2046641EE4B20028F2D10EE00021A9
:1076E000F2E729780198FFF765FE06406D1C2046F9
:1076F000641EE4B2002801D0002EF2D10A9831466F
:10770000814302D10198FFF737FE002038723046DE
:10771000D5E7FFB5012481B01F4615460E46002966
:1077200007D10120CBE731780198FFF743FE0440F1
:10773000761C28466D1EEDB2002801D0002CF2D137
:107740002046B84302D10198FFF716FE2046B6E75F
:10775000F8B50C214843094E07468019009001797D
:10776000012420468840064D0146A861F25D20466E
:107770009040A861A960A860204607E0902E0020F4
:10778000000500500C06000040070050FEF7A2FC68
:107790000098017920468840E8600120FEF79AFCB5
:1077A000F05D8440EC60F8BD10B54D4A9368002B45
:1077B0000BD004780A46806821469847002803D0F9
:1077C00048A21A21FEF75CFD10BD022908D001294C
:1077D0000CD00329F8D1027883681046984710BD71
:1077E0000378826802211846904710BD0278012173
:1077F0008368F2E7F3B5002481B00F460125384EC7
:1078000028E00C207168604340184178022904D0B8
:10781000012909D003290FD01AE001782A468A40AD
:107820003A4215D0022111E0027829469140019A8E
:1078300011420DD0012109E00278294691400A4603
:107840003A4202D1019A114202D00321FFF7ACFF64
:10785000641CE4B230788442D3D3FEBDF8B5204B2B
:10786000154658600024197022469D6016E00C23CE
:107870004B431B181E785D68B7001F4EAD00BE1944
:1078800035605D78AE0703D51F780126BE403243D0
:10789000ED0703D01D780123AB401C430B46491E66
:1078A000C9B2002BE3D10E48144B2146401C09F00D
:1078B000B8FFF8BD10B50A484168002903D04078E8
:1078C00009F0D2FF10BD082010BD10B50448416872
:1078D000002903D040780AF008F810BD082010BD38
:1078E000A02000202E2E5C68616C5C6170705F6966
:1078F0006E7470696E2E630000070050F57701000A
:107900001CB5002269460A714871012000900223CB
:1079100001AA78210020FFF7B8FE002800D001203E
:107920001CBD7CB50C460546402069460871002008
:10793000012301AA78210090FFF7A7FE0123224628
:1079400029460020FFF7E5FE002800D001207CBD7D
:1079500010B50446B031C8B2FFF7D2FF0020FFF7E0
:10796000CFFF1020FFF7CCFF80212046FFF7D9FF83
:10797000012010BD00B5A1B0802168460BF041FE8A
:1079800000216846FFF7E4FF01216846FFF7E0FFAA
:1079900002216846FFF7DCFF03216846FFF7D8FFA6
:1079A00021B000BD10B5AE20FFF7AAFF0020FFF701
:1079B000A7FF1020FFF7A4FF0020FFF7A1FFB020D2
:1079C000FFF79EFF8120FFF79BFFFF20FFF798FF47
:1079D000A120FFF795FFA620FFF792FFA820FFF751
:1079E0008FFF1F20FFF78CFFC820FFF789FFD320F0
:1079F000FFF786FF0020FFF783FFD520FFF780FF0A
:107A00008020FFF77DFFD920FFF77AFF0420FFF7E2
:107A100077FFDA20FFF774FF0220FFF771FFDB200A
:107A2000FFF76EFF3020FFF76BFF8D20FFF768FF39
:107A30001420FFF765FFA420FFF762FFFFF79AFF0E
:107A4000012010BD70B51A49032008600125194CAA
:107A50006D06A5606420FEF74DFBE5606420FEF72F
:107A600049FBA560FFF79EFF70BD10B5AF20FFF783
:107A700047FF11480078002804D0C820FFF740FFD6
:107A8000A12003E0C020FFF73BFFA020FFF738FF55
:107A90000A490120087010BD08480078704710B5E9
:107AA000AE20FFF72DFF054900200870012010BD12
:107AB000640700500005005080200020AC2000200A
:107AC000F1B5FA4886B080680026F9490BF026FD2A
:107AD0000C4605463C2120460BF020FD684601700F
:107AE000E121090120460BF019FD044608463C211E
:107AF0000BF014FDC1B2684641700291E1B2817091
:107B000003917D210901FF27ADB2C180913711E0BA
:107B10000499002926D0642120460BF0FFFC00299F
:107B200001D0A0071ED0FF206E30281A85B2641C39
:107B30006846C480C088394604460BF0EFFC0491C7
:107B4000002912D0642120460BF0E8FC002901D066
:107B5000A0070AD0FF206E30A842D9D9002069467C
:107B6000087119E0FF206F30DFE7FF206F30F3E787
:107B70000499002935D0642120460BF0CFFC002960
:107B800001D0A0072DD00020394600F0C9F9281AED
:107B900085B27F1C684607710499002923D06421AF
:107BA00020460BF0BBFC002901D0A0071BD0002011
:107BB000694609790F4600F0B3F9A842D8D9E9B26D
:107BC0006846C170B9481430C278914207D16946FD
:107BD00009790279914202D1C1888C4205D00726E9
:107BE0000EE00120D0E70120E2E78278039991427C
:107BF00001D0032604E040780299814200D001269A
:107C00000698002807D0A948C660AA480168012242
:107C1000520311430160A5480822694614300BF055
:107C2000D7FC07B0F0BDF8B5A04C01252079A249DA
:107C3000684020710978002906D1A049401E0968D2
:107C4000014201D100F09AFC207900284DD0A068B3
:107C5000401CA06002F0AEFF00280ED00A21A068F0
:107C60000BF05CFC002902D1062000F017FA04F0AA
:107C700031FB03210A2004F0F7FA91480178012929
:107C800002D1E178491CE170E17800260A2901D986
:107C90000670E6708B4F3878042803D101200BF072
:107CA0002AFCA5703878002802D10BF024FCA670BD
:107CB000FEF7A6FD20783B2804D326700120FFF7AD
:107CC000FFFE01E0401C207003F00AFE7A480078B5
:107CD00000280AD106F0F4F82079002805D004F035
:107CE000D6FF002801D005F005F8F8BD10B56F49A2
:107CF000002088606D48082114300BF082FC6B482E
:107D0000714A0121103007F0C8FF002801D000207F
:107D100010BD012010BD654810B51430017814382D
:107D20000170012100228903006907F0FDFF00288E
:107D300001D0002010BD012010BD10B55B480069C6
:107D400008F05CF8002801D0002010BD012010BD13
:107D5000564988607047554880687047534910B548
:107D6000082214310BF034FC10BDF8B504468078BD
:107D70003C2148436178E57840183C21484321780C
:107D800046180427E75716E0E088FF21913100905C
:107D90000BF0C4FB002916D0642100980BF0BEFB49
:107DA000002902D0009880070DD00020F9B200F021
:107DB000B7F8401985B27F1E7FB2002FE4DA7D2725
:107DC000E4883F0114E00120F0E7FF2191312046D3
:107DD0000BF0A4FB002913D0642120460BF09EFB7E
:107DE000002901D0A0070BD0FF206E30401985B2CA
:107DF000641EA4B2BC42E8D22D484543A819F8BD80
:107E0000FF206F30F2E770B5284904461431E2785C
:107E1000CB7800209A4207D122790B799A4203D17C
:107E2000E288CB889A4200D00720A2788B789A42C9
:107E300001D003221043627849788A4201D001219F
:107E400008431A4D21782970E8602046FFF78DFF1E
:107E5000A86028460822214614300BF0B9FB70BDFB
:107E6000F8B512481430C77804797F1CC688002CF6
:107E70002CD0012C2AD0642130460BF04FFBC5B228
:107E800064206843301AC6B2A41C1A2060430A2139
:107E90000BF044FBB2089219AB08D2186B00C0B2C9
:107EA000D21AF9B210184018801E20E0B02000202D
:107EB000805101001C2000200A20002020200020EA
:107EC0000E2000200C200020277C0100701E642161
:107ED0000BF03AFBC5B264206843301A401EC6B2AC
:107EE00020460E301A214843D1E7C01D00B20028B9
:107EF000FBDB07210BF028FB0620401A1049C0B21B
:107F00004870F8BD0E48407870470D49CA6800288F
:107F100001D00020C860104670470948807870473B
:107F200002461F20012907D0062901D9491EC9B2DE
:107F3000C90700D01E2070471C32D0B27047000025
:107F4000B0200020F8B5974E306807F057FF964CE8
:107F5000351D607AE979002788420AD31D2000F098
:107F600015F91D2000F019F9904904200860EF71FF
:107F7000F8BD012022684107002A0ED06268012A5C
:107F80000FD0227A521CD2B22272AB799A4212D20C
:107F9000606087488160298808E0206060602772FF
:107FA000F7E71D20676000F0F8F869880022306864
:107FB00007F0BAFEF8BD2760A9880022306807F0F4
:107FC000B3FE607A401C6072F8BD10B5774904209A
:107FD0000860784A0021734807F05FFE002801D04E
:107FE000002010BD012010BD072A00D30522112852
:107FF00000D30020002900D101215300694A0C322E
:10800000D054981841707047F3B5664E044681B05D
:10801000306807F0F3FE1D2000F0B8F81D2000F0D6
:10802000BCF8112C00D300246349E00044182088D8
:10803000FF23410CC003F5330022C01851415F00FB
:108040003A4600230BF094FA564D7B102D1D2880E4
:1080500060880022410CC003C01851413A460023F9
:108060000BF086FA6880A079A871A0887B10410C7B
:10807000C003C018002251413A4600230BF078FAA1
:10808000A8800298E871484900200860486088602C
:1080900002463221306807F047FEFEBDF8B50446BF
:1080A0004648474900780978084046490978084316
:1080B00051D13C4F386807F0A1FE072C00D30524AE
:1080C000384866000C30805D112801D33A4C02E03C
:1080D0003949C00044181D2000F058F81D2000F058
:1080E0005CF82088FF23410CC003F5330022C01840
:1080F00051415A0000230BF03BFA2A4DFF232D1D5E
:1081000028806088F533410CC0030022C01851411B
:108110005A0000230BF02CFA6880A079A871A0887F
:10812000FF23410CC003F5330022C01851415A000F
:1081300000230BF01DFAA88028460830301840783C
:10814000E8711949002008604860886002463221C1
:10815000386807F0E9FDF8BD10B51248006807F06F
:108160004DFE10490020091DC8711D2000F00EF8B9
:108170001D2000F012F80D490420086010BD0948C8
:10818000001DC079002800D001207047074A032154
:108190008000743A801801607047012181400448D2
:1081A000C1607047CC200020C02E00207407005012
:1081B00000050050457F0100D43C02000B20002048
:1081C000092000200A2000201CB5202168460171EA
:1081D000472141710124022301AA32212046009443
:1081E000FFF753FA002838D023216846017108218F
:1081F0004171022301AA322101200094FFF745FAC0
:1082000000282AD0242168460171402141710223AF
:1082100001AA322101200094FFF737FA00281CD070
:1082200025216846017100214171022301AA3221F2
:1082300001200094FFF729FA00280ED02E2168466D
:10824000017199214171022301AA32210120009478
:10825000FFF71BFA002800D001201CBD1CB50F2021
:108260006946087100200123009001AA32211846B6
:10827000FFF70BFA00280DD00120034601AA332195
:108280000090FFF702FA002804D0684600793328EE
:1082900001D000201CBD01201CBD10B5FFF794FFCC
:1082A000002804D0FFF7DAFF002800D0012010BD1D
:1082B0001CB520216846017108214171012002236B
:1082C00001AA32210090FFF7E0F9002800D0012038
:1082D0001CBD1CB504462F206946087100200123EF
:1082E000009001AA32211846FFF7CFF900280ED0DE
:1082F0000120034601AA33210090FFF7C6F90028A8
:1083000005D068460079C006C00E207001201CBD53
:108310003EB50446A820694608710020012300905C
:1083200001AA32211846FFF7B0F9002818D0012021
:10833000062301AA33210090FFF7A7F900280FD0E8
:1083400068460421415E0811208068460621415E8E
:108350000811608068460821415E0811A080012054
:108360003EBD7CB5044631206946087100250123D5
:1083700001AA322118460095FFF787F9002826D078
:108380000126334601AA332130460096FFF77DF9D6
:1083900000281CD068460079410619D5C10701D0D4
:1083A000266013E0810701D525600FE0410701D564
:1083B00003200AE0010701D5022006E0C10601D52D
:1083C000052002E0800601D50420206001207CBD4C
:1083D00000207CBD1CB539206946087100200123AE
:1083E000009001AA32211846FFF74FF900280ED05D
:1083F0000120034601AA33210090FFF746F9002827
:1084000005D0684600795121084000D001201CBDEC
:108410001CB53A2269460A7148710120022301AA5B
:1084200032210090FFF731F9002800D001201CBD57
:108430001CB538246B461C7100245C710123002894
:1084400001D068464371002905D069464879042166
:10845000084369464871002A05D0694648791021C9
:108460000843694648710093022301AA3221012082
:10847000FFF70BF9002800D001201CBD1CB52021FE
:1084800068460171472141710124022301AA32216A
:1084900020460094FFF7F9F800280ED02E216846F8
:1084A000017199214171022301AA32210120009416
:1084B000FFF7EBF8002800D001201CBD1CB52021DF
:1084C00068460171272141710124022301AA32214A
:1084D00020460094FFF7D9F800280ED02E216846D8
:1084E00001719F214171022301AA322101200094D0
:1084F000FFF7CBF8002800D001201CBD7CB5382642
:1085000022210025012400286846017134D0C021B1
:108510004171022301AA322101200094FFF7B5F82E
:10852000002828D03B2168460171042141710223B3
:1085300001AA322101200094FFF7A7F800281AD0E1
:108540003C216846017108214171022301AA3221B0
:1085500001200094FFF799F800280CD068460671B6
:108560004571022301AA322101200094FFF78DF802
:10857000002800D001207CBD4571E6E73EB500240F
:1085800069460C701048019402940078002819D1B3
:108590000E480078032815D00846FFF79AFE0DE034
:1085A00001A8FFF7B5FE6B460822062104209A5E5B
:1085B000595E185E0AF0F1FC641CE4B2684600786B
:1085C0008442EDD33EBD00000A2000200C20002094
:1085D00010B50023FE4A00280BD0148A8C4209D122
:1085E000116801605168416091688160D168C16023
:1085F000012010BD5B1C1432DBB2172BEDD3002021
:1086000010BDF0B5FFB08EB000252C4642A8FFF794
:10861000A5FB40A8007B0C280BD240A8C07A1F28DD
:1086200007D240A8807A3C2803D240A8407A3C2850
:1086300004D3E8A2ED490020FDF722FE8021684620
:108640000AF0DFFF802120A80AF0DBFF80214CA880
:108650000AF0D7FF80216CA80AF0D3FFE448C07865
:10866000002806D040A8807A0C2802D90C3840A9EE
:1086700088720026409640A84196437A827ADDA10E
:108680000BF03EF840A80AF0C7FFC7B267E040A869
:10869000405D3A2827D030380006800DD8494490F4
:1086A00009586846001912220AF092FFD4494498EA
:1086B0003431095820A8001912220AF089FFD04944
:1086C0004498683109584CA8001912220AF080FF1A
:1086D000CB4944989C3109586CA8001912220AF021
:1086E00077FF123438E0C748007800281FD0C4480C
:1086F0000822816A684600190AF06AFFC048082209
:108700003430816A20A800190AF062FFBC480822B0
:108710006830816A4CA800190AF05AFFB84808224C
:108720009C30816A6CA800190AF052FF13E0684679
:10873000001908210AF065FF20A8001908210AF095
:1087400060FF4CA8001908210AF05BFF6CA8001913
:1087500008210AF056FF08346D1CE4B2EDB2BD42A8
:1087600095D3A94860AD016814A84A9034A880AC9C
:108770004990002929D01F22A4494A980AF028FFCD
:10878000A2491F221F3949980AF022FF9F491F2240
:108790003E3928460AF01CFF9C491F225D392046BD
:1087A0000AF016FF00216846FFF7D2F8012120A841
:1087B000FFF7CEF802214CA8FFF7CAF803216CA8F6
:1087C000FFF7C6F87FB00EB0F0BD04F037FC00280C
:1087D0007ED0409640A84196C37A027B5B1C521C17
:1087E0008BA10AF08DFF40A80AF016FF5225C6B2F1
:1087F000002419E040A8005D2F2828D03038C0B2EE
:10880000870086480622C1594CA840190AF0E0FEAC
:10881000824806222C30C1596CA840190AF0D8FEB3
:10882000AD1D641CEDB2E4B2B442E3D3FFF775FBB7
:1088300000280ED066491F2281394A980AF0C8FEE6
:1088400063491F22A03949980AF0C2FE36E00A2087
:10885000D6E773480078002824D01F2271494A982F
:108860000AF0B6FE6F491F221F3949980AF0B0FE80
:10887000552402F067FA0646002520AF0FE068464F
:108880000019042268490AF0A3FE67493819042236
:10889000091D0AF09DFE241D6D1CE4B2EDB2B54227
:1088A000EDD30BE05F491F226E314A980AF090FE2B
:1088B0005C491F224F3149980AF08AFE5B4868AE36
:1088C000007888AD032816D059485A49008800E03E
:1088D0004AE0544C973C884223D02246803A1046C6
:1088E0007830916F8368D26FC0681CAF0EC71F903D
:1088F00008340FCC20E03649102262391CA80AF057
:1089000067FE3349102252393CA80AF061FE304913
:108910001022423930460AF05BFE2D4910223239CE
:108920001EE005F0C5FA002809D1204638300FC8EE
:108930001CAF0FC748340FCC3F933CAB07C3FFF7C6
:10894000E1FA0621081A0006840D2D48102270381D
:10895000015930460AF03CFE29485438015910228A
:1089600028460AF035FE1DE74BA84B9604F03EF969
:108970004B98817844A8FFF72BFE1F2244994A9810
:108980000AF026FE1F22459949980AF021FE1F226F
:10899000284646990AF01CFE1F2220464799E0E728
:1089A000F0B5FFB090B000246846FFF7D7F96846ED
:1089B00000790C280BD26846C0781F2807D2684679
:1089C00080783C2803D2684640783C2839D333E08D
:1089D000004802002E2E5C68616C5C6170705F6400
:1089E0006973705F706167652E6300003C0C000066
:1089F00032200020253032643A25303264000000F5
:108A00006021002084200020202000205941020005
:108A1000253032642F2530326400000020230020EE
:108A20000920002073460200643D02000C20002053
:108A300016200020FFFF0000FB4AFC490020FDF744
:108A40001FFC80216EA80AF0DCFD80214EA80AF0F0
:108A5000D8FD80210EA80AF0D4FD80212EA80AF0AE
:108A6000D0FDF348C078002806D0684680780C28EE
:108A700002D90C386946887068460679ED4D092E92
:108A80002EA808D31022EC490AF0A2FDB00040192C
:108A90004038C16907E0E849102210390AF098FD12
:108AA000B000401941680EA810220AF091FD6846F6
:108AB000C0780A21401C0AF031FD00060E46800DE8
:108AC00029584EA810220AF083FDB00029586EA83C
:108AD00010220AF07DFD684680780A210AF01EFD0A
:108AE0008700D64D059133A8E959023020220AF0BB
:108AF0006FFD2E46283E13A8F159023020220AF0BD
:108B000067FD059953A88F00E959023020220AF029
:108B10005FFD73A8F159023020220AF059FDC848C0
:108B20005BAF01781BA80230023700290AD004226B
:108B3000C4490AF04DFDC34938460422091F0AF012
:108B400047FD06E004210AF05CFD384604210AF0E6
:108B500058FD684640780A210AF0E0FC870005913C
:108B60003CA8E959023020220AF032FD1CA8F15934
:108B7000023020220AF02CFD05995CA88F00E959EB
:108B8000023020220AF024FD7CA8F1590230202274
:108B90000AF01EFDAC4886AE016826A866AD46AF59
:108BA0000790002915D030461F22A8490AF010FD71
:108BB000A64928461F221F390AF00AFDA3491F2291
:108BC0003E3907980AF004FDA0491F2238465D3956
:108BD00070E004F033FA00286FD09D480078032835
:108BE00023D0FFF78FF90621081A0006800D994956
:108BF00008900958384610220AF0EAFC954908986E
:108C00001C390958102207980AF0E2FC924893494F
:108C10000088884220D02846102291490AF0D8FCCA
:108C20008F4910223046103924E083493046102203
:108C300050390AF0CDFC80492846102240390AF00C
:108C4000C7FC7D491022303907980AF0C1FC7A49E7
:108C50001022384620390DE005F02AF900280BD102
:108C60007F492846102240310AF0B2FC7C49304648
:108C7000102230310AF0ACFCFFF74FF98AAB6AAF33
:108C80002AAE4AAD002819D06B4918460C229A39F1
:108C90000AF09EFC684938460C22A6390AF098FC76
:108CA000654930460C22B2390AF092FC62492846E6
:108CB0000C22BE390AF08CFC8DE0D5E069480078C2
:108CC0000028184678D066490C22B2310AF080FCA0
:108CD000634938460C22A6310AF07AFC60493046D6
:108CE0000C229A310AF074FC5D4928460C228E3120
:108CF0000AF06EFC732502F025F880220721052872
:108D000009D0F82604281FD0032832D0022844D0E6
:108D1000012852D05FE00EA82EAB5A5D641C0A43B6
:108D20005A55465DFF22164346554EAE775DE4B276
:108D3000174377556EAA565D80273E4356556D1CE6
:108D4000EDB2062CE9D346E04EA80EAA2EAB5E5D2E
:108D5000FF270E435E55565D641C3E435655465DE7
:108D6000F8273E4346556D1CE4B2EDB2062CEED317
:108D700031E00EA82EAB5E5DFF270E435E55465DCB
:108D8000641C3E4346554EAE775DE4B217437755BB
:108D90006D1CEDB2062CEED31DE00EAA2EA8435D8D
:108DA000641C0B434355535DE4B2334353556D1C70
:108DB000EDB2062CF3D30EE020E00EAB2EA8465DFC
:108DC000641C0E4346555E5DE4B216435E556D1C51
:108DD000EDB2062CF3D300216EA8FEF7B9FD0121F8
:108DE0004EA8FEF7B5FD02210EA8FEF7B1FD032146
:108DF0002EA8FEF7ADFD7FB010B0F0BD0E490C22DD
:108E0000CA390AF0E5FB0C4938460C22D6390AF07B
:108E1000DFFB094930460C22E2390AF0D9FB06494A
:108E20000C222846EE3945E7D4890100E20C000007
:108E30003220002078230020EE4702005822002034
:108E400084200020603D02002020002059410200C3
:108E50000C2000204421002016200020FFFF0000ED
:108E600004460200092000200020029002A803F01E
:108E7000BDFE0298817808A8FFF7AAFB30461F22A2
:108E800008990AF0A5FB28461F2209990AF0A0FBC1
:108E90001F220A9907980AF09BFB38461F220B995C
:108EA00008E710B5FE480078002802D0FFF7A9FBBC
:108EB00010BDFFF775FD10BD70B5FA49062409789D
:108EC000F94DFA4E032922D0022812D00ADC0028DC
:108ED00001D0012814D12C60FEF7DEFD00280FD050
:108EE00004200CE004280CD00A2809D12C600D20A5
:108EF00005E02C60FEF7D0FD002801D00120306095
:108F000070BDFEF7C9FD0028FAD12C6070BD0328A2
:108F100022D00CDC002818D001280FD00228F5D16F
:108F20002C60FEF7B9FD0028F0D001201AE00428DB
:108F3000E7D00F28EAD12C600020E0E72C60FEF794
:108F4000ABFD0028E2D00B200CE02C60FEF7A4FD66
:108F50000028DBD00A2005E02C60FEF79DFD0028EC
:108F6000D4D00720FDF7C5FA70BDF0B5FFB084B0CE
:108F70000025802121A800950AF043FB802141A80B
:108F80000AF03FFB802161A80AF03BFB802101A889
:108F90000AF037FB684603F014FE00980621846847
:108FA00081A80AF02EFBC248844211D3C1488442F2
:108FB00002D3C14A092306E07D21C90020460AF0F8
:108FC000ADFA82B20B46BDA181A80AF099FB04E07C
:108FD0002246BCA181A80AF093FB81A80AF01CFBE1
:108FE000C6B2052E00D905260520801B1221484354
:108FF0001F30C4B229E081A8405D2C2851D0303800
:109000000006870DA64812227830C15921A8001900
:109010000AF0DEFAA2481222AC30C15941A8001968
:109020000AF0D6FA9E481222E030C15961A8001910
:109030000AF0CEFAA4481222C15901A800190AF078
:10904000C7FA12346D1CE4B2EDB2B542D3D31F227D
:109050009E4921A80AF0BCFA9C491F221F3941A849
:109060000AF0B6FA99491F223E3961A80AF0B0FA0F
:1090700096491F225D3901A80AF0AAFA002121A809
:10908000FEF766FC012141A8FEF762FC022161A8FF
:10909000FEF75EFC032101A8FEF75AFC7FB004B086
:1090A000F0BD01A80019082289490AF091FA083494
:1090B000C8E7F8B5002706247B4D7C4E002809D070
:1090C000012807D0022808D0042805D1FEF7E4FCC7
:1090D000002801D12C603760F8BD2C60FEF7DCFC65
:1090E0000028F9D002203060F8BDF0B5FFB084B0A0
:1090F0000025802102A80AF084FA802122A80AF023
:1091000080FA802142A80AF07CFA802162A80AF045
:1091100078FA03F073FD0021009101910A210AF011
:10912000FDF9024667A168460AF0EAFA68460AF0C5
:1091300073FAC6B2052E00D905260520801B122120
:1091400048431F30C4B227E06846405D12223038E1
:109150000006870D52487830C15902A800190AF05C
:1091600037FA594812226838C15922A800190AF062
:109170002FFA554812223438C15942A800190AF072
:1091800027FA51481222C15962A800190AF020FAA0
:1091900012346D1CE4B2EDB2B542D5D34B491F2257
:1091A0007C3102A80AF014FA48491F225D3122A836
:1091B0000AF00EFA45491F223E3142A80AF008FA89
:1091C00042491F221F3162A80AF002FA002102A8B8
:1091D000FEF7BEFB012122A8FEF7BAFB022142A83E
:1091E000FEF7B6FB032162A8FEF7B2FB56E7F8B51F
:1091F000002406252C4E2D4F002809D0012807D029
:10920000022805D0042805D1FEF746FC002801D12C
:1092100035603C60F8BDF0B5FFB092B0002628A9DB
:109220000E730E7480212FA82A960AF0EAF9802185
:109230004FA80AF0E6F980216FA80AF0E2F9802130
:1092400068460AF0DEF92CAA2AA92BA803F0BDFC77
:109250002A98817825A8FFF7BBF9002815D01D4969
:1092600028A8007C097888433BD01F212FA80AF04A
:10927000C8F91F214FA80AF0C4F91F216FA80AF0EE
:10928000C0F91F2168460AF0BCF906218FA80AF030
:10929000B8F92A988178090638D50A2185681BE033
:1092A000E82000200C200020902000208C200020AE
:1092B000A086010040420F00E703000025642C2532
:1092C0006400000025640000FC210020693F0200CA
:1092D0006C3D02008420002028460AF01FF9024657
:1092E0002BE01F222FA825990AF072F91F224FA800
:1092F00026990AF06DF91F226FA827990AF068F9DC
:109300001F22684628990AF063F9BEE7C568FE483F
:10931000854211D3FD48854202D3FD4A092306E068
:109320007D21C90028460AF0F9F882B20B46F949B6
:109330008FA80AF0E5F904E02A46F7A18FA80AF001
:10934000DFF98FA80AF068F9C7B2052F00D9052701
:109350000520C01B0D2148431F30C4B22DE08FA84B
:10936000805D2C2831D030380006800DEB492490E8
:1093700009582FA800190D220AF02AF9E749249864
:10938000283109584FA800190D220AF021F9E349A4
:109390002498503109586FA800190D220AF018F9C5
:1093A000DE49249878310958684600190D220AF0E0
:1093B0000FF90D34761CE4B2F6B2BE42CFD32A9830
:1093C0000188A94209D85A230DE0684600190822ED
:1093D000D3490AF0FDF80834ECE75A20491C6843E9
:1093E0000AF09CF883B208A84178702211434170BA
:1093F00018A8C17E1143C1763E380021502405785B
:10940000994201D2154300E025430570491C401CD8
:10941000C9B25A29F3D303F0C5FB694600222AE0FA
:1094200028AB1B7B0C78934212D1E0231C430C70B9
:109430004C78A0252C434C708C781C438C70CB78D6
:10944000DB06DB0ECB700B79DB06DB0E0B710FE05E
:1094500040231C430C704C781C434C708C781C438C
:109460008C70CC78BF231C40CC700C791C400C71E4
:10947000491D521CD2B28242D2D300212FA8FEF73E
:1094800067FA01214FA8FEF763FA02216FA8FEF7E1
:109490005FFA03216846FEF75BFA7FB012B0F0BDB9
:1094A00070B506249F4D03000AF03EF9050404132D
:1094B0001B2A12002C60FEF7EFFA002808D003F0F8
:1094C000BDFD002801D103F0D3FB974900200860BF
:1094D00070BD2C60FEF7E0FA0028F9D003F0A7FB7E
:1094E00070BD2C60FEF7D8FA0028F9D003F0AFFD6C
:1094F0000028F5D10520FEF7D1FD03F0AAFB70BDD1
:10950000FEF7CAFA0028FAD12C6070BD00B5FFB092
:1095100082B0802168460AF074F8802120A80AF001
:1095200070F8802140A80AF06CF8802160A80AF049
:1095300068F80CA81F227D490AF04AF87B492CA83C
:109540001F221F390AF044F878494CA81F223E39DF
:109550000AF03EF875496CA81F225D390AF038F808
:1095600000216846FEF7F4F9012120A8FEF7F0F982
:10957000022140A8FEF7ECF9032160A8FEF7E8F904
:109580007FB002B000BDF8B50027664E664D0624D8
:1095900003000AF0C9F8050404070E1A0600346037
:1095A0002F60F8BD3460FEF777FA0028F9D02C6000
:1095B000F8BDFEF771FA0028FAD00520FEF76EFD1F
:1095C00003F031FB03202860F8BDFEF765FA0028A0
:1095D000E5D0F8BD70B5FFB081B0802120A80AF0B9
:1095E00010F8802140A80AF00CF8802160A80AF049
:1095F00008F8802168460AF004F84D484CAE01682E
:109600002CA86CAD0CAC00293BD01F22494909F0B5
:10961000DFFF484930461F221F3909F0D9FF45496D
:109620001F223E39284609F0D3FF424920461F2217
:109630005D3909F0CDFF4048404D0678C0244049CF
:10964000E022A02340202D880A2E03D83D4E3678F4
:10965000012E2CD08D4277D010A9CD7F1543CD7728
:1096600018A90A781A430A704A7822434A700A797C
:1096700002430A714A7902434A718A7902438A7124
:109680007EE02C491F227C3909F0A2FF294930468F
:109690001F229B3909F09CFF264928461F22BA3910
:1096A00009F096FF23491F222046D939C1E78D4290
:1096B00014D010A9CD7F1543CD7718A90A781A4385
:1096C0000A704A7822434A700A7902430A714A7939
:1096D00002434A718A7902438A7109E018A90C7918
:1096E00014430C714C791C434C718B7913438B716F
:1096F0004A7A02434A728A7A02438A72CA7A0243D7
:10970000CA728A7B024320E0A086010040420F001B
:10971000E7030000BC9201002564000080220020C5
:109720006C3D0200902000208C200020C5430200E8
:1097300020200020D5410200B32000201620002068
:10974000FFFF00000E20002010E08A73CA7B024356
:10975000CA730A7C02430A74CA7C0243CA740A7D33
:1097600002430A754A7D02434A751BE018A90C7929
:1097700014430C714C791C434C718B7913438B71DE
:109780004A7A02434A728A7A02438A72CA7A024346
:10979000CA728A7B02438A73CA7B0243CA730A7CF9
:1097A00002430A74002120A8FEF7D2F8012140A844
:1097B000FEF7CEF8022160A8FEF7CAF8032168463A
:1097C000FEF7C6F87FB001B070BD70B50625F94E42
:1097D000F94C030009F0A8FF0504040B1D2F190024
:1097E0002560FEF759F900280FD004200FE025600E
:1097F000FEF752F9002808D0F048F1490088884265
:1098000004D0072030601820206070BD0820306030
:1098100070BD2560FEF740F90028F9D00520FEF75D
:109820003DFCE8480068002803D0002008F028FD2F
:1098300070BD0120FAE7FEF72FF90028F8D1256066
:10984000E5E770B5FFB081B0802120A809F0D9FE0E
:10985000802140A809F0D5FE802160A809F0D1FE42
:109860008021684609F0CDFED448D54A01882CA84D
:109870004CAE6CAC0CAD914214D01F22D24909F011
:10988000A7FED14930461F221F3909F0A1FECE495B
:1098900020461F223E3909F09BFECB491F22284655
:1098A0005D3914E0C8491F227C3109F091FEC64998
:1098B00030461F225D3109F08BFEC34920461F222E
:1098C0003E3109F085FEC04928461F221F3109F0AC
:1098D0007FFEBE48E02201784020A0230A2903D859
:1098E000BB490978012936D010A9CC7F0443CC7735
:1098F00018A90C7804430C704C7804434C700C7914
:1099000014430C714C791C434C718B7913438B714C
:109910004A7A02434A728A7A02438A72CA7A0243B4
:10992000CA728A7B02438A73CA7B0243CA730A7C67
:1099300002430A74002120A8FEF70AF8012140A87A
:10994000FEF706F8022160A8FEF702F80321684638
:10995000FDF7FEFF36E710A9CC7F0443CC7718A9AA
:109960000C7804430C704C7804434C700C7914430D
:109970000C714C791C434C718B7913438B714A7A6F
:1099800002434A728A7A02438A72CA7A0243CA72CC
:109990008A7B02438A73CA7B0243CA730A7C0243EE
:1099A0000A74CA7C0243CA740A7D02430A754A7D5E
:1099B00002434A75BEE770B506247F4D7D4E030015
:1099C00009F0B2FE0504040B132412002C60FEF70C
:1099D00063F8002808D0042005E02C60FEF75CF84E
:1099E000002801D00820306070BD2C60FEF754F8CC
:1099F0000028F9D07148724900888842F4D00520C7
:109A0000FEF74CFB0220FCF774FD70BDFEF744F836
:109A10000028FAD12C60E6E730B5FFB082B0802193
:109A200020A809F0EEFD802140A809F0EAFD802180
:109A300060A809F0E6FD8021684609F0E2FD2CA847
:109A40001F22644909F0C4FD62494CA81F221F313E
:109A500009F0BEFD5F496CA81F223E3109F0B8FD38
:109A60005C490CA81F225D3109F0B2FD57485349EB
:109A70000578534C4020E022A02309880A2D03D802
:109A8000534D2D78012D0DD0A1423FD010A9CC7F90
:109A90000443CC7718A90C7804430C704C78044329
:109AA0004C7034E0A1420BD010A9CC7F0443CC779A
:109AB00018A90C7804430C704C7804434C7000E0F7
:109AC00018A90C7904430C714C7904434C718C79BE
:109AD00004438C714C7A14434C728C7A1C438C7204
:109AE000CB7A1343CB728A7B02438A73CA7B0243CD
:109AF000CA730A7C02430A74CA7C0243CA740A7D90
:109B000002430A754A7D02434A751BE018A90C7985
:109B100004430C714C7904434C718C7904438C716F
:109B20004C7A14434C728C7A1C438C72CB7A13435C
:109B3000CB728A7B02438A73CA7B0243CA730A7C54
:109B400002430A74002120A8FDF702FF012140A86A
:109B5000FDF7FEFE022160A8FDF7FAFE032168462C
:109B6000FDF7F6FE7FB002B030BDF8B50027062441
:109B7000114D104E030009F0D7FD050404070F3105
:109B800006002C603760F8BD2C60FDF785FF0028CB
:109B9000F9D009203060F8BD2C60FDF77DFF00286A
:109BA000F9D00520FEF77AFA0B48012201785140DE
:109BB0000170F8BD8C20002090200020162000208D
:109BC000FFFF00002020002051420200B3200020AF
:109BD0000E200020DC440200E8200020FDF75CFF9E
:109BE0000028CED0E5E730B5FFB082B0802120A8B4
:109BF00009F007FD802140A809F003FD802160A83D
:109C000009F0FFFC8021684609F0FBFC2CA81F220C
:109C1000FE4909F0DDFCFD494CA81F221F3909F05F
:109C2000D7FCFA496CA81F223E3909F0D1FCF7494C
:109C30000CA81F225D3909F0CBFCF548F5490578E1
:109C4000F54C4020E022A02309880A2D03D8F34DCB
:109C50002D78012D0DD0A1423FD010A9CC7F044317
:109C6000CC7718A90C7804430C704C7804434C70E2
:109C700034E0A1420BD010A9CC7F0443CC7718A9C3
:109C80000C7804430C704C7804434C7000E018A925
:109C90000C7904430C714C7904434C718C79044366
:109CA0008C714C7A04434C728C7A04438C72CC7A5B
:109CB0000443CC728C7B14438C73CC7B1C43CC73DD
:109CC0000B7C13430B74CA7C0243CA740A7D0243A3
:109CD0000A754A7D02434A751BE018A90C790443B2
:109CE0000C714C7904434C718C7904438C714C7A1F
:109CF00004434C728C7A04438C72CC7A0443CC7249
:109D0000887B10438873C87B1843C873087C104352
:109D10000874002120A8FDF71BFE012140A8FDF7D3
:109D200017FE022160A8FDF713FE03216846FDF728
:109D30000FFE17E770B50624B94DBA4E030009F0BF
:109D4000F3FC05040404162113002C60FDF7A4FEA7
:109D5000002809D0AE4800780A2803D8AF48007818
:109D6000012802D00420306070BD0520FBE72C6084
:109D7000FDF792FE0028F7D00520FEF78FF9FCF7DB
:109D800090FA70BDFDF788FE0028FAD12C60EAE752
:109D9000F0B5FFB086B0002501A8FDF7DFFF6846EB
:109DA000007A0C280BD26846C0791F2807D2684673
:109DB00080793C2803D2684640793C2804D39A4AEB
:109DC0009A490020FCF75CFA802105A809F019FCEB
:109DD000802125A809F015FC802145A809F011FC77
:109DE000802165A809F00DFC9148C078002806D0B4
:109DF000684680790C2802D90C38694688710020A1
:109E0000039004906846884943798279203103A8F9
:109E100009F076FC03A809F0FFFBC7B21F242CE071
:109E200003A8405D3A2854D03038C0B212218600D1
:109E300080480091815905A80019009A09F0C8FBD3
:109E40007C48009A3430815925A8001909F0C0FBDC
:109E50007848009A6830815945A8001909F0B8FB84
:109E60007448009A9C30815965A8001909F0B0FB2C
:109E7000009820186D1CC4B2EDB2BD42D0D31F2291
:109E80006D4905A809F0A4FB6B491F221F3925A8BD
:109E900009F09EFB68491F223E3945A809F098FB4E
:109EA00065491F225D3965A809F092FB002105A8CC
:109EB000FDF74EFD012125A8FDF74AFD022145A829
:109EC000FDF746FD032165A8FDF742FD7FB006B012
:109ED000F0BD0A200821AAE770B50624504D0028DD
:109EE0000BD0012809D0022805D0042804D1FDF7A1
:109EF000D3FD002800D12C6070BD2C60FDF7CCFD97
:109F00000028F9D04D48474C0078012808D003F0CC
:109F100095F8002806D00020206001F09DF870BD63
:109F20000E20F9E70320F7E7F0B5FFB086B0002573
:109F300001A8FDF713FF6846007A0C280BD268468B
:109F4000C0791F2807D2684680793C2803D268462A
:109F500040793C2805D33549334A63310020FCF76A
:109F60008FF9802105A809F04CFB802125A809F074
:109F700048FB802145A809F044FB802165A809F031
:109F800040FB2B48C078002806D0684680790C2812
:109F900002D90C3869468871002003900490684605
:109FA000214943798279203103A809F0A9FB03A84C
:109FB00009F032FBC7B21F2447E003A8405D3A28EE
:109FC0006DD03038C0B2122186001A4800918159F4
:109FD00005A80019009A09F0FBFA1648009A3430D7
:109FE000815925A8001909F0F3FA1248009A68303F
:109FF000815945A8001909F0EBFA0E48009A9C30E7
:10A00000815965A8001909F0E3FA19E049430200F3
:10A01000B320002016200020FFFF00000E200020AB
:10A02000902000208C200020D489010079120000AB
:10A030003220002060210020F13D02000C20002091
:10A04000009820186D1CC4B2EDB2BD42B5D31F22DA
:10A05000F94905A809F0BCFAF7491F221F3925A8BC
:10A0600009F0B6FAF4491F223E3945A809F0B0FAC2
:10A07000F1491F225D3965A809F0AAFA002105A857
:10A08000FDF766FC012125A8FDF762FC022145A829
:10A09000FDF75EFC032165A8FDF75AFC16E70A20D0
:10A0A000082191E770B50624E44D00280BD0012863
:10A0B00009D0022805D0042804D1FDF7EDFC0028C2
:10A0C00000D12C6070BD2C60FDF7E6FC0028F9D0B3
:10A0D000DB48DC4C0078012808D002F0AFFF0028F4
:10A0E00006D000202060FEF737F870BD0E20F9E79B
:10A0F0000320F7E7F0B5FFB086B0002501A8FDF713
:10A100002DFE6846007A0C280BD26846C0791F28BD
:10A1100007D2684680793C2803D2684640793C28BB
:10A1200004D3C94AC9490020FCF7AAF8802105A830
:10A1300009F067FA802125A809F063FA802145A873
:10A1400009F05FFA802165A809F05BFAC048C07881
:10A15000002806D0684680790C2802D90C38694658
:10A1600088710020039004906846B749437982794A
:10A17000203103A809F0C4FA03A809F04DFAC7B2C8
:10A180001F242CE003A8405D3A2853D03038C0B2D9
:10A1900012218600AF480091815905A80019009A44
:10A1A00009F016FAAB48009A3430815925A80019F5
:10A1B00009F00EFAA748009A6830815945A800199D
:10A1C00009F006FAA348009A9C30815965A8001945
:10A1D00009F0FEF9009820186D1CC4B2EDB2BD4222
:10A1E000D0D395491F227F3105A809F0F1F9924992
:10A1F0001F225F3125A809F0EBF98F491F223F315B
:10A2000045A809F0E5F98C491F221F3165A809F01E
:10A21000DFF9002105A8FDF79BFB012125A8FDF72B
:10A2200097FB022145A8FDF793FB032165A8FDF7E5
:10A230008FFB4BE60A200821ABE770B506247F4D63
:10A2400000280BD0012809D0022805D0042804D109
:10A25000FDF722FC002800D12C6070BD2C60FDF7BA
:10A260001BFC0028F9D07648764C007801280AD0EB
:10A2700003280AD002F0E2FE002808D00020206067
:10A28000FDF76AFF70BD0E20F9E70F20F7E7032006
:10A29000F5E7F0B5FFB08AB0802148A809F0B1F920
:10A2A000802108A809F0ADF9802128A809F0A9F9B2
:10A2B000802168A809F0A5F9674D28AEE91FF93992
:10A2C000686800914FA9033107910FA903310391E9
:10A2D000803104916FA903310691AC89012804D023
:10A2E000022844D003287BD0F1E020466038C7B272
:10A2F000602C0ED26020001B40101F30C7B208A88F
:10A30000C0192246554909F063F9AA89F019009944
:10A3100016E0602F00D9602760225049079809F0A5
:10A3200057F960220099039809F052F94B493A46CF
:10A330006031049809F04CF947493A46A03906982B
:10A3400009F046F91F22464948A809F041F9444955
:10A350001F221F3908A809F03BF941491F223E3945
:10A3600028A809F035F93E491F225D39ACE0002CE0
:10A370001FD0802C03D28020001B401050E0803C76
:10A380008025E4B2802C00D980242A46334948A88D
:10A3900009F01EF92A4608A8009909F019F92F4971
:10A3A0002246803128A809F013F92B49224680392A
:10A3B0008AE02B491F227C3148A809F009F9284975
:10A3C0001F225D3108A809F003F925491F223E31FB
:10A3D00028A809F0FDF822491F221F3174E0FFE789
:10A3E000002C5DD014491F227C3948A809F0F0F8F0
:10A3F00011491F229B3908A809F0EAF80E491F22CB
:10A40000BA3928A809F0E4F80B491F22D93968A8FD
:10A4100009F0DEF8612C25D26120001B40101F30AE
:10A42000C7B208A8C01922460C4909F0D1F8AA8978
:10A43000F019009931E000006D3E020090200020EC
:10A440000C2000208C200020D48901003F13000044
:10A4500032200020602100206C2E00206C2C002077
:10A46000614002009F3C6125E4B2612C00D9612467
:10A470002A46F949079809F0ABF82A46009903984B
:10A4800009F0A6F8F449224661310D46049809F016
:10A490009FF8E91DF9312246069809F099F816E06F
:10A4A0001F22EE4948A809F093F8EC491F221F39F2
:10A4B00008A809F08DF8E9491F223E3928A809F0BB
:10A4C00087F8E6491F225D3968A809F081F8002164
:10A4D00048A8FDF73DFA012108A8FDF739FA022145
:10A4E00028A8FDF735FA032168A8FDF731FA7FB0F7
:10A4F0000AB0F0BDF8B50024D94DDA4E00280BD0D3
:10A50000062701281ED0042805D1FDF7C5FA00282A
:10A5100001D1D5480760F8BDFDF7BEFA0028FAD092
:10A5200070680128F7D1D1480178102929D0092075
:10A53000FBF7DFFFFDF710FEFCF709FF01F0CAFE95
:10A540002C60F8BDC8480760FDF7A6FA0028F8D0CF
:10A55000C748007801280CD002F070FD00280AD00E
:10A560002C607068032809D0FDF7F6FDFCF7EFFEBC
:10A57000D6E70E2000E003202860F2E700F06CFD33
:10A58000F4E70470002003F0F5FAD3E7F0B5FFB06C
:10A590008AB000252C46802109A809F032F88021D4
:10A5A00029A809F02EF8802149A809F02AF880216D
:10A5B00069A809F026F8684671DF002803D0AD4A83
:10A5C000AD49FBF75DFE684681784278080210438A
:10A5D000AA4908F0A3FF002004900A460590A8A10C
:10A5E00004A809F08DF804A809F016F8C7B227E00E
:10A5F00004A8405D122230380006860DA248815919
:10A6000009A8001908F0E4FF9F481222343081594C
:10A6100029A8001908F0DCFF9B48122268308159F4
:10A6200049A8001908F0D4FF974812229C3081599C
:10A6300069A8001908F0CCFF12346D1CE4B2EDB229
:10A64000BD42D5D3002109A8FDF782F9012129A82F
:10A65000FDF77EF9022149A8FDF77AF9032169A8DF
:10A66000FDF776F943E7F8B5002406257E4E7C4FCA
:10A6700000280BD0012809D0022807D004280BD1CC
:10A68000FDF70AFA002807D1356004E03560FDF7D0
:10A6900003FA002800D03C60F8BD00B5FFB082B0DE
:10A6A0008021684608F0ADFF802120A808F0A9FFAE
:10A6B000802140A808F0A5FF802160A808F0A1FF34
:10A6C0000CA81F22714908F083FF70492CA81F2293
:10A6D0001F3908F07DFF6D494CA81F223E3908F054
:10A6E00077FF6A496CA81F225D3908F071FF0021CD
:10A6F0006846FDF72DF9012120A8FDF729F902216F
:10A7000040A8FDF725F9032160A8FDF721F97FB0E6
:10A7100002B000BD70B50624534D032826D00CDCD2
:10A7200000281AD0012811D002280ED12C60FDF784
:10A73000B3F9002809D0012015E004281DD00D2808
:10A7400003D12C6046490020086070BD2C60FDF7E5
:10A75000A3F90028F9D00B2005E02C60FDF79CF947
:10A760000028F2D00A20FBF7C4FE70BD2C60FDF774
:10A7700093F90028F9D00720F5E7FDF78DF90028B7
:10A78000F3D12C6070BD00B5FFB082B08021684667
:10A7900008F037FF802120A808F033FF802140A86F
:10A7A00008F02FFF802160A808F02BFF37490CA884
:10A7B0001F227C3108F00CFF34492CA81F225D3188
:10A7C00008F006FF31494CA81F223E3108F000FF77
:10A7D0002E496CA81F221F3108F0FAFE002168469E
:10A7E000FDF7B6F8012120A8FDF7B2F8022140A834
:10A7F000FDF7AEF8032160A8FDF7AAF887E770B56A
:10A800000624194D032843D00CDC00281AD0012857
:10A8100011D002280ED12C60FDF73EF9002809D096
:10A82000012015E004283AD00F2803D12C600C49F0
:10A830000020086070BD2C60FDF72EF90028F9D0CB
:10A840000B2005E02C60FDF727F90028F2D00A2044
:10A85000FBF74FFE70BD00006C2C0020F13D0200A4
:10A860008C2000206C2E002090200020002400204E
:10A870000C200020D48901005E1400001027000085
:10A8800025303464000000006021002041440200B3
:10A890002C60FDF701F90028DCD00720D8E7FDF790
:10A8A000FBF80028D6D12C6070BD10B5FFB081B088
:10A8B000802120A808F0A5FE802140A808F0A1FE74
:10A8C000802160A808F09DFE8021684608F099FE6E
:10A8D0002CA81F22EB4908F07BFEEA494CA81F2256
:10A8E0001F3108F075FEE7496CA81F223E3108F0C1
:10A8F0006FFEE4490CA81F225D3108F069FEE248B2
:10A90000E24C01884020E022A023A14230D010A9CF
:10A91000CC7F0443CC7718A90C7804430C704C7896
:10A9200004434C700C7904430C714C7904434C7112
:10A930008C7904438C714C7A04434C728C7A0443B6
:10A940008C72CC7A0443CC728C7B04438C73CC7BAA
:10A950000443CC730C7C04430C74C87C1043C8744F
:10A96000087D18430875487DC021084318A923E0D5
:10A9700018A90C7904430C714C7904434C718C79FF
:10A9800004438C714C7A04434C728C7A04438C726D
:10A99000CC7A0443CC728C7B04438C73CC7B044311
:10A9A000CC730C7C04430C74C87C1043C874087DC1
:10A9B00018430875487D10434875002120A8FCF70E
:10A9C000C7FF012140A8FCF7C3FF022160A8FCF7E4
:10A9D000BFFF03216846FCF7BBFF7FB001B010BD8D
:10A9E00070B504210624AA4DAA4E030008F09CFE6F
:10A9F00005040404071306002C60316070BD2C6050
:10AA0000FDF74AF80028F9D010203060FDF7A3F9CF
:10AA1000A149486070BDFDF73FF80028FAD13060C9
:10AA20002C6070BDF0B5FFB084B0802103A808F0A1
:10AA3000E8FD802123A808F0E4FD802143A808F068
:10AA4000E0FD802163A808F0DCFD1824FDF783F900
:10AA5000054691483C214068281A08F05FFD0E46E3
:10AA60003C2108F05BFD0A46062D00D206258848E9
:10AA700005600020009001900290334687496846A7
:10AA800008F03EFE684608F0C7FDC7B200255EE04C
:10AA90006846405D3A2823D030380006860D80484D
:10AAA0000D22815903A8001908F092FD7C480D225F
:10AAB0002830815923A8001908F08AFD78480D2212
:10AAC0005030815943A8001908F082FD74480D22C6
:10AAD0007830815963A8001908F07AFD0D3433E00D
:10AAE00070480078002803A81AD0001908226E497F
:10AAF00008F06EFD6C4923A800190822083908F0F7
:10AB000067FD694943A800190822103908F060FD63
:10AB1000654963A800190822183908F059FD12E0A8
:10AB20000019082108F06DFD23A80019082108F07C
:10AB300068FD43A80019082108F063FD63A8001907
:10AB4000082108F05EFD08346D1CE4B2EDB2BD4290
:10AB50009ED3002103A8FCF7FBFE012123A8FCF7EC
:10AB6000F7FE022143A8FCF7F3FE032163A8FCF7DC
:10AB7000EFFE7FB004B0F0BD70B50625444C030075
:10AB800008F0D2FD0504040406130500256070BD1D
:10AB90002560FCF781FF0028F9D025603D4905209C
:10ABA00008603D490020486070BDFCF775FF002833
:10ABB000ECD070BD38484068002800D001207047B4
:10ABC00010B535490020486031490860FDF7C4FAE6
:10ABD00001F080FB10BDF8B5354D871E6B68009302
:10ABE000012606212A48314A2A4C3B0008F09CFDE8
:10ABF0000D20282846081215433A283D28402800F1
:10AC000001600098032801D00A2029E00C20AA60E6
:10AC100020601DE001600B2022E001600C2020601C
:10AC2000AA60009800282BD0A87B002810D127E02C
:10AC30000160FCF731FF002822D020680C2801D0E9
:10AC400000261DE02868002805D0A87B002802D037
:10AC5000FCF7BEFA14E0FDF77FFAFCF778FB002062
:10AC600020600DE001600D20FAE701600E20F7E79B
:10AC700001600F20F4E701601120F1E7002101607D
:10AC80003046F8BD5845020016200020FFFF0000A6
:10AC9000902000208C200020E8200020F489010072
:10ACA00080220020842000208C3D0200CD2B00203B
:10ACB0006C2E002010B550480168002916D00021E4
:10ACC00001604E4880684E4A012180B251604B219C
:10ACD000090148434B49800A48437D21090108F096
:10ACE0001DFC80B200F045F84749087010BD70B5F2
:10ACF0004648012444604148454941603E4E002594
:10AD00003560046007202ADF002803D041A27F219C
:10AD1000FBF7B6FA032107202BDF002803D03DA262
:10AD20008221FBF7ADFA072026DF002803D039A2E5
:10AD30008521FBF7A5FA35603148046070BD3248C3
:10AD400000787047304900200978502901D3052048
:10AD500070473C2901D304207047282901D30320E0
:10AD60007047142901D3022070470229FCD3012027
:10AD700070477D2110B54901884201D3642010BD80
:10AD8000294A904205D3081A052108F0DDFB642109
:10AD900008E025496439884207D3101A052108F0D4
:10ADA000D3FB5021081AC0B210BD1F4AC83A9042C6
:10ADB00005D3081A052108F0C7FB3C21F2E71B491F
:10ADC000884206D3101A40000F2108F0BDFB28214D
:10ADD000E8E7164AB43A904205D3081A0A2108F067
:10ADE000B3FB1421DEE71149FA39884201D800206B
:10ADF00010BD012010BD0000007100400075004032
:10AE000000700040E02E0000A023002000730040EE
:10AE1000028000002E2E5C68616C5C626174746557
:10AE200072792E63000000003C0F0000DE0D000070
:10AE300070B5144694B01D4600226B461A71002965
:10AE400027D0402C25D8002C23D0030A6A46137241
:10AE5000507202A82246023008F0BAFB01A82EDF89
:10AE600001200090A01CC3B202AAA0210220FCF77E
:10AE70000CFC06466A4610792FDF002E09D0002D03
:10AE800004D0641CA000201806F01AFC012014B0A5
:10AE900070BD0020FBE7FEB50D460026694614464E
:10AEA0000E72002D21D0402C1FD8002C1DD0020A7C
:10AEB0000A71487102A82EDF022301AAA0211846B8
:10AEC0000096FCF7E2FB06460120009023462A4646
:10AED000A1210220FCF7D9FB304004466946087ADC
:10AEE0002FDF002C01D00120FEBD0020FEBD7CB56F
:10AEF0000024684604714471AA218171012503234D
:10AF000001AAA02102200095FCF7BFFB00281CD05D
:10AF1000052006F0D5FB684604714471022301AA9E
:10AF2000A02118460094FCF7B0FB00280DD00123A7
:10AF300001AAA12102200095FCF7A7FB002804D05C
:10AF400068460079AA2801D000207CBD01207CBD84
:10AF500010B5484908200870014646480A3008F0F4
:10AF600050FB10BDF0B589B00025FCF7CBFF0126E2
:10AF700031468140CFB205A8FCF7F0FE6846807DDF
:10AF8000019081018000091A6846407D07900818E9
:10AF900080B20290142038496843441860783842DF
:10AFA00026D034480A30405D002821D1207800287E
:10AFB00016D0A07881018000081AE1784018029923
:10AFC00080B2814214D30146029A1E3191420FD3BE
:10AFD000101A80B2052108F0A1FA00290ED007E06E
:10AFE000A1780198884203D1E1780798884205D07A
:10AFF0006D1CEDB2082DCDD309B0F0BD607801060F
:10B0000001D4784060701B480021057022791B48EC
:10B01000002A0CD0867303210660416018498160C4
:10B02000481E0270401C611D08F0D2FA03E08173D3
:10B030000160816041600F48801CFCF78FFEFFF7C4
:10B04000B9FD012801D1FFF7BBFD0620FCF794F8FC
:10B050000020FDF723F8CFE710B5064C207808282C
:10B0600003D2224601210A321154FDF775F8082057
:10B07000207010BDA2230020BC2400206C2E0020D4
:10B08000CD2B002049490420486070477CB500243E
:10B090000425FCF737FF01218140CEB26846FCF75A
:10B0A0005DFE6846424A80780621614389180B7824
:10B0B000334206D04B78834203D88978814200D945
:10B0C0002546641CE4B2032CEED338494A68954205
:10B0D00007D04D6082018000101A6A4652788018AD
:10B0E00048803448344A00781268401E104301D02A
:10B0F000042048607CBDFEB52C4C6068042842D01A
:10B100006846FCF72BFEFCF7FDFE01218140CFB223
:10B110002046416806225143254A40888D186946D9
:10B1200089788A018900521A6946497851188CB287
:10B13000E9788A005618844201D9201A00E0001BE1
:10B14000297880B239421ED0B0421CD301F06FFF83
:10B15000B04218D3002668460670184808220670C8
:10B160000146684608F05FFA002809D00F480178C8
:10B17000012909D04480FFF71DFD012808D009E00E
:10B180000A4901200870FEBD641E44800670F2E783
:10B19000FFF716FD2878010601D4784028700320B7
:10B1A000FCF77CFF0720FBF7E7FFFEBDB423002080
:10B1B0007C2E00200920002020200020A423002035
:10B1C00070B50024FF250646813520018119012331
:10B1D00010222846FFF72CFE002806D01035641CEC
:10B1E000E4B2ADB2052CF0D3012070BD7FB50025CF
:10B1F0000001FF306C4601300095019502950395E2
:10B200000B7823700B886D1C1B0A63708B78A370FE
:10B21000E41C091DEDB2052DF2D3D9216B46D9737B
:10B22000134610226946FFF703FE002800D00120D4
:10B2300004B070BDF0B5A9B04021684608F0E1F94E
:10B240000A21FE4808F0DDF9A021FD4808F0D9F9EF
:10B25000082269460120FFF71EFE00287ED06846BE
:10B260000078D92837D0012520A88574F5490182B6
:10B2700003218175FF21F5318182042686766421C0
:10B280000183812181777D2109018183022728A8FB
:10B2900000248770C82120A80184012224A9204607
:10B2A000FFF7A4FF052006F00BFA641CE4B2072C9C
:10B2B000F3D3502110A808F0A4F910A8C5700321F9
:10B2C000C17418A8C6708121C17420A8C77010A8C5
:10B2D000FFF776FFB3E06946DB48497801706946BD
:10B2E000897841706946C97881700C2269462020AE
:10B2F000FFF7D1FD002831D00B21684600F0D2FACB
:10B300006946C97A814204D10B226946CF4808F0C8
:10B310005FF9082269463020FFF7BDFD00281DD0E7
:10B320000421684600F0BEFA69460979814207D1D6
:10B330000098FCF70DFD0020FCF7C2FBFCF790FD28
:10B3400020226946C020FFF7A6FD002878D0BC4D1A
:10B3500000246E46A0008119142000E070E06043D4
:10B360004019042208F034F9641CE4B2082CF1D32B
:10B37000402269461046FFF78EFD002860D0002469
:10B3800020018119142060434019001D102208F08B
:10B390001FF9641CE4B2042CF2D3402269468020D9
:10B3A000FFF779FD00284BD00024200181191420DB
:10B3B000604340195430102208F00AF9641CE4B2CA
:10B3C000042CF2D308226946E020FFF764FD002830
:10B3D00036D00621684600F065FA694689798142CF
:10B3E00004D1062269469A4808F0F2F8102269460C
:10B3F000F020FFF750FD002822D00A21684600F017
:10B4000051FA6946897A814204D10A2269468B48F9
:10B4100008F0DEF81120132269464001FFF73BFDDA
:10B4200000280DD01221684600F03CFA6946897C5C
:10B43000814204D112226946864808F0C9F80120E9
:10B4400029B0F0BD70B590B000244021684608F0E6
:10B45000D8F80B227D49684608F0BAF80B216846F7
:10B4600000F020FA6946C87201230C222020FFF761
:10B47000DFFC00287DD0FCF76EFC009004216846BC
:10B4800000F010FA69460871012308223020FFF706
:10B49000CFFC00286DD06A4E6D46142060438119A0
:10B4A000A0004019042208F093F8641CE4B2082CB0
:10B4B000F3D3012320226946C020FFF7B9FC0028FE
:10B4C0007CD000241420604381192001091D4019FB
:10B4D000102208F07DF8641CE4B2042CF2D3402260
:10B4E000012369461046FFF7A3FC002866D000241C
:10B4F000142060438119200154314019102208F0B2
:10B5000067F8641CE4B2042CF2D30123402269469C
:10B510008020FFF78DFC002850D006224C49684659
:10B5200008F056F80621684600F0BCF969468871B3
:10B5300001230822E020FFF77BFC00283ED00A22EE
:10B540003E49684608F044F80A21684600F0AAF926
:10B550006946887201231022F020FFF769FC002859
:10B560002CD012223B49684608F032F81221684676
:10B5700000E023E000F096F9694688741120012369
:10B5800013224001FFF754FC002817D0D920694648
:10B5900008702D4802784A7042788A708078C870A6
:10B5A0000421684600F07EF96946087101230822EB
:10B5B0001846FFF73DFC002800D0012010B070BDF8
:10B5C0001CB5FCF7C8FB00900421684600F06AF93E
:10B5D00069460871012308223020FFF729FC002862
:10B5E00000D001201CBD7FB500016D46FF300C4628
:10B5F0000026013010222946FFF74DFC002803D019
:10B600006846C07BD9282BD01021684601702721BD
:10B61000417001218170F422C270017103214171D6
:10B62000642181710021C17104220272D022427210
:10B63000072282728122C272C8220DE0CC2E002025
:10B64000BC240020102700001820002032200020F9
:10B650002C2000207C2E0020027341730221817374
:10B6600069782878090240182080A878A070761C94
:10B67000ED1C241DF6B2052EF2D37FBDF8B50025D2
:10B68000FF2604468136280101190F461022304654
:10B69000FFF701FC002810D138607860B860F860CE
:10B6A0000120E0700320E074204604212030C170A6
:10B6B0008121C17402214320015510366D1CEDB269
:10B6C000B6B2052DDFD3F8BD10B50A217B4807F0CF
:10B6D00098FF7B490120087010BD10B5774C0146DA
:10B6E000208801221203801880B201231022FFF764
:10B6F0009FFB00281BD022880120103280030021EC
:10B70000824201D3218002E02288103222806288A6
:10B7100023889A420BD12289521C228162881032DE
:10B72000824201D3618002E0608810306080654809
:10B73000016810221143016010BDF7B500260E709C
:10B740005E4C0F46208910801021009807F059FFA9
:10B75000608821885A4D884220D0608801210903E1
:10B76000401880B210220099FFF795FB002814D0F2
:10B770002089401C20816088012110308903884283
:10B7800001D3668002E06088103060806088218884
:10B79000884201D1012028700120FEBD28780028B0
:10B7A000FBD02E70FF221021009807F023FF01200C
:10B7B0003870F1E770B505460805040C01208003D8
:10B7C000844201D3002070BD1021284607F019FFE4
:10B7D00001200003201880B210222946FFF75BFBEE
:10B7E00070BD01208002704710B5344C0146A0881E
:10B7F00005221203801880B201231022FFF718FBE4
:10B80000002818D0A28803201032000300218242B1
:10B8100001D3A18002E0A2881032A280E288A3882E
:10B820009A4208D1E2881032824201D3E18002E0DC
:10B83000E0881030E0802348016810221143016045
:10B8400010BD70B500250D700560456085601B4C0E
:10B85000C560E288A3889A4218D0E18805221203C5
:10B8600089188BB2014610221846FFF714FB0028F6
:10B870000BD0E088032110300903884201D3E58012
:10B8800002E0E0881030E080012070BD01200870E7
:10B89000FAE70A48C1888088814201D001207047B8
:10B8A0000020704710B503460022104603E09C5C60
:10B8B0006040521CD2B28A42F9D310BDCC2E002077
:10B8C000BC2300201C20002007480121C1600F225A
:10B8D0001204426082680A43826004480160704733
:10B8E000044903480860704700050140000001401A
:10B8F0003546526E00060140F8B50A26FF4C074651
:10B900000025380606D50820A0602069C008C007B9
:10B91000FBD002E00820A061E0607806070E00BFBF
:10B920000420E06120698008C007FBD00420FAF7FA
:10B93000F1FB0420A061E0600220FAF7EBFB6D1C34
:10B94000EDB2082DDDD300BF0827A76100BFE76176
:10B950000425E56120698008C007FBD000BF06E030
:10B96000761EF6B20A20FAF7D5FB002E09D0206920
:10B97000C008C007F4D100BFA561E56000BF012089
:10B98000F8BD00BFA561E56000BF0020A760F8BD5D
:10B99000F8B50026D94C0820E0613746042500BFE1
:10B9A000E56100BF20698008C007FBD07006060E65
:10B9B0000120FAF7AFFB2069C008C00701D0761C50
:10B9C000F6B20120FAF7A6FBA561E5600120FAF7BF
:10B9D000A1FB7F1CFFB2082FE1D30820A0602069E3
:10B9E000C008C007FBD000BF00BFE5612069800828
:10B9F000C007FBD00220FAF78DFBA561E56000BF10
:10BA000000BF00BF00BF3046F8BDF8B50026BB4CF4
:10BA10000820E0613746042500BFE56100BF2069CA
:10BA20008008C007FBD07006060E0120FAF772FBF3
:10BA30002069C008C00701D0761CF6B20120FAF7D1
:10BA400069FBA561E5600120FAF764FB7F1CFFB28A
:10BA5000082FE1D30820A061E0602069C008C0077A
:10BA6000FBD100BF00BFE56120698008C007FBD0A3
:10BA70000220FAF74FFBA561E56000BF00BF00BFE1
:10BA800000BF3046F8BD70B59C4C0425E5612069C7
:10BA90008008C007FBD00826A6602069C008C00740
:10BAA000FBD00420FAF736FBA661E6600420FAF723
:10BAB00031FBA561E56070BD70B5904C206900094F
:10BAC000C007FBD10425E56120698008C007FBD0D1
:10BAD0000826A6602069C008C007FBD00420FAF73A
