:020000040001F9
:10600000004000201D62010037620100556201005E
:106010000000000000000000000000000000000080
:106020000000000000000000000000003B620100D2
:1060300000000000000000003D6201003F6201001E
:106040004162010041620100E1220200F51A0200F2
:106050004162010000000000D11F02005DB201009A
:106060004162010041620100C1C3010041620100BF
:106070004162010041620100416201004162010090
:1060800041620100430402004162010041620100DB
:1060900059040200416201007F0C020041620100CC
:1060A00041620100416201000000000000000000A8
:1060B00000000000000000000000000000000000E0
:1060C000034885460EF0F0F8004800477B6B01005E
:1060D00000400020401E00BF00BF00BF00BF00BF47
:1060E00000BF00BF00BF00BF00BF00BF00BFF1D1B5
:1060F00070470000401E00BF00BF00BF00BF00BFD0
:1061000000BF00BF00BF00BF00BF00BF00BFF1D194
:1061100070470000401E00BF00BF00BF00BF00BFAF
:1061200000BF00BF00BF00BF00BF00BF00BFF1D174
:1061300070470000401E00BF00BF00BF00BF00BF8F
:1061400000BF00BF00BF00BF00BF00BF00BFF1D154
:1061500070470000401E00BF00BF00BF00BF00BF6F
:1061600000BF00BF00BF00BF00BF00BF00BFF1D134
:1061700070470000234922480860704710B500F0BE
:106180001DF8002805D021491F484860C813204940
:1061900088612048018CC9B201290ED1818C090780
:1061A0000BD1018D0906090F042906D1808D000647
:1061B000000F02D118490120886010BD1548018CDC
:1061C000C9B2012917D1818C090714D1018D0906A3
:1061D0000A0F03D1828D1206120F0ED0090F01296A
:1061E00003D1828D1206120F07D0032903D1808DAF
:1061F0000006000F01D0002070470120704700000A
:106200000024F40000200020DFFF07C0000500404C
:10621000006C0040C00F00F0000600400321094858
:1062200002680A430260084802680A43026007489D
:10623000804707480047FEE7FEE7FEE7FEE7FEE788
:10624000FEE7000024050040540500407D61010088
:10625000C160010006F006FF06F086FA00F074FD4A
:1062600006F000FF06F080FA00F06EFD06F0FAFE80
:1062700006F07AFA00F068FDFF21F7A20C31FFF773
:10628000EFFF10B5F74801218171408AF649884235
:1062900002D0132176DF05E008F000FF002801D1CD
:1062A00008F0F0FE01F030FE01F0DDFE05F08CFF9D
:1062B00002F0AAFA00200CF0F5FD00200DF0A6FE79
:1062C00006F0D0FE06F050FA10BD10B5012002F025
:1062D00012F90446800701D505F01CF9E00720D02B
:1062E00005F084F807F05FF805F049F904F0D3FFF2
:1062F00004F0F9FFDB49022810D2487900280DD0BC
:106300004A7B052A02D3C879002802D0521C4A735E
:1063100007E00120C871FFF7B4FF10BD00204873EB
:10632000C8716007F9D502F090F805F055F805F04E
:10633000EDF805F0EFF807F0A8F810BD10B500680B
:10634000002806D0012807D0022801D105F0DEF888
:1063500010BDFFF7BAFF10BD05F03EF810BDF8B54F
:1063600006464179C14D08306F1CC14C009001298F
:1063700015D0032912D1A07C00280FD02878F288EC
:10638000C01900990DF036FF2878B17940182870AF
:10639000B44881690122520211438161F8BDB148BC
:1063A000007C01280BD00428F8D1B179009807F0BF
:1063B00073F9002810D00020A0742060F8BD0120DF
:1063C000A0742060A7606060B0792870F288681CB3
:1063D00000990DF00FFFDBE70120A0742060022080
:1063E000A7606060B0792870F288681C00990DF091
:1063F00001FFF8BD08B50168002908D0012907D0C0
:10640000032921D0042902D10830FFF7A8FF08BDD5
:106410009448694620300AF0A8FE002803D0FF21E6
:106420008DA289310EE00098002802D000F094FC83
:1064300008BD8C4820300AF070FE0028F8D0FF21FB
:1064400085A28F31FFF70CFF8649807A087408BD5A
:1064500008B5684609F0ADFB002803D07EA2854947
:10646000FFF7FEFE0098002803D07E490120487007
:1064700008BD2DDF08BD10B506F0F4FD06F032FAB8
:10648000784900208871FFF7E3FF10BD7CB5054611
:106490000024744800940194406A0AF007F9FF212F
:1064A000F531002D0BD00822684602801822428068
:1064B0008480C1800AF037FB02F0FFF97CBD4022E6
:1064C00068460280F02242808480C1800AF02BFB63
:1064D0007CBD01B5002301226946402008F048F93F
:1064E00008BD3EB55F4C207A032831D100256946AE
:1064F0000D7001956846029502F097F904E001A835
:1065000002F0B2F96D1CEDB2684600788542F6D310
:10651000A07B544D3935002811D0E07B6871E07BB9
:10652000401CE0732846062201A90C300DF062FEE3
:1065300000230E22291D422008F01AF904E0062249
:1065400001A9A81D0DF056FEA07B01214840A073B3
:106550003EBD10B58AB0684671DF002802D03EA269
:10656000454965E06946002070DF002803D04249B4
:1065700039A2C91C5CE06946887849780002084362
:106580003E490DF0DDFD0024084603940494059473
:106590003BA2069406CA039104920A210DF0D0FD95
:1065A0000A46303269460A760A210DF0C9FD0A46CC
:1065B00030326946CA750A210DF0C2FD0A463032F2
:1065C00069468A75303048752D200875112008728B
:1065D00003A80DF033FE82B203A902A87CDF0028D5
:1065E00003D025491CA2113122E05120800178DF1F
:1065F000002803D0204918A2143119E00794402143
:10660000684608948183F021C183FF210484F53119
:10661000418407A87ADF002803D00B210EA289014C
:1066200006E0002077DF002804D013490AA22131B8
:10663000FFF716FE0AB010BD10B5006800280AD199
:1066400008483B21408A76DF002804D00A4902A28C
:106650004B31FFF705FE10BD2E2E5C6D61696E2E6D
:106660006300000004200020FFFF0000D82B002062
:10667000782E0020EB030000A2020000102700008B
:1066800042726163656C6935000000005F21FA4A5F
:10669000C900FFF7E5FD70B515460C460A460646EB
:1066A0000146F64807F0B7FB2078112804D10422F0
:1066B0003146F3480DF09EFDF248854205D1F04881
:1066C00020388169422211438161002070BDFEB5EE
:1066D000EB4C0188203C172979D013DC00251029C8
:1066E00024D02246506A127A11294BD0122908D19F
:1066F000032A06D109F0DAFF0022E349606A09F0B3
:106700006BFFFEBD192965D0DD482038408A392944
:1067100003D0522952D05529F3D1132176DF002816
:10672000EFD0D949D44AD639FFF79AFD80886082E4
:10673000022008F08DFCFF272D3738460BF018FC9F
:106740002573A07A0128DCD10095082168460195BF
:10675000018018214180FF268580F536C6800AF029
:10676000E2F938460BF004FC402168460180F02134
:1067700041808580C6800AF0D6F9A57238460BF0B4
:10678000F7FBFEBD0126032A02D1A67209F08EFF97
:10679000207A012802D10D2001F030F80020257266
:1067A000C0436082B64826730C388078002802D037
:1067B000052001F069FF032010E008E000221146E7
:1067C000A9DF0028DDD0B049AB4AF639ACE700F0CC
:1067D000C3FAFEBD80790028FBD1012008F038FC07
:1067E000FEBDA74810B50E30807A012806D1A44816
:1067F00000212038027B012A01D001712BE70279A8
:10680000521CD2B20271052AF8D101710173032022
:1068100001F03AFF092000F0F1FF1CE708B56846D7
:1068200009F0C7F9002804D00121934A8902FFF733
:1068300017FD0098002804D0914901202039887064
:1068400008BDB1203CDF2DDF08BD10B504460AF0BD
:106850001FFF2146894807F0E6FA204607F06FF847
:1068600020460AF01DF92046FFF731FFF3E610B588
:10687000044608F02EFF204600F05CFBEBE6012901
:1068800013D07F4A203A032908D002290DD1802154
:10689000032801D0042808D1906904E0072804D116
:1068A0009069FF2101310843906170471CB504468F
:1068B000684601F048FD6846C0887D210901401AFC
:1068C00020706846007960706846C078A07068469D
:1068D0008078E0706846407820711CBD10B50028B3
:1068E00002D002F00AF8B6E601F0E7FFB3E6F0B531
:1068F000044663480026203885B017460D46012C13
:1069000006D0022C09D0052C07D0062C05D007E0B4
:106910000121C16106F0C9FB02E0C66106F0C6FBB9
:106920000096019602960396297868460170697868
:106930004170A9788170C6700320285681018000BB
:10694000081A04216956401881B2684681800320E4
:10695000385682018000101A0422BA56801882B27A
:106960006846C280914204D9501A2D21490140182D
:1069700000E0501A694608818C72684606F03FF8BC
:1069800005B0F0BD3E4910B52039C969002911D1C3
:106990003B490E31497800290CD001280BD0002842
:1069A0000FD0022806D10D20FFF793FD01212820EA
:1069B00005F0D4FB4FE604F0C2FB0028FAD1042016
:1069C0000CE032480068002803D0314800680428F1
:1069D000F0D104F0B4FB0028ECD1052000F00EFF4C
:1069E00039E610B5264C203CA069C006A06905D543
:1069F00010218843A06106F077FB2CE6C007A06950
:106A000005D040084000A061FFF75FFC23E6800648
:106A1000A06905D520218843A06107F0D4FC1AE6BF
:106A2000C005A06906D5FF2101318843A06100F0AF
:106A30009DF910E68005A06909D501214902884326
:106A4000A061E0690028D8D100F004FF03E6000649
:106A500006D506F033FFA06980218843A061FAE5DE
:106A6000A06981070B48A169408A15D5022291438C
:106A7000A161132176DFEEE558660100C82B0020E6
:106A800024200020438000007B0400008820002098
:106A90009020002004200020490607D5A06940214D
:106AA0008843A061F8480AF0FEFBD4E5A1694A07D3
:106AB000F6490ED58842A0D1A06904218843A0617F
:106AC00006F0D0FA05F050FE01F0CDFAFFF7C0FC59
:106AD000C1E5A269120712D588428ED1A0690821AA
:106AE0008843A061A021EA480DF09DFB06F0BAFAA8
:106AF00005F03AFE01F0B7FAFFF790FEABE5A069AA
:106B00004105E448A169807907D5012292029143A9
:106B1000A16100288DD1022010E00905A16910D5DE
:106B20000122D2029143A161E179627911428DD1B2
:106B3000002802D0FFF79FFC8DE5032000F05EFEE9
:106B400089E5C904A16906D5012212039143A16117
:106B5000002884D1F2E7890408D5A16901225203F3
:106B60009143A161002886D10120E7E70020A061C0
:106B700009F008FB00F033FA6DE5C74888B001253D
:106B8000456000F026F90024C14B0A22A0330921F8
:106B90002046009409F086FC002802D0BF4AC04974
:106BA000B6E0B948BF4A0121133009F0CEFCBE4916
:106BB00002200BF067FA002802D0B84ABB49A7E0D0
:106BC00000F073FF06F063FE002834D005F07AFA77
:106BD00001F081FB002831D001F005FA002832D005
:106BE00001F0E9FC002832D001F003FE002832D089
:106BF00000F096FE002832D005F0AEFC002832D01E
:106C0000AB49032008600126AA4F7607BE60FF202B
:106C10002D300BF0ADF9FE6005F087F800F0B1F90A
:106C2000A54A1421082009F023FA00281FD09F4903
:106C30009A4A2B396CE0994AA04902E09F49974A49
:106C4000891C002064E09D49944AC91CF9E79B49CE
:106C5000924A091DF5E79949904A491DF1E797497C
:106C60008E4A891DEDE7B7218C4AC900E9E700F09B
:106C700002F9FFF76EFC00F0DBF81C2168460DF00E
:106C8000D2FA0520C00301900F2000040290009466
:106C9000022668460673C4810474894805908948B1
:106CA0000690684609F0A7FE002803D07C497B4A7D
:106CB00081312DE004F0D4FC01F07CFD754C0028FE
:106CC00002D1607A3043607205F0EFFF002802D1F4
:106CD000607A2843607204F09AFF002803D1607A3A
:106CE00004210843607200F084F904F075FB04F09D
:106CF0000DFC06F079FC04F0CEFA63480022032173
:106D00003B3001F075F8002804D06849634A10311F
:106D1000FFF7A6FA01F098F801F0F2FA00280AD07D
:106D200006F066F90A2000F069FDA069002806D087
:106D3000FFF757FEF9E76149584A323181E709F018
:106D400021FA00F04CF9F0E7BFF34F8F5F495E483E
:106D5000C860BFF34F8FFEE7534810B5283007F0E7
:106D600045F95148283007F04BF974E410B5514803
:106D700000690006C00F01D0012100E00021454854
:106D8000427991420FD0417100290DD00021C1728A
:106D90002E300079002800D001200DF037F904F0E2
:106DA0007AFA05F011FA56E40121C17280790028BF
:106DB00001D0FFF760FB00200CF074F800200DF00C
:106DC00025F9042001F060FC0021322005F08AF949
:106DD00041E470B50024374E0325601F03000DF019
:106DE000B5FA1A16161814141414141416161414CA
:106DF0001420141418141414161614140E142C48F9
:106E0000001D05600120800710E0012102E0002143
:106E100000E00321204600F01EF9641C202CDCD386
:106E200070BD2348283805600120C004B060F4E735
:106E30001FB527484268016801920091C1688068C7
:106E400002901948039102A9283007F051F8002850
:106E500003D0B521114A890008E069461D4807F0B2
:106E6000D7F9002804D05B210C4AC900FFF7F8F9D4
:106E700006F058FD1FBD1FB508F092FC00282BD06E
:106E80000749064AA33152E015200020FFFF000009
:106E9000C82400200420002040050040586601005E
:106EA0008E020000E3640100A02B0020A204000079
:106EB0007407005000050050502A0020B105000062
:106EC000396601008D6601000400FA0500ED00E05E
:106ED000584802002C31002001246846047303A89E
:106EE0000AF08AF8002802D0764A77491FE001A804
:106EF000062102300DF097F91E206946C880087AF5
:106F0000E121204308400C30DF2108406946087227
:106F100007204872102088726C4800900C716C48F1
:106F20000AF0C1F8002804D06749664A0F31FFF71C
:106F300097F91FBD10B5022801D0032808D1644875
:106F4000002111380278002A03D0017000F089F87E
:106F500054E44278002A03D04170FFF779FA4DE4F7
:106F60008278002A03D08170FFF758FC46E4C2788B
:106F7000002AEDD0C170032008F0B4F807F0F7FF45
:106F80003CE438B553480124C463002350225249DD
:106F9000082009F047FE002803D02321494A49016F
:106FA0001AE0002000906846047060DF002802D0DC
:106FB000444A4A4910E04A4809F051FE002803D0EB
:106FC0004649404A091D07E0464809F050FE00289E
:106FD00004D042493B4A0831FFF742F938BD10B5A9
:106FE00040DF002804D03D49364A5531FFF738F9D3
:106FF00004E400B587B00BF0CBFA3B480CF027FE59
:107000003A480CF01FFE3A480CF028FE39480DF0C3
:107010007CF82F486946173082780A8064220A81FA
:107020000079002800D0012001900846098881815C
:107030000198049068460189818203A807C80CF072
:1070400023FE23481D300079002800D001200CF0D9
:10705000DDFF07B000BD284A89008000801801606C
:10706000704708B5684608F0A4FD002803D03D210C
:10707000144A09011CE00098002804D0144901209A
:107080001139087008BD02220021052000F012F815
:1070900003220021104600F00DF8032200210420F5
:1070A00000F008F834DF0028ECD00C49054A893993
:1070B000FFF7D6F8120489000A430F4980004018F0
:1070C00002607047586601003703000097660100B0
:1070D0001520002040000040002A00206704000026
:1070E0004B6801006F680100AD680100DD680100B8
:1070F000EF6801008569010000070050FFB585B009
:107100009646844600287CD000297AD0002A78D080
:107110000898002875D000252E4601E170006246CF
:10712000135AFA4A03939A1804922A2A01D318464A
:10713000F0E0002E14D04A1EB24218D1604420382C
:10714000C48B03204002201AFF282ED9F0482018B3
:10715000AF282AD9EF4820188F2826D9002424E008
:1071600060464388032000244002181A13E060445C
:107170000246203AD48B03277F02E21BFF2A08D95C
:10718000E34AA218AF2A04D9E24AA2188F2A00D9EA
:1071900000244388D81BFF2808D9DD481818AF28D9
:1071A00004D9DC4818188F2800D90023DA4F039837
:1071B000B8423AD1D8482238834208D0401C834292
:1071C00005D0801C834202D0801C83422DD1002038
:1071D00007460090D1487A00805AA04202D101208F
:1071E000009002E07F1C182FF4D3C84A0020521EE2
:1071F0009A180CD0012A05D0032A05D0052A06D1F9
:1072000004E092E0012002E0022000E00320C34AF3
:1072100080007832821800986B004000125A6D1C72
:107220007046C252ADB2B61C7AE00020C043029054
:107230002046184301D103200290002C1ED0002BC1
:1072400010D10027B5487A00805AA04202D1002010
:10725000029003E07F1CFFB2182FF3D3002C0DD057
:10726000002B44D00020019007460090AB487A00E4
:10727000805AA04212D10120019013E0002B36D099
:10728000A64C002030344700E25B9A4201D1012035
:107290003DE0401CC0B22428F5D328E07F1CFFB29B
:1072A000182FE3D39D4C002030344700E25B9A4214
:1072B00002D10120009003E0401CC0B22428F4D386
:1072C000009A0198104301D1401E029001980128B4
:1072D00002D0002807D00AE0002A01D10020029045
:1072E000012A13D003E0012A01D101200290029863
:1072F00003280ED804988A4A0006400D8218029886
:107300004000125A6B007046C25206E00220029002
:10731000F0E703986B007246D0526D1CADB2761C3C
:107320008E4200D2FAE60898058009B0F0BDF0B5AB
:10733000FF24CFB03D34214668460CF074FF21464F
:1073400078480CF070FF0024774F26467D1C19E02A
:10735000285D0246C03A202A02D20A1B012A14DD07
:10736000E038102802D2081B02280EDD70006946A2
:107370004118281904F0D7FB002811D0761C2018DA
:10738000B6B284B23978A142E2D8684B654A314638
:107390006846FFF7B3FE66486249C1604FB0F0BD72
:1073A000641CA4B2EEE7F8B55F480025441C0178E0
:1073B000401C0E182F4625E020780146C0392029B0
:1073C00002D2311B01291FDDE038102802D2301B08
:1073D000022819DD684607806946204604F0A3FBB1
:1073E0006846018803204002081AFF2807D9484848
:1073F0000818AF2803D9474808188F2801D8012555
:1074000002E0641CB442D7D32846F8BDF8B546481C
:107410000025441C0178401C0E182F460FE06846DA
:1074200007806946204604F07EFB684601885920A3
:107430000001081A6F2801D8012502E0641CB4423B
:10744000EDD32846F8BDF0B5394C97B0002626821A
:1074500038480F90FF30013013900B906846068635
:10746000A568002D10D0206800280DD02E482E4988
:107470000078491C4718FFF7C9FF119004F0E9FA9A
:10748000002820D1A660266017B0F0BD28780146FC
:10749000C039202905D2791B012902DCA6602660AB
:1074A00090E0E038102802D2781B0228F6DD0CA903
:1074B000284604F038FB1090002803D011980128CA
:1074C00002D00AE06D1C7AE06846008E592109015D
:1074D000411A702901D320286FD16846067101AA8C
:1074E00002A9008E04F04EFB002866D06846007AA0
:1074F000102802D0202832D05FE0208AFF210830F7
:107500000131884218D9A5605CE00000DFF9FFFF77
:10751000B004FFFF9001FFFF44060000484A02004C
:10752000F84802009E2E0020D82B00207C2000204E
:10753000782E0020782C0020208202A90822013118
:107540000F980CF057FE04A9082201310B980CF09B
:1075500051FE0F9808300F900B9808302CE0208ACD
:10756000F82801D078280FD10830208208210F9800
:107570000CF059FE08210B980CF055FE0F980830BE
:107580000F900B9808300B90208AFF2110300131AA
:107590008842B8D8208202A9102201310F980CF03D
:1075A00029FE06A9102201310B980CF023FE0F983A
:1075B00010300F900B9810300B9010982D18BD4282
:1075C00000D263E704F09CFABD4201D3A6602660B6
:1075D0001198012800D057E70020109011901290C8
:1075E000208A00244005060E139D7008DE4F13907C
:1075F00039E00020109011901290E000C119019024
:107600000822169110A80CF0F5FD301BC000149054
:10761000C0190838169B15900146082218460CF030
:10762000E9FD082210A915980CF0E4FD0020109047
:107630001190019808224319194610A80D930CF0D7
:10764000D9FD14980D9B4019083814900146082262
:1076500018460CF0CFFD082210A914980CF0CAFDB2
:10766000641C1398E4B2A042C3D80DE7F0B5FFB094
:10767000BE4D96B000202882E81FF93813900024F0
:10768000EE681294009404F0E4F9002801D0002779
:107690008FE00020E86028607FB016B0F0BD0020C9
:1076A0000D9030880190202801D101200D900020FC
:1076B00069460872242103A80CF0B5FD02AA03A9AB
:1076C000019804F05FFA002871D0A949684609685A
:1076D000007B02296BD16946097A00290D9902D0F5
:1076E000012902D004E0012961D100211291009109
:1076F0004008019080200D906868012801D00D9805
:1077000001E061200D90844219D2019821180D9852
:10771000814214D30099401A96494880129840003B
:10772000301AE86014A8001900990CF07CFD54A8E8
:10773000001900990CF077FD0020009012908D4800
:1077400001994088201A42180D998A4213DB884219
:1077500011DA12984000301AE86000980099201A57
:1077600084B214A800190CF05EFD54A80019009909
:107770000CF059FD22E003A914A801310019019A67
:107780000CF038FD019803A9401C411854A80019B9
:10779000019A0CF02FFD01980199201884B20098ED
:1077A000401880B200901298401C80B21290B61C13
:1077B0007F1C70488088874200DA70E704F0A0F9E7
:1077C00000222A82641E684B20B254AE13990BE04B
:1077D00014AC245C1C70345C0C702C8A5B1C641C24
:1077E000491C401E2C8200B20028F1DA61488088D2
:1077F000874200D050E7EA602A604DE770B5054641
:107800005D480078002824D15A4CE068122801D342
:107810000020E060606908F049FFE0685749C00057
:107820004618284603F0B4FC002802D171682846A7
:10783000884700F015FC002803D107F009FC00F090
:10784000F2FBA069A561E06100224D49606908F082
:10785000C3FE70BD10B503F072FC002801D003F028
:1078600074FC42484068012806D002280AD004F07F
:10787000ABFC00F067FF10BD0521142004F032FCC2
:10788000012004E00521142004F02CFC022000F06B
:10789000FBFE0820FFF7B2FF10BD34480021016055
:1078A0008160704770B5344800250078314C00285D
:1078B00000D02561E068122800D3E560E0682F4918
:1078C000C00040182169002915D0217801225140BB
:1078D00021702169491E2161E268A168914201D0AD
:1078E000E168A16000688047012100228903606986
:1078F00008F072FE70BD257000F006FB00F0B3FBCF
:1079000005F0EDFFE0680A2804D2E068032801D002
:10791000E56070BDE0680328FBD105F040FC70BD58
:10792000144810B5174A0021143008F00EFE002844
:1079300001D0002010BD0F480021C160016101206D
:1079400010BD10B5FFF72FFD002804D0012801D18C
:10795000FFF78CFE10BDFFF776FD10BD0548002136
:10796000C160016170470000782C0020782E002053
:10797000B8230020782000200A2000206848020058
:10798000CD0C0000A5780100F8B50C214843E74E66
:10799000074680190090017901242046E44D884073
:1079A000E860F15D20468840A8602046FEF792FB23
:1079B0000098017920468840A860E861F05D844025
:1079C000EC61F8BD70B50C22D84E504382190123EA
:1079D00055681C46D64AAC409461305C8340D36005
:1079E00080200E46064201D0946000E0D46000BFC3
:1079F00000BF00BF00BF936000BF00BF00BF00BF5B
:107A0000D3604008EDD1D461936000BF00BF00BFD8
:107A100000BF1069D360E840C007C017401C9461E4
:107A200070BDF3B504460C204443C0480025271818
:107A30003A7901239340BE4A81B0D3618026BB4886
:107A40000121005D8140BA48816000BF00BF00BFD6
:107A500000BF02693B79DA40D20701D03543EDB26D
:107A6000C1600120FEF736FB00BF00BF00BF00BFB2
:107A70007608E4D13A79012108469040AC4AAB4BF4
:107A80009061029E002E01D0D06000E0906000BFA7
:107A900000BF00BF00BF185D8140916000BF00BF04
:107AA00000BF00BFD1602846FEBDF8B59F4E00273D
:107AB000377218203060172070609F499D48086217
:107AC000C86101249A4D2006A861A8604010E861B1
:107AD0002046FEF7FFFA28697168C840C00718D130
:107AE00020468840A861317820468840E86001201F
:107AF000FEF7F0FA00BF00BF00BF00BF307821469C
:107B00008140A9600120FEF7E5FA7F1CFFB2092F32
:107B1000E9D3317820468840A860A86131792046B1
:107B20008840A860A861002030750D20F0600C200E
:107B3000814930617F484039486308630120400330
:107B4000A861A8604010E8610120FEF7C3FA296926
:107B50003069C140C90719D121468140A961002778
:107B6000317B20468840E8600120FEF7B3FA00BF71
:107B700000BF00BF00BF307B21468140A9600120CB
:107B8000FEF7A8FA7F1CFFB2092FE9D3317B20460C
:107B90008840A860A861317C20468840A860A86120
:107BA00062490020203108700820B0610920624934
:107BB000F0616048403908624862FF200130A861E6
:107BC000A8604000E8610120FEF784FA2969F069A5
:107BD000C140C90719D121468140A9610027317EE2
:107BE00020468840E8600120FEF774FA00BF00BF1D
:107BF00000BF00BF307E21468140A9600120FEF712
:107C000069FA7F1CFFB2092FE9D3317E20468840F4
:107C1000A860A861307F8440AC60AC61F8BDFFB55E
:107C200081B01C46150013D001980C2148433F49F0
:107C3000012247183A72019800F054F8029901980D
:107C4000FFF7C0FE060023D00298C0070BD118E052
:107C5000012005B0F0BD002C0BD001210198FFF7E9
:107C6000E0FE28706D1C2046641EE4B20028F2D1AC
:107C70000EE00021F2E729780198FFF7A3FE064005
:107C80006D1C2046641EE4B2002801D0002EF2D103
:107C90000A983146814302D10198FFF775FE002012
:107CA00038723046D5E7FFB5012481B01F4615462E
:107CB0000E46002907D10120CBE731780198FFF764
:107CC00081FE0440761C28466D1EEDB2002801D0CE
:107CD000002CF2D12046B84302D10198FFF754FEA0
:107CE0002046B6E7F8B50C214843104E07468019E8
:107CF000009001790124204688400D4D0146A8617D
:107D0000F25D20469040A861A960A8602046FEF779
:107D1000E1F90098017920468840E8600120FEF7EB
:107D2000D9F9F05D8440EC60F8BD0000DC2F002044
:107D3000000500500C0600004007005010B54D4AE9
:107D40009368002B0BD004780A4680682146984738
:107D5000002803D048A21A21FEF782FA10BD02299A
:107D600008D001290CD00329F8D102788368104685
:107D7000984710BD0378826802211846904710BDCD
:107D8000027801218368F2E7F3B5002481B00F4641
:107D90000125384E28E00C20716860434018417876
:107DA000022904D0012909D003290FD01AE0017853
:107DB0002A468A403A4215D0022111E0027829462B
:107DC0009140019A11420DD0012109E00278294623
:107DD00091400A463A4202D1019A114202D003214F
:107DE000FFF7ACFF641CE4B230788442D3D3FEBD0D
:107DF000F8B5204B154658600024197022469D6046
:107E000016E00C234B431B181E785D68B7001F4E0D
:107E1000AD00BE1935605D78AE0703D51F78012629
:107E2000BE403243ED0703D01D780123AB401C4315
:107E30000B46491EC9B2002BE3D10E48144B214614
:107E4000401C0AF046F9F8BD10B50A4841680029FF
:107E500003D040780AF060F910BD082010BD10B5BD
:107E600004484168002903D040780AF096F910BD13
:107E7000082010BD982000202E2E5C68616C5C618B
:107E800070705F696E7470696E2E63000007005039
:107E9000897D01001CB5002269460A7148710120E4
:107EA0000090022301AA78210020FFF7B8FE0028E5
:107EB00000D001201CBD7CB50C460546402069461B
:107EC00008710020012301AA78210090FFF7A7FE86
:107ED0000123224629460020FFF7E5FE002800D0B6
:107EE00001207CBD10B50446B031C8B2FFF7D2FF07
:107EF0000020FFF7CFFF1020FFF7CCFF80212046A6
:107F0000FFF7D9FF012010BD00B5A1B08021684660
:107F10000CF089F900216846FFF7E4FF012168466B
:107F2000FFF7E0FF02216846FFF7DCFF0321684608
:107F3000FFF7D8FF21B000BD10B5AE20FFF7AAFFB4
:107F40000020FFF7A7FF1020FFF7A4FF0020FFF796
:107F5000A1FFB020FFF79EFF8120FFF79BFFFF20CE
:107F6000FFF798FFA120FFF795FFA620FFF792FFEC
:107F7000A820FFF78FFF1F20FFF78CFFC820FFF717
:107F800089FFD320FFF786FF0020FFF783FFD5206E
:107F9000FFF780FF8020FFF77DFFD920FFF77AFFF2
:107FA0000420FFF777FFDA20FFF774FF0220FFF7C6
:107FB00071FFDB20FFF76EFF3020FFF76BFF8D2096
:107FC000FFF768FF1420FFF765FFA420FFF762FFAB
:107FD000FFF79AFF1E2000F056F801202F49800776
:107FE000C860012010BD10B5192000F04CF8192010
:107FF00000F04FF80A20FEF77DF8012027494006DF
:10800000C8600A20FEF776F81E2000F03CF81E201B
:1080100000F03FF8642009F0ABFF192000F039F8B8
:10802000FFF78AFF10BD10B51E2000F02CF81E20AF
:1080300000F02FF8AF20FFF72DFF19480078002837
:1080400004D0C820FFF726FFA12003E0C020FFF7DF
:1080500021FFA020FFF71EFF12490120087010BD6C
:1080600010480078704710B5AE20FFF713FF0D4998
:10807000002008701E2000F006F801200749800744
:10808000C860012010BD084A0321800080180160EB
:108090007047012181400148816070470005005010
:1080A00074200020A420002000070050F1B5FA48F9
:1080B00086B080680026F9490CF042F80C46054667
:1080C0003C2120460CF03CF868460170E121090192
:1080D00020460CF035F8044608463C210CF030F8F8
:1080E000C1B2684641700291E1B2817003917D2175
:1080F0000901FF27ADB2C180913711E00499002931
:1081000026D0642120460CF01BF8002901D0A007DE
:108110001ED0FF206E30281A85B2641C6846C480C9
:10812000C088394604460CF00BF80491002912D09F
:10813000642120460CF004F8002901D0A0070AD0E1
:10814000FF206E30A842D9D900206946087119E095
:10815000FF206F30DFE7FF206F30F3E7049900293D
:1081600035D0642120460BF0EBFF002901D0A00799
:108170002DD00020394600F0C9F9281A85B27F1C9D
:10818000684607710499002923D0642120460BF02A
:10819000D7FF002901D0A0071BD00020694609792C
:1081A0000F4600F0B3F9A842D8D9E9B26846C170C9
:1081B000B9481430C278914207D1694609790279E9
:1081C000914202D1C1888C4205D007260EE00120E1
:1081D000D0E70120E2E782780399914201D003269B
:1081E00004E040780299814200D0012606980028D8
:1081F00006D0A948C660AA4801680122114301605F
:10820000A5480822694614300BF0F4FF07B0F0BD12
:10821000F8B5A14C01252079A24968402071097860
:10822000002906D1A049401E0968014201D100F091
:1082300084FB207900284DD002F081FF00280ED069
:108240000A21A0680BF07CFF002902D1062000F073
:108250001BFA03F0B9FF03210A2003F07FFF9348C4
:108260000178012902D1E178491CE170E17800260A
:108270000A2901D90670E6708D4F3878042803D199
:1082800001200BF04AFFA5703878002802D10BF0CE
:1082900044FFA670A068401CA060FEF7A2FA2078F8
:1082A0003B2804D326700120FFF700FF01E0401CAB
:1082B000207003F0D5F97B48007800280AD106F039
:1082C000F5FE2079002805D004F09DFF002801D09C
:1082D00004F0CCFFF8BD10B56F49002088606E48EF
:1082E000082114300BF09FFF6B48724A01211030B7
:1082F00008F02BF9002801D0002010BD012010BD8E
:10830000654810B51430017814380170012100223D
:108310008903006908F060F9002801D0002010BD31
:10832000012010BD10B55C48006908F0BFF90028B5
:1083300001D0002010BD012010BD57498860704752
:10834000554880687047544910B5082214310BF025
:1083500051FF10BDF8B5044680783C214843617850
:10836000E57840183C214843217846180427E75710
:1083700016E0E088FF21913100900BF0E1FE00292A
:1083800016D0642100980BF0DBFE002902D0009883
:1083900080070DD00020F9B200F0B8F8401985B27E
:1083A0007F1E7FB2002FE4DA7D27E4883F0114E0CE
:1083B0000120F0E7FF21913120460BF0C1FE00299A
:1083C00013D0642120460BF0BBFE002901D0A0078A
:1083D0000BD0FF206E30401985B2641EA4B2BC429F
:1083E000E8D22E484543A819F8BDFF206F30F2E7C8
:1083F00070B5294904461431E278CB7800209A42BE
:1084000007D122790B799A4203D1E288CB889A422C
:1084100000D00720A2788B789A4201D00322104323
:10842000627849788A4201D0012108431A4D2178A7
:108430002970E8602046FFF78DFFA86028460822D3
:10844000214614300BF0D6FE70BDF8B5124814303A
:10845000C77804797F1CC688002C2DD0012C2BD026
:10846000642130460BF06CFEC5B264206843301ABC
:10847000C6B2A41C1A2060430A210BF061FEB208A8
:108480009219AB08D2186B00C0B2D21AF9B2101808
:108490004018801E21E00000A8200020805101002B
:1084A0001C2000200A200020202000200F20002077
:1084B0000C20002011820100701E64210BF056FE7A
:1084C000C5B264206843301A401EC6B220460E3042
:1084D0001A214843D0E7C01D00B20028FBDB07216A
:1084E0000BF044FE0620401A1049C0B24870F8BD97
:1084F0000E48407870470D49CA68002801D0002016
:10850000C8601046704709488078704702461F20AF
:10851000012907D0062901D9491EC9B2C90700D0CF
:108520001E2070471C32D0B270470000A8200020E7
:10853000F8B5974E306808F0B9F8964C351D607A5A
:10854000E979002788420AD31D2000F015F91D2083
:1085500000F019F9904904200860EF71F8BD01207E
:1085600022684107002A0ED06268012A0FD0227AC1
:10857000521CD2B22272AB799A4212D26060874802
:108580008160298808E0206060602772F7E71D207D
:10859000676000F0F8F869880022306808F01CF87D
:1085A000F8BD2760A9880022306808F015F8607AC5
:1085B000401C6072F8BD10B5774904200860784A05
:1085C0000021734807F0C1FF002801D0002010BD32
:1085D000012010BD072A00D30522112800D3002056
:1085E000002900D101215300694A0C32D054981857
:1085F00041707047F3B5664E044681B0306808F0AC
:1086000055F81D2000F0B8F81D2000F0BCF8112C22
:1086100000D300246349E00044182088FF23410C64
:10862000C003F5330022C01851415F003A460023D1
:108630000BF0B0FD564D7B102D1D28806088002268
:10864000410CC003C01851413A4600230BF0A2FD73
:108650006880A079A871A0887B10410CC003C01865
:10866000002251413A4600230BF094FDA880029865
:10867000E87148490020086048608860024632215D
:10868000306807F0A9FFFEBDF8B5044646484749E3
:1086900000780978084046490978084351D13C4F91
:1086A000386808F003F8072C00D305243848660022
:1086B0000C30805D112801D33A4C02E03949C000EA
:1086C00044181D2000F058F81D2000F05CF82088A8
:1086D000FF23410CC003F5330022C01851415A005A
:1086E00000230BF057FD2A4DFF232D1D28806088A5
:1086F000F533410CC0030022C01851415A00002339
:108700000BF048FD6880A079A871A088FF23410C78
:10871000C003F5330022C01851415A0000230BF06A
:1087200039FDA8802846083030184078E87119498A
:10873000002008604860886002463221386807F0EF
:108740004BFFF8BD10B51248006807F0AFFF1049A5
:108750000020091DC8711D2000F00EF81D2000F03A
:1087600012F80D490420086010BD0948001DC079A9
:10877000002800D001207047074A03218000743A86
:10878000801801607047012181400448C160704732
:10879000C420002000300020740700500005005065
:1087A00031850100D04A02000B2000200920002062
:1087B0000A2000201CB50F20694608710020012303
:1087C000009001AA32211846FFF729FA00280DD09F
:1087D0000120034601AA33210090FFF720FA002868
:1087E00004D068460079332801D000201CBD012048
:1087F0001CBD10B500F0C6F8002804D0FFF7DAFF62
:10880000002800D0012010BD1CB520216846017150
:10881000082141710120022301AA32210090FFF7B3
:10882000FEF9002800D001201CBD1CB504462F20F5
:108830006946087100200123009001AA32211846E0
:10884000FFF7EDF900280ED00120034601AA3321DD
:108850000090FFF7E4F9002805D068460079C006CB
:10886000C00E207001201CBD3EB50446A8206946FC
:10887000087100200123009001AA32211846FFF759
:10888000CEF9002818D00120062301AA3321009038
:10889000FFF7C5F900280FD068460421415E081192
:1088A000208068460621415E0811608068460821E4
:1088B000415E0811A08001203EBD1CB52021684604
:1088C0000171472141710124022301AA322120466E
:1088D0000094FFF7A4F900280ED02E2168460171FC
:1088E00099214171022301AA322101200094FFF74E
:1088F00096F9002800D001201CBD1CB52021684637
:108900000171272141710124022301AA322120464D
:108910000094FFF784F900280ED02E2168460171DB
:108920009F214171022301AA322101200094FFF707
:1089300076F9002800D001201CBD3EB50024694610
:108940000C703548019402940078002819D13348FE
:108950000078032815D00846FFF767FF0DE001A84F
:10896000FFF782FF6B460822062104209A5E595EBB
:10897000185E0BF024F9641CE4B268460078844267
:10898000EDD33EBD1CB520216846017147214171E0
:108990000124022301AA322120460094FFF73FF967
:1089A000002838D023216846017108214171022333
:1089B00001AA322101200094FFF731F900282AD0C2
:1089C00024216846017140214171022301AA32210C
:1089D00001200094FFF723F900281CD025216846C8
:1089E000017100214171022301AA3221012000946A
:1089F000FFF715F900280ED02E2168460171992144
:108A00004171022301AA322101200094FFF707F9E6
:108A1000002800D001201CBD0A2000200C200020CE
:108A2000FFB581B000283ED0029900293BD00399C0
:108A3000002938D00499002935D0FF4E8024716870
:108A4000012900D16124318AFC4DA14209D2CCB266
:108A5000E91F621EF9390BF0CDFB621E2946029810
:108A60001FE0F74A4D198F18F6490A88B91A0BF01A
:108A7000C1FBF44802880298A91A0BF0BBFBF1482D
:108A8000327C0088391A2D1A101AC6B2A64200D9B3
:108A90002646891B324603980BF0ACFBA91B3246D5
:108AA00004980BF0A7FB05B0F0BD10B50023E64A13
:108AB00000280BD0148A8C4209D1116801605168DA
:108AC000416091688160D168C160012010BD5B1C6C
:108AD0001432DBB2172BEDD3002010BDF0B5FFB080
:108AE00090B000252C4684A8FFF72DFC80A8007DBF
:108AF0000C280BD280A8C07C1F2807D280A8807CBD
:108B00003C2803D280A8407C3C2804D3CFA2D5497E
:108B10000020FDF7A5FB802168460BF084FB802137
:108B200020A80BF080FB802140A80BF07CFB80216B
:108B300060A80BF078FBCC48C078002806D080A84D
:108B4000807C0C2802D90C3880A988740026819674
:108B500080A88296437C827CC4A181A80BF0E2FBB2
:108B600081A80BF06BFBC7B267E081A8405D3A2893
:108B700027D030380006800DBF49869009586846D6
:108B8000001912220BF036FBBB4986983431095884
:108B900020A8001912220BF02DFBB74986986831E6
:108BA000095840A8001912220BF024FBB2498698FC
:108BB0009C31095860A8001912220BF01BFB1234DB
:108BC00038E0AE48007800281FD0AB480822816A00
:108BD000684600190BF00EFBA74808223430816A62
:108BE00020A800190BF006FBA34808226830816A10
:108BF00040A800190BF0FEFA9F4808229C30816AB9
:108C000060A800190BF0F6FA13E068460019082175
:108C10000BF009FB20A8001908210BF004FB40A869
:108C2000001908210BF0FFFA60A8001908210BF0C9
:108C3000FAFA08346D1CE4B2EDB2BD4295D3904807
:108C400054AD016814A88C9034A874AC8B900029A2
:108C500029D01F228B498C980BF0CCFA89491F220E
:108C60001F398B980BF0C6FA86491F223E392846D9
:108C70000BF0C0FA83491F225D3920460BF0BAFA87
:108C800000216846FFF72EF9012120A8FFF72AF9F5
:108C9000022140A8FFF726F9032160A8FFF722F977
:108CA0007FB010B0F0BD04F085FC00287ED0819626
:108CB00080A88296C37C027D5B1C521C72A181A895
:108CC0000BF030FB81A80BF0B9FA5225C6B2002494
:108CD00019E081A8005D2F2828D03038C0B2870065
:108CE0006C480622C15940A840190BF083FA694824
:108CF00006222C30C15960A840190BF07BFAAD1D3B
:108D0000641CEDB2E4B2B442E3D3FFF7FCFB0028ED
:108D10000ED04D491F22BD398C980BF06BFA4A4991
:108D20001F22DC398B980BF065FA36E00A20D6E773
:108D300059480078002824D01F2258498C980BF0FD
:108D400059FA56491F221F398B980BF053FA5524B4
:108D500002F0CCFA0646002520AF0FE06846001965
:108D600004224F490BF046FA4D4938190422091DD7
:108D70000BF040FA241D6D1CE4B2EDB2B542EDD308
:108D80000BE046491F226E318C980BF033FA4349B1
:108D90001F224F318B980BF02DFA424800780328A0
:108DA00017D041483D4C0188404800E08FE0933C9B
:108DB00081422DD02046803803467433826F416F44
:108DC000C06FDB681F931D921C911E90241D0FCC59
:108DD00029E01D491CACDC3908467C30C96F83682A
:108DE0004268C0680EC41F9017483CAD5C3801460D
:108DF0000C311EC91EC501461C311EC95CAD1EC505
:108E0000436B026BC16A806B7CAC0EC47F9037E70A
:108E100006F044F9002809D1204634300FC81CADB3
:108E20000FC544340FCC3F933CAB07C3FFF760FB47
:108E30000621081A00063BE0782E0020782D00203D
:108E4000782C00207A200020345602002E2E5C68F8
:108E5000616C5C6170705F646973705F706167659D
:108E60002E630000620C00003220002025303264A6
:108E70003A2530326400000058210020782000207C
:108E800020200020514F0200253032642F2530323F
:108E90006400000018230020092000206B54020009
:108EA000604B02000C20002016200020FFFF000075
:108EB000840DFA48102201595CA80BF09BF9F74881
:108EC00010221C3001597CA80BF094F9D8E68DA82B
:108ED0008D9604F047F98D98817886A8FFF7E5FD17
:108EE0001F2286998C980BF085F91F2287998B9801
:108EF0000BF080F91F22284688990BF07BF91F227E
:108F000020468999E0E7F0B5FFB090B000246846AC
:108F1000FFF719FA684600790C280BD26846C0782A
:108F20001F2807D2684680783C2803D268464078DC
:108F30003C2804D3DA4ADB490020FDF791F980216F
:108F40006EA80BF070F980214EA80BF06CF980210F
:108F50000EA80BF068F980212EA80BF064F9D24816
:108F6000C078002806D0684680780C2802D90C38D2
:108F70006946887068460679CC4D092E2EA808D31C
:108F80001022CB490BF036F9B00040194038C169C6
:108F900007E0C749102210390BF02CF9B000401936
:108FA00041680EA810220BF025F96846C0780A2106
:108FB000401C0BF0C5F800060E46800D29584EA83F
:108FC00010220BF017F9B00029586EA810220BF0F0
:108FD00011F9684680780A210BF0B2F88700B54D88
:108FE000059133A8E959023020220BF003F92E46EF
:108FF000283E13A8F159023020220BF0FBF8059906
:1090000053A88F00E959023020220BF0F3F873A81F
:10901000F159023020220BF0EDF8A7485BAF017840
:109020001BA80230023700290AD00422A3490BF002
:10903000E1F8A24938460422091F0BF0DBF806E0EC
:1090400004210BF0F0F8384604210BF0ECF86846E8
:1090500040780A210BF074F8870005913CA8E95983
:10906000023020220BF0C6F81CA8F1590230202251
:109070000BF0C0F805995CA88F00E9590230202256
:109080000BF0B8F87CA8F159023020220BF0B2F8AE
:109090008B4886AE016826A866AD46AF07900029CA
:1090A00015D030461F2287490BF0A4F88549284681
:1090B0001F221F390BF09EF882491F223E39079864
:1090C0000BF098F87F491F2238465D3971E004F0B3
:1090D00071FA002870D07C480078032824D0FFF76C
:1090E00007FA0621081A00066C49800D54310890D1
:1090F0000958384610220BF07DF868490898383135
:109100000958102207980BF075F8704870490088CC
:10911000884220D0284610226E490BF06BF86D492A
:1091200010223046103924E061493046102250396F
:109130000BF060F85E492846102240390BF05AF8CF
:109140005B491022303907980BF054F85849102227
:10915000384620390DE005F0A1FF00280BD15D490C
:109160002846102240310BF045F85A49304610226B
:1091700030310BF03FF8FFF7C6F98AAB6AAF2AAE81
:109180004AAD002819D04A4918460C22D8390BF0AC
:1091900031F8474938460C22E4390BF02BF84449A2
:1091A00030460C22F0390BF025F8414928460C22B4
:1091B000FC390BF01FF8AFE0D4E0474800780028F6
:1091C000184669D043490C22B2310BF013F84149DB
:1091D00038460C22A6310BF00DF83E4930460C22E1
:1091E0009A310BF007F83B4928460C228E310BF0E0
:1091F00001F8732502F07AF880220721052809D0AA
:10920000F82604281FD0032832D0022866D001286F
:1092100074D081E00EA82EAB5A5D641C0A435A55E7
:10922000465DFF22164346554EAE775DE4B21743C6
:1092300077556EAA565D80273E4356556D1CEDB29C
:10924000062CE9D368E04EA80EAA2EAB5E5DFF2780
:109250000E435E55565D641C3E435655465DF827E9
:109260003E4346556D1CE4B2EDB2062CEED353E0FE
:109270000EA82EAB5E5DFF270E435E55465D641C57
:109280003E4346554EAE775DE4B2174377556D1CAD
:10929000EDB2062CEED33FE04FE01FE0E8200020C7
:1092A0004C8E0100090D00003220002070230020A8
:1092B0002456020050220020782000205C4B02003F
:1092C00020200020514F02000C20002016200020FA
:1092D000FFFF0000FC530200092000200EAA2EA868
:1092E000435D641C0B434355535DE4B23343535514
:1092F0006D1CEDB2062CF3D30EE0FFE70EAB2EA8EB
:10930000465D641C0E4346555E5DE4B216435E55F1
:109310006D1CEDB2062CF3D300216EA8FEF7E2FD22
:1093200001214EA8FEF7DEFD02210EA8FEF7DAFDB0
:1093300003212EA8FEF7D6FDB2E40C22FE490AF066
:1093400059FFFD4938460C220C390AF053FFFA49FF
:1093500030460C2218390AF04DFFF7490C222846F6
:10936000243926E70020029002A803F0FBFE0298B1
:10937000817808A8FFF799FB30461F2208990AF068
:1093800039FF28461F2209990AF034FF1F220A9943
:1093900007980AF02FFF38461F220B9909E710B5EE
:1093A000E6480078002802D0FFF798FB10BDFFF7D1
:1093B000AAFD10BD70B5E24906240978E14DE24EE0
:1093C000032922D0022812D00ADC002801D001286B
:1093D00014D12C60FEF744FE00280FD004200CE0CE
:1093E00004280CD00A2809D12C600D2005E02C603F
:1093F000FEF736FE002801D00120306070BDFEF778
:109400002FFE0028FAD12C6070BD032822D00CDC7E
:10941000002818D001280FD00228F5D12C60FEF7C3
:109420001FFE0028F0D001201AE00428E7D00F2802
:10943000EAD12C600020E0E72C60FEF711FE002846
:10944000E2D00B200CE02C60FEF70AFE0028DBD0F7
:109450000A2005E02C60FEF703FE0028D4D0072088
:10946000FDF737F870BDF0B5FFB084B0002580215E
:1094700021A800950AF0D7FE802141A80AF0D3FE6A
:10948000802161A80AF0CFFE802101A80AF0CBFE5E
:10949000684603F052FE00980621846881A80AF00D
:1094A000C2FEAA48844211D3A948844202D3A94AE1
:1094B000092306E07D21C90020460AF041FE82B260
:1094C0000B46A5A181A80AF02DFF04E02246A4A125
:1094D00081A80AF027FF81A80AF0B0FEC6B2052EC7
:1094E00000D905260520801B122148431F30C4B235
:1094F00029E081A8405D2C2851D030380006870D26
:109500008E4812227830C15921A800190AF072FE43
:109510008A481222AC30C15941A800190AF06AFEEB
:1095200086481222E030C15961A800190AF062FE93
:109530008C481222C15901A800190AF05BFE1234AE
:109540006D1CE4B2EDB2B542D3D31F22864921A8E7
:109550000AF050FE84491F221F3941A80AF04AFE32
:1095600081491F223E3961A80AF044FE7E491F222C
:109570005D3901A80AF03EFE002121A8FEF7B2FCE9
:10958000012141A8FEF7AEFC022161A8FEF7AAFC6A
:10959000032101A8FEF7A6FC7FB004B0F0BD01A82E
:1095A0000019082271490AF025FE0834C8E7F8B509
:1095B00000270624634D644E002809D0012807D0F7
:1095C000022808D0042805D1FEF74AFD002801D161
:1095D0002C603760F8BD2C60FEF742FD0028F9D002
:1095E00002203060F8BDF0B5FFB084B000258021C6
:1095F00002A80AF018FE802122A80AF014FE802199
:1096000042A80AF010FE802162A80AF00CFE03F0C6
:10961000B1FD0021009101910A210AF091FD02465D
:109620004FA168460AF07EFE68460AF007FEC6B201
:10963000052E00D905260520801B122148431F3026
:10964000C4B227E06846405D122230380006870D1C
:109650003A487830C15902A800190AF0CBFD4148B8
:1096600012226838C15922A800190AF0C3FD3D48EA
:1096700012223438C15942A800190AF0BBFD3948FA
:109680001222C15962A800190AF0B4FD12346D1CEF
:10969000E4B2EDB2B542D5D333491F227C3102A8E2
:1096A0000AF0A8FD30491F225D3122A80AF0A2FD70
:1096B0002D491F223E3142A80AF09CFD2A491F2253
:1096C0001F3162A80AF096FD002102A8FEF70AFCED
:1096D000012122A8FEF706FC022142A8FEF702FCA7
:1096E000032162A8FEF7FEFB56E7F8B50024062525
:1096F000144E154F002809D0012807D0022805D0A4
:10970000042805D1FEF7ACFC002801D135603C608F
:10971000F8BDF0B5FFB092B0002628A90E730E7404
:1097200080212FA82A960AF07EFD80214FA80AF0FA
:109730007AFD80216FA81BE01C550200E02000206C
:109740000C2000208820002084200020A08601001A
:1097500040420F00E703000025642C256400000050
:1097600025640000F4210020614D0200684B0200D6
:109770000AF059FD802168460AF055FD2CAA2AA955
:109780002BA803F0DEFC2A98817825A8FFF78DF935
:10979000002815D0FA4928A8007C097888431ED0F3
:1097A0001F212FA80AF03FFD1F214FA80AF03BFD03
:1097B0001F216FA80AF037FD1F2168460AF033FD0C
:1097C00006218FA80AF02FFD2A98817809061BD55B
:1097D00085680A2128460AF0B3FC02462BE01F22C6
:1097E0002FA825990AF006FD1F224FA826990AF0F6
:1097F00001FD1F226FA827990AF0FCFC1F22684672
:1098000028990AF0F7FCDBE7C568DE48854211D3EA
:10981000DD48854202D3DD4A092306E07D21C900E7
:1098200028460AF08DFC82B20B46D9498FA80AF06F
:1098300079FD04E02A46D7A18FA80AF073FD8FA80E
:109840000AF0FCFCC7B2052F00D905270520C01B74
:109850000D2148431F30C4B22DE08FA8805D2C2815
:1098600031D030380006800DCB49249009582FA8FC
:1098700000190D220AF0BEFCC74924982831095866
:109880004FA800190D220AF0B5FCC34924985031A5
:1098900009586FA800190D220AF0ACFCBE492498A3
:1098A00078310958684600190D220AF0A3FC0D34DE
:1098B000761CE4B2F6B2BE42CFD32A980188A94200
:1098C00009D85A230DE0684600190822B3490AF066
:1098D00091FC0834ECE75A20491C68430AF030FC3C
:1098E00083B208A8417870221143417018A8C17E44
:1098F0001143C1763E38002150240578994201D2A7
:10990000154300E025430570491C401CC9B25A2983
:10991000F3D303F003FC694600222AE028AB1B7B4B
:109920000C78934212D1E0231C430C704C78A02594
:109930002C434C708C781C438C70CB78DB06DB0E90
:10994000CB700B79DB06DB0E0B710FE040231C4361
:109950000C704C781C434C708C781C438C70CC7809
:10996000BF231C40CC700C791C400C71491D521C4B
:10997000D2B28242D2D300212FA8FEF7B3FA01213E
:109980004FA8FEF7AFFA02216FA8FEF7ABFA03214A
:109990006846FEF7A7FA7FB012B0F0BD70B5062496
:1099A0007F4D03000AF0D2FC050404131B2A1200A9
:1099B0002C60FEF755FB002808D003F0FBFD0028C3
:1099C00001D103F011FC77490020086070BD2C60C4
:1099D000FEF746FB0028F9D003F0E5FB70BD2C60D4
:1099E000FEF73EFB0028F9D003F0EDFD0028F5D18D
:1099F0000520FEF749FE03F0E8FB70BDFEF730FBE3
:109A00000028FAD12C6070BD00B5FFB082B0802173
:109A100068460AF008FC802120A80AF004FC802196
:109A200040A80AF000FC802160A80AF0FCFB0CA80A
:109A30001F225D490AF0DEFB5B492CA81F221F395B
:109A40000AF0D8FB58494CA81F223E390AF0D2FB35
:109A500055496CA81F225D390AF0CCFB00216846ED
:109A6000FEF740FA012120A8FEF73CFA022140A8A7
:109A7000FEF738FA032160A8FEF734FA7FB002B08F
:109A800000BDF8B50027464E464D062403000AF0F7
:109A90005DFC050404070E1A060034602F60F8BD53
:109AA0003460FEF7DDFA0028F9D02C60F8BDFEF72F
:109AB000D7FA0028FAD00520FEF7E6FD03F06FFB89
:109AC00003202860F8BDFEF7CBFA0028E5D0F8BDEA
:109AD00070B5FFB081B0802120A80AF0A4FB8021DE
:109AE00040A80AF0A0FB802160A80AF09CFB80211E
:109AF00068460AF098FB2D484CAE01682CA86CAD66
:109B00000CAC00295ED01F2229490AF073FB2849BA
:109B100030461F221F390AF06DFB25491F223E39AE
:109B200028460AF067FB224920461F225D390AF0C9
:109B300061FB2048204D0678C0242049E022A02364
:109B400040202D880A2E03D81D4E3678012E4ED087
:109B50008D427DD010A9CD7F1543CD7718A90A7805
:109B60001A430A704A7822434A700A7902430A71FA
:109B70004A7902434A718A7902438A7180E000007F
:109B800078200020A086010040420F00E70300007B
:109B9000589701002564000078220020684B0200DD
:109BA0008820002084200020BD51020020200020B9
:109BB000CD4F0200AB20002016200020FFFF000048
:109BC0000F2000201F22F7490AF014FBF549304608
:109BD0001F221F390AF00EFBF24928461F223E3988
:109BE0000AF008FBEF491F2220465D399FE78D42AE
:109BF00014D010A9CD7F1543CD7718A90A781A4340
:109C00000A704A7822434A700A7902430A714A79F3
:109C100002434A718A7902438A7109E018A90C79D2
:109C200014430C714C791C434C718B7913438B7129
:109C30004A7A02434A728A7A02438A72CA7A024391
:109C4000CA728A7B02438A73CA7B0243CA7300E0EA
:109C50000CE00A7C02430A74CA7C0243CA740A7D7F
:109C600002430A754A7D02434A751BE018A90C7924
:109C700014430C714C791C434C718B7913438B71D9
:109C80004A7A02434A728A7A02438A72CA7A024341
:109C9000CA728A7B02438A73CA7B0243CA730A7CF4
:109CA00002430A74002120A8FEF71CF9012140A8F4
:109CB000FEF718F9022160A8FEF714F9032168469F
:109CC000FEF710F97FB001B070BD70B50625B64E35
:109CD000B64C03000AF03AFB0504040B1D2F1900D3
:109CE0002560FEF7BDF900280FD004200FE02560A5
:109CF000FEF7B6F9002808D0AD48AE490088884282
:109D000004D0072030601820206070BD082030602B
:109D100070BD2560FEF7A4F90028F9D00520FEF7F4
:109D2000B3FCA5480068002803D0002009F0BAF869
:109D300070BD0120FAE7FEF793F90028F8D12560FD
:109D4000E5E770B5FFB081B0802120A80AF06BFA7A
:109D5000802140A80AF067FA802160A80AF063FA1F
:109D6000802168460AF05FFA9148924A01882CA83F
:109D70004CAE6CAC0CAD914215D08A491F22F83123
:109D80000AF038FA874930461F22D9310AF032FAF0
:109D9000844920461F22BA310AF02CFA81491F2239
:109DA00028469B3113E01F2284490AF023FA834995
:109DB00030461F221F390AF01DFA804920461F2213
:109DC0003E390AF017FA7D4928461F225D390AF00C
:109DD00011FA7B48E02201784020A0230A2903D809
:109DE00078490978012936D010A9CC7F0443CC7773
:109DF00018A90C7804430C704C7804434C700C790F
:109E000014430C714C791C434C718B7913438B7147
:109E10004A7A02434A728A7A02438A72CA7A0243AF
:109E2000CA728A7B02438A73CA7B0243CA730A7C62
:109E300002430A74002120A8FEF754F8012140A82B
:109E4000FEF750F8022160A8FEF74CF8032168469F
:109E5000FEF748F836E710A9CC7F0443CC7718A961
:109E60000C7804430C704C7804434C700C79144308
:109E70000C714C791C434C718B7913438B714A7A6A
:109E800002434A728A7A02438A72CA7A0243CA72C7
:109E90008A7B02438A73CA7B0243CA730A7C0243E9
:109EA0000A74CA7C0243CA740A7D02430A754A7D59
:109EB00002434A75BEE770B506243C4D3A4E030096
:109EC0000AF044FA0504040B132412002C60FEF778
:109ED000C7F8002808D0042005E02C60FEF7C0F881
:109EE000002801D00820306070BD2C60FEF7B8F863
:109EF0000028F9D02E482F4900888842F4D0052048
:109F0000FEF7C2FB0220FCF7E4FA70BDFEF7A8F8EA
:109F10000028FAD12C60E6E730B5FFB082B080218E
:109F200020A80AF080F9802140A80AF07CF980215D
:109F300060A80AF078F9802168460AF074F92CA824
:109F40001F2221490AF056F91F494CA81F221F3130
:109F50000AF050F91C496CA81F223E310AF04AF958
:109F600019490CA81F225D310AF044F91448104920
:109F70000578104C4020E022A02309880A2D03D840
:109F8000104D2D78012D21D0A14253D010A9CC7FA6
:109F90000443CC7718A90C7804430C704C78044324
:109FA0004C7048E0514F020084200020882000209F
:109FB00016200020FFFF000020200020C5500200D6
:109FC000AB2000200F200020D4520200A1420BD071
:109FD00010A9CC7F0443CC7718A90C7804430C70EB
:109FE0004C7804434C7000E018A90C7904430C71C0
:109FF0004C7904434C718C7904438C714C7A144332
:10A000004C728C7A1C438C72CB7A1343CB728A7B52
:10A0100002438A73CA7B0243CA730A7C02430A74EE
:10A02000CA7C0243CA740A7D02430A754A7D024310
:10A030004A751BE018A90C7904430C714C79044350
:10A040004C718C7904438C714C7A14434C728C7A29
:10A050001C438C72CB7A1343CB728A7B02438A7384
:10A06000CA7B0243CA730A7C02430A74002120A8F7
:10A07000FDF738FF012140A8FDF734FF022160A859
:10A08000FDF730FF03216846FDF72CFF7FB002B0DB
:10A0900030BDF8B500270624FD4DFE4E03000AF042
:10A0A00055F9050404070F1D06002C603760F8BD44
:10A0B0002C60FDF7D5FF0028F9D009203060F8BDED
:10A0C0002C60FDF7CDFF0028F9D00520FEF7DCFA63
:10A0D000F1480122017851400170F8BDFDF7C0FF41
:10A0E0000028E2D0F8BD30B5FFB082B0802120A8B2
:10A0F0000AF099F8802140A80AF095F8802160A81C
:10A100000AF091F8802168460AF08DF82CA81F22E9
:10A11000E2490AF06FF8E1494CA81F221F390AF002
:10A1200069F8DE496CA81F223E390AF063F8DB4962
:10A130000CA81F225D390AF05DF8D948D949057885
:10A14000D94C4020E022A02309880A2D03D8D74DFE
:10A150002D78012D0DD0A1423FD010A9CC7F044312
:10A16000CC7718A90C7804430C704C7804434C70DD
:10A1700034E0A1420BD010A9CC7F0443CC7718A9BE
:10A180000C7804430C704C7804434C7000E018A920
:10A190000C7904430C714C7904434C718C79044361
:10A1A0008C714C7A04434C728C7A04438C72CC7A56
:10A1B0000443CC728C7B14438C73CC7B1C43CC73D8
:10A1C0000B7C13430B74CA7C0243CA740A7D02439E
:10A1D0000A754A7D02434A751BE018A90C790443AD
:10A1E0000C714C7904434C718C7904438C714C7A1A
:10A1F00004434C728C7A04438C72CC7A0443CC7244
:10A20000887B10438873C87B1843C873087C10434D
:10A210000874002120A8FDF765FE012140A8FDF784
:10A2200061FE022160A8FDF75DFE03216846FDF78F
:10A2300059FE2BE770B50624954D964E03000AF0A3
:10A2400085F805040404162113002C60FDF708FFAF
:10A25000002809D0924800780A2803D8934800784B
:10A26000012802D00420306070BD0520FBE72C607F
:10A27000FDF7F6FE0028F7D00520FEF705FAFCF7FB
:10A2800000F870BDFDF7ECFE0028FAD12C60EAE77B
:10A29000F0B5FFB086B0002501A8FEF754F8684677
:10A2A000007A0C280BD26846C0791F2807D268466E
:10A2B00080793C2803D2684640793C2804D37C4A04
:10A2C0007C490020FBF7CCFF802105A809F0ABFFFB
:10A2D000802125A809F0A7FF802145A809F0A3FF48
:10A2E000802165A809F09FFF7348C078002806D038
:10A2F000684680790C2802D90C386946887100209C
:10A300000390049068466A4943798279203103A812
:10A310000AF008F803A809F091FFC7B21F242CE047
:10A3200003A8405D3A2854D03038C0B212218600CC
:10A33000594800917830815905A80019009A09F010
:10A3400059FF5548009AAC30815925A8001909F0E9
:10A3500051FF5148009AE030815945A8001909F091
:10A3600049FF5648009A815965A8001909F042FF33
:10A37000009820186D1CC4B2EDB2BD42D0D31F228C
:10A380004F4905A809F036FF4D491F221F3925A85E
:10A3900009F030FF4A491F223E3945A809F02AFF3B
:10A3A00047491F225D3965A809F024FF002105A84F
:10A3B000FDF798FD012125A8FDF794FD022145A890
:10A3C000FDF790FD032165A8FDF78CFD7FB006B079
:10A3D000F0BD0A200821AAE770B506242C4D0028FC
:10A3E0000BD0012809D0022805D0042804D1FDF79C
:10A3F00037FE002800D12C6070BD2C60FDF730FEC8
:10A400000028F9D02F48234C0078012808D003F009
:10A41000D1F8002806D00020206001F061F870BD5E
:10A420000E20F9E70320F7E7F0B5FFB086B000256E
:10A4300001A8FDF788FF6846007A0C280BD2684611
:10A44000C0791F2807D2684680793C2803D2684625
:10A4500040793C2805D31749154A63310020FBF7A2
:10A46000FFFE802105A809F0DEFE802125A809F065
:10A47000DAFE802145A809F0D6FE802165A809F002
:10A48000D2FE0D48C078002823D0684680791BE0B2
:10A490008820002084200020E0200020415102007C
:10A4A000AB20002016200020FFFF00000F2000201E
:10A4B0004C8E0100A312000032200020F421002065
:10A4C000ED4B02000C2000200C2802D90C38694604
:10A4D0008871002003900490684643798279F64998
:10A4E00003A809F01FFF03A809F0A8FEC7B21F24A4
:10A4F0002CE003A8405D3A2852D03038C0B2122177
:10A500008600EE480091815905A80019009A09F0CB
:10A5100071FEEA48009A3430815925A8001909F0E3
:10A5200069FEE648009A6830815945A8001909F08B
:10A5300061FEE248009A9C30815965A8001909F033
:10A5400059FE009820186D1CC4B2EDB2BD42D0D3A4
:10A550001F22DB4905A809F04DFED9491F221F39EA
:10A5600025A809F047FED6491F223E3945A809F023
:10A5700041FED3491F225D3965A809F03BFE002149
:10A5800005A8FDF7AFFC012125A8FDF7ABFC0221D2
:10A5900045A8FDF7A7FC032165A8FDF7A3FC15E777
:10A5A0000A200821ACE770B50624C64D00280BD060
:10A5B000012809D0022805D0042804D1FDF750FD58
:10A5C000002800D12C6070BD2C60FDF749FD0028EB
:10A5D000F9D0BD48BD4C0078012808D002F0EAFF50
:10A5E000002806D000202060FEF7ACF870BD0E20D9
:10A5F000F9E70320F7E7F0B5FFB086B0002501A822
:10A60000FDF7A1FE6846007A0C280BD26846C07997
:10A610001F2807D2684680793C2803D268464079D3
:10A620003C2805D3A44AAA49203A0020FBF718FE8B
:10A63000802105A809F0F7FD802125A809F0F3FD88
:10A64000802145A809F0EFFD802165A809F0EBFD08
:10A65000A048C078002806D0684680790C2802D926
:10A660000C3869468871002003900490684643794D
:10A670008279914903A809F055FE03A809F0DEFD8F
:10A68000C7B21F242CE003A8405D3A2853D03038CD
:10A69000C0B21221860089480091815905A800198D
:10A6A000009A09F0A7FD8548009A3430815925A801
:10A6B000001909F09FFD8148009A6830815945A82A
:10A6C000001909F097FD7D48009A9C30815965A8D2
:10A6D000001909F08FFD009820186D1CC4B2EDB26E
:10A6E000BD42D0D376491F227C3105A809F082FDF6
:10A6F00073491F225D3125A809F07CFD70491F2296
:10A700003E3145A809F076FD6D491F221F3165A82D
:10A7100009F070FD002105A8FDF7E4FB012125A843
:10A72000FDF7E0FB022145A8FDF7DCFB032165A84E
:10A73000FDF7D8FB4AE60A200821ABE770B50624EE
:10A74000604D00280BD0012809D0022805D004282C
:10A7500004D1FDF785FC002800D12C6070BD2C6071
:10A76000FDF77EFC0028F9D05748584C00780128A6
:10A770000AD003280AD002F01DFF002808D00020CC
:10A780002060FDF7DFFF70BD0E20F9E70F20F7E72F
:10A790000320F5E7F0B5FFB084B0802143A809F0AD
:10A7A00042FD802103A809F03EFD802123A809F085
:10A7B0003AFD802163A809F036FD474C0AA9033110
:10A7C00060680091E11FF93901914AA92AAF03316C
:10A7D0006AAE033703360291012806D021460D8A5E
:10A7E000022852D0032866D007E1FCF7DCFD0028E0
:10A7F0001AD033463A4600990298FEF711F91F2203
:10A80000364943A809F0F6FC34491F221F3903A832
:10A8100009F0F0FC31491F223E3923A809F0EAFC77
:10A820002E491F225D39E5E0258A602D08D82A4689
:10A830002B49009809F0DEFC228A3846019921E074
:10A8400060222749029809F0D5FC602201990098FE
:10A8500009F0D0FC22492A4608466030C51D603AFE
:10A86000F935602A06DD01466022384609F0C2FC4F
:10A87000602205E00146384609F0BCFC228A603AB5
:10A880002946304609F0B6FCB9E7002D40D0FCF768
:10A890008AFD002806D063AB23AA03A943A8FEF7CC
:10A8A000BFF8AAE0208A8025411BCCB2802819D2AB
:10A8B000C5B2002419E040E06C8E01005821002050
:10A8C000694C0200882000200C20002084200020F9
:10A8D0006913000032200020782E0020594E02001B
:10A8E000782C0020802C00D980242A46F84943A8DF
:10A8F00009F080FC2A4603A8019909F07BFCF44981
:10A900002246803123A809F075FC2246F14971E006
:10A910001F22F14943A809F06DFCEF491F221F399E
:10A9200003A809F067FCEC491F223E3923A809F06F
:10A9300061FCE9491F225D395CE0002D46D01F22F1
:10A94000E64943A809F056FCE4491F221F3903A831
:10A9500009F050FCE1491F223E3923A809F04AFCC6
:10A96000DE491F225D3963A809F044FC612D0FD236
:10A970006120401B40101F30C6B203A880192A4630
:10A98000D34909F037FC23A8228A801901991AE0DB
:10A990009F3D6124EDB2612D00D961252246CC494D
:10A9A000029809F027FC22460199009809F022FC40
:10A9B000C7492A4661310C46384609F01BFCE11DA7
:10A9C000F9312A46304609F015FC16E01F22C3492A
:10A9D00043A809F00FFCC1491F221F3903A809F041
:10A9E00009FCBE491F223E3923A809F003FCBB49DC
:10A9F0001F225D3963A809F0FDFB002143A8FDF784
:10AA000071FA012103A8FDF76DFA022123A8FDF7D1
:10AA100069FA032163A8FDF765FA7FB004B0F0BDC1
:10AA2000F8B5AC4E0024AE4D803600280BD006277A
:10AA300001281ED0042805D1FDF712FB002801D102
:10AA4000A8480760F8BDFDF70BFB0028FAD0706836
:10AA50000128F7D1A4480178102929D00920FBF753
:10AA600038FDFDF76FFEFCF718FF01F0ADFB2C6021
:10AA7000F8BD9C480760FDF7F3FA0028F8D09B4822
:10AA8000007801280CD002F095FD00280AD02C6037
:10AA90007068032809D0FDF755FEFCF7FEFED6E7E7
:10AAA0000E2000E003202860F2E700F019FDF4E733
:10AAB0000470002003F0BEFAD3E7F0B5FFB086B013
:10AAC00000252C46802104A809F0ADFB802124A894
:10AAD00009F0A9FB802144A809F0A5FB802164A806
:10AAE00009F0A1FB02A871DF002803D0804A814948
:10AAF000FBF7B6FB6846817A427A080210437E492A
:10AB000009F01EFB002000900A4601907BA16846D8
:10AB100009F008FC684609F091FBC7B227E06846D7
:10AB2000405D122230380006860D7648815904A80F
:10AB3000001909F05FFB734812223430815924A8B0
:10AB4000001909F057FB6F4812226830815944A858
:10AB5000001909F04FFB6B4812229C30815964A800
:10AB6000001909F047FB12346D1CE4B2EDB2BD428E
:10AB7000D5D3654838AE0478A0070AD51F226349AB
:10AB800018A809F037FB61491F221F31304609F030
:10AB900031FBE00758AD0AD01F225C49284609F076
:10ABA00029FB5A491F221F3178A809F023FB6007AF
:10ABB0000AD51F225549304609F01CFB53491F2274
:10ABC0001F31284609F016FB002104A8FDF78AF979
:10ABD000012124A8FDF786F9022144A8FDF782F996
:10ABE000032164A8FDF77EF9D9E4F8B50024062511
:10ABF0003C4E3B4F00280BD0012809D0022807D03B
:10AC000004280BD1FDF72CFA002807D1356004E0A9
:10AC10003560FDF725FA002800D03C60F8BD00B58E
:10AC2000FFB082B08021684609F0FDFA802120A89B
:10AC300009F0F9FA802140A809F0F5FA802160A80E
:10AC400009F0F1FA0CA81F22314909F0D3FA304972
:10AC50002CA81F221F3909F0CDFA2D494CA81F221C
:10AC60003E3909F0C7FA2A496CA81F225D3909F05C
:10AC7000C1FA00216846FDF735F9012120A8FDF74A
:10AC800031F9022140A8FDF72DF9032160A8FDF755
:10AC900029F97FB002B000BD70B50624114D03281C
:10ACA00048D00CDC00283CD0012833D002280ED13B
:10ACB0002C60FDF7D5F9002809D0012037E00428E1
:10ACC0003FD00D2803D12C6005490020086070BDDD
:10ACD000782C0020F82D0020D54E0200ED4B02000C
:10ACE0008420002088200020F12300200C20002058
:10ACF0004C8E01009F1400001027000025303464A2
:10AD000000000000582100200D2000209655020070
:10AD1000395202002C60FDF7A3F90028D7D00B2090
:10AD200005E02C60FDF79CF90028D0D00A20FBF745
:10AD3000D0FBCCE72C60FDF793F90028C7D00720A3
:10AD4000F5E7FDF78DF90028C1D12C60BFE700B50C
:10AD5000FFB082B08021684609F065FA802120A802
:10AD600009F061FA802140A809F05DFA802160A80D
:10AD700009F059FA0CA81F22FB4909F03BFAFA49DD
:10AD80002CA81F221F3909F035FAF7494CA81F22B9
:10AD90003E3909F02FFAF4496CA81F225D3909F0F9
:10ADA00029FA00216846FDF79DF8012120A8FDF74A
:10ADB00099F8022140A8FDF795F8032160A8FDF756
:10ADC00091F866E770B50624E84D032826D00CDC20
:10ADD00000281AD0012811D002280ED12C60FDF7CE
:10ADE0003FF9002809D0012015E004281DD00F28C4
:10ADF00003D12C60DE490020086068E72C60FDF775
:10AE00002FF90028F9D00B2005E02C60FDF728F978
:10AE10000028F2D00A20FBF75CFB58E72C60FDF716
:10AE20001FF90028E9D00720F5E7FDF719F90028F8
:10AE3000E3D12C604BE710B5FFB081B0802120A892
:10AE400009F0F1F9802140A809F0EDF9802160A80E
:10AE500009F0E9F98021684609F0E5F9C2492CA812
:10AE60001F229B3109F0C6F9BF494CA81F22BA31F5
:10AE700009F0C0F9BC496CA81F22D93109F0BAF910
:10AE8000B9490CA81F22F83109F0B4F9B948BA4CF5
:10AE900001884020E022A023A14230D010A9CC7F1D
:10AEA0000443CC7718A90C7804430C704C78044305
:10AEB0004C700C7904430C714C7904434C718C79BF
:10AEC00004438C714C7A04434C728C7A04438C7228
:10AED000CC7A0443CC728C7B04438C73CC7B0443CC
:10AEE000CC730C7C04430C74C87C1043C874087D7C
:10AEF00018430875487DC021084318A923E018A904
:10AF00000C7904430C714C7904434C718C790443E3
:10AF10008C714C7A04434C728C7A04438C72CC7AD8
:10AF20000443CC728C7B04438C73CC7B0443CC7382
:10AF30000C7C04430C74C87C1043C874087D18430F
:10AF40000875487D10434875002120A8FCF7CAFF0A
:10AF5000012140A8FCF7C6FF022160A8FCF7C2FF50
:10AF600003216846FCF7BEFF7FB001B010BD70B58D
:10AF7000042106247D4D7E4E030009F0E7F9050407
:10AF80000404071306002C603160A0E62C60FDF776
:10AF900067F80028F9D010203060FDF7D1F9774923
:10AFA000486094E6FDF75CF80028EED130602C6034
:10AFB0008DE6F0B5FFB084B0802103A809F033F925
:10AFC000802123A809F02FF9802143A809F02BF94B
:10AFD000802163A809F027F91824FDF7B1F9054687
:10AFE00066483C214068281A09F0AAF80E463C2120
:10AFF00009F0A6F80A46062D00D206255B48056032
:10B00000002000900190029033465D49684609F0A7
:10B0100089F9684609F012F9C7B200255EE0684672
:10B02000405D3A2823D030380006860D55480D2261
:10B03000815903A8001909F0DDF852480D22283083
:10B04000815923A8001909F0D5F84E480D22503037
:10B05000815943A8001909F0CDF84A480D227830EB
:10B06000815963A8001909F0C5F80D3433E046484A
:10B070000078002803A81AD000190822434909F0D3
:10B08000B9F8424923A800190822083909F0B2F892
:10B090003E4943A800190822103909F0ABF83B4992
:10B0A00063A800190822183909F0A4F812E0001961
:10B0B000082109F0B8F823A80019082109F0B3F80D
:10B0C00043A80019082109F0AEF863A80019082167
:10B0D00009F0A9F808346D1CE4B2EDB2BD429ED36C
:10B0E000002103A8FCF7FEFE012123A8FCF7FAFECD
:10B0F000022143A8FCF7F6FE032163A8FCF7F2FE49
:10B100008BE470B50625194C030009F01FF90504FE
:10B110000404061305002560D9E52560FCF7A0FFAF
:10B120000028F9D025601249052008601349002045
:10B130004860CCE5FCF794FF0028ECD0C7E50F4849
:10B140004068002800D00120704710B50B4900204E
:10B15000486006490860FDF7F5FA01F035F8FF2070
:10B160002D3006F005FF10BDB552020088200020EA
:10B170008420002016200020FFFF0000E020002097
:10B180006C8E01007822002078200020884B02007D
:10B19000F8B5304D871E6B680093012606212B48B9
:10B1A0002B4A2D4C3B0009F0D1F80D262E2E4C08D1
:10B1B000121549402E432E462E00016000980328A8
:10B1C00001D00A202FE00C20AA60206023E001605B
:10B1D0000B2028E001600C202060AA600098002865
:10B1E00031D0A87C00282ED0FCF7DDF8012812D140
:10B1F000FCF79DF80FE00160FCF732FF002822D039
:10B2000020680C2801D000261DE02868002805D001
:10B21000A87C002802D0FCF794FB14E0FDF792FA1A
:10B22000FCF73BFB002020600DE001600D20FAE7F9
:10B2300001600E20F7E701600F20F4E701601120A4
:10B24000F1E7002101603046F8BD000088200020B1
:10B25000D92B0020782E00208420002010B55048E3
:10B260000168002916D0002101604E4880684E4ACE
:10B27000012180B251604B21090148434B49800AAA
:10B2800048437D21090108F05BFF80B200F045F8DA
:10B290004749087010BD70B54648012444604148D4
:10B2A000454941603E4E00253560046007202ADF95
:10B2B000002803D041A27F21FAF7D2FF0321072003
:10B2C0002BDF002803D03DA28221FAF7C9FF072017
:10B2D00026DF002803D039A28521FAF7C1FF3560A7
:10B2E0003148046070BD3248007870473049002012
:10B2F0000978502901D3052070473C2901D3042047
:10B300007047282901D303207047142901D3022054
:10B3100070470229FCD3012070477D2110B54901F7
:10B32000884201D3642010BD294A904205D3081AEF
:10B33000052108F01BFF642108E025496439884293
:10B3400007D3101A052108F011FF5021081AC0B2C6
:10B3500010BD1F4AC83A904205D3081A052108F0CB
:10B3600005FF3C21F2E71B49884206D3101A400032
:10B370000F2108F0FBFE2821E8E7164AB43A904274
:10B3800005D3081A0A2108F0F1FE1421DEE711495D
:10B39000FA39884201D8002010BD012010BD0000FC
:10B3A000007100400075004000700040E02E000079
:10B3B0009823002000730040028000002E2E5C685D
:10B3C000616C5C626174746572792E6300000000C8
:10B3D0003C0F0000DE0D000010B548490820087041
:10B3E000014646480A3008F01EFF10BDF0B589B08E
:10B3F0000025FDF77DF8012631468140CFB205A832
:10B40000FCF7A1FF6846807D019081018000091A48
:10B410006846407D0790081880B202901420384991
:10B42000684344186078384226D034480A30405D7A
:10B43000002821D12078002816D0A0788101800032
:10B44000081AE1784018029980B2814214D301466B
:10B45000029A1E3191420FD3101A80B2052108F0D2
:10B460006FFE00290ED007E0A1780198884203D131
:10B47000E1780798884205D06D1CEDB2082DCDD338
:10B4800009B0F0BD6078010601D4784060701B48B7
:10B490000021057022791B48002A0CD086740321F4
:10B4A0000660416018498160481E0270401C611DA1
:10B4B00008F0A0FE03E081740160816041600F48E4
:10B4C000801CFCF740FFFFF73AFE012801D1FFF78F
:10B4D0003CFE0620FCF792F90020FDF7D5F8CFE7F7
:10B4E00010B5064C2078082803D2224601210A32E2
:10B4F0001154FDF727F90820207010BD9A23002071
:10B50000C8240020782E0020D92B0020494904208F
:10B51000486070477CB500240425FCF7E9FF012151
:10B520008140CEB26846FCF70EFF6846424A8078FA
:10B530000621614389180B78334206D04B78834249
:10B5400003D88978814200D92546641CE4B2032CD3
:10B55000EED338494A68954207D04D608201800099
:10B56000101A6A465278801848803448344A007865
:10B570001268401E104301D0042048607CBDFEB517
:10B580002C4C6068042847D06846FCF7DCFEFCF7CA
:10B59000AFFF01218140CFB22046416806225143CE
:10B5A000254A40888D18694689788A018900521A8F
:10B5B0006946497851188CB2E9788A005618844255
:10B5C00001D9201A00E0001B297880B2394223D02B
:10B5D000B04221D301F0E7FFB0421DD300266846F8
:10B5E00006701848082206700146684608F02DFECD
:10B5F00000280ED00F48017801290ED04480287809
:10B60000010601D478402870FFF799FD012808D081
:10B6100009E0084901200870FEBD641E44800670E0
:10B62000EDE7FFF792FD0320FDF72EF80720FCF76A
:10B63000E5F8FEBDAC2300208C2E00200920002060
:10B64000202000209C23002007480121C1600F22F8
:10B650001204426082680A438260044801607047B5
:10B66000044903480860704700050140000001409C
:10B670003546526E00060140F0B5FB4D0C46297868
:10B680008BB01646002921D1032269460A71020CAB
:10B690004A71020A8A71C871201D009002AB04220F
:10B6A00001A9002006F03DFB07000AD1201DFAF792
:10B6B00031FD2878002809D0224603A9304608F039
:10B6C00099FD0020287038460BB0F0BD1120FBE733
:10B6D000012801D1E4490870704710B50A460028D6
:10B6E00050D0002A4ED003461121203BC9015F2BC8
:10B6F00003D800014318102109E027235B02DB4C2B
:10B70000C31AA3420DD8DA49400143182021002B67
:10B710003AD01170521C1846FFF7AEFF002833D103
:10B7200030E0D44BC3185D2B04D8FF232133C0185D
:10B7300080B2DEE703210903884202D11523DB0131
:10B7400004E0CD49884203D139239B011021E0E771
:10B75000C949491C884202D15B235B01F6E7C6490F
:10B760003123C91D9B018842F0D04C1C6321490143
:10B77000A04205D0641CA042E8D0631C984203D1CB
:10B780000B46E3E7012010BD002010BD38B50C4684
:10B79000BAA1096800910146B94AA0394300914213
:10B7A00002D8FF3B413B2DE0B649B74A41189142D0
:10B7B00001D8B64825E00321B14A0903411A2432D1
:10B7C000914201D8B2481CE02721A84A4902411AF7
:10B7D000521E914201D8AF4813E0A649D131411819
:10B7E0003B2901D8AC480CE0A24941185D2901D899
:10B7F000AA4806E09F49DF394018052835D8A648F1
:10B800006E381B18002B30D020202070A4486A46C8
:10B8100002211818FFF730FF002826D1684600786B
:10B82000002803D16946497800291ED0694602469E
:10B830004978A13A082A07D8A12905D35E204243B6
:10B8400050184001974909E0B03847280DD8A12980
:10B850000BD35E2250434018934940014018621CAC
:10B860002021FFF709FF002801D0002038BD01206A
:10B8700038BD38B50C4681A1096800910146A2394E
:10B880004300552902D8FF3B413B2BE08749FF226B
:10B8900041180332914201D8854822E079497A4A19
:10B8A000C91E4118D21E914201D8824819E00321D5
:10B8B000734A0903411A2432914201D87E4810E0AC
:10B8C00027216A4A4902411A0A3A914201D87B4823
:10B8D00007E06849D1314018FF21CE31884242D873
:10B8E00077481B18002B3ED02020207075486A46F0
:10B8F00002211818FFF7C0FE002834D168460178ED
:10B90000002902D1407800282DD068464078A4391B
:10B91000222928D80246403A3E2A04D89D22514383
:10B920000818403807E00246A13A5D2A1BD89D223C
:10B930005143081862386449400040186A460221A1
:10B94000FFF79AFE00280ED168460078621C0102BB
:10B950006846407808185D49400140182021FFF7EB
:10B960008BFE002801D0002038BD012038BD38B53D
:10B970000C460021009103463B21A13B09018B426B
:10B980002CD94049CB22491F4118D200914201D8FD
:10B990004F4922E003213A4A0903411A2C329142CD
:10B9A00001D84C4919E02721304A4902411A0A3A84
:10B9B000914201D8484910E02B218902474A411A97
:10B9C000914202D83249453907E0F9212E4A09024D
:10B9D000411ACD32914238D841494318002B34D016
:10B9E000202020703F49580045186A460221284609
:10B9F000FFF742FE002828D168460378002B02D1C9
:10BA00004078002821D01846A1380F2809D269466D
:10BA10004978A12905D35E2250434018400132499C
:10BA20000BE0B03B182B09D868464078A12805D315
:10BA30005E214B4318182D4940014518621C2021F6
:10BA40002846FFF719FE002801D0002038BD01204C
:10BA500038BD10B5044900200870254906F09EF84D
:10BA6000002847D0002010BDB4230020A6510000BC
:10BA700020610000FF00FFFF0130000000000A000D
:10BA8000B1030000F0DFFFFF3206000044C7FFFFF4
:10BA9000CAB3FFFF767FFFFF62C2FEFF38C1FEFF21
:10BAA0009EBA0C0060FC00002066010039FDFFFF1B
:10BAB00036FBFFFFAAC2FFFF6AAFFFFF327BFFFF2B
:10BAC0004CBEFEFF203C1100FE480E00801001001D
:10BAD0009CE3FFFF0ADAFFFFE8BFFFFF9D2B00009A
