:020000040001F9
:10600000F03F00201D620100376201006162010063
:106010000000000000000000000000000000000080
:106020000000000000000000000000003B620100D2
:1060300000000000000000003D6201003F6201001E
:1060400041620100416201004162010061130200EE
:1060500041620100000000003D1802006DB2010025
:1060600041620100416201005FC301004162010021
:106070004162010041620100416201004162010090
:10608000416201006F0A02004162010041620100A9
:10609000850A020041620100AB1202004162010068
:1060A00041620100416201000000000000000000A8
:1060B00000000000000000000000000000000000E0
:1060C000034885460EF016FB00480047136A01009E
:1060D000F03F0020401E00BF00BF00BF00BF00BF58
:1060E00000BF00BF00BF00BF00BF00BF00BFF1D1B5
:1060F00070470000401E00BF00BF00BF00BF00BFD0
:1061000000BF00BF00BF00BF00BF00BF00BFF1D194
:1061100070470000401E00BF00BF00BF00BF00BFAF
:1061200000BF00BF00BF00BF00BF00BF00BFF1D174
:1061300070470000401E00BF00BF00BF00BF00BF8F
:1061400000BF00BF00BF00BF00BF00BF00BFF1D154
:1061500070470000401E00BF00BF00BF00BF00BF6F
:1061600000BF00BF00BF00BF00BF00BF00BFF1D134
:1061700070470000234922480860704710B500F0BE
:106180001DF8002805D021491F484860C813204940
:1061900088612048018CC9B201290ED1818C090780
:1061A0000BD1018D0906090F042906D1808D000647
:1061B000000F02D118490120886010BD1548018CDC
:1061C000C9B2012917D1818C090714D1018D0906A3
:1061D0000A0F03D1828D1206120F0ED0090F01296A
:1061E00003D1828D1206120F07D0032903D1808DAF
:1061F0000006000F01D0002070470120704700000A
:106200000024F40000200020DFFF07C0000500404C
:10621000006C0040C00F00F0000600400321094858
:1062200002680A430260084802680A43026007489D
:10623000804707480047FEE7FEE7FEE7FEE7FEE788
:10624000FEE7000024050040540500407D61010088
:10625000C160010007F06FF806F068FB00F0CCFCAD
:1062600007F069F806F062FB00F0C6FC07F063F87F
:1062700006F05CFB00F0C0FCF7A2F821FFF7EAFF94
:1062800010B50068002804D0022801D105F008F9F3
:1062900010BDF448016901221143016110BDF8B538
:1062A000F14D064641792C46703C0830671C009041
:1062B000012915D0032912D1A87B00280FD02078FE
:1062C000F288C01900990EF0BBF92078B179401816
:1062D0002070E44801690122520211430161F8BDB6
:1062E000E048007B012809D0B179009807F005FC4F
:1062F000002810D00020A8732861F8BD0120A873E1
:1063000028616F606861B0792070F288601C009924
:106310000EF096F9DDE70120A873286102206F6076
:106320006861B0792070F288601C00990EF088F9DD
:10633000F8BD08B50168002908D0012907D0032954
:1063400021D0042902D10830FFF7A9FF08BDC548B4
:10635000694618300BF0EBFD002803D0FF21BEA2E8
:1063600069310EE00098002802D000F056FC08BD0C
:10637000BC4818300BF0B3FD0028F8D0FF21B6A2BE
:106380006F31FFF767FFB749807A087308BD38B5EA
:1063900006F0E9FD0124002809D0684609F01FFF36
:1063A000002807D0FF21ACA2B331FFF753FFAF485D
:1063B000047038BD07F0C3FC0098002802D0A9483B
:1063C000847038BDB1203CDF2DDF38BD38B507F013
:1063D000B6FC06F0C8FD0124002809D0684609F083
:1063E000FEFE002807D0FF219BA2D031FFF732FF2D
:1063F0009F48047038BD0098002802D09948447026
:1064000038BD2DDF38BD10B5964801214171C089D6
:106410009849884202D0132176DF05E009F057F948
:10642000002801D109F047F901F0F0FF02F094F8DB
:1064300005F0B0FE07F083FC02F06AFC00200CF0CF
:1064400083FF00200EF05EF806F075FF06F06EFA8E
:1064500010BD10B506F06FFF06F0D9FA8149002093
:106460004871FFF7B3FF10BD01B500230122694653
:10647000402008F064FB08BD1CB57F480069000699
:10648000C00F01D0012100E000217648027991423D
:1064900011D0017100290FD00021417269460120FD
:1064A00005F0FCFF6946042008560EF02BF804F0B6
:1064B000FAFE05F06FFE1CBD0121417240790028F3
:1064C00001D0FFF7C6FF00200CF03EFF00200EF0C9
:1064D00019F8042002F05CFB0021322005F0DCFDFD
:1064E0001CBD10B504F0DFFE04F005FF5D49022875
:1064F00010D2087900280DD0C87A052802D38A79ED
:10650000002A02D0401CC87210BD01208871FFF71C
:106510007AFF10BD0020C872887110BD10B58AB016
:10652000684671DF002802D04BA2544965E06946F5
:10653000002070DF002803D0052147A2C9015CE0DC
:10654000694688784978000208434D490EF01EF8E4
:10655000002408460394049405944AA2069406CAAB
:10656000039104920A210EF011F80A46303269466E
:106570000A760A210EF00AF80A4630326946CA75D0
:106580000A210EF003F80A46303269468A75303027
:1065900048752D2008751120087203A80EF074F8B4
:1065A00082B203A902A87CDF002803D033492AA2C3
:1065B000113122E05120800178DF002803D02F49DB
:1065C00025A2143119E0079440216846089481837C
:1065D000F021C183FF210484F531418407A87ADFCB
:1065E000002803D025491CA21E3106E0002077DFD9
:1065F000002804D0214918A22131FFF72BFE0AB050
:1066000010BD10B5006800280AD116483B21C0898A
:1066100076DF002804D059210FA2C900FFF71AFE27
:1066200010BD16490CA25531FFF714FE70B50C468B
:106630000A46054601460C48803807F046FE217898
:10664000112902D0142927D122E006480422294624
:1066500018300DF0F5FF1FE02E2E5C6D61696E2E77
:106660006300000004200020E82B00209923002074
:1066700098230020FFFF0000000500507D0200006D
:106680001027000042726163656C693500000000EC
:106690002946FE480CF082F8002070BD10B5044673
:1066A0000BF0D8FE2146FA4807F017FE204607F007
:1066B00076FB20460AF00AFD204600F03FFB10BDA5
:1066C00010B5044609F01BFB204600F07EFB10BD10
:1066D000EE4A0D3A022909D0032906D1072804D130
:1066E0001069FF210131084310617047032801D070
:1066F0000428FAD1106901214905F4E71CB50446C4
:10670000684602F085F86846C0887D210901401A74
:1067100020706846007960706846C078A07068464E
:106720008078E0706846407820711CBD10B5002864
:1067300002D002F066FB10BD02F043FB10BD7FB536
:10674000002400940194029403940D786B461D700C
:106750004D785D708D789D70DC700323CB569C0165
:106760009B00E31A04240C57191989B26B469980CF
:106770000323D3569C019B00E31A042414571A19CF
:1067800092B26B46DA80914204D9511A2D225201FD
:10679000891800E0511A19819872184606F0B2F96A
:1067A0007FBDBA4910B50D3901280AD0022803D09F
:1067B000052801D0062803D10020486106F0E0FD3D
:1067C00010BD0120486106F0DAFD10BD7CB5AF4D6B
:1067D00004460D3D686900281AD16946012005F07C
:1067E0005DFE68464078002812D0012C11D0002CA4
:1067F0000ED1A8480068002803D0A74800680428E4
:1068000006D104F097FC002802D1052001F066FAB9
:106810007CBD68690028FBD104F08CFC0028F7D10E
:106820000420F3E710B5994C0D3C2069C00620699F
:1068300005D510218843206106F0CAFD10BDC007B0
:10684000206905D040084000206102F0C7F810BD63
:106850008006206905D520218843206108F070F862
:1068600010BDC005206906D5FF2101318843206194
:10687000FFF702FE10BD8005206909D501214902FC
:106880008843206160690028F4D101F062FA10BDEC
:10689000800207D507F042FA2069012149058843A3
:1068A000206110BD20698007206906D50221884338
:1068B00020611321E08976DF10BD4006206906D5EE
:1068C00040218843206171480BF0CFFB10BD400789
:1068D00020690BD504218843206106F02CFD06F0C9
:1068E00025F801F039FEFFF771FD10BD00072069A2
:1068F0000BD508218843206106F01DFD06F016F82F
:1069000001F02AFEFFF743FD10BD410563482169F0
:10691000407907D501229202914321610028F3D1E9
:10692000022010E00905216910D50122D20291430D
:106930002161A17922791142E6D1002802D0FFF726
:1069400088FD10BD032001F0C9F910BDC9042169FB
:1069500006D501221203914321610028F5D1F2E707
:10696000890408D52169012252039143216100283D
:10697000EBD10120E7E720690004206906D5012159
:10698000C9038843206108F0ACF810BD40042069B9
:1069900006D5012189038843206108F06BF910BDF9
:1069A000C003206906D5012109048843206108F04D
:1069B0008AF910BD8003206906D501214904884366
:1069C000206108F0AAF910BD4003206906D5012115
:1069D00089048843206101F0D9F910BD00032069C2
:1069E00006D50121C9048843206106F0C9F910BD0C
:1069F000C00207D52069012109058843206106F0FE
:106A0000F7F910BD0020206109F0D2FE00F032FA43
:106A100010BD234888B00125456000F006F92148E3
:106A20000090214B0A22092100200AF051F8002889
:106A300002D01E4A1E49B5E01549012014390AF05A
:106A400057FF002803D0FD21184A8900AAE000F072
:106A5000E2F9184A1D21082009F020FE002802D082
:106A6000124A15499EE000F02FF9FFF757FD00F09C
:106A70000AF91C2168460DF0FCFD0521C9030191AE
:106A800000200F2109040090022617E011200020A9
:106A9000682B0020582000205C20002004200020CB
:106AA00040050040096C01008C240020586601005C
:106AB0006B02000074290020D10300000291694696
:106AC0000E73C8810874FE480590FE48069068461B
:106AD0000AF0A7FA002803D05D21FB4AC90061E053
:106AE00007F01BFF01F063FA07F001F905F0C4FAA3
:106AF00006F02FFA01F051FE00281DD001F0F5FC40
:106B000000281DD001F0DBFF00281DD002F0F5F8B1
:106B100000281DD001F089F900281DD004F06AFD7D
:106B200005F0CDFD05F042F906F080FF02F0C6F851
:106B3000E64C002814D016E0A721E34AC90001E082
:106B4000E14AE34900202DE0E149DF4A491CF9E729
:106B5000DF49DD4A891CF5E7DD49DB4AC91CF1E75D
:106B6000207A3043207206F0D0F8002802D1207A33
:106B70002843207205F08CF8002803D1207A0421E4
:106B80000843207200F080F904F08AFC04F08BFBCB
:106B9000CE48002203211C3001F0ACFB002803D0BA
:106BA000C94ACC49FFF756FB01F0D0FB01F00AFEC1
:106BB00000280ED006F085FB062001F0E9FF0A2030
:106BC00001F08CF8FFF758FCC34D2868002804D06A
:106BD00005E0BF49BC4A1C31B4E706F0D0FC04F024
:106BE000AFFA2069002802D0FFF71CFEEDE700F0A5
:106BF00041F909F0DDFDE8E7BFF34F8FB849B74829
:106C0000C860BFF34F8FFEE71CB501910090B54AF5
:106C10000821684609F056FD1CBD10B5B24807F0C2
:106C20003FFCB14807F046FC10BD70B50024AF4EE4
:106C30000325601F03000DF0AFFD1A151517131380
:106C40001313131315151313131F13131713131300
:106C5000151513130E13A64805600120800710E0D8
:106C6000012102E0002100E00321204600F086F926
:106C7000641C202CDDD370BD9D482C38056001209C
:106C8000C004B060F4E71FB59A48426801680192F9
:106C90000091C16880680391029002A9924807F0B0
:106CA00081FB002802D0884A934908E0694693484E
:106CB00007F008FD002804D08F49834A091DFFF71B
:106CC000C9FA07F05FF81FBD1FB509F07FF800286B
:106CD00003D031217C4A09012DE000206946087368
:106CE00003A80BF05DF8002803D08349764A67318A
:106CF00021E001A8062102300DF0BBFC1E206946F0
:106D0000C880087A01221043E12108400C30DF21BD
:106D10000840694608720720487210208872784837
:106D200000906A480A710D300BF091F8002804D0E9
:106D30007149654A7631FFF78DFA1FBD70B501883C
:106D4000624C172937D008DC0025102918D01129EA
:106D50001CD1E07901281AD01CE019292ED05B48FB
:106D60003929C08903D052291CD055290ED11321AD
:106D700076DF00280AD01B21534A4901FFF76AFA3F
:106D80008088E081022008F07CFCA57270BD0D2097
:106D900000F0A4FF0020E571C043E0810120A07253
:106DA00003200FE000221146A9DF0028EED052494F
:106DB000454A9731E2E7FFF730FF70BD8079002840
:106DC000FBD1012008F05DFC70BD10B5022801D098
:106DD000032807D13D4800210278002A03D0017022
:106DE00000F0E7F810BD4278002A03D04170FFF7A9
:106DF000EDFA10BD8278002A03D08170FFF7C7FA40
:106E000010BDC278002AFBD0C170032008F081FCBD
:106E100008F0BFFB10BD38B53A480124C4633A4BB3
:106E200050223A4908200AF013FA002803D02949D1
:106E3000254A49391BE0002000906846047060DF55
:106E4000002803D02349204A423910E030480AF094
:106E50001CFA002803D01F491B4A3E3907E02D4881
:106E60000AF01BFA002804D01A49174A3A39FFF7EA
:106E7000F1F938BD10B540DF002804D01549124A99
:106E80000A31FFF7E7F910BD00B58DB00BF024FD16
:106E900021480DF052F921480DF03FF920480DF03E
:106EA00052F920480DF055FB1F480DF05AFB002009
:106EB000009001906946132005F0F0FA684635E02D
:106EC00003660100236601005866010004200020CB
:106ED0003905000004040000B42300200400FA0572
:106EE00000ED00E0976F0100682B002000050050C6
:106EF00078070050784B0200AF0200007830002085
:106F00002D66010040000040896F01002429002007
:106F10009D660100C1660100FD6601002D6701004C
:106F20003F670100A3670100CD67010000780028DA
:106F300002D1AF2069460870684601780182642159
:106F400001838078002800D0012005906946088AD6
:106F5000088405980990088B0885079B0B9308A85F
:106F600007C80DF002F902A9012005F097FA694659
:106F70000C2008560DF0C6FA0DB000BD2A4A890053
:106F8000800080180160704710B50021274A08462C
:106F900009F098FB10BD10B50246082905D0FF2165
:106FA00023A21B310020FFF755F91168506888476C
:106FB00010BD08B5684609F012F9002803D0FF217A
:106FC000274A92311BE00098002803D02549012070
:106FD000087008BD02220021052000F012F80322EB
:106FE0000021104600F00DF803220021042000F0DB
:106FF00008F834DF0028ECD0FF21194AA031FFF750
:1070000029F9120489000A430749800040180260E8
:10701000704710B5002904D013A299210020FFF772
:1070200019F90AF0D7F810BD0007005013700100DD
:107030002E2E5C2E2E5C2E2E5C2E2E5C2E2E5C496F
:107040006E636C7564655C6170705F636F6D6D6FAE
:107050006E5C6170705F74696D65722E680000000F
:1070600058660100042000202E2E5C2E2E5C2E2E51
:107070005C2E2E5C2E2E5C496E636C7564655C73B1
:10708000645F636F6D6D6F6E5C736F66746465765D
:107090006963655F68616E646C65722E68000000EC
:1070A000FFB585B09646844600287CD000297AD06A
:1070B000002A78D00898002875D000252E4601E1D6
:1070C00070006246135AFB4A03939A1804922A2AC4
:1070D00001D31846F0E0002E14D04A1EB24218D157
:1070E00060442038C48B03204002201AFF282ED988
:1070F000F1482018AF282AD9F04820188F2826D91F
:10710000002424E060464388032000244002181A2B
:1071100013E060440246203AD48B03277F02E21B2F
:10712000FF2A08D9E44AA218AF2A04D9E34AA218D0
:107130008F2A00D900244388D81BFF2808D9DE48AD
:107140001818AF2804D9DD4818188F2800D9002353
:10715000DB4F0398B8423AD1D9482238834208D04D
:10716000401C834205D0801C834202D0801C834295
:107170002DD1002007460090D2487A00805AA042C4
:1071800002D10120009002E07F1C182FF4D3C94ADD
:107190000020521E9A180CD0012A05D0032A05D0CF
:1071A000052A06D104E092E0012002E0022000E07E
:1071B0000320C44A80007832821800986B00400097
:1071C000125A6D1C7046C252ADB2B61C7AE0002055
:1071D000C04302902046184301D103200290002CA6
:1071E0001ED0002B10D10027B6487A00805AA0424A
:1071F00002D10020029003E07F1CFFB2182FF3D3CE
:10720000002C0DD0002B44D00020019007460090A8
:10721000AC487A00805AA04212D10120019013E0BC
:10722000002B36D0A74C002030344700E25B9A4256
:1072300001D101203DE0401CC0B22428F5D328E054
:107240007F1CFFB2182FE3D39E4C00203034470040
:10725000E25B9A4202D10120009003E0401CC0B2E0
:107260002428F4D3009A0198104301D1401E0290C3
:107270000198012802D0002807D00AE0002A01D195
:1072800000200290012A13D003E0012A01D101203D
:107290000290029803280ED804988B4A0006400DED
:1072A000821802984000125A6B007046C25206E0E3
:1072B00002200290F0E703986B007246D0526D1CDA
:1072C000ADB2761C8E4200D2FAE60898058009B06D
:1072D000F0BDF0B5B7B0D82168460DF0CAF9D82195
:1072E0007A480DF0C6F90024794F26467D1C19E036
:1072F000295D0A46C03A202A02D2021B012A14DD67
:10730000E039102902D2001B02280EDD7000694608
:107310004118281904F048FC002814D0761C2018C5
:10732000B6B284B23878A042E2D86A490020888098
:107330000B1D664A31466846FFF7B2FE6649634850
:10734000086037B0F0BD641CA4B2EBE7F8B5604844
:107350000025441C0178401C0E182F4625E020789B
:107360000146C039202902D2311B01291FDDE03836
:10737000102802D2301B022819DD684607806946B2
:10738000204604F011FC6846018803204002081AD8
:10739000FF2807D948480818AF2803D947480818D4
:1073A0008F2801D8012502E0641CB442D7D32846B7
:1073B000F8BD202801D00020704701207047F0B5AB
:1073C0000021454893B001810C910C460D4606689A
:1073D00004F0C8FB002801D0002762E03E490020ED
:1073E0000860086113B0F0BD0020009030880D9057
:1073F000202801D101200090002069460872242134
:1074000003A80DF036F902AA03A90D9804F0FBFBBE
:10741000002844D06846007B0D9004F099FC0228B7
:107420003DD16846007A0028009802D0012802D099
:1074300003E0012833D100250C950D982649420818
:1074400049698020012900D1612084420DD2A11810
:1074500081420AD30C991F4B411A59806900731A53
:107460001D490B6000210D460C911A494988611A8B
:107470008B1883420BDB814209DA1748791B818123
:107480006900711A01600C98201A84B20DE0A018EE
:1074900084B20C98801880B26D1CADB20C90B61CF2
:1074A0007F1C0C48808887429EDB0B48048104F0D7
:1074B00068FB97E7DFF9FFFFB004FFFF9001FFFFD4
:1074C00044060000584D0200084C0200002C002029
:1074D000782B002044200020E82B0020FFB5FFB0CF
:1074E00094B0939800282CD09498002829D095988F
:1074F000002826D09698002823D0FF4E0020FF2495
:1075000030810134214613A80DF0B3F8214653A869
:107510000DF0AFF8002412940094706980250128C2
:1075200000D16125F448F54940894000471804F02E
:1075300019FB002801D000269AE0EF4900200860DE
:1075400008617FB018B0F0BD00200E9038880D9013
:10755000202801D101200E900020694608712421C5
:1075600002A80DF086F801AA02A90D9804F04BFBC1
:1075700000287BD06846007A0D9004F0E9FB0228D1
:1075800074D16846007900280E9802D0012802D0F4
:1075900004E001286AD10020129000900D98400864
:1075A0000D90AC4221D22018A8421ED30098D44995
:1075B000281A488012984000391ACF480160009874
:1075C0002118FF200130814202D9001B80B20090B7
:1075D00013A8001900990DF04CF853A80019009950
:1075E0000DF047F8002000901290C5480D99408892
:1075F000201A4118A9421DDBA8421BDA129840004C
:10760000391ABD4801600098201A84B200982118E8
:10761000FF200130814202D9001B80B2009013A8E4
:10762000001900990DF025F853A8001900990DF0E4
:1076300020F822E002A913A8013100190D9A0CF0DC
:10764000FFFF0D9802A9401C411853A800190D9A7C
:107650000CF0F6FF0D980D99201884B20098401890
:1076600080B200901298401C80B21290BF1C761C11
:10767000A3488088864200DA66E704F082FA9E49D1
:107680009F480C818088864202D1002008600861F2
:107690000020620817E013AB1E5CB446261AF718E8
:1076A000B646203FFE7F1E546346FB7753AB1B5C00
:1076B00076469C4653ABF718203FFE7F1E54634628
:1076C000401CFB7700B28242E5DC486901282FD0DC
:1076D000AC4209D2E4B2621E13A993980CF0B0FF39
:1076E000621E53A9949820E013A8261853A82718BF
:1076F000834C93986288B11A0CF0A2FF6288949828
:10770000B91A0CF09DFF60887B4A311A127A3E1A32
:10771000101AC4B2AC4200D92C46091B22469598D7
:107720000CF08EFF311B224696980CF089FF08E77B
:10773000949A93981F321F300E92AC4208D2E4B252
:10774000621E13A90CF07CFF621E53A90E98ECE791
:1077500013A96B4F661853A97A886418B11A0CF0F4
:107760006FFF7A880E98A11A0CF06AFF7888624A37
:10777000311A127A261A101AC4B2AC4200D92C4619
:107780009598091B22461F300CF05AFF9698311B22
:1077900022461F30C9E758480021416001618173CA
:1077A000704708B5002269460A8004F0FDF9694671
:1077B000088807214902401A5B2801D8012008BD2A
:1077C000002008BDF8B54F480025441C0178401C36
:1077D0000E182F460FE0684607806946204604F0E1
:1077E000E3F96846018859200001081A6F2801D87A
:1077F000012502E0641CB442EDD32846F8BDFF2306
:107800000133102802D0202806D00FE00888083065
:10781000984206D8088009E00888024610329A4249
:1078200001D900207047782802D00A8001207047D3
:107830008020EFE7FFB59BB004461D980D46002859
:107840001BD01E98002818D004F08CF900232A4A77
:10785000002810D00020694608862A480019441CD8
:10786000451900200F900E9053696D1C012B06D016
:10787000032B04D015E0536013611FB0F0BD1E99B7
:107880002498168920312030602E02D81E91249031
:1078900007E01D9E2490203625981D9620301E91CD
:1078A0002590022B02D114490020088147E1281BB2
:1078B000C1B2207800F0CAFA00282DD00CA92046C9
:1078C00004F072F90B9000282BD06B460020187042
:1078D0001A4602A9188E04F096F900287ED0204698
:1078E000FFF75FFF002855D06846008E0649401814
:1078F0002D284FD80B9809E0E82B0020002C002001
:1079000044200020782B0020FFF1FFFF2018A84220
:1079100040D2264601273AE0FE490020486008612F
:1079200010E1641C0BE1002069468886F61C0DA955
:10793000304604F039F96946888EF749109088423C
:1079400009D0F6494018062805D9F449109813398A
:10795000401807281ED8002069460871E41C24211D
:1079600011A80CF086FE01AA11A9109804F04BF999
:10797000002814D0012002A911AB0A5C1B5C1A4339
:107980000A54401CC0B21128F6D37F1CFFB2A81BBA
:10799000B842C8DCDF4E7069022803D06EE00B9855
:1079A0002418F2E76846007A202819D1308978280F
:1079B00001D010301AE008211D980CF05AFE082161
:1079C0001E980CF056FE1D9808301D901E98083029
:1079D0001E90308908303081012000E06FE00E9069
:1079E0006846007A102802D1308908303081308909
:1079F00080280E981BD800281FD16846007A02AF55
:107A00004208791C1D980CF01BFE6846007A42085B
:107A1000D119491C1E980CF013FE6846007A1D9976
:107A2000400841181D911E9940181E9001E0002841
:107A300003D1308981387F281ED86846007A02AF8A
:107A40004208791C24980CF0FBFD6846007A420835
:107A5000D119491C25980CF0F3FD6846007A249949
:107A60004008411824912599401825900E98002827
:107A700002D030891030308100200E9070690128CA
:107A800001D0032859D1308960286846007A17D878
:107A9000420802AE711C1E980CF0D2FD6846007AB6
:107AA00042089119491C24980CF0CAFD6846007AD6
:107AB0001E99400841181E912499401824903CE0DA
:107AC000202803D00F99102803D005E00F9910311A
:107AD00000E00831C9B20F91602917D8420802AE00
:107AE000711C1D980CF0ACFD6846007A4208911993
:107AF000491C1E980CF0A4FD6846007A1D994008A8
:107B000041181D911E9940181E9016E0420802AEC1
:107B1000711C24980CF094FD6846007A4208911973
:107B2000491C25980CF08CFD6846007A2499400881
:107B3000411824912599401825900B982418AC429F
:107B400000D2B4E604F01DF897E6F0B571498DB0A7
:107B50004C68002C13D00869002810D00020088140
:107B60008881694688856E480178401C0D1803F0AD
:107B7000F9FF00286CD167480021416001610DB018
:107B8000F0BD281BC1B2207800F060F9002819D0A0
:107B90000BA9204604F008F80A90002817D02046C8
:107BA000FFF7FFFD002838D068465C49808D3331EF
:107BB00040182D2831D80A982018A8422DD22646E0
:107BC000012727E0534900204860086142E05148FE
:107BD0008189491C8181641C3AE00020694608863D
:107BE000F61C0CA9304603F0DFFF6946088E4A49AF
:107BF000884208D049494118062904D94749133910
:107C00004018072809D84348E41C8189C91C7F1CF7
:107C10008181FFB2A81BB842DFDC684600210170F9
:107C2000024601A9808D03F0EEFF002819D03949E2
:107C3000684600790831FFF7E2FD0028354816D084
:107C40000189802904D00A99828964185118818198
:107C5000AC4296D303F095FFAC4290D3FFF79BFD67
:107C60008DE70A980A9924182A488289EEE7446029
:107C7000F0E7284980204969012900D16120704737
:107C800010B5FFF763FB002804D0012801D1FFF7EE
:107C900096FB10BDFFF759FF10BD1E480021016182
:107CA0004160704710B51B4A012313610478546189
:107CB00093738A1E6C2A01D96C2100E0891ECAB216
:107CC000174B811C1A70581C0CF0BAFC154801683F
:107CD0000122520211430160012010BD70B505461A
:107CE00011480078002833D1104CA06808F0F4FF48
:107CF0002069102801D30020206120690C49C000B0
:107D00004618284603F03AFA002802D1716828463E
:107D100088470FE0E82B0020310E0000CCF1FFFF78
:107D2000782B00201420002009200020442000206F
:107D3000884B020000F00DFC002803D107F0A1FCE5
:107D400000F0F3FBA56100224849A06808F05AFF43
:107D500070BD10B546484069012806D002280AD0F7
:107D600004F018FA00F072FF10BD0521142004F091
:107D700093F9012004E00521142004F08DF902207C
:107D800000F006FF0820FFF7A9FF10BD70B5394CC1
:107D900020690025102800D3256120693649C000DC
:107DA00040186169002918D02178012251402170C2
:107DB0006169491E61612269E168914201D02169CE
:107DC000E16000688047A06808F086FF012100227A
:107DD0008903A06808F016FF70BDA06808F07CFF5A
:107DE00026480570257000F011FB00F0B5FB05F08A
:107DF000A6FF20690A2804D22069032801D0256142
:107E000070BD20690328FBD105F035FB70BD1C480F
:107E10000078002802D017490020486119480168FD
:107E200001229204114301607047124810B5164AAE
:107E30000021083008F09FFE002801D0002010BD6E
:107E40000C48002101614161012010BD0246C03A89
:107E5000202A01D2012904D9E038102803D20229AE
:107E600001D800207047012070470000CD0C0000B1
:107E7000E82B002044200020884B02000D20002029
:107E800009200020142000200F7E0100F8B50C21ED
:107E90004843E74E074680190090017901242046A7
:107EA000E44D8840E860F15D20468840A8602046A7
:107EB000FEF710F90098017920468840A860E86133
:107EC000F05D8440EC61F8BD70B50C22D84E504393
:107ED0008219012355681C46D64AAC409461305C37
:107EE0008340D36080200E46064201D0946000E0BB
:107EF000D46000BF00BF00BF00BF936000BF00BFE1
:107F000000BF00BFD3604008EDD1D461936000BFD3
:107F100000BF00BF00BF1069D360E840C007C017B2
:107F2000401C946170BDF3B504460C204443C04826
:107F3000002527183A7901239340BE4A81B0D361C6
:107F40008026BB480121005D8140BA48816000BFA6
:107F500000BF00BF00BF02693B79DA40D20701D001
:107F60003543EDB2C1600120FEF7B4F800BF00BF99
:107F700000BF00BF7608E4D13A790121084690405D
:107F8000AC4AAB4B9061029E002E01D0D06000E065
:107F9000906000BF00BF00BF00BF185D81409160CE
:107FA00000BF00BF00BF00BFD1602846FEBDF8B5CE
:107FB0009F4E0027377218203060172070609F494D
:107FC0009D480862C86101249A4D2006A861A860F6
:107FD0004010E8612046FEF77DF828697168C840C6
:107FE000C00718D120468840A861317820468840D3
:107FF000E8600120FEF76EF800BF00BF00BF00BFC1
:10800000307821468140A9600120FEF763F87F1C8B
:10801000FFB2092FE9D3317820468840A860A861D3
:10802000317920468840A860A861002030750D2075
:10803000F0600C20814930617F4840394863086313
:1080400001204003A861A8604010E8610120FEF70C
:1080500041F829693069C140C90719D121468140D9
:10806000A9610027317B20468840E8600120FEF7A7
:1080700031F800BF00BF00BF00BF307B2146814008
:10808000A9600120FEF726F87F1CFFB2092FE9D373
:10809000317B20468840A860A861317C204688401A
:1080A000A860A86162490020203108700820B061F2
:1080B00009206249F0616048403908624862FF2047
:1080C0000130A861A8604000E8610120FEF702F8D5
:1080D0002969F069C140C90719D121468140A961C8
:1080E0000027317E20468840E8600120FDF7F2FF3E
:1080F00000BF00BF00BF00BF307E21468140A960A5
:108100000120FDF7E7FF7F1CFFB2092FE9D3317E85
:1081100020468840A860A861307F8440AC60AC6194
:10812000F8BDFFB581B01C46150013D001980C2195
:1081300048433F49012247183A72019800F054F829
:1081400002990198FFF7C0FE060023D00298C007ED
:108150000BD118E0012005B0F0BD002C0BD001219F
:108160000198FFF7E0FE28706D1C2046641EE4B203
:108170000028F2D10EE00021F2E729780198FFF7FC
:10818000A3FE06406D1C2046641EE4B2002801D008
:10819000002EF2D10A983146814302D10198FFF7AF
:1081A00075FE002038723046D5E7FFB5012481B056
:1081B0001F4615460E46002907D10120CBE731782E
:1081C0000198FFF781FE0440761C28466D1EEDB233
:1081D000002801D0002CF2D12046B84302D10198EA
:1081E000FFF754FE2046B6E7F8B50C214843104E81
:1081F00007468019009001790124204688400D4DE2
:108200000146A861F25D20469040A861A960A8607F
:108210002046FDF75FFF0098017920468840E8601E
:108220000120FDF757FFF05D8440EC60F8BD0000D1
:10823000D82C0020000500500C060000400700501C
:1082400010B54D4A9368002B0BD004780A4680681D
:1082500021469847002803D048A21A21FDF7FAFFCB
:1082600010BD022908D001290CD00329F8D10278C9
:1082700083681046984710BD03788268022118462B
:10828000904710BD027801218368F2E7F3B500241E
:1082900081B00F460125384E28E00C2071686043FC
:1082A00040184178022904D0012909D003290FD0B0
:1082B0001AE001782A468A403A4215D0022111E09C
:1082C000027829469140019A11420DD0012109E01E
:1082D0000278294691400A463A4202D1019A114257
:1082E00002D00321FFF7ACFF641CE4B23078844273
:1082F000D3D3FEBDF8B5204B154658600024197045
:1083000022469D6016E00C234B431B181E785D68C7
:10831000B7001F4EAD00BE1935605D78AE0703D5BE
:108320001F780126BE403243ED0703D01D7801239C
:10833000AB401C430B46491EC9B2002BE3D10E488B
:10834000144B2146401C09F0FAFAF8BD10B50A4852
:108350004168002903D0407809F014FB10BD0820C3
:1083600010BD10B504484168002903D0407809F0D9
:108370004AFB10BD082010BD602000202E2E5C6836
:10838000616C5C6170705F696E7470696E2E630001
:10839000000700508D8201001CB5002269460A7159
:1083A000487101200090022301AA78210020FFF7E4
:1083B000B8FE002800D001201CBD7CB50C46054647
:1083C0004020694608710020012301AA782100900D
:1083D000FFF7A7FE0123224629460020FFF7E5FE0E
:1083E000002800D001207CBD10B50446B031C8B2D1
:1083F000FFF7D2FF0020FFF7CFFF1020FFF7CCFFE1
:1084000080212046FFF7D9FF012010BD00B5A1B0A3
:10841000802168460CF02DF900216846FFF7E4FF43
:1084200001216846FFF7E0FF02216846FFF7DCFF05
:1084300003216846FFF7D8FF21B000BD10B5AE207C
:10844000FFF7AAFF0020FFF7A7FF1020FFF7A4FF08
:108450000020FFF7A1FFB020FFF79EFF8120FFF76C
:108460009BFFFF20FFF798FFA120FFF795FFA620B5
:10847000FFF792FFA820FFF78FFF1F20FFF78CFF69
:10848000C820FFF789FFD320FFF786FF0020FFF702
:1084900083FFD520FFF780FF8020FFF77DFFD920E5
:1084A000FFF77AFF0420FFF777FFDA20FFF774FF6A
:1084B0000220FFF771FFDB20FFF76EFF3020FFF790
:1084C0006BFF8D20FFF768FF1420FFF765FFA420E6
:1084D000FFF762FFFFF79AFF1E2000F04DF8012022
:1084E0002B498007C860012010BD10B5192000F08D
:1084F00043F8192000F046F80A20FDF7FBFD0120A3
:1085000023494006C8600A20FDF7F4FD1E2000F054
:1085100033F81E2000F036F8642009F05FF91920C6
:1085200000F030F8FFF78AFF10BD10B51E2000F0F4
:1085300023F81E2000F026F8AF20FFF72DFFC820FB
:10854000FFF72AFFA120FFF727FF1249012008703B
:1085500010BD10480078704710B5AE20FFF71CFF23
:108560000C49002008701E2000F006F80120084980
:108570008007C860012010BD074A032180008018D1
:10858000016070470121814001488160704700000F
:10859000000500506C20002000070050F1B5FC4899
:1085A00086B080680026FB490BF0F0FF0C460546BC
:1085B0003C2120460BF0EAFF68460170E1210901E9
:1085C00020460BF0E3FF044608463C210BF0DEFF9B
:1085D000C1B2684641700291E1B2817003917D2180
:1085E0000901FF27ADB2C180913711E0049900293C
:1085F00026D0642120460BF0C9FF002901D0A00736
:108600001ED0FF206E30281A85B2641C6846C480D4
:10861000C088394604460BF0B9FF0491002912D0F6
:10862000642120460BF0B2FF002901D0A0070AD038
:10863000FF206E30A842D9D900206946087119E0A0
:10864000FF206F30DFE7FF206F30F3E70499002948
:1086500035D0642120460BF099FF002901D0A007F6
:108660002DD00020394600F0D5F9281A85B27F1C9C
:10867000684607710499002923D0642120460BF035
:1086800085FF002901D0A0071BD000206946097989
:108690000F4600F0BFF9A842D8D9E9B26846C170C8
:1086A000BB481030C278914207D1694609790279F6
:1086B000914202D1C1888C4205D007260EE00120EC
:1086C000D0E70120E2E782780399914201D00326A6
:1086D00004E040780299814200D0012606980028E3
:1086E00006D0AB488670AC48016801221143016096
:1086F000A7480822694610300BF0A2FF07B0F0BD72
:10870000F8B5A34C0121E078A44D4840E0702978E9
:10871000002906D1A249401E0968014201D100F09A
:1087200090FBE078002837D0A068401CA06020783B
:108730003B2805D3002020700120FFF72FFF01E028
:10874000401C20702078032107460BF01FFF954E38
:10875000002901D13088A080072138460BF016FF90
:1087600000290CD1A0883188884208D106F00EF982
:10877000002804D18848016820221143016002F0DA
:1087800039FF2878002807D106F0A9FF04F0AEFED3
:10879000002801D004F0E0FEF8BD10B57C490020AF
:1087A00088607B48082110300BF063FF78487E4AD0
:1087B00001210C3008F0DFF9002801D0002010BDA5
:1087C000012010BD10B57248714C10300078207037
:1087D000E06808F081FA012100228903E06808F0CE
:1087E00011FA002801D0002010BD012010BD10B5E5
:1087F0006748C06808F070FA002801D0002010BD5A
:10880000012010BD624988607047614880687047E8
:108810005F491031CA88C2800A790271CA78C27071
:108820008A7882704A784270097801707047F8B58A
:10883000044680783C2148436178E57840183C2123
:108840004843217846180427E75716E0E088FF21BF
:10885000913100900BF09AFE002916D06421009807
:108860000BF094FE002902D0009880070DD0002064
:10887000F9B200F0CFF8401985B27F1E7FB2002F09
:10888000E4DA7D27E4883F0114E00120F0E7FF21CE
:10889000913120460BF07AFE002913D06421204646
:1088A0000BF074FE002901D0A0070BD0FF206E3022
:1088B000401985B2641EA4B2BC42E8D23548454393
:1088C000A819F8BDFF206F30F2E770B530490446B3
:1088D0001031E278CB7800209A4207D122790B79C7
:1088E0009A4203D1E288CB889A4200D00720A2782E
:1088F0008B789A4201D003221043627849788A42E9
:1089000001D001210843224D21782970A87020460A
:10891000FFF78DFFA86028460822214610300BF093
:108920008FFE70BDF8B51A481030C77804797F1CE7
:10893000C688002C1CD0012C1AD0642130460BF0C4
:1089400025FEC5B264206843301AC6B2A41C1A20A2
:1089500060430A210BF01AFEB2089219AB08D21834
:108960006B00C0B2D21AF9B210184018801E1FE076
:10897000701E64210BF020FEC5B264206843301ADB
:10898000401EC6B220460E301A214843E1E70000DF
:1089900070200020805101001420002009200020B8
:1089A00018200020EA23002001870100C01D00B22A
:1089B0000028FBDB07210BF0FFFD0620401A1D49B4
:1089C000C0B24870F8BD1B484078704719498A7892
:1089D000002801D0002088701046704710B5012093
:1089E000FFF7F4FF0446800701D502F05DFDE007C4
:1089F00007D002F0F9FC04F0BDFE02F08AFDFDF79D
:108A000070FD600705D5FFF78DFF02F049FD04F00A
:108A100039FF10BD02461F20012907D0062901D9C0
:108A2000491EC9B2C90700D01E2070471C32D0B2FF
:108A30007047000070200020F8B5974E306808F0AD
:108A40004BF9964C351D607AE979002788420AD3A4
:108A50001D2000F015F91D2000F019F9904904209F
:108A60000860EF71F8BD012022684107002A0ED08E
:108A70006268012A0FD0227A521CD2B22272AB79DC
:108A80009A4212D2606087488160298808E020609D
:108A900060602772F7E71D20676000F0F8F86988CA
:108AA0000022306808F0AEF8F8BD2760A9880022DF
:108AB000306808F0A7F8607A401C6072F8BD10B505
:108AC000774904200860784A0021734808F053F879
:108AD000002801D0002010BD012010BD072A00D3BE
:108AE0000522112800D30020002900D101215300C4
:108AF000694A0C32D054981841707047F3B5664EED
:108B0000044681B0306808F0E7F81D2000F0B8F89E
:108B10001D2000F0BCF8112C00D300246349E000B4
:108B200044182088FF23410CC003F5330022C018ED
:108B300051415F003A4600230BF052FD564D7B1029
:108B40002D1D288060880022410CC003C0185141AF
:108B50003A4600230BF044FD6880A079A871A088F4
:108B60007B10410CC003C018002251413A4600233B
:108B70000BF036FDA8800298E87148490020086093
:108B80004860886002463221306808F03BF8FEBD3C
:108B9000F8B50446464847490078097808404649F0
:108BA0000978084351D13C4F386808F095F8072CF4
:108BB00000D30524384866000C30805D112801D3AD
:108BC0003A4C02E03949C00044181D2000F058F822
:108BD0001D2000F05CF82088FF23410CC003F53312
:108BE0000022C01851415A0000230BF0F9FC2A4D15
:108BF000FF232D1D28806088F533410CC00300221F
:108C0000C01851415A0000230BF0EAFC6880A0799B
:108C1000A871A088FF23410CC003F5330022C018BF
:108C200051415A0000230BF0DBFCA8802846083095
:108C300030184078E8711949002008604860886061
:108C400002463221386807F0DDFFF8BD10B5124842
:108C5000006808F041F810490020091DC8711D2066
:108C600000F00EF81D2000F012F80D4904200860F5
:108C700010BD0948001DC079002800D001207047B0
:108C8000074A03218000743A80180160704701216F
:108C900081400448C160704788200020FC2C0020DF
:108CA0007407005000050050398A0100E04D0200B1
:108CB0000A20002008200020092000201CB50F20D9
:108CC0006946087100200123009001AA322118464C
:108CD000FFF727FA00280DD00120034601AA33210F
:108CE0000090FFF71EFA002804D068460079332868
:108CF00001D000201CBD01201CBD10B500F0C2F841
:108D0000002804D0FFF7DAFF002800D0012010BDB2
:108D10001CB5202168460171082141710120022300
:108D200001AA32210090FFF7FCF9002800D00120B1
:108D30001CBD1CB504462F20694608710020012384
:108D4000009001AA32211846FFF7EBF900280ED057
:108D50000120034601AA33210090FFF7E2F9002821
:108D600005D068460079C006C00E207001201CBDE9
:108D70003EB50446A82069460871002001230090F2
:108D800001AA32211846FFF7CCF9002818D001209B
:108D9000062301AA33210090FFF7C3F900280FD062
:108DA00068460421415E0811208068460621415E24
:108DB0000811608068460821415E0811A0800120EA
:108DC0003EBD1CB520216846017147214171012437
:108DD000022301AA322120460094FFF7A2F90028BD
:108DE0000ED02E216846017199214171022301AAFA
:108DF000322101200094FFF794F9002800D00120CF
:108E00001CBD1CB520216846017127214171012438
:108E1000022301AA322120460094FFF782F900289C
:108E20000ED02E21684601719F214171022301AAB3
:108E3000322101200094FFF774F9002800D00120AE
:108E40001CBD3EB53448007800281AD16946087028
:108E5000019002906846FFF76CFF00240DE001A826
:108E6000FFF786FF6B460822062104209A5E595EB2
:108E7000185E0BF029F9641CE4B26846007884425D
:108E8000EDD33EBD1CB520216846017147214171DB
:108E90000124022301AA322120460094FFF741F960
:108EA000002838D02321684601710821417102232E
:108EB00001AA322101200094FFF733F900282AD0BB
:108EC00024216846017140214171022301AA322107
:108ED00001200094FFF725F900281CD025216846C1
:108EE000017100214171022301AA32210120009465
:108EF000FFF717F900280ED02E216846017199213D
:108F00004171022301AA322101200094FFF709F9DF
:108F1000002800D001201CBD0920002010B500232E
:108F2000FE4A00280BD0148A8C4209D111680160D6
:108F30005168416091688160D168C160012010BDB5
:108F40005B1C1432DBB2172BEDD3002010BDF0B543
:108F5000FFB086B000252C46802104A80BF089FBC9
:108F6000802124A80BF085FB802144A80BF081FB15
:108F7000802164A80BF07DFB02A871DF002803D0DC
:108F8000E7A2ED49FDF766F96846817A427A080260
:108F90001043EA490BF0FAFA002000900A460190CB
:108FA000E7A168460BF0E4FB68460BF06DFBC7B227
:108FB00027E06846405D122230380006860DE24800
:108FC000815904A800190BF03BFBDF481222343012
:108FD000815924A800190BF033FBDB4812226830BA
:108FE000815944A800190BF02BFBD74812229C3062
:108FF000815964A800190BF023FB12346D1CE4B2F4
:10900000EDB2BD42D5D3D14838AE0478A0070BD518
:10901000C2491F22603918A80BF012FBBF491F225A
:10902000413930460BF00CFBE00758AD0BD0BB4983
:109030001F22603928460BF003FBB8491F22413933
:1090400078A80BF0FDFA60070BD5B4491F226039F0
:1090500030460BF0F5FAB1491F22413928460BF092
:10906000EFFA002104A8FFF7BFF9012124A8FFF7B8
:10907000BBF9022144A8FFF7B7F9032164A8FFF761
:10908000B3F97FB006B0F0BDF8B500240625B04EA8
:10909000B04F00280BD0012809D0022807D004289F
:1090A0000BD1FFF756FA002807D1356004E0356090
:1090B000FFF74FFA002800D03C60F8BDF0B5FFB0D4
:1090C00092B000252C4643A8FFF7A2FB40A8007CE5
:1090D0000C280FD240A8C07B1F280BD240A8807B51
:1090E000182807D240A8407B3C2803D240A8007B28
:1090F0003C2805D390498AA253310020FDF7AAF8F5
:10910000802168460BF0B5FA802120A80BF0B1FA57
:10911000802150A80BF0ADFA802170A80BF0A9FABD
:1091200000264C964CA901204D9603F0B7F948A8AB
:10913000C07C00280DD040A8807B0C2802D90C38B8
:1091400040A9887340A8807B002802D10C2040A948
:109150008873419640A84296437B827B7EA141A8BA
:109160000BF006FB41A80BF08FFAC7B267E041A8ED
:10917000405D3A2827D030380006800D724946906D
:1091800009586846001912220BF05AFA6E4946989F
:109190003431095820A8001912220BF051FA6A49FB
:1091A00046986831095850A8001912220BF048FA65
:1091B000654946989C31095870A8001912220BF095
:1091C0003FFA123438E06748007800281FD05E4824
:1091D0000822816A684600190BF032FA5A480822C0
:1091E0003430816A20A800190BF02AFA5648082268
:1091F0006830816A50A800190BF022FA5248082200
:109200009C30816A70A800190BF01AFA13E06846C6
:10921000001908210BF02DFA20A8001908210BF0E5
:1092200028FA50A8001908210BF023FA70A8001999
:1092300008210BF01EFA08346D1CE4B2EDB2BD42F9
:1092400095D3494864AD016814A84B9034A884AC08
:109250004A90002929D01F2244494B980BF0F0F97D
:1092600042491F221F394A980BF0EAF93F491F2251
:109270003E3928460BF0E4F93C491F225D3920466F
:109280000BF0DEF900216846FFF7AEF8012120A8B7
:10929000FFF7AAF8022150A8FFF7A6F8032170A84B
:1092A000FFF7A2F87FB012B0F0BD04F0A6FB0028D3
:1092B00068D0419640A84296C37B027C5B1C521C3E
:1092C0002BA141A80BF054FA41A80BF0DDF952256F
:1092D000C6B2002419E041A8005D2F2863D03038C1
:1092E000C0B2870025480622C15950A840190BF08A
:1092F000A7F9224806222C30C15970A840190BF05A
:109300009FF9AD1D641CEDB2E4B2B442E3D31C4836
:10931000007800285CD01F22004934E0A0570200EA
:109320002E2E5C68616C5C6170705F646973705F45
:10933000706167652E630000AE0C0000102700000E
:1093400025303464000000001C2100200C20002087
:109350005820002054200020253032643A25303235
:10936000640000004420002018200020E551020085
:10937000253032642F2530326400000004230020A1
:109380000820002061E0BD394B980BF059F91F22ED
:10939000FE494A980BF054F9552401F0AFFF0646F8
:1093A000002520AF11E00A209BE76846001904223F
:1093B000F7490BF045F9F64938190422091D0BF05D
:1093C0003FF9241D6D1CE4B2EDB2B542EDD30BE0C4
:1093D000EE491F225D314B980BF032F9EB491F2209
:1093E0003E314A980BF02CF9EA48E84C0088EA49EB
:1093F000DC3C884207D020461C300FC81CAD0FC58E
:109400002C340FCC0AE006F062F9002809D120467E
:109410005C300FC81CAD0FC56C340FCC3F933CAB18
:1094200007C3FFF7D0FA0621081A0006840DDB48AF
:10943000102201596CA80BF003F9D84810221C30F7
:1094400001598CA80BF0FCF81CE74FA84F9603F0CD
:10945000F2FF4F98817845A8FFF760FD1F224599DC
:109460004B980BF0EDF81F2246994A980BF0E8F85C
:109470001F22284647990BF0E3F81F2220464899FF
:10948000E0E7F0B5FFB092B0002402A8FFF7C0F902
:109490006846007B0C280FD26846C07A1F280BD282
:1094A0006846807A182807D26846407A3C2803D25A
:1094B0006846007A3C2804D3B94ABA490020FCF730
:1094C000C9FE802170A80BF0D4F8802150A80BF0C1
:1094D000D0F8802110A80BF0CCF8802130A80BF038
:1094E000C8F86946012002F0D9FF6846C078002814
:1094F0000DD06846807A0C2802D90C3869468872EB
:109500006846807A002802D10C2069468872684635
:10951000077BA54E10AD092F30A809D39B49102217
:10952000CA310BF08DF8B80080194038C16907E0E6
:1095300096491022BA310BF083F8B80080194168BF
:10954000284610220BF07CF86846C07A0A21401C9D
:109550000BF01CF800060F46800D315850A8102261
:109560000BF06EF8B800315870A810220BF068F8B4
:109570006846807A0A210BF009F887008A4E089124
:10958000C83E35A8F159023020220BF059F8304678
:109590002838C15915A8023020220BF051F808993B
:1095A00055A88F00F159023020220BF049F83046BF
:1095B0002838C15975A8023020220BF041F87B48A9
:1095C0005DAF01781DA80230023700290BD0704929
:1095D0000422091F0BF034F86D493846042208397B
:1095E0000BF02EF806E004210BF043F83846042176
:1095F0000BF03FF86846407A0A210AF0C7FF87005F
:1096000069480891C838C1593EA8023020220BF0A1
:1096100017F8654E1EA8F03EF159023020220BF0DB
:109620000FF8089930468F002830C1595EA80230E3
:1096300020220BF005F87EA8F159023020220AF012
:10964000FFFF5B4868AF016848A80F9028A888AE64
:109650000990002915D030461F2256490AF0F0FF24
:10966000544938461F221F390AF0EAFF51491F2288
:109670003E3909980AF0E4FF4E491F225D390F98E0
:10968000F7E004F0BAF900287ED0FFF79CF9062134
:10969000081A00064149800D1C390A900958102209
:1096A0000F980AF0CDFF3D490A9838390958102221
:1096B00009980AF0C5FF37483749008888420AD020
:1096C000324938461022D0390AF0BAFF2F49102209
:1096D0003046E0390DE005F0FAFF00280BD12B49A8
:1096E0003846102290390AF0ABFF28493046102244
:1096F000A0390AF0A5FF30484CA902788CA86CAFBD
:109700002CAE0591002A7DD020490C223C390AF06C
:1097100097FF1E4938460C2248390AF091FF1B4931
:1097200030460C2254390AF08BFF18490C2260395C
:1097300005980AF085FF732601F0E0FD99210923C1
:109740008022052809D09827042837D0032849D03B
:1097500002285DD0012869D08DE030A8835D0927FB
:109760003B438355AB5D641C0B43AB5550AB9F5DD6
:10977000E4B20F439F5570AB9F5D17439F55761C16
:10978000F6B2062CEAD376E086E00000C45602006A
:10979000704E020012200020FFFF0000E420002095
:1097A000209301009C0D0000DC22002044200020BA
:1097B00018200020E55102000820002050A830A900
:1097C0008A5D09231A438A55AA5D99231A43AA552B
:1097D000825D641C3A438255761CE4B2F6B2062CD4
:1097E000EED348E050A830A98B5D09273B438B5549
:1097F000AB5D99273B43AB55835D13438355761C83
:10980000F6B200E021E0641CE4B2062CECD332E0B6
:1098100030A8815D641C19438155A95DE4B23943C8
:10982000A955761CF6B2062CF3D324E030A8042107
:10983000835D641C0B438355AB5DE4B21343AB55AE
:10984000761CF6B2062CF3D315E00C22FE490AF082
:10985000F7FEFD4938460C220C390AF0F1FEFA49B0
:1098600030460C2218390AF0EBFEF7490C22243955
:1098700005980AF0E5FE002170A8FEF7B5FD01216C
:1098800050A8FEF7B1FD022110A8FEF7ADFD03219F
:1098900030A8FEF7A9FD05E50020049004A803F018
:1098A000CAFD049881780AA8FFF738FB30461F22CA
:1098B0000A990AF0C5FE38461F220B990AF0C0FE2D
:1098C0001F220C9909980AF0BBFE1F220D990F98D0
:1098D000CFE710B5DD480078002802D0FFF7EEFB97
:1098E00010BDFFF7CEFD10BD70B50624D84DD94E82
:1098F000022813D00BDC002801D0012806D12C60EF
:10990000FEF727FE002801D00420306070BD042837
:109910000BD00A28FAD12C600D20F6E72C60FEF758
:1099200018FE0028F2D00120EFE7FEF712FE002813
:10993000ECD12C6070BDF0B5FFB084B00025802163
:1099400021A800950AF095FE802141A80AF091FE19
:10995000802161A80AF08DFE802101A80AF089FE0D
:10996000684603F051FD00980621846881A80AF03A
:1099700080FEB948844211D3B848844202D3B84A21
:10998000092306E07D21C90020460AF0FFFD82B2CE
:109990000B46B4A181A80AF0EBFE04E02246B3A175
:1099A00081A80AF0E5FE81A80AF06EFEC6B2052E77
:1099B00000D905260520801B122148431F30C4B260
:1099C00029E081A8405D2C2851D030380006870D51
:1099D0009E4812227830C15921A800190AF030FEA1
:1099E0009A481222AC30C15941A800190AF028FE49
:1099F00096481222E030C15961A800190AF020FEF1
:109A00009B481222C15901A800190AF019FE12340C
:109A10006D1CE4B2EDB2B542D3D31F22954921A803
:109A20000AF00EFE93491F221F3941A80AF008FED2
:109A300090491F223E3961A80AF002FE8D491F227B
:109A40005D3901A80AF0FCFD002121A8FEF7CCFC3D
:109A5000012141A8FEF7C8FC022161A8FEF7C4FC61
:109A6000032101A8FEF7C0FC7FB004B0F0BD01A83F
:109A70000019082280490AF0E3FD0834C8E770B5F0
:109A800000250621724A734C00280BD0012809D00A
:109A900002280ED0042804D11160FEF75AFD0028D8
:109AA00005D070BD1160FEF754FD0028F9D0256087
:109AB00070BD1160FEF74DFD0028F9D00220206036
:109AC00070BDF0B5FFB084B00025802102A80AF077
:109AD000D0FD802122A80AF0CCFD802142A80AF006
:109AE000C8FD802162A80AF0C4FD03F0AEFC00218D
:109AF000009101910A210AF049FD02465BA16846E6
:109B00000AF036FE68460AF0BFFDC6B2052E00D93F
:109B100005260520801B122148431F30C4B227E0D0
:109B20006846405D122230380006870D474878307D
:109B3000C15902A800190AF083FD4D481222683865
:109B4000C15922A800190AF07BFD49481222343875
:109B5000C15942A800190AF073FD45481222C159A3
:109B600062A800190AF06CFD12346D1CE4B2EDB26B
:109B7000B542D5D33F491F227C3102A80AF060FDCF
:109B80003C491F225D3122A80AF05AFD39491F22A3
:109B90003E3142A80AF054FD36491F221F3162A807
:109BA0000AF04EFD002102A8FEF71EFC012122A8AA
:109BB000FEF71AFC022142A8FEF716FC032162A858
:109BC000FEF712FC50E770B500240621204A214D13
:109BD00000280BD0012809D0022807D0042804D17E
:109BE0001160FEF7B6FC002805D070BD1160FEF7CD
:109BF000B0FC0028F9D02C6070BDF0B5FFB092B079
:109C0000002628A90E730E7480212FA82A960AF028
:109C100030FD80214FA80AF02CFD80216FA80AF0AA
:109C200028FD802168460AF024FD2CAA2AA92BA829
:109C300003F0EEFB2A98817825A8FFF76FF900283A
:109C400030D028A8007C19E0B8560200A4200020DB
:109C50005820002054200020A086010040420F0020
:109C6000E703000025642C25640000002564000043
:109C7000B8210020F54F0200784E0200FE49097815
:109C800088431ED01F212FA80AF0F3FC1F214FA8E4
:109C90000AF0EFFC1F216FA80AF0EBFC1F216846B9
:109CA0000AF0E7FC06218FA80AF0E3FC2A988178E5
:109CB00009061BD585680A2128460AF067FC02467A
:109CC0002BE01F222FA825990AF0BAFC1F224FA8CB
:109CD00026990AF0B5FC1F226FA827990AF0B0FC5C
:109CE0001F22684628990AF0ABFCDBE7C568E34809
:109CF000854211D3E248854202D3E24A092306E0B5
:109D00007D21C90028460AF041FC82B20B46DE499B
:109D10008FA80AF02DFD04E02A46DCA18FA80AF0E6
:109D200027FD8FA80AF0B0FCC7B2052F00D9052780
:109D30000520C01B0D2148431F30C4B22DE08FA861
:109D4000805D2C2831D030380006800DD049249019
:109D500009582FA800190D220AF072FCCC4924984A
:109D6000283109584FA800190D220AF069FCC8498A
:109D70002498503109586FA800190D220AF060FC90
:109D8000C349249878310958684600190D220AF011
:109D900057FC0D34761CE4B2F6B2BE42CFD32A98FB
:109DA0000188A94209D85A230DE068460019082203
:109DB000B8490AF045FC0834ECE75A20491C6843CE
:109DC0000AF0E4FB83B208A8417870221143417085
:109DD00018A8C17E1143C1763E3800215024057871
:109DE000994201D2154300E025430570491C401CEF
:109DF000C9B25A29F3D303F0F7FA694600222AE0E0
:109E000028AB1B7B0C78934212D1E0231C430C70CF
:109E10004C78A0252C434C708C781C438C70CB78EC
:109E2000DB06DB0ECB700B79DB06DB0E0B710FE074
:109E300040231C430C704C781C434C708C781C43A2
:109E40008C70CC78BF231C40CC700C791C400C71FA
:109E5000491D521CD2B28242D2D300212FA8FEF754
:109E6000C3FA01214FA8FEF7BFFA02216FA8FEF73F
:109E7000BBFA03216846FEF7B7FA0CE510B50621D8
:109E8000854A03000AF088FC050404131B2A12000B
:109E90001160FEF75EFB002808D003F0AEFD00283D
:109EA00001D103F012FB7D490020086010BD116054
:109EB000FEF74FFB0028F9D003F0E2FA10BD116065
:109EC000FEF747FB0028F9D003F0A0FD0028F5D1EC
:109ED0000520FEF75DFE03F0E7FA10BD1160FEF706
:109EE00038FB10BD00B5FFB082B0802168460AF093
:109EF000C0FB802120A80AF0BCFB802140A80AF00A
:109F0000B8FB802160A80AF0B4FB0CA81F226449AA
:109F10000AF096FB62492CA81F221F390AF090FB19
:109F20005F494CA81F223E390AF08AFB5C496CA8A5
:109F30001F225D390AF084FB00216846FEF754FABF
:109F4000012120A8FEF750FA022140A8FEF74CFAA2
:109F5000032160A8FEF748FA7FB002B000BD70B5DB
:109F600000264D494D4D062403000AF015FC05045A
:109F700004060D190C000C6017E00C60FEF7E9FAFE
:109F8000002800D02C6070BDFEF7E3FA0028FAD05C
:109F90000520FEF7FDFD03F06EFA0320286070BD7A
:109FA0000C60FEF7D6FA0028F9D12E6070BD70B5AE
:109FB000FFB081B0802120A80AF05BFB802140A87F
:109FC0000AF057FB802160A80AF053FB8021684605
:109FD0000AF04FFB33484CAE01682CA86CAD0CACBA
:109FE000002937D01F2230490AF02AFB2E4930467B
:109FF0001F221F390AF024FB2B491F223E39284615
:10A000000AF01EFB284920461F225D390AF018FB82
:10A010002648274D0678C0242649E022A023402068
:10A020002D88012E4CD08D427ED010A9CD7F1543B6
:10A03000CD7718A90A781A430A704A7822434A70E1
:10A040000A7902430A714A7902434A718A790243C2
:10A050008A717EE014491F227C390AF0F1FA124914
:10A0600030461F229B390AF0EBFA0F4928461F227F
:10A07000BA390AF0E5FA1FE044200020A08601006A
:10A0800040420F00E7030000649C010025640000CB
:10A090003C220020784E020058200020542000204E
:10A0A000CD54020018200020615202000D20002033
:10A0B00012200020FFFF000020461F22FE49A5E7D6
:10A0C0008D4214D010A9CD7F1543CD7718A90A78F9
:10A0D0001A430A704A7822434A700A7902430A7185
:10A0E0004A7902434A718A7902438A7109E018A9C0
:10A0F0000C7914430C714C791C434C718B791343CC
:10A100008B714A7A02434A728A7A02438A72CA7A05
:10A110000243CA728A7B02438A73CA7B0243CA73B0
:10A120000A7C02430A7400E009E0CA7C0243CA7454
:10A130000A7D02430A754A7D02434A751BE018A94D
:10A140000C7914430C714C791C434C718B7913437B
:10A150008B714A7A02434A728A7A02438A72CA7AB5
:10A160000243CA728A7B02438A73CA7B0243CA7360
:10A170000A7C02430A74002120A8FEF735F9012168
:10A1800040A8FEF731F9022160A8FEF72DF903215E
:10A190006846FEF729F97FB001B070BD70B5C74EB3
:10A1A0000625C74C03000AF0F7FA0504040B223415
:10A1B0001E002560FEF7CDF9002814D0042014E01D
:10A1C0002560FEF7C6F900280DD02560FEF7C1F91D
:10A1D000002808D0BB48BC490088884204D007202A
:10A1E00030601820206070BD0820306070BD256090
:10A1F000FEF7AFF90028F9D00520FEF7C9FCB348F7
:10A200000068002803D0002009F09EF870BD0120EE
:10A21000FAE72560FEF79DF90028E6D070BD70B51D
:10A22000FFB081B0802120A80AF023FA802140A845
:10A230000AF01FFA802160A80AF01BFA8021684604
:10A240000AF017FA9F48A04A01882CA84CAE6CADC2
:10A250000CAC914214D01F229D490AF0F1F99C499F
:10A2600030461F221F390AF0EBF9994928461F2270
:10A270003E390AF0E5F996491F2220465D3914E07F
:10A2800093491F227C310AF0DBF9914930461F22A5
:10A290005D310AF0D5F98E4928461F223E310AF079
:10A2A000CFF98B4920461F221F310AF0C9F989488E
:10A2B000E02201784020A023012910A9CC7F34D0CE
:10A2C0000443CC7718A90C7804430C704C780443F1
:10A2D0004C700C7914430C714C791C434C718B7984
:10A2E00013438B714A7A02434A728A7A02438A7212
:10A2F000CA7A0243CA728A7B02438A73CA7B0243C8
:10A30000CA730A7C02430A74002120A8FEF76CF885
:10A31000012140A8FEF768F8022160A8FEF764F862
:10A3200003216846FEF760F835E70443CC7718A9A7
:10A330000C7804430C704C7804434C700C79144333
:10A340000C714C791C434C718B7913438B714A7A95
:10A3500002434A728A7A02438A72CA7A0243CA72F2
:10A360008A7B02438A73CA7B0243CA730A7C024314
:10A370000A74CA7C0243CA740A7D02430A754A7D84
:10A3800002434A75C0E770B506244D4D4B4E03009D
:10A390000AF002FA0504040B132412002C60FEF7E5
:10A3A000D8F8002808D0042005E02C60FEF7D1F88A
:10A3B000002801D00820306070BD2C60FEF7C9F87D
:10A3C0000028F9D03F48404900888842F4D0052051
:10A3D000FEF7DEFB0220FCF747F870BDFEF7B9F888
:10A3E0000028FAD12C60E6E730B5FFB082B08021BA
:10A3F00020A80AF03EF9802140A80AF03AF980210D
:10A4000060A80AF036F9802168460AF032F930492E
:10A410002CA81F229B310AF013F92D494CA81F22AA
:10A42000BA310AF00DF92A496CA81F22D9310AF075
:10A4300007F927490CA81F22F8310AF001F925482D
:10A4400020490578204C4020E022A0230988012DD6
:10A450000DD0A14250D010A9CC7F0443CC7718A9CD
:10A460000C7804430C704C7804434C7045E0A142D6
:10A470000BD010A9CC7F0443CC7718A90C780443E7
:10A480000C704C7804434C7000E018A90C7904431C
:10A490000C714C7904434C718C7904438C714C7A67
:10A4A00014434C728C7A1C438C72CB7A1343CB725C
:10A4B0008A7B02438A730FE08851020054200020F7
:10A4C0005820002012200020FFFF0000182000204C
:10A4D000DD5202000D200020CA7B0243CA730A7CB1
:10A4E00002430A74CA7C0243CA740A7D02430A7595
:10A4F0004A7D02434A751BE018A90C7904430C718C
:10A500004C7904434C718C7904438C714C7A14431C
:10A510004C728C7A1C438C72CB7A1343CB728A7B3D
:10A5200002438A73CA7B0243CA730A7C02430A74D9
:10A53000002120A8FDF758FF012140A8FDF754FF96
:10A54000022160A8FDF750FF03216846FDF74CFF8C
:10A550007FB002B030BDF8B500270624FD4DFE4E99
:10A5600003000AF019F9050404070F2006002C6007
:10A570003760F8BD2C60FDF7ECFF0028F9D009200A
:10A580003060F8BD2C60FDF7E4FF0028F9D0F348F7
:10A590000178002905D0002101700520FEF7F8FAA6
:10A5A000F8BD0121F8E7FDF7D4FF0028DFD0F8BDA2
:10A5B00030B5FFB082B0802120A80AF05AF880217F
:10A5C00040A80AF056F8802160A80AF052F88021CD
:10A5D00068460AF04EF82CA81F22E1490AF030F82C
:10A5E000DF494CA81F221F390AF02AF8DC496CA861
:10A5F0001F223E390AF024F8D9490CA81F225D39E0
:10A600000AF01EF8D748D8490578D84C4020E022F7
:10A61000A0230988012D0DD0A1423FD010A9CC7FE5
:10A620000443CC7718A90C7804430C704C7804438D
:10A630004C7034E0A1420BD010A9CC7F0443CC77FE
:10A6400018A90C7804430C704C7804434C7000E05B
:10A6500018A90C7904430C714C7904434C718C7922
:10A6600004438C714C7A04434C728C7A04438C7290
:10A67000CC7A0443CC728C7B14438C73CC7B1C430C
:10A68000CC730B7C13430B74CA7C0243CA740A7DDF
:10A6900002430A754A7D02434A751BE018A90C79EA
:10A6A00004430C714C7904434C718C7904438C71D4
:10A6B0004C7A04434C728C7A04438C72CC7A0443F7
:10A6C000CC72887B10438873C87B1843C873087C9E
:10A6D00010430874002120A8FDF786FE012140A840
:10A6E000FDF782FE022160A8FDF77EFE0321684689
:10A6F000FDF77AFE2CE710B50621964A964C03002A
:10A700000AF04AF805040404121D0F001160FDF759
:10A7100020FF002805D093480078012802D00420AB
:10A72000206010BD0520FBE71160FDF712FF002837
:10A73000F7D00520FEF72CFAFBF765FE10BD11607F
:10A74000FDF707FF0028EBD010BDF0B5FFB08EB0CD
:10A75000002503A8FEF75CF86846007C0C280FD2A1
:10A760006846C07B1F280BD26846807B182807D21A
:10A770006846407B3C2803D26846007B3C2804D3D3
:10A780007B4A7C490020FBF765FD80210DA809F07C
:10A7900070FF80212DA809F06CFF80214DA809F0E1
:10A7A00068FF80216DA809F064FF01A9012001F074
:10A7B00075FE6846C079002806D06846807B0C2864
:10A7C00002D90C38694688730020059006906846C7
:10A7D0006749437B827B383105A809F0C9FF05A88A
:10A7E00009F052FFC7B21F242CE005A8405D3A28AB
:10A7F00054D03038C0B212218600584800917830C9
:10A8000081590DA80019009A09F01AFF5348009ABF
:10A81000AC3081592DA8001909F012FF4F48009A59
:10A82000E03081594DA8001909F00AFF5248009AFA
:10A8300081596DA8001909F003FF009820186D1CBC
:10A84000C4B2EDB2BD42D0D31F224C490DA809F0CD
:10A85000F7FE4A491F221F392DA809F0F1FE47498A
:10A860001F223E394DA809F0EBFE44491F225D39F5
:10A870006DA809F0E5FE00210DA8FDF7B5FD012149
:10A880002DA8FDF7B1FD02214DA8FDF7ADFD032177
:10A890006DA8FDF7A9FD7FB00EB0F0BD0A2008211C
:10A8A000AAE770B506242B4D00280BD0012809D04B
:10A8B000022805D0042804D1FDF74BFE002800D162
:10A8C0002C6070BD2C60FDF744FE0028F9D001F02B
:10A8D00061FCFEF7BBF92A481F4C0078012806D01E
:10A8E00003F08BF8002804D00020206070BD0E20FB
:10A8F000FBE70320F9E7F0B5FFB08EB0002503A811
:10A90000FDF786FF6846007C0C280FD26846C07BA6
:10A910001F280BD26846807B182807D26846407BE8
:10A920003C2803D26846007B3C2805D31149104AD5
:10A9300063310020FBF78EFC80210DA809F099FE01
:10A9400080212DA809F095FE80214DA809F091FEE7
:10A95000802117E05820002054200020A42000204F
:10A96000515402000D20002012200020FFFF0000A3
:10A97000209301009C120000B8210020FD4E02002F
:10A980000B2000206DA809F074FE01A9012001F040
:10A9900085FD6846C079002806D06846807B0C2873
:10A9A00002D90C38694688730020059006906846E5
:10A9B000437B827BF94905A809F0DAFE05A809F076
:10A9C00063FEC7B21F242CE005A8405D3A2852D090
:10A9D0003038C0B212218600F148009181590DA88B
:10A9E0000019009A09F02CFEED48009A3430815984
:10A9F0002DA8001909F024FEE948009A6830815911
:10AA00004DA8001909F01CFEE548009A9C308159B8
:10AA10006DA8001909F014FE009820186D1CC4B22E
:10AA2000EDB2BD42D0D31F22DE490DA809F008FEC9
:10AA3000DC491F221F392DA809F002FED9491F2227
:10AA40003E394DA809F0FCFDD6491F225D396DA89D
:10AA500009F0F6FD00210DA8FDF7C6FC01212DA887
:10AA6000FDF7C2FC02214DA8FDF7BEFC03216DA835
:10AA7000FDF7BAFC0FE70A200821ACE770B5062401
:10AA8000C94D00280BD0012809D0022805D0042880
:10AA900004D1FDF75EFD002800D12C6070BD2C6054
:10AAA000FDF757FD0028F9D0C048C14C00780128B7
:10AAB00008D002F0A2FF002806D000202060FEF798
:10AAC000C5F870BD0E20F9E70320F7E770B5FFB0B9
:10AAD00083B0802142A809F0CCFD802162A809F052
:10AAE000C8FD802102A809F0C4FD802122A809F038
:10AAF000C0FDB04C02AD606922AE012804D002282E
:10AB00002ED0032859D07CE0FCF720FC00281ED072
:10AB100029AB09AA69A949A80333033203310330D9
:10AB2000FCF7DCFC1F22A44942A809F089FDA249D8
:10AB30001F221F3962A809F083FD9F491F223E3959
:10AB400002A809F07DFD9C491F225D3956E001965F
:10AB50000095A189608962AB42AAFCF76BFEE1E730
:10AB60002089002813D0FCF7F1FB002806D022AB87
:10AB700002AA62A942A8FCF7B1FC42E00196009546
:10AB8000A189608962AB42AAFCF754FE39E08A4988
:10AB90001F227C3142A809F053FD87491F225D31F5
:10ABA00062A809F04DFD84491F223E3102A809F038
:10ABB00047FD81491F221F3120E0FCF7C7FB002819
:10ABC00007D101960095A189608962AB42AAFCF782
:10ABD00031FE74491F227C3942A809F031FD7149C8
:10ABE0001F229B3962A809F02BFD6E491F22BA393A
:10ABF00002A809F025FD6B491F22D93922A809F0C6
:10AC00001FFD002142A8FDF7EFFB012162A8FDF71F
:10AC1000EBFB022102A8FDF7E7FB032122A8FDF7C9
:10AC2000E3FB7FB003B070BDF8B506265E4F00248D
:10AC30005F4D00280BD001281ED0022840D00428E8
:10AC400004D1FDF786FC002800D13E60F8BD3E60CF
:10AC5000FDF77FFC0028F9D056484069012806D14D
:10AC600056480178082926D00920FBF7FDFBFDF79F
:10AC7000EDFFFDF712F815E03E60FDF76AFC0028D5
:10AC8000E4D04A480078012810D002F0B6FE00282F
:10AC90000ED02C60474840690128E1D0FCF7FDFF49
:10ACA000FDF7D4FF01F076FA2C60F8BD0E2000E02D
:10ACB00003202860EEE70470012003F015FCD6E7BE
:10ACC000FDF747FC0028C0D1F8BD00B5FFB082B049
:10ACD0008021684609F0CDFC802120A809F0C9FC3C
:10ACE000802140A809F0C5FC802160A809F0C1FCC2
:10ACF0000CA81F22324909F0A3FC31492CA81F22BD
:10AD00001F3909F09DFC2E494CA81F223E3909F03D
:10AD100097FC2B496CA81F225D3909F091FC00219A
:10AD20006846FDF761FB012120A8FDF75DFB0221CC
:10AD300040A8FDF759FB032160A8FDF755FB7FB044
:10AD400002B000BD70B50624174D03283AD00CDCC4
:10AD500000281AD0012811D002280ED12C60FDF74E
:10AD6000F8FB002809D0012015E0042831D00D2877
:10AD700003D12C600E490020086070BD2C60FDF7E7
:10AD8000E8FB0028F9D00B2005E02C60FDF7E1FB83
:10AD90000028F2D00A20FBF767FB70BD5893010032
:10ADA0001C210020794F0200582000200B20002099
:10ADB00054200020E82B0020ED500200C223002088
:10ADC000495502002C60FDF7C4FB0028E5D00720A0
:10ADD000E1E7FDF7BEFB0028DFD12C60DDE730B5F1
:10ADE000FFB082B0802120A809F043FC802140A858
:10ADF00009F03FFC802160A809F03BFC80216846F7
:10AE000009F037FC2CA81F22F84909F019FCF74972
:10AE10004CA81F221F3109F013FCF4496CA81F2213
:10AE20003E3109F00DFCF1490CA81F225D3109F0FB
:10AE300007FCEF48EF490578EF4C4020E022A023C3
:10AE40000988012D29D0A1425BD010A9CC7F0443F1
:10AE5000CC7718A90C7804430C704C7804434C70E0
:10AE60000C7904430C714C7904434C718C79044384
:10AE70008C714C7A04434C728C7A04438C72CC7A79
:10AE80000443CC72887B10438873C87B1843C87313
:10AE9000087CC021084318A94EE0A1420BD010A99C
:10AEA000CC7F0443CC7718A90C7804430C704C7801
:10AEB00004434C7000E018A90C7904430C714C79E0
:10AEC00004434C718C7904438C714C7A04434C726A
:10AED0008C7A04438C72CC7A0443CC728C7B04430E
:10AEE0008C73CC7B0443CC730C7C04430C74C87C03
:10AEF0001043C874087D18430875487D1043487591
:10AF00001BE018A90C7904430C714C7904434C7173
:10AF10008C7904438C714C7A04434C728C7A0443D0
:10AF20008C72CC7A0443CC72887B10438873C87BC4
:10AF30001843C873087C10430874002120A8FDF74B
:10AF400053FA012140A8FDF74FFA022160A8FDF74E
:10AF50004BFA03216846FDF747FA7FB002B030BDD7
:10AF600070B504210624A54DA54E030009F014FC7C
:10AF700005040404071306002C6031600DE72C6003
:10AF8000FDF7E7FA0028F9D00F203060FDF73DFC0F
:10AF90009C49486001E7FDF7DCFA0028EED13060FB
:10AFA0002C60FAE6F0B5FFB084B0802103A809F068
:10AFB00060FB802123A809F05CFB802143A809F0F5
:10AFC00058FB802163A809F054FB1824FDF71DFCF1
:10AFD00005468C483C214068281A09F0D7FA0E46ED
:10AFE0003C2109F0D3FA0A46062D00D206258348F3
:10AFF0000560002000900190029033468249684627
:10B0000009F0B6FB684609F03FFBC7B200255EE0D9
:10B010006846405D3A2823D030380006860D7B48CC
:10B020000D22815903A8001909F00AFB77480D2267
:10B030002830815923A8001909F002FB73480D221A
:10B040005030815943A8001909F0FAFA6F480D22CF
:10B050007830815963A8001909F0F2FA0D3433E011
:10B060006B480078002803A81AD000190822694903
:10B0700009F0E6FA674923A800190822083909F0FF
:10B08000DFFA644943A800190822103909F0D8FAF8
:10B09000604963A800190822183909F0D1FA12E0B2
:10B0A0000019082109F0E5FA23A80019082109F080
:10B0B000E0FA43A80019082109F0DBFA63A8001997
:10B0C000082109F0D6FA08346D1CE4B2EDB2BD4295
:10B0D0009ED3002103A8FDF787F9012123A8FDF7DE
:10B0E00083F9022143A8FDF77FF9032163A8FDF747
:10B0F0007BF97FB004B0F0BD70B506253F4C03006E
:10B1000009F04AFB0504040406130500256044E623
:10B110002560FDF71EFA0028F9D025603849052082
:10B12000086038490020486037E6FDF712FA002829
:10B13000ECD032E633484068002800D00120704748
:10B1400010B5FFF7F7FF002808D00420FDF720FD19
:10B1500001F020F80221282000F0E3FF10BD10B517
:10B1600028490020486025490860FDF76FFD01F07F
:10B1700011F8FF202D3006F031FB10BDF8B5821E0E
:10B18000254C012606211D481D4D6769130009F055
:10B1900003FB0B070F0F6627484B0F600F630F0071
:10B1A0000160FDF7D6F900285BD028680C2801D093
:10B1B000002656E0206900280AD0A07B002807D08E
:10B1C0006089A18940186081FCF75AFD0C200BE0D2
:10B1D000FDF73CFD00F0DEFFFCF75FFD002003E023
:10B1E0000160032F1AD00A2028603AE06855020057
:10B1F0000D20002012200020FFFF0000582000201A
:10B2000054200020A4200020589301003C2200205C
:10B2100044200020984E0200E82B00200C202860DB
:10B2200014E001600B20DFE70160002060810C204A
:10B2300028600D486060002F13D0A07B002810D03C
:10B24000FCF784F8012801D1FCF743F8FCF718FD5E
:10B2500007E001600D20C7E701600E20C4E7002170
:10B2600001603046F8BD0000792B002010B5504831
:10B270000168002916D0002101604E4880684E4ABE
:10B28000012180B251604B21090148434B49800A9A
:10B2900048437D21090109F079F980B200F045F8B1
:10B2A0004749087010BD70B54648012444604148C4
:10B2B000454941603E4E00253560046007202ADF85
:10B2C000002803D041A27F21FAF7C4FF0321072001
:10B2D0002BDF002803D03DA28221FAF7BBFF072015
:10B2E00026DF002803D039A28521FAF7B3FF3560A5
:10B2F0003148046070BD3248007870473049002002
:10B300000978502901D3052070473C2901D3042036
:10B310007047282901D303207047142901D3022044
:10B3200070470229FCD3012070477D2110B54901E7
:10B33000884201D3642010BD294A904205D3081ADF
:10B34000052109F039F9642108E02549643988426A
:10B3500007D3101A052109F02FF95021081AC0B29D
:10B3600010BD1F4AC83A904205D3081A052109F0BA
:10B3700023F93C21F2E71B49884206D3101A40000A
:10B380000F2109F019F92821E8E7164AB43A90424A
:10B3900005D3081A0A2109F00FF91421DEE7114933
:10B3A000FA39884201D8002010BD012010BD0000EC
:10B3B000007100400075004000700040E02E000069
:10B3C0005C23002000730040028000002E2E5C6889
:10B3D000616C5C626174746572792E6300000000B8
:10B3E0003C0F0000DE0D0000F0B589B00025FDF730
:10B3F000EAFA01218140CFB202A8FDF709FA6846B6
:10B40000807A019081018000091A6846407A07908D
:10B41000081886B22048A9000C18607838421FD05E
:10B420002078002814D0A07881018000081AE178E3
:10B43000401880B2864213D301461E31B1420FD369
:10B44000301A80B2052109F0A1F800290ED007E0DA
:10B45000A1780198884203D1E1780798884205D005
:10B460006D1CEDB2082DD5D309B0F0BD6078010692
:10B4700001D4784060700948FDF7CAF9FFF75AFE19
:10B48000002801D0FFF76BFE0620FCF727FC002008
:10B49000FDF77EFBE8E70000082D00205E2300207A
:10B4A00049490420486070477CB500240425FDF715
:10B4B0008AFA01218140CEB26846FDF7A9F96846B3
:10B4C000424A80780621614389180B78334206D0BE
:10B4D0004B78834203D88978814200D92546641C81
:10B4E000E4B2032CEED338494A68954207D04D6048
:10B4F00082018000101A6A465278801848803448C9
:10B50000344A00781268401E104301D0042048607D
:10B510007CBDFEB52C48416804294BD0406806210B
:10B5200048432A4945186846FDF772F9FDF74BFA7A
:10B530000121814068468078CFB281018000091ADC
:10B5400068464078081884B2E87881000E181E48D2
:10B550004088844201D9201A00E0001B297880B27B
:10B56000394227D0B04225D302F040FAB04221D36D
:10B57000002668460670184808220670014668468C
:10B5800009F089F8002816D00F480178012916D053
:10B5900044802878010601D478402870FFF7CAFD5E
:10B5A000002801D0FFF7DBFD0320FDF7F1FA0720AB
:10B5B000FCF794FBFEBD044901200870FEBD641E2B
:10B5C00044800670E5E7000068230020282D002055
:10B5D00008200020182000205E23002007480121B9
:10B5E000C1600F221204426082680A4382600448EC
:10B5F0000160704704490348086070470005014036
:10B60000000001403546526E0006014070B58CB016
:10B6100016460C46032269460A71020C4A71020A58
:10B620008A71C871201D009002AB042201A900207C
:10B6300005F0ADFF050008D160000830FAF76AFD9B
:10B64000224603A9304608F0FBFF28460CB070BD27
:10B6500010B50A46002850D0002A4ED003461121CA
:10B66000203BC9015F2B03D800014318102109E0DA
:10B6700027235B02FE4CC31AA3420DD8FD494001AB
:10B6800043182021002B3AD01170521C1846FFF7A6
:10B69000BDFF002833D130E0F74BC3185D2B04D831
:10B6A000FF232133C01880B2DEE70321090388425B
:10B6B00002D11523DB0104E0F049884203D139238C
:10B6C0009B011021E0E7ED49491C884202D15B2330
:10B6D0005B01F6E7E9493123C91D9B018842F0D09F
:10B6E0004C1C63214901A04205D0641CA042E8D053
:10B6F000631C984203D10B46E3E7012010BD0020F4
:10B7000010BD38B50C46DEA1096800910146DD4A3E
:10B71000A0394300914202D8FF3B413B2DE0DA497A
:10B72000DA4A4118914201D8D94825E00321D54A87
:10B730000903411A2432914201D8D6481CE027213E
:10B74000CB4A4902411A521E914201D8D24813E015
:10B75000C949D13141183B2901D8D0480CE0C6492C
:10B7600041185D2901D8CE4806E0C349DF394018A9
:10B77000052843D8C9486E381B18002B3ED020201E
:10B780002070C8486A4602211818FFF73FFF0028BA
:10B7900034D168460078002803D1694649780029E9
:10B7A0002CD0694602464978A13A082A07D8A1292F
:10B7B00005D35E20424350184001BB4909E0B03830
:10B7C00047281BD8A12919D35E2250434018B749F6
:10B7D00040014018621C2021FFF718FF00280DD1FE
:10B7E00000210120225C002A00D00121401CC0B2AF
:10B7F0002028F7D9002901D0012038BD002038BD0C
:10B8000038B50C469EA1096800910146A239430053
:10B81000552902D8FF3B413B2BE0A549FF224118A7
:10B820000332914201D8A34822E09749974AC91EA2
:10B830004118D21E914201D89F4819E00321914A34
:10B840000903411A2432914201D89C4810E0272173
:10B85000874A4902411A0A3A914201D8984807E0BA
:10B860008549D1314018FF21CE31884251D89548C1
:10B870001B18002B4DD02020207093486A460221CF
:10B880001818FFF7C3FE002843D168460078002847
:10B8900003D16946497800293BD069464978A438E4
:10B8A000222836D80A46403A3E2A04D89D225043E0
:10B8B0004018403807E00A46A13A5D2A29D89D225F
:10B8C0005043401862388149400040186A460221BE
:10B8D000FFF79CFE00281CD168460078621C01021C
:10B8E0006846407808187A49400140182021FFF73F
:10B8F0008DFE00280DD100210120225C002A00D0FD
:10B900000121401CC0B22028F7D9002901D0012014
:10B9100038BD002038BD38B50C46002100910346E3
:10B920006C49203B8B422AD301216A4A4903411AC0
:10B930002032914203D2C1214901431A1FE0032161
:10B940000903411AFF2902D24F49103916E0192183
:10B950004902421A60498A4201D260490EE0272218
:10B96000434B5202821A59339A4201D25C4905E094
:10B970007F225202821A8A4232D25A494318002B3D
:10B980002ED0202020705849580040186A460221C5
:10B99000FFF73CFE002823D168460078002803D139
:10B9A0006946497800291BD05E2148436946497899
:10B9B000621C40184D49400140182021FFF726FE27
:10B9C00000280DD100210120225C002A00D0012195
:10B9D000401CC0B22028F7D9002901D0012038BD71
:10B9E000002038BD38B50C460021009103463B21AC
:10B9F000A13B09018B422CD92349CB22491F411875
:10BA0000D200914201D83A4922E003211D4A09039C
:10BA1000411A2C32914201D8364919E02721144AA3
:10BA20004902411A0A3A914201D8334910E02B21C8
:10BA30008902324A411A914202D81649453907E033
:10BA4000F921124A0902411ACD32914271D82C498A
:10BA50004318002B6DD0202020702A49580045182B
:10BA60006A4602212846FFF7D1FD002876D14BE037
:10BA7000A651000020610000FF00FFFF0130000020
:10BA800000000A00B1030000F0DFFFFF32060000F3
:10BA900044C7FFFFCAB3FFFF767FFFFF62C2FEFF0E
:10BAA00038C1FEFF9EBA0C0060FC00002066010059
:10BAB00039FDFFFF36FBFFFFAAC2FFFF6AAFFFFFA2
:10BAC000327BFFFF4CBEFEFF203C1100FE480E0003
:10BAD00080100100DF070000FF010000E0DEFFFF33
