:020000040001F9
:10600000D03D002095610100AF6101007D6201007B
:106010000000000000000000000000000000000080
:10602000000000000000000000000000B36101005B
:106030000000000000000000B5610100B761010030
:10604000B9610100B9610100B9610100E5F3010026
:10605000B961010000000000C1F80100559E010077
:10606000B9610100B96101005DC00100B9610100C1
:10607000B9610100B9610100B9610100B9610100B4
:10608000B961010033DD0100B9610100B9610100AE
:1060900049DD0100B96101006FE50100B96101004E
:1060A000B9610100B96101000000000000000000BA
:1060B00000000000000000000000000000000000E0
:1060C000034885460AF0BCFD00480047C76B010045
:1060D000D03D0020401E00BF00BF00BF00BF00BF7A
:1060E00000BF00BF00BF00BF00BF00BF00BFF1D1B5
:1060F00070470000401E00BF00BF00BF00BF00BFD0
:1061000000BF00BF00BF00BF00BF00BF00BFF1D194
:1061100070470000401E00BF00BF00BF00BF00BFAF
:1061200000BF00BF00BF00BF00BF00BF00BFF1D174
:1061300070470000401E00BF00BF00BF00BF00BF8F
:1061400000BF00BF00BF00BF00BF00BF00BFF1D154
:1061500070470000401E00BF00BF00BF00BF00BF6F
:1061600000BF00BF00BF00BF00BF00BF00BFF1D134
:1061700070470000401E00BF00BF00BF00BF00BF4F
:1061800000BF00BF00BF00BF00BF00BF00BFF1D114
:10619000704700000321094802680A43026008486A
:1061A00002680A4302600748804707480047FEE745
:1061B000FEE7FEE7FEE7FEE7FEE7000024050040FD
:1061C00054050040D5610100C16001002349224807
:1061D0000860704710B500F01DF8002805D021496F
:1061E0001F484860C813204988612048018CC9B203
:1061F00001290ED1818C09070BD1018D0906090FE8
:10620000042906D1808D0006000F02D11849012013
:10621000886010BD1548018CC9B2012917D1818C45
:10622000090714D1018D09060A0F03D1828D1206C8
:10623000120F0ED0090F012903D1828D1206120F01
:1062400007D0032903D1808D0006000F01D0002064
:1062500070470120704700000024F4000020002057
:10626000DFFF07C000050040006C0040C00F00F0D9
:106270000006004004F030F900F0D0FD04F02CF9E5
:1062800000F0CCFD04F028F900F0C8FD04F024F97A
:1062900000F0C4FD7CB5FE4C07280CD0092838D18D
:1062A000E06B07F07BFE208AFA49884225D1002264
:1062B0000521090424E0684601F02BFD68460078BA
:1062C000002807D03C210D1A7D20C0004543012045
:1062D000207100E0F04DA06B07F060FEFF23690C19
:1062E000E803F5330022C01851415A0000230AF098
:1062F0001DFC01460022A06B03E000220121C9031E
:10630000E06B07F0E1FD002803D004F0E5F800F0B1
:1063100085FD7CBD10B574DF002803D004F0DCF8E7
:1063200000F07CFD10BD10B5D94C0120A07104F027
:10633000D3F801F051FC208AD649884202D01321BB
:1063400076DF06E0E069002803D0FFF7E3FF0020D6
:10635000E061CF480F3008F01EFCE06B07F01EFE36
:10636000A06B07F01BFE01F08FFF00200AF0FBFA84
:1063700000200AF0E4FA10BD7CB503F0B0FD002562
:10638000C34C002810D1607900280DD0A07A401CA1
:10639000C0B2A072022809D3E079002806D10120FA
:1063A000E071FFF7C0FF7CBDA572E57101F0AEFCA6
:1063B0000122694601F001FD012001F0ABFD064616
:1063C000400709D501F0B4FC03F068FE04F058FA68
:1063D0000021012005F01FF8F00705D004F0CBF9EB
:1063E0000021022005F017F8B00701D503F0F1FEF7
:1063F000A74844300079002804D06079002801D0F3
:10640000012000E000200AF09AFA03F040FD6846FF
:1064100003F04EFE20790028C5D0A06B07F0BEFD2A
:106420000F2100224904A06B07F04EFD002803D085
:1064300004F052F800F0F2FC25717CBD10B5006844
:1064400000280DD0012812D0022813D0032806D02E
:10645000042804D18E484430407802F03BF810BD47
:106460000020FFF789FF0720FFF714FF10BD03F09E
:1064700015FE10BD03F0A6FE10BD7047F8B5064628
:10648000864C407931460831651D854F01281DD065
:1064900003281AD1E378201DF28818180AF076FB39
:1064A000E078B1794018E070401EC1B2601D01F083
:1064B00013F8002841D07D60E078401EC1B2601D15
:1064C00000F08DFF022004F088FBF8BD7048714A8F
:1064D000837BDD3A3020012B10D0042BF5D12280B4
:1064E000A07002202071F288601D0AF04FFBF18835
:1064F0007C204855B079801CE070F8BD2280A070E7
:10650000B079401CE07001202071F288601D0AF013
:106510003DFBE078401EC1B2601D00F0DDFF0028A9
:1065200008D07D60E078401EC1B2601D00F057FFCA
:106530000120C8E704F05EFFF8BDF0883028F9D9E3
:10654000E178081A3030E070F4E708B501680029F6
:1065500008D0012907D003291CD0042902D1083012
:10656000FFF78CFF08BD4A486946343008F075FAD9
:1065700000280BD10098002802D000F060FC08BD74
:106580004348343008F041FA0028F8D003F0A4FF63
:1065900000F044FC3E49807A887308BD3C490020E5
:1065A00088712DDF704770B5394C0546206C07F0B7
:1065B000F5FC002D0BD000223A49206C07F084FC3A
:1065C00001F048FF002009F0E1FC0E2000E00F2060
:1065D00000F014FE70BD01B501226946402004F0B0
:1065E0004BFE08BD7CB52A4C002500950195204640
:1065F0002830A66A01F0A1FE002862D0A06A052812
:1066000008D0012806D0002823D0042821D0E56234
:1066100025633BE0E06A002813D0684607F005FDDB
:1066200001AAE16A009807F005FDE56203210198DF
:106630008903884205D8206A002802D1042000F08E
:10664000DDFD7F20256301F0CFFE002211460120F1
:106650002CE0052E2DD0002802D0042803D004E021
:10666000042E26D001E0002E23D0206B00281FD05E
:10667000684607F0DAFC01AA216B009807F0DAFC03
:10668000256301210198C903884211D900220BE03A
:1066900004200020FFFF000060EA0000CC2E002054
:1066A000942D00208F0200001146104601F0ACFE30
:1066B0007CBDFD4807F0B9FCFB48001D07F0B5FCA8
:1066C0007CBD01F073FE0028FAD0206A0028F7D1C3
:1066D000042000F093FD7CBD71B5ABB0002420A96F
:1066E0000C77F14828A92C38427B097B8A424FD08D
:1066F000417328A871DF002846D110A81E94848712
:1067000018A804760124447600201EAD28A906228C
:10671000131A2E18401CCB5CC0B2B3700628F7D3F6
:106720003C2168460AF04BFA02200090684604813A
:106730002BA826950390082120A8818224A80C90DC
:106740003C210FA80AF03BFA27A8DF211390C94388
:1067500020A801808470D5498180D5498471487B07
:106760000A7B0102114320A80181D248017D20A8A3
:106770008172032110A8018320A817900FA96846F1
:1067800006F0D0FF002803D003F0A6FE00F046FB81
:106790002CB070BD30B5C44C87B02C3CE06B07F01A
:1067A000FDFBA079002809D105A806F07AFE002893
:1067B00032D10598002803D00120E07007B030BD29
:1067C000142168460AF0FBF9B748002518304079D3
:1067D000002810D0208AB84988420CD00420FFF746
:1067E0007BFF03216846017001950572B349018260
:1067F000458273DF0EE00520FFF76EFF68460570E7
:106800000195057233210182142141820220E06149
:10681000684673DF0028D1D003F05EFE00F0FEFA78
:10682000A1482C38006A002800D1B3E770473EB574
:106830009D4C2C3C207A032832D1002569460D70EE
:1068400001956846029501F030FD04E001A801F0D1
:106850004BFD6D1CEDB2684600788542F6D3E17AB7
:1068600091481F30002912D0217B4171207B401CB0
:1068700020738D48062201A92B300AF087F98A4936
:106880008C4812221F31383806F08DF804E00622B9
:1068900001A9801D0AF07AF9E07A01214840E072EE
:1068A0003EBD10B58AB0684671DF002851D16946F7
:1068B00070DF00284DD16A46907851780002084375
:1068C0007F490AF009F90846774900242C394882A3
:1068D0000394049405947BA2069406CA039104923F
:1068E0000A210AF0F9F830316A4611760A210AF0D5
:1068F000F3F830316A46D1750A210AF0EDF83031EB
:106900006A469175303050752D2010751120107227
:1069100003A80AF05FF982B203A902A87CDF00286D
:1069200017D15120800178DF002812D10794282147
:1069300068460894818319214901C183FF21048499
:10694000F531418407A87ADF002802D177DF0028DB
:1069500003D003F0C1FD00F061FA0AB010BD10B51C
:10696000006800280AD150483B212C38008A76DF85
:10697000002803D003F0B0FD00F050FA10BD03F082
:10698000ABFD00F04BFA70B50C460A4605460146D1
:10699000484805F0D8FD2178112905D14248042244
:1069A000294608300AF0F2F8002070BD70B53E4A62
:1069B0003D4C01881832002552792C3C192940D0D1
:1069C0000ADC102919D011291ED0152903D0172946
:1069D00001D100F034FA70BD33482C38008A3929CF
:1069E00003D0522929D05529F5D1132176DF00286B
:1069F000F1D003F071FD00F011FA8088208229E0C7
:106A00000920FFF747FC70BD207A032802D100203F
:106A1000FFF7C9FD207A012802D10D2000F0EEFB1E
:106A200000202572C0432082E56174DFA069000761
:106A3000800FE8D1FFF7AEFE70BD00221146A9DF3E
:106A4000D5E780790028F7D11748E56118384078F4
:106A50000028D5D1002AD3D170BD08B5684606F00C
:106A600020FD002803D003F037FD00F0D7F900988F
:106A7000002804D00C4901202C39487008BD2DDFB6
:106A800008BD08B5684606F00CFD002803D003F0E9
:106A900023FD00F0C3F90098002819D00249012015
:106AA0002C39887008BD000030200020E7FE00006F
:106AB000F6210200382B0020FFFF0000160800001E
:106AC0001027000042726163656C693500000000A8
:106AD000B1203CDF2DDFE5E710B5044608F050FAA1
:106AE0002146FA4805F000FFF8482146383005F005
:106AF00032FDF6482146203005F0F8FF204607F029
:106B000047FC2046FFF752FF10BD10B5044606F0C3
:106B100058FA204600F084FA10BDED4A012908D049
:106B200003290DD0022911D104280FD190698021A9
:106B30000AE001210E2801D00F2807D1906903E057
:106B4000072803D19069402108439061704770B5D0
:106B5000001F00250122DE4C03000AF0C3F80805DF
:106B60000709090E14170E06226270BD256270BD5A
:106B7000C8B2626203F06BFD70BD04206062C8B2EF
:106B800003F065FDF2E701F085FC70BD01F062FCE9
:106B900070BD70471CB50446684601F0BAF86846F7
:106BA0007D21C088C90009F097FF217068460079EF
:106BB00060706846C078A07068468078E07068466B
:106BC000407820711CBDC34888B001264660C24988
:106BD00003200860C14D7407AC60FF202D3008F021
:106BE0003FFEEC6000F062F9BD480090BD4B0D2205
:106BF0000B21002007F0CEF800287DD1B448BA4A16
:106C00000121383007F019F9B148B84A00213C3069
:106C100007F013F9AE48B64A0121403007F00DF9EC
:106C2000AA490220283908F0A5FE002864D101F005
:106C300041F8002860D000F006FD03F05DFF04F08D
:106C4000A7FD05F0C3F800F0A7FF002875D001F0FC
:106C500015FA002871D001F0F1FA00286DD000F08B
:106C6000A3FA002869D003F059FB002865D09848A2
:106C70004430407801F02EFC00F00AFA9D4A1421BD
:106C8000082006F06DFE002857D100F09AF9FFF7B2
:106C900008FE00F064F90520FFF71EFD1C21684680
:106CA00009F08DFF0520C00301900F20000400258E
:106CB0000290009568460673844881896846C181C0
:106CC00005748D4805908D480690684607F00BFBCB
:106CD000002832D103F010FF01F0B7FA02277C4CF4
:106CE000002802D1607A3843607203F0A6F90028C8
:106CF00004D1607A304300E01FE0607208F006FFC4
:106D00007F4809F0DAFD7F4809F0E8FD7E4809F088
:106D1000DDFD03F0C3F903F055FA00F0DBFF0028B6
:106D20000BD0FFF737FD03F0B2F8694800220421C9
:106D3000603000F069FE002803D003F0CDFB00F0C6
:106D40006DF800F08DFEA06940263043A061072059
:106D5000FFF7A0FA092000F051FAA069002858D0E6
:106D6000A069C007A06905D040084000A061FFF7F6
:106D700039FCF2E74006A06904D5B043A06100F0F9
:106D800068F8EAE7000606D504F0FAFDA06980215C
:106D90008843A061E1E7A0698006A06907D52021AA
:106DA0008843A0614A480F3007F0F5FED5E7800719
:106DB000A06905D5B843A0611321208A76DFCCE70E
:106DC00040070ED5218A51488142C6D1A0690421CD
:106DD0008843A06103F080FB00F0FEFEFFF73DFE5C
:106DE000BBE7A069000713D5218A48488142B4D186
:106DF000A06908218843A06134482021623009F04D
:106E0000DEFE03F069FB00F0E7FEFFF73AFEA4E7C1
:106E1000A56106F02FFE00F05DF99EE7BFF34F8FEE
:106E20003C493B48C860BFF34F8FFEE71CB501915A
:106E30000090394A0821684606F0A6FD1CBD23488B
:106E400010B5383005F094FC2048383005F09AFC35
:106E500010BD08B5214800690006C00F00D0012010
:106E60001B494A79904206D04871002804D003F0AB
:106E70000EF804F0F7FF15E68879002801D0FFF737
:106E80008DFB002009F06FFD002009F058FD032064
:106E900000901921FF200023012249012D3001F02B
:106EA000FCF800211E2004F0A1FFFBE510B5002432
:106EB000132C49D032DC072C3ED039DC042C3BD0DB
:106EC000052C37D0062C33D134E00000002B0020F5
:106ED00004200020400500407407005000050050C9
:106EE0002D6E0100782300207963010021680100E4
:106EF0002F680100882900205F6901007F69010077
:106F00004F6B0100936B0100956B0100FFFF0000C8
:106F10000400FA0500ED00E0F3700100204614388B
:106F2000030009F0DFFE080505090505050707054B
:106F3000012102E0002100E00321204600F0D3F807
:106F4000641C202CB4D310BD704A0320A100891802
:106F5000086001206E49A0408860641CA8E700B565
:106F60006C4889B04268016805920491C2688168E2
:106F700007920691836942690169C0690091039093
:106F8000029301921221644809F019FE6248694691
:106F9000183805F063FB00280DD15F4804A950386C
:106FA00005F0D8FC002806D15B4806A9303805F06A
:106FB00010FE002803D003F08FFAFFF72FFF09B06F
:106FC00000BD1FB506F064F8002824D16946087397
:106FD00003A807F089FC00281DD101A80621023072
:106FE00009F0EDFD1E206946C880087A0122104391
:106FF000E12108400C30DF21084069460872072073
:10700000487210208872454800900A71444807F081
:10701000C2FC002803D003F05FFAFFF7FFFE1FBD9C
:1070200038B5022801D0032810D13D4C00200F3C78
:107030002178002917D02070684606F032FA00281F
:107040000DD10098002802D00120207038BD012009
:107050002E4940041431086034DF0028F6D003F0D4
:107060003BFAFFF7DBFE6178002903D06070FFF781
:10707000F4FC38BDA178002903D0A070FFF701FD12
:1070800038BDE1780029FBD0E070FFF783FB38BD05
:1070900008B524490120C863002350222249082052
:1070A00007F038FA002810D1694600900870684649
:1070B00060DF002809D11D4807F049FA002804D1F3
:1070C0001B4807F04CFA002803D003F005FAFFF73D
:1070D000A5FEE7E410B540DF002803D003F0FCF97B
:1070E000FFF79CFE10BD094A8900800080180160EE
:1070F000704710B50246082903D003F0EDF9FFF7F9
:107100008DFE11685068884710BD000000070050D0
:1071100000050050F0110200502B0020876901008B
:10712000132000204000004038290020D96A0100C7
:107130000B6B010070B5F648F64C01780020002971
:1071400000D02070A168112900D3A060A068F14987
:10715000C00010314518207800280DD02078401E3E
:10716000207000F036FD00280DD0A16860688842CC
:10717000A0680BD060600EE000F02BFD002801D06D
:1071800000F02AFD70BD00F01AFD04E0022802D0D4
:10719000A068002801D12868804701210022C90386
:1071A000E06806F091FE70BDDA4810B5DA4A0021B9
:1071B0000C3006F042FE002801D0002010BDD5485A
:1071C000002181600170012010BD10B5D048007809
:1071D000002812D1CF488168112901D30021816094
:1071E0008068CC49C0001031441800F0F2FC00283F
:1071F00001D100F0E4FC2068804710BD70B5054661
:10720000C348007800281DD1C24CA068112801D3C2
:107210000020A060E06806F0C1FEA068BD49C00083
:1072200010314618284602F0DCFD002802D17168B2
:1072300028468847FFF7C9FF01210022C903E068FB
:1072400006F042FE70BDF8B5002416460F4605460E
:10725000002B1BD0012B5AD11021384609F0AFFC6E
:107260001021304609F0ABFC61008C460020012162
:10727000A1408E4607210B1A012199406246CBB2EC
:10728000AA5C395C1A4243D0724642E00821384673
:1072900009F095FC0821304609F091FC00200121FD
:1072A000A1408C4607210A1A012191406246D2B2C0
:1072B00096462B5DC9B23A5C0B4201D0714600E0A4
:1072C00000210A433A54401CC0B20828EAD3641C87
:1072D000E4B2082CE2D30835AC460021002001229C
:1072E0008A4007231C1A0123A34065466D5CDBB26C
:1072F000375CD4B21D4200D1002427433754401CD0
:10730000C0B20828EDD3491CC9B20829E6D3F8BD9C
:10731000002211433954401CC0B20828AAD3641C6F
:10732000E4B2082CA0D3083700214A005219944631
:10733000002001228A4096460722141A0122A24008
:107340006446D3B264783A5C1C4201D0734600E0D4
:1073500000231A433A54401CC0B20828ECD3491CFD
:10736000C9B20829E1D31035002100204C000122C8
:107370008A4094460722131A01229A40D3B22F5D05
:10738000325C1F4201D0634600E000231A433254AE
:10739000401CC0B20828EDD3491CC9B20829E4D367
:1073A000083600214A005419002001228A409446E0
:1073B0000722131A01229A40D3B26778325C1F4227
:1073C00001D0634600E000231A433254401CC0B28F
:1073D0000828EDD3491CC9B20829E3D3F8BDF0B59C
:1073E0004E4D8BB00E460746002168466C680185FD
:1073F0004B484180001D0990FF300130089004F097
:107400003AFBBF1962E00AA9204604F059FB0600C6
:107410000ED020236A4601210AA804F0BCFB0121FA
:107420000AA804F081FB102804D020281DD04CE0CD
:10743000641C4BE03A494888083080B24880FF21FC
:107440000131884201D96C6042E0082269460998FE
:1074500009F09CFB082202A9089809F097FB0998FB
:1074600008300990089808302EE02D484088782888
:1074700001D0F82810D12A490830488008210998FD
:1074800009F09DFB0821089809F099FB099808303C
:10749000099008980830089021494888103080B237
:1074A0004880FF2101318842CDD8102269460998D1
:1074B00009F06CFB102204A9089809F067FB0998F1
:1074C00010300990089810300890A419A7429AD853
:1074D00004F0E2FA0BB0F0BD38B50D4604460020CA
:1074E0006946088004F0C7FA00280DD004F0D4FAE9
:1074F000651906E06946204604F0E2FA002804D047
:107500002418A542F6D8012038BD641CF9E7000014
:107510000A2000209C20002035710100942D0020BD
:10752000942B0020F8B50C214843FF4E07468019E4
:107530000090017901242046FC4D8840E860F15D0F
:1075400020468840A8602046FEF7C4FD00980179D7
:1075500020468840A860E861F05D8440EC61F8BD99
:1075600070B50C22F04E50438219012355681C4619
:10757000EE4AAC409461305C8340D36080200E467C
:10758000064201D0946000E0D46000BF00BF00BF9D
:1075900000BF936000BF00BF00BF00BFD3604008C2
:1075A000EDD1D461936000BF00BF00BF00BF106980
:1075B000D360E840C007C017401C946170BDF3B5AC
:1075C00004460C204443D848002527183A79012363
:1075D0009340D64A81B0D3618026D3480121005D13
:1075E0008140D248816000BF00BF00BF00BF026978
:1075F0003B79DA40D20701D03543EDB2C1600120BA
:10760000FEF768FD00BF00BF00BF00BF7608E4D1F1
:107610003A79012108469040C44AC34B9061029ECA
:10762000002E01D0D06000E0906000BF00BF00BF1E
:1076300000BF185D8140916000BF00BF00BF00BF68
:10764000D1602846FEBDF8B5B74E00273772182026
:10765000306017207060B749B5480862C8610124DE
:10766000B24D2006A861A8604010E8612046FEF7F0
:1076700031FD28697168C840C00718D1204688408C
:10768000A861317820468840E8600120FEF722FD9D
:1076900000BF00BF00BF00BF307821468140A96015
:1076A0000120FEF717FD7F1CFFB2092FE9D33178C7
:1076B00020468840A860A861317920468840A860AB
:1076C000A861002030750D20F0600C2099493061D0
:1076D000974840394863086301204003A861A860C7
:1076E0004010E8610120FEF7F5FC29693069C140CE
:1076F000C90719D121468140A9610027317B204665
:107700008840E8600120FEF7E5FC00BF00BF00BF35
:1077100000BF307B21468140A9600120FEF7DAFCE2
:107720007F1CFFB2092FE9D3317B20468840A86037
:10773000A861317C20468840A860A8617A48002171
:107740002030009001700820B06109207949F06173
:107750007748403908624862FF200130A861A8607C
:107760004000E8610120FEF7B5FC2969F069C140DD
:10777000C90719D121468140A9610027317E2046E1
:107780008840E8600120FEF7A5FC00BF00BF00BFF5
:1077900000BF307E21468140A9600120FEF79AFC9F
:1077A0007F1CFFB2092FE9D3317E20468840A860B4
:1077B000A861317F20468840A860A8610099002018
:1077C00008730220706203205A49B0625848403959
:1077D0008860C8600420A861A8600820E8610120D2
:1077E000FEF778FC2969B06AC140C90719D1214662
:1077F0008140A9610027B18C20468840E8600120C3
:10780000FEF768FC00BF00BF00BF00BFB08C214680
:107810008140A9600120FEF75DFC7F1CFFB2092FAB
:10782000E9D3B18C20468840A860A861308D84409F
:10783000AC60AC61F8BDFFB581B01C46150013D03B
:1078400001980C2148433849012247183A7201989F
:1078500000F054F802990198FFF782FE060023D049
:107860000298C0070BD118E0012005B0F0BD002C34
:107870000BD001210198FFF7A2FE28706D1C204655
:10788000641EE4B20028F2D10EE00021F2E729786C
:107890000198FFF765FE06406D1C2046641EE4B2A9
:1078A000002801D0002EF2D10A983146814302D13E
:1078B0000198FFF737FE002038723046D5E7FFB554
:1078C000012481B01F4615460E46002907D101202C
:1078D000CBE731780198FFF743FE0440761C284639
:1078E0006D1EEDB2002801D0002CF2D12046B84325
:1078F00002D10198FFF716FE2046B6E7F8B50C2135
:107900004843094E0746801900900179012420461A
:107910008840064D0146A861F25D20469040A8616E
:10792000A960A860204607E09C2D002000050050BB
:107930000C06000040070050FEF7CCFB00980179D0
:1079400020468840E8600120FEF7C4FBF05D8440DB
:10795000EC60F8BD10B54D4A9368002B0BD004784D
:107960000A46806821469847002803D048A21A2179
:10797000FEF780FC10BD022908D001290CD0032994
:10798000F8D1027883681046984710BD0378826862
:1079900002211846904710BD027801218368F2E762
:1079A000F3B5002481B00F460125384E28E00C20A5
:1079B0007168604340184178022904D0012909D038
:1079C00003290FD01AE001782A468A403A4215D09E
:1079D000022111E0027829469140019A11420DD00E
:1079E000012109E00278294691400A463A4202D133
:1079F000019A114202D00321FFF7ACFF641CE4B2EC
:107A000030788442D3D3FEBDF8B5204B154658607C
:107A10000024197022469D6016E00C234B431B186E
:107A20001E785D68B7001F4EAD00BE1935605D78E9
:107A3000AE0703D51F780126BE403243ED0703D0C1
:107A40001D780123AB401C430B46491EC9B2002BD5
:107A5000E3D10E48144B2146401C07F0B2FFF8BD9D
:107A600010B50A484168002903D0407807F0CCFFE0
:107A700010BD082010BD10B504484168002903D08E
:107A8000407808F002F810BD082010BD3421002015
:107A90002E2E5C68616C5C6170705F696E747069D9
:107AA0006E2E630000070050A17901001CB5002272
:107AB00069460A71487101200090022301AA7821C9
:107AC0000020FFF7B8FE002800D001201CBD7CB5C7
:107AD0000C4605464020694608710020012301AA92
:107AE00078210090FFF7A7FE0123224629460020B7
:107AF000FFF7E5FE002800D001207CBD10B5AE20C8
:107B0000FFF7D4FF0020FFF7D1FF1020FFF7CEFFD3
:107B10000020FFF7CBFFB020FFF7C8FF8120FFF761
:107B2000C5FFFF20FFF7C2FFA120FFF7BFFFA62080
:107B3000FFF7BCFFA820FFF7B9FF1F20FFF7B6FF34
:107B4000C820FFF7B3FFD320FFF7B0FF0020FFF7F7
:107B5000ADFFD520FFF7AAFF8020FFF7A7FFD920B0
:107B6000FFF7A4FF0420FFF7A1FFDA20FFF79EFF35
:107B70000220FFF79BFFDB20FFF798FF3020FFF785
:107B800095FF8D20FFF792FF1420FFF78FFFA420B1
:107B9000FFF78CFF012010BD70B51D490320086060
:107BA00001251C4C6D06A5606420FEF7A3FAE56074
:107BB0006420FEF79FFAA560FFF7A0FF70BD10B527
:107BC000FFF79CFFAF20FFF771FF134901200870FA
:107BD00010BD11480078704710B5AE20FFF766FF62
:107BE0000D4900200870012010BD10B50446B031C9
:107BF000C8B2FFF75BFF0020FFF758FF1020FFF728
:107C000055FF80212046FFF762FF012010BD0000D4
:107C10006407005000050050402100203EB50024BC
:107C200069460C70EE48019402940078002819D13E
:107C3000EC480078032815D0084600F036FB0DE02C
:107C400001A800F051FB6B460822062104209A5E31
:107C5000595E185E07F0BFFF641CE4B26846007806
:107C60008442EDD33EBD70B5DF4C01216078DF4D1D
:107C7000484060702968002901D0002819D0FFF71A
:107C8000CDFF6078002814D06068401C606002F06E
:107C900033FFD348007800280BD1D248007803285E
:107CA00007D008F0C6FD2968002902D1C0B202F051
:107CB000CEFC70BD10B5CC4900204860CA48CC4A03
:107CC00001210C3006F0B9F8002801D0002010BDC9
:107CD000012010BD10B5C448012100228903C068ED
:107CE00006F0F2F8002801D0002010BD012010BDE0
:107CF00010B5BD48C06806F051F9002801D0002039
:107D000010BD012010BDB84948607047B6484068B2
:107D10007047B54910B50822103108F037FF10BD83
:107D20000146B14810B50822103008F02FFF10BDF1
:107D3000F8B5AD481030C77804797F1CC688002C90
:107D40001CD0012C1AD06421304608F0C5FEC5B203
:107D500064206843301AC6B2A41C1A2060430A216A
:107D600008F0BAFEB2089219AB08D2186B00C0B284
:107D7000D21AF9B210184018801E10E0701E64214B
:107D800008F0C0FEC5B264206843301A401EC6B277
:107D900020460E301A214843E1E7C01D00B20028FA
:107DA000FBDB072108F0AEFE0620401A8E49C0B268
:107DB0000870F8BD8C4800787047F7B50C4682B063
:107DC00000278C4908F088FE0D4606463C212846CF
:107DD00008F082FE2170E1210901284608F07CFEAE
:107DE000054608463C2108F077FE6070A5707D20AE
:107DF0000001B5B2E08010E00099002924D0642190
:107E0000304608F069FE002901D0B0071CD0FF20E1
:107E10006E30281A761C85B2E680E088FF2106467F
:107E2000913108F059FE0091002910D064213046AC
:107E300008F052FE002901D0B00708D0FF206E30B4
:107E4000A842D9D900201DE0FF206F30E1E7FF20D4
:107E50006F30F5E7E088FF210646913108F03CFEDF
:107E6000002953D06421304608F036FE002901D0A5
:107E7000B0074BD00020217900F0A2F8281A85B273
:107E80002079401C2071E088FF210646913108F0DE
:107E900023FE00293CD06421304608F01DFE002955
:107EA00001D0B00734D00020217900F089F8A84231
:107EB000D0D9E9B2E1700498002825D04A481030A2
:107EC000C278914207D121790279914203D1E188A8
:107ED000C288914200D00727A1788078814201D0E2
:107EE000032007436078052108F0F6FD3E494A88E3
:107EF000904202D04880012007438F603A48082210
:107F00002146103008F042FE05B0F0BD0120B2E776
:107F10000120C9E734498A68002801D00020886020
:107F200010467047F8B5044680783C214843617894
:107F3000E57840183C214843217846180427E75744
:107F400016E0E088FF219131009008F0C5FD00297E
:107F500016D06421009808F0BFFD002902D00098D7
:107F600080070DD00020F9B200F02AF8401985B240
:107F70007F1E7FB2002FE4DA7D27E4883F0114E002
:107F80000120F0E7FF219131204608F0A5FD0029EE
:107F900013D06421204608F09FFD002901D0A007DE
:107FA0000BD0FF206E30401985B2641EA4B2BC42D3
:107FB000E8D210484543A819F8BDFF206F30F2E71A
:107FC00002461F20012907D0062901D9491EC9B23E
:107FD000C90700D01E2070471C32D0B27047000085
:107FE0000A2000200C200020442100202420002012
:107FF000677C010080510100F8B5644E306805F0DF
:10800000CDFF634C351D607AE9790027884209D39A
:10801000604C032020601D2000F0B2F80420206096
:10802000EF71F8BD012022684107002A0ED0626876
:10803000012A0FD0227A521CD2B22272AB799A4214
:1080400012D2606054488160298808E02060606036
:108050002772F7E71D20676000F092F86988002218
:10806000306805F031FFF8BD2760A988002230682C
:1080700005F02AFF607A401C6072F8BD10B54549D2
:1080800004200860454A0021404805F0D6FE00283B
:1080900001D0002010BD012010BDF8B50C460646E9
:1080A0003F484049007809781D46174608424DD19F
:1080B00036490020091DC8713649032008601D207B
:1080C00000F05EF83148006805F068FF322E00D2FB
:1080D0003226322C00D23224002F00D10127322D3B
:1080E00000D23225FF23710CF003F5330022C018B3
:1080F00051415A00002308F019FD244EFF23361D7C
:108100003080610CE003F5330022C01851415A0061
:10811000002308F00BFD7080FF23690CE803F533A2
:108120000022C01851415A00B771002308F0FEFC2C
:10813000B0800698F0711649002008604860886099
:108140000246301F3221006805F0BEFEF8BD10B5B2
:108150000E48006805F022FF0C490020091DC87177
:108160000C4C032020601D2000F00AF80420206041
:1081700010BD0648001DC079002800D001207047BE
:10818000012181400448C160704700005C2100204B
:10819000CC2D00207407005000050050F97F01002D
:1081A0000B200020092000201CB520216846017109
:1081B000472141710124022301AA32212046009463
:1081C000FFF739FB002838D02321684601710821C8
:1081D0004171022301AA322101200094FFF72BFBF9
:1081E00000282AD0242168460171402141710223D0
:1081F00001AA322101200094FFF71DFB00281CD0AA
:1082000025216846017100214171022301AA322112
:1082100001200094FFF70FFB00280ED02E216846A6
:10822000017199214171022301AA32210120009498
:10823000FFF701FB002800D001201CBD10B5FFF79F
:10824000B3FF00F087F9012010BD1CB50F2069466F
:10825000087100200123009001AA32211846FFF77F
:10826000EAFA00280DD00120034601AA332100902C
:10827000FFF7E1FA002804D068460079332801D0DE
:1082800000201CBD01201CBD1CB5202168460171C9
:10829000082141710120022301AA32210090FFF739
:1082A000CAFA002800D001201CBD1CB504462F20AE
:1082B0006946087100200123009001AA3221184666
:1082C000FFF7B9FA00280ED00120034601AA332196
:1082D0000090FFF7B0FA002805D068460079C00684
:1082E000C00E207001201CBD3EB50446A820694682
:1082F000087100200123009001AA32211846FFF7DF
:108300009AFA002818D00120062301AA33210090F0
:10831000FFF791FA00280FD068460421415E08114A
:10832000208068460621415E081160806846082169
:10833000415E0811A08001203EBD7CB5044631207D
:10834000694608710025012301AA322118460095CB
:10835000FFF771FA002826D00126334601AA3321FF
:1083600030460096FFF767FA00281CD0684600796F
:10837000410619D5C10701D0266013E0810701D558
:1083800025600FE0410701D503200AE0010701D570
:10839000022006E0C10601D5052002E0800601D5D5
:1083A0000420206001207CBD00207CBD1CB539204C
:1083B0006946087100200123009001AA3221184665
:1083C000FFF739FA00280ED00120034601AA332115
:1083D0000090FFF730FA002805D068460079512157
:1083E000084000D001201CBD1CB53A2269460A7124
:1083F00048710120022301AA32210090FFF71BFAE5
:10840000002800D001201CBD1CB538246B461C710F
:1084100000245C710123002801D0684643710029C3
:1084200005D0694648790421084369464871002A05
:1084300005D0694648791021084369464871009380
:10844000022301AA32210120FFF7F5F9002800D00C
:1084500001201CBD1CB520216846017147214171D6
:108460000124022301AA322120460094FFF7E3F9F8
:1084700000280ED02E2168460171992141710223F6
:1084800001AA322101200094FFF7D5F9002800D07D
:1084900001201CBD1CB520216846017127214171B6
:1084A0000124022301AA322120460094FFF7C3F9D8
:1084B00000280ED02E21684601719F2141710223B0
:1084C00001AA322101200094FFF7B5F9002800D05D
:1084D00001201CBD7CB5382622210025012400285E
:1084E0006846017134D0C0214171022301AA3221B2
:1084F00001200094FFF79FF9002828D03B2168460F
:10850000017104214171022301AA3221012000944A
:10851000FFF791F900281AD03C2168460171082123
:108520004171022301AA322101200094FFF783F94F
:1085300000280CD0684606714571022301AA322139
:1085400001200094FFF777F9002800D001207CBDBE
:108550004571E6E71CB5322168460171362141714B
:108560000124022301AA322120460094FFF763F977
:1085700000281BD03321684601714471022301AAEF
:10858000322101200094FFF756F900280ED0302147
:10859000684601717F214171022301AA3221012025
:1085A0000094FFF748F9002800D001201CBD00000E
:1085B000F0B5FFB0002588B02C46FFF7A7FB0022DE
:1085C00001A9FFF7FAFB6846007A0C280BD268462F
:1085D000C0791F2807D2684680793C2803D26846B4
:1085E00040793C2804D3F2A2F7490020FDF742FE6F
:1085F000802146A808F0E3FA802166A808F0DFFA97
:10860000802106A808F0DBFA802126A808F0D7FA16
:10861000EE48C078002806D0684680790C2802D938
:108620000C386946887100200390049068464379AD
:108630008279E7A103A808F041FB03A808F0CAFA71
:10864000C7B22CE003A8405D3A284DD03038C0B204
:1086500013218600E1480091815946A80019009A2B
:1086600008F094FADD48009A3430815966A8001960
:1086700008F08CFAD948009A6830815906A8001988
:1086800008F084FAD548009A9C30815926A8001930
:1086900008F07CFA009820186D1CC4B2EDB2BD42FF
:1086A000D0D3CF481EAF01685EA8013005903EAE22
:1086B0008030013701360090002918D01F22C949A7
:1086C000059808F063FAC7491F221F39009808F07F
:1086D0005DFAC4491F223E39384608F057FAC149AD
:1086E0001F225D39304668E00A200C21B1E766257B
:1086F00001F0F5FB502801D3052410E03C2801D3FC
:1087000004240CE0282801D3032408E0142801D312
:10871000022404E0022801D3012400E00024B2482E
:108720000078002820D01F22B049384608F02EFAE1
:10873000AE491F221F39304608F028FA002626AF1E
:108740000FE006A840190422A94908F01FFAA84919
:1087500078190422091D08F019FA2D1D761CEDB2B6
:10876000F6B2A642EDD30BE0A0491F223E313846B7
:1087700008F00CFA9D491F221F31304608F006FA16
:108780009C4801889C48814209D098491F229B3906
:10879000059808F0FBF995491F227C390CE09748B1
:1087A000006800280BD091491F225D39059808F018
:1087B000EDF98E491F223E39009808F0E7F90021B3
:1087C00046A8FFF712FA012166A8FFF70EFA022168
:1087D00006A8FFF70AFA032126A8FFF706FA7FB0DA
:1087E00008B0F0BDF8B50624854D7D4F854E0300D9
:1087F00008F078FA0A1706212B37141414143D14C4
:108800002C70FFF7E6F9002808D03868002805D159
:108810006E488079002802D008203060F8BD05201D
:10882000FBE72C70FFF7D5F90028F7D0386800284F
:10883000F4D10220F1E72C70FFF7CBF90028EDD03E
:1088400038680028EAD10120E7E72C70FFF7C1F96A
:108850000028E3D038680028E0D0002008F083F832
:10886000F8BDFFF7B6F90028FAD12C70F8BD2C70CE
:108870000D20D2E7F0B5FFB0002586B02C46FFF7FB
:1088800099FAFFF743FA002201A9FFF796FA684622
:10889000007A0C280BD26846C0791F2807D2684698
:1088A00080793C2803D2684640793C2805D3464964
:1088B0003FA2B8310020FDF7DDFC802145A808F07B
:1088C0007EF9802165A808F07AF9802105A808F0D2
:1088D00076F9802125A808F072F900200390049011
:1088E0006846C379027A5B1C521C47A103A808F0B2
:1088F000E5F903A808F06EF9C7B22CE003A8405DC3
:108900002F283FD03038C0B2132186003348009161
:10891000815945A80019009A08F038F92F48009AA3
:108920003430815965A8001908F030F92B48009AB5
:108930006830815905A8001908F028F92748009ADD
:108940009C30815925A8001908F020F900982018BA
:108950006D1CC4B2EDB2BD42D0D3FFF72BFA1DABF4
:108960003DAC0133013400280FD0012816D0022875
:1089700052D0032859D0042861D0052869D0062890
:1089800072D07DE00B200C21BFE71F222149184641
:1089900008F0FCF81F491F221F316EE01D491F22FD
:1089A0003E39184608F0F2F81A491F221F3964E0D0
:1089B0002E2E5C68616C5C6170705F646973705FBF
:1089C000706167652E6300001405000048200020D8
:1089D000253032643A2530326400000068210020DE
:1089E00024200020D915020009200020A91B020024
:1089F0001012020014200020FFFF000020200020A1
:108A00009C200020A4200020253032642F25303205
:108A1000640000007A1D02001F22F749184608F082
:108A2000B5F8F5491F221F3127E0F3491F223E39CF
:108A3000184608F0ABF8F0491F221F391DE0EE4937
:108A40001F227C39184608F0A1F8EB491F225D3936
:108A500013E0E9491F22BA39184608F097F8E649A9
:108A60001F229B3909E0FFE7E3491F22F839184626
:108A700008F08CF8E0491F22D939204608F086F822
:108A8000002145A8FFF7B1F8012165A8FFF7ADF86F
:108A9000022105A8FFF7A9F8032125A8FFF7A5F8EB
:108AA0007FB006B0F0BDF8B500270625D34ED44CF4
:108AB000030008F017F9051404251B210F00357079
:108AC000FFF787F8002808D0CE488079002802D028
:108AD00008202060F8BD0520FBE72760F8BD357051
:108AE000FFF777F80028F8D00220F2E73570FFF79B
:108AF00070F80028F1D0F8BDFFF76BF80028FAD124
:108B00003570EAE7F0B5FFB08CB0002580210BA8E6
:108B100008F055F880212BA808F051F880214BA8C7
:108B200008F04DF880216BA808F049F8684601F07C
:108B300010FF002005900490B3A104A8009A08F04B
:108B4000BDF804A808F046F8C6B2052E00D90526DF
:108B50000520801B132148431F30C4B227E004A81E
:108B6000405D132230380006870DA848C1590BA874
:108B7000001908F00BF8A54813223430C1592BA86E
:108B8000001908F003F8A14813226830C1594BA816
:108B9000001907F0FBFF9D4813229C30C1596BA8B8
:108BA000001907F0F3FF13346D1CE4B2EDB2B542C7
:108BB000D5D31F2296490BA807F0E8FF94491F223E
:108BC0001F392BA807F0E2FF91491F223E394BA81D
:108BD00007F0DCFF8E491F225D396BA807F0D6FF36
:108BE00000210BA8FFF701F801212BA8FEF7FDFFDC
:108BF00002214BA8FEF7F9FF03216BA8FEF7F5FF52
:108C00007FB00CB0F0BDF8B5002706257B4E7C4C3C
:108C1000030008F067F805041F0D151B0C003570E4
:108C2000FEF7D7FF002801D0052007E02760F8BD38
:108C30003570FEF7CEFF0028F8D003202060F8BD85
:108C40003570FEF7C6FF0028F0D0F8BDFEF7C1FF73
:108C50000028FAD13570E9E7F0B5FFB08EB00026F4
:108C600080210DA807F0ABFF80212DA807F0A7FFFA
:108C700080214DA807F0A3FF80216DA807F09FFF7A
:108C8000684601F066FE0020049005905D488078FB
:108C9000012801981CD07D21C90007F01DFF0A2181
:108CA000019007F019FF82B20B0013D059A104A85C
:108CB00008F004F804A807F08DFFC5B2052D00D90F
:108CC00005250520401B132148431F30C4B20CE08A
:108CD0005249E2E74CA104A807F0F0FFEAE704A834
:108CE000805D2E2805D0761CF6B2AE42F7D3002662
:108CF0002FE0E41DE4B2FAE704A8805D2E2855D0E9
:108D00003038C0B21321870040480B91C1590DA8DB
:108D10000019132207F03AFF3C4813223430C1599E
:108D20002DA8001907F032FF384813226830C159C6
:108D30004DA8001907F02AFF344813229C30C1596E
:108D40006DA8001907F022FF0B982018761CC4B2FA
:108D5000F6B2AE42D0D32E491F227C310DA807F0C7
:108D600015FF2B491F225D312DA807F00FFF284961
:108D70001F223E314DA807F009FF25491F221F3150
:108D80006DA807F003FF00210DA8FEF72EFF0121BB
:108D90002DA8FEF72AFF02214DA8FEF726FF03218A
:108DA0006DA8FEF722FF7FB00EB0F0BD0C2001468B
:108DB000A9E7F8B500270625104E114C030007F06F
:108DC00091FF0504330D152F0C003570FEF701FFE0
:108DD000002801D0052007E02760F8BD3570FEF7B8
:108DE000F8FE0028F8D004202060F8BD3570FEF7AA
:108DF000F0FE0028F0D0F8BDFE1C02009C200020F0
:108E0000A4200020482000202564000068210020C4
:108E10006D13020025642E25640000004906000041
:108E2000FEF7D7FE0028E6D13570D5E7F0B5FFB0E4
:108E30008CB0002580210BA807F0C1FE80212BA853
:108E400007F0BDFE80214BA807F0B9FE80216BA87A
:108E500007F0B5FE684601F07CFD00200490059007
:108E60000A21029807F038FE0246FBA104A807F089
:108E700025FF04A807F0AEFEC6B2052E00D90526D0
:108E80000520801B132148431F30C4B227E004A8EB
:108E9000405D132230380006870DF048C1590BA8F9
:108EA000001907F073FEED4813223430C1592BA886
:108EB000001907F06BFEE94813226830C1594BA82E
:108EC000001907F063FEE54813229C30C1596BA8D6
:108ED000001907F05BFE13346D1CE4B2EDB2B5422D
:108EE000D5D31F22DE490BA807F050FEDC491F2214
:108EF0001F392BA807F04AFED9491F223E394BA83B
:108F000007F044FED6491F225D396BA807F03EFEEC
:108F100000210BA8FEF769FE01212BA8FEF765FED4
:108F200002214BA8FEF761FE03216BA8FEF75DFE50
:108F300066E6F8B500270625CA4ECB4C030007F0BD
:108F4000D1FE05041F0D151B0C003570FEF741FE08
:108F5000002801D0052007E027604CE73570FEF7B8
:108F600038FE0028F8D00220206044E73570FEF774
:108F700030FE0028F0D03EE7FEF72BFE0028ECD1B3
:108F80003570E9E700B5FFB082B08021684607F090
:108F900016FE802120A807F012FE802140A807F0CD
:108FA0000EFE802160A807F00AFE0CA81F22AF4920
:108FB00007F0ECFDAD492CA81F221F3907F0E6FD94
:108FC000AA494CA81F223E3907F0E0FDA7496CA82A
:108FD0001F225D3907F0DAFD00216846FEF705FE25
:108FE000012120A8FEF701FE022140A8FEF7FDFDA9
:108FF000032160A8FEF7F9FD7FB002B000BDF8B50F
:109000000026984F984C0625030007F06BFE050DCF
:109010000419202A0C003D70FEF7DBFD002801D06A
:1090200002200BE02660E6E63D70FEF7D2FD002848
:10903000F8D08F4880790028F4D008202060DAE644
:109040003D70FEF7C6FD0028ECD02560D3E63D70EC
:109050002660FEF7BEFD0028E5D0012007F083FC66
:10906000C9E6FEF7B6FD0028DDD13D70DAE770B540
:10907000FFB081B08021684607F0A1FD802120A8C3
:1090800007F09DFD802140A807F099FD802160A890
:1090900007F095FD7748784A01880CA82CAE4CADB6
:1090A0006CAC914215D071491F227C3107F06EFDE6
:1090B0006E4930461F225D3107F068FD6B49284636
:1090C0001F223E3107F062FD68491F2220461F31F2
:1090D00014E066491F22F83107F058FD6349304615
:1090E0001F22D93107F052FD604928461F22BA31AC
:1090F00007F04CFD5D4920461F229B3107F046FDDD
:1091000000216846FEF771FD012120A8FEF76DFDE4
:10911000022140A8FEF769FD032160A8FEF765FD66
:109120007FB001B070BDF8B5002506264D4F4E4CFE
:10913000030007F0D7FD050D0419202E0C003E702A
:10914000FEF747FD002801D002200BE0256052E623
:109150003E70FEF73EFD0028F8D045488079002893
:10916000F4D00820206046E63E70FEF732FD00286D
:10917000ECD00720F6E73E70FEF72BFD0028E5D087
:109180003C483D4900888842E1D00220FDF723FA9F
:1091900031E6FEF71EFD0028D9D13E70D6E700B5B6
:1091A000FFB082B08021684607F009FD802120A829
:1091B00007F005FD802140A807F001FD802160A88F
:1091C00007F0FDFC0CA81F222C4907F0DFFC2B49FF
:1091D0002CA81F221F3907F0D9FC28494CA81F22B0
:1091E0003E3907F0D3FC25496CA81F225D3907F0F2
:1091F000CDFC00216846FEF7F8FC012120A8FEF70F
:10920000F4FC022140A8FEF7F0FC032160A8FEF761
:10921000ECFCF1E6F8B500250626124F124C0300CF
:1092200007F060FD050D042E353D0C003E70FEF785
:10923000D0FC002801D002200BE02560DBE53E7069
:10924000FEF7C7FC0028F8D0094880790028F4D040
:1092500008202060CFE50000256400006821002080
:10926000651402009C200020A4200020D9150200D3
:109270004820002014200020FFFF00004D170200AE
:109280003E70FEF7A6FC0028D7D00520E1E73E702F
:10929000FEF79FFC0028D0D0FDF745F8ABE5FEF7C0
:1092A00098FC0028CAD13E70C7E770B5FFB081B006
:1092B0008021684607F083FC802120A807F07FFC0E
:1092C000802140A807F07BFC802160A807F077FC94
:1092D000FA48FB4A01880CA82CAE4CAD6CAC91420C
:1092E00014D01F22F74907F051FCF64930461F22DF
:1092F0001F3907F04BFCF34928461F223E3907F07F
:1093000045FCF0491F2220465D3914E0ED491F223B
:109310007C3107F03BFCEB4930461F225D3107F002
:1093200035FCE84928461F223E3107F02FFCE5496D
:1093300020461F221F3107F029FC00216846FEF756
:1093400054FC012120A8FEF750FC022140A8FEF7A2
:109350004CFC032160A8FEF748FCE1E6F8B50027C5
:109360000625D94ED94C030007F0BCFC0520040E9D
:109370000E1C0B003570FEF72CFC002802D00520D7
:10938000206038E5276036E53570FEF722FC0028BE
:10939000F8D0CA48CA4900888842F2D00520FDF7B3
:1093A0001AF928E5FEF715FC0028EAD13570E9E73F
:1093B000F0B5FFB086B00025FEF7A8FC002201A999
:1093C000FEF7FBFC6846007A0C280BD26846C07991
:1093D0001F2807D2684680793C2803D26846407926
:1093E0003C2804D3BA4ABB490020FCF743FF802144
:1093F00005A807F0E4FB802125A807F0E0FB802109
:1094000045A807F0DCFB802165A807F0D8FBB2482F
:10941000C078002806D0684680790C2802D90C381C
:10942000694688710020039004906846A8494379F2
:109430008279203103A807F041FC03A807F0CAFB9A
:10944000C7B21F242CE003A8405D3A2854D030381E
:10945000C0B213218600A1480091815905A80019C6
:10946000009A07F093FB9D48009A3430815925A853
:10947000001907F08BFB9948009A6830815945A87C
:10948000001907F083FB9548009A9C30815965A824
:10949000001907F07BFB009820186D1CC4B2EDB2D8
:1094A000BD42D0D31F228E4905A807F06FFB8C491F
:1094B0001F221F3925A807F069FB89491F223E3961
:1094C00045A807F063FB86491F225D3965A807F0B0
:1094D0005DFB002105A8FEF788FB012125A8FEF70A
:1094E00084FB022145A8FEF780FB032165A8FEF757
:1094F0007CFB7FB006B0F0BD0A200C21AAE7F8B5CE
:109500000624714D774F714E030007F0EBFB050405
:109510000413131512002C70FEF75BFB002808D013
:109520003878012801D0002000E00E20306000F0E3
:1095300035FE60E42C705EE4FEF74BFB0028F9D0AA
:1095400059E4F0B5FFB086B00025FEF7DFFB00223E
:1095500001A9FEF732FC6846007A0C280BD2684657
:10956000C0791F2807D2684680793C2803D2684614
:1095700040793C2805D35749554A70310020FCF703
:1095800079FE802105A807F01AFB802125A807F0A5
:1095900016FB802145A807F012FB802165A807F083
:1095A0000EFB4D48C078002806D0684680790C280C
:1095B00002D90C38694688710020039004906846EF
:1095C000434943798279203103A807F077FB03A848
:1095D00007F000FBC7B21F242CE003A8405D3A2827
:1095E00053D03038C0B2132186003C4800918159D5
:1095F00005A80019009A07F0C9FA3848009A3430D3
:10960000815925A8001907F0C1FA3448009A68303A
:10961000815945A8001907F0B9FA3048009A9C30E2
:10962000815965A8001907F0B1FA009820186D1C3F
:10963000C4B2EDB2BD42D0D329491F227C3105A866
:1096400007F0A4FA26491F225D3125A807F09EFAEB
:1096500023491F223E3145A807F098FA20491F22CE
:109660001F3165A807F092FA002105A8FEF7BDFAA0
:10967000012125A8FEF7B9FA022145A8FEF7B5FA9F
:10968000032165A8FEF7B1FA33E70A200C21ABE706
:10969000F8B506240C4D134F0C4E030007F022FBC7
:1096A00005040429292B28002C70FEF792FA0028C3
:1096B0001ED03878012817D0002016E01420002092
:1096C000FFFF0000C91702009C200020A4200020FA
:1096D000B0890100440900004820002068210020D2
:1096E000751202000C2000200E203060FEF72FFDC6
:1096F00033E42C7031E4FEF76CFA0028F9D02CE446
:10970000F0B5FFB082B08021684607F058FA80219A
:1097100020A807F054FA802140A807F050FA8021D1
:1097200060A807F04CFAFE4827AE4488C71D47AD35
:109730000336FD370335602C09D8011D224630461B
:1097400007F024FAF64839464288284618E0F449DA
:1097500007A86022091D033007F018FA6022394675
:10976000304607F013FAEE492246603A6431284643
:1097700007F00CFAEA48EB49428867A8603A0330E0
:1097800007F004FA1F22E849684607F0FFF9E649A6
:109790001F221F3920A807F0F9F9E3491F223E399B
:1097A00040A807F0F3F9E0491F225D3960A807F0EF
:1097B000EDF900216846FEF718FA012120A8FEF70E
:1097C00014FA022140A8FEF710FA032160A8FEF760
:1097D0000CFA7FB002B0F0BDF8B500270621D34CDB
:1097E000D34ED44D030007F07DFA05040418182267
:1097F00014002170FEF7EDF900280AD00920FCF7CB
:10980000EAFE3078012805D02F60FEF7A0FC02F0B8
:1098100029FB08E40E202860F7E70C202070FEF7F3
:10982000D8F90028F5D00820FCF7D5FEEDE7FEF7C3
:10983000D0F90028EDD10C20207007E4F0B5FFB07E
:1098400082B0802140A807F0BAF98021684607F06D
:10985000B6F9802120A807F0B2F9802160A807F0AE
:10986000AEF9AF494C88CF1DFD37002C07D08026BC
:10987000A01BC5B2802C27D2E6B2002527E007A89E
:109880002246091D033007F081F927A822463946F0
:10989000033007F07BF9A4491F227C3140A807F070
:1098A00075F9A1491F225D31684607F06FF99E499D
:1098B0001F223E3120A807F069F99B491F221F3162
:1098C00060A807F063F918E0802D00D980253246A2
:1098D000091D40A807F05AF932463946684607F094
:1098E00055F98F492A46843120A807F04FF98D4950
:1098F0002A46203160A807F049F9002140A8FEF768
:1099000074F901216846FEF770F9022120A8FEF7DC
:109910006CF9032160A8FEF768F95AE7F8B506214B
:10992000824C834F834D0C26030007F0DBF90504BE
:109930000413212312002170FEF74BF9002808D0F0
:109940003878012801D0002000E00E202860FEF7C2
:10995000FEFB08E4267073489C3040680028F8D06D
:109960007548C178401D491EC9B2FDF738FD0FE4A6
:1099700026700DE4FEF72DF90028F9D008E4F0B5C3
:10998000FFB084B000252C46802102A807F017F90B
:10999000802122A807F013F9802142A807F00FF9CF
:1099A000802162A807F00BF9002000900190634825
:1099B00063A10288684607F081F9684607F00AF952
:1099C000C7B227E06846405D132230380006860D96
:1099D0005D48815902A8001907F0D8F85A481322A7
:1099E0003430815922A8001907F0D0F856481322C4
:1099F0006830815942A8001907F0C8F8524813226C
:109A00009C30815962A8001907F0C0F813346D1C0E
:109A1000E4B2EDB2BD42D5D34C480478A0070CD5D2
:109A20001AA81F224A49013007F0B0F848493AA85D
:109A30001F221F31013007F0A9F8E0070CD05AA807
:109A40001F224349013007F0A1F841497AA81F229B
:109A50001F31013007F09AF8002102A8FEF7C5F87F
:109A6000012122A8FEF7C1F8022142A8FEF7BDF8A5
:109A7000032162A8FEF7B9F87FB004B0F0BDF8B5D5
:109A800000240625294E2B4F030007F02BF905046F
:109A90000404040B0A003570FEF79BF8002800D080
:109AA0003C606EE4FEF795F80028FAD13570F7E7D0
:109AB00000B5FFB082B08021684607F080F88021B1
:109AC00020A807F07CF8802140A807F078F88021D2
:109AD00060A807F074F80CA81F221E4907F056F87A
:109AE0001C492CA81F221F3907F050F819494CA80F
:109AF0001F223E3907F04AF816496CA81F225D392B
:109B000007F044F800216846FEF76FF8012120A80D
:109B1000FEF76BF8022140A8FEF767F803211BE06F
:109B2000942B0020F82C0020E11402009C2000203F
:109B30000C200020A4200020CC2E00201620002085
:109B40002530346400000000682100200D20002032
:109B5000D01A0200C118020060A8FEF746F87FB0D4
:109B600002B000BD70B501260C25B34C032806D009
:109B70000EDC002803D0012801D0022807D125706F
:109B8000FEF727F8002802D03046FCF724FD70BD10
:109B9000042807D00D28FAD106202070A7490020FC
:109BA000086070BDFEF715F80028FAD1257070BD69
:109BB00000B5FFB082B08021684607F000F8802130
:109BC00020A806F0FCFF802140A806F0F8FF8021C5
:109BD00060A806F0F4FF0CA81F22994906F0D6FFF2
:109BE00097492CA81F221F3906F0D0FF94494CA892
:109BF0001F223E3906F0CAFF91496CA81F225D3929
:109C000006F0C4FF00216846FDF7EFFF012120A800
:109C1000FDF7EBFF022140A8FDF7E7FF032160A855
:109C2000FDF7E3FF9BE770B50C25834C032827D095
:109C30000CDC00281BD0012812D002280FD125707F
:109C4000FDF7C7FF00280AD0012016E004281ED027
:109C50000F2804D10620207078490020086070BDCC
:109C60002570FDF7B6FF0028F9D00B2005E0257020
:109C7000FDF7AFFF0028F2D00A20FCF7ACFC70BD66
:109C80002570FDF7A6FF0028F9D00720F5E7FDF7BE
:109C9000A0FF0028F3D1257070BD70B5FFB081B072
:109CA0008021684606F08BFF802120A806F087FF00
:109CB000802140A806F083FF802160A806F07FFF86
:109CC0006048614A01880CA82CAE4CAD6CAC914246
:109CD00043D05E490978022929D059491F22F83119
:109CE00006F054FF564930461F22D93106F04EFF88
:109CF000534928461F22BA3106F048FF50492046F2
:109D00001F229B3106F042FF00216846FDF76DFFE0
:109D1000012120A8FDF769FF022140A8FDF765FF9A
:109D2000032160A8FDF761FF7FB001B070BD444919
:109D30001F227C3106F02AFF414930461F225D3147
:109D400006F024FF3E4928461F223E3106F01EFF42
:109D50003B491F2220461F31D4E71F223C4906F011
:109D600015FF3B4930461F221F3906F00FFF3849C7
:109D700028461F223E3906F009FF35491F2220469A
:109D80005D39BFE770B531490978022901D0032652
:109D900000E004260624284D030006F0A3FF050476
:109DA0000406141D05002C7070BD2C70FDF711FF0A
:109DB0000028F9D02348244900888842F4D030464E
:109DC000FCF709FC70BD2C70FDF703FF0028F9D0EB
:109DD0001A490020086070BDFDF7FBFE0028E2D0A4
:109DE00070BD30B505466D1F01200C21124A134C81
:109DF0002B0006F077FF0A06090C0F111F14181F1D
:109E00001B1F1170092113E011700A2110E011705D
:109E10000B210DE011700BE011700D2108E00621FF
:109E20001170002104E011700E2101E011700F216A
:109E3000216030BD002030BD9C200020A4200020E7
:109E40003D19020014200020FFFF00000C2000201C
:109E5000B11A020010B544480168002916D000214B
:109E6000016042488068424A012180B251604B2122
:109E7000090148433F49800A48437D21090106F012
:109E80002BFE80B200F02EF83B49087010BD70B573
:109E90003A4801244460354839494160324E002532
:109EA0003560046007202ADF002803D035A27F2117
:109EB000FCF7E0F9032107202BDF002803D031A2B3
:109EC0008221FCF7D7F9072026DF002803D02DA236
:109ED0008521FCF7CFF935602548046070BD264820
:109EE000007870477D2110B54901884201D3642074
:109EF00010BD294A904205D3081A052106F002FE3A
:109F0000642108E024496439884207D3101A0521E6
:109F100006F0F8FD5021081AC0B210BD1E4AC83A1A
:109F2000904205D3081A052106F0ECFD3C21F2E72A
:109F30001A49884206D3101A40000F2106F0E2FDAC
:109F40002821E8E7154AB43A904205D3081A0A21B5
:109F500006F0D8FD1421DEE71049FA39884201D80D
:109F6000002010BD012010BD0071004000750040B0
:109F700000700040E02E00003822002000730040F6
:109F8000028000002E2E5C68616C5C6261747465F6
:109F900072792E63000000003C0F0000DE0D00000F
:109FA00030B593B01D461446002920D0402C1ED851
:109FB000002C1CD0030A6A461371507101A8224676
:109FC000023006F0E3FD01200090A01CC3B201AAFC
:109FD000A0210220FDF72FFC002806D0002D03D081
:109FE000A000201805F03CFC012013B030BD00207B
:109FF000FBE77CB514460D001DD0402C1BD8002C6F
:10A0000019D0020A69460A714871002002230090A3
:10A0100001AAA0211846FDF70EFC00280AD0012055
:10A02000009023462A46A1210220FDF704FC0028C7
:10A0300000D001207CBD00207CBD7CB5002468469A
:10A0400004714471AA2181710125032301AAA02171
:10A0500002200095FDF7EFFB00281CD0052005F03D
:10A06000FFFB684604714471022301AAA02118462F
:10A070000094FDF7E0FB00280DD0012301AAA121E7
:10A0800002200095FDF7D7FB002804D06846007930
:10A09000AA2801D000207CBD01207CBD10B5464916
:10A0A0000820087001464448401C06F088FD10BD99
:10A0B000FEB506460025FDF77DFE01218140B07802
:10A0C000CFB281018000081A7178401880B20190E7
:10A0D0003A48A9000C18607838425AD03648401CDB
:10A0E000405D002855D1207800283CD0A07881011F
:10A0F0008000081AE1784018019980B2884248D35C
:10A100000A31814245D30199401AC0B2092806D0CC
:10A11000062806D0032806D0002805D039E0032001
:10A1200002E0022000E00120029023480570052093
:10A13000FDF764F802980A214843214941180A7A38
:10A140000092CB880A7949888C461D49085A614695
:10A15000FDF7A3FF029800281BD16078010618D4F0
:10A160007840607015E0B078A178884211D170789D
:10A17000E17888420DD10520FDF740F80A200090D3
:10A18000FF20FF23C330913300220146FDF785FFF6
:10A19000E3E76D1CEDB2082D9AD3FEBD10B5064C59
:10A1A0002078082802D20121621C1154FDF7CFFF4C
:10A1B0000820207010BD000039220020622B0020F2
:10A1C000402102003A480021017041800421416091
:10A1D00070477CB500240425FDF7ECFD012181408A
:10A1E000CEB26846FDF795FD6846324A8178062072
:10A1F000604380180378334206D043788B4203D8FB
:10A200008078884200D92546641CE4B2032CEED342
:10A21000274842680021954202D045600170418084
:10A22000254A264B12781B68521E1A4303D004227B
:10A230004260017041807CBDF8B51D4C05466068E8
:10A24000042833D0FDF7B6FD0146012002468A40BE
:10A250006168D2B206235943164B2678C918CB78C9
:10A26000761CB34201D2658004E0608840196080AA
:10A270002078401C207008780546154216D02578B5
:10A28000AB4213D88B886488A3420FD9030601D44C
:10A290005040087006201923962100905B0102228D
:10A2A0000846FDF7FAFE0620FCF7A8FFF8BD0000FF
:10A2B00044220020822B002009200020242000209E
:10A2C0001CB50821FE4806F07AFCFE4C00202060F8
:10A2D0006060A0601021E060601806F070FC202132
:10A2E000F94806F06CFC6846FDF713FD6946C8881E
:10A2F0007D210901411A2046E1731030C17269467F
:10A300000979A17381726946C9786173417269469E
:10A310008978017269464978C1711CBD70B58CB0ED
:10A32000242102A806F04BFC0821E54806F047FC72
:10A33000E44C002626606660A66010216018E66086
:10A3400006F03DFC2021E04806F039FCFDF7DEFC7C
:10A3500001226946FDF731FD6946C8887D21090162
:10A36000411A2046E1731030C17269460979A17320
:10A3700081726946C9786173417269468978017250
:10A3800069464978C171CE4D01200E3DA870042266
:10A3900002A910206E60FFF72CFE002810D068463E
:10A3A000007AA1280BD1032102A800F084FB6946A2
:10A3B000C97A814221D16846007AA12802D00120C1
:10A3C0000CB070BD6946C148497A01706946897A06
:10A3D0004170082202A92020FFF70BFE0028EFD0D1
:10A3E000072102A800F067FB6946C97B814204D1BE
:10A3F000072202A9B64806F0C9FB052202A93020AF
:10A40000FFF7F7FD0028DBD0042102A800F053FB82
:10A410006946097B81420AD1029E3046FDF773FCF2
:10A42000012269463046FDF7C8FCFDF781FC212278
:10A4300002A94020FFF7DDFD0028C1D0202102A89D
:10A4400000F039FB08A9097A814204D1202202A92F
:10A450009D4806F09BFB072202A97020FFF7C9FD6B
:10A460000028ADD0062102A800F025FB6946897BB3
:10A47000814204D1062202A9964806F087FB0922F0
:10A4800002A98020FFF7B5FD002899D0082102A875
:10A4900000F011FB6946097C814204D1082202A91F
:10A4A000874806F073FB0D2202A9B020FFF7A1FD3B
:10A4B000002885D083480D2202A9103006F066FBE3
:10A4C000102202A99020FFF794FD002887D002A84F
:10A4D0000FC80FC4686072E700B589B024216846D0
:10A4E00006F06DFB07227A49684606F04FFB07210C
:10A4F000684600F0E0FA6946C8710123082220206E
:10A50000FFF74EFD002877D0FDF700FC00900421F6
:10A51000684600F0D0FA6946087101230522302010
:10A52000FFF73EFD002867D020226749684606F005
:10A530002DFB2021684600F0BEFA08A9087001230F
:10A54000212269464020FFF72BFD002854D0062227
:10A550006049684606F01AFB0621684600F0ABFA2F
:10A5600069468871012307227020FFF719FD002832
:10A5700042D008225249684606F008FB0821684686
:10A5800000F099FA69460872012309228020FFF73A
:10A5900007FD002830D04B490D221031684606F0E7
:10A5A000F5FA01230D226946B020FFF7F9FC0028D7
:10A5B00022D0444B0FCB03936B4607C301231022D9
:10A5C00069469020FFF7ECFC002815D0A1206946D1
:10A5D00008703E4802784A704078887003216846C7
:10A5E00000F069FA6946C870012304221020FFF7C1
:10A5F000D7FC002800D0012009B000BD38B53A20B2
:10A6000069460870012401231A4669460020FFF7B5
:10A61000C7FC2146641CE4B20A2902D20028F2D009
:10A6200001E0002812D00124012269460020FFF732
:10A63000E0FC002803D0694609783A2906D0214673
:10A64000641CE4B20A2901D20028EDD038BDFEB561
:10A6500004461C481F4D0168002628883746814261
:10A660000BD20919814208D303204B23DB00009051
:10A67000581002220146FDF710FD174801681148E5
:10A680001030002904D01549048009780173FEBDFB
:10A69000052C01D3052300E0234609490E39002C7F
:10A6A0000CD0AA780D460835EB5C5A436243960AF3
:10A6B0000B786208D718E207D20F0A7002880FE001
:10A6C0005A220020D82D0020622B002018200020C4
:10A6D0004820002094200020242000202820002052
:10A6E000121902804288FA4D921942808288D2194A
:10A6F00082802868001928606A6892196A60AA68CE
:10A700000E46D219AA604968884201D9401A00E071
:10A71000081A80B20A28BAD9EE4F386802F07AFADD
:10A72000002821D00A21686806F0D6F904460A21DB
:10A73000A86806F0D1F901460722684602702A6827
:10A740004270130A8370120CC2700471220A4271A3
:10A75000220C8271C1710A0A0272090C417201460F
:10A760000A22386802F058FA0021012000F053FE56
:10A7700028687060FEBDF0B5D54C87B010342088D5
:10A78000FFF75AFDE27AD44E0A2A52D920880028CF
:10A7900005D1217B002902D17178002949D00027F9
:10A7A0000297039704970597E37969464B72237ADA
:10A7B0008B72637ACB72A37A0B734A73227B8A7390
:10A7C000C873000A087460884874000A8874A088F6
:10A7D000C874000A087502A80C21013000F06BF95A
:10A7E000BD4DA071694608720E3528880123FF30DF
:10A7F000FF30023080B20D2202A9FFF7D1FB002802
:10A8000017D028883F2110304902884201D32F8079
:10A8100002E028881030288068882A88904208D171
:10A8200068881030884201D36F8002E06888103059
:10A8300068800120B0700021022000F0ECFDA448E7
:10A840000D21103006F0BBF96846FDF762FA684644
:10A850004078E0716846807820726846C0786072FF
:10A8600068460079A0726846C0887D210901401AB7
:10A87000E072207B707099480078207307B0F0BDBB
:10A8800070B5934D0026E87B88B00A2846D96A7BCC
:10A8900069464A70AA7B8A70C87028680871020AE3
:10A8A0004A71020C8A71000EC87168680872020A47
:10A8B0004A72020C8A72000EC872A8680873020AF3
:10A8C0004A73020C8A73000EC87300A80F2101306E
:10A8D00000F0F1F8804C2873694608700E34A079B6
:10A8E0000123FF3001301022FFF75AFB002815D05A
:10A8F000A0791030702801D3A67102E0A079103041
:10A90000A071E079A179884208D1E07910307028EF
:10A9100001D3E67102E0E0791030E07100210120FE
:10A9200000F079FD2E606E60AE6004A8EE60FDF769
:10A93000F0F96846C07C68736846007DA873684675
:10A94000C08A7D210901401AE8736348466008B057
:10A9500070BD10B55E4B04460FCB0FC4103CFF20FA
:10A960006073A073E07320460F210D3000F0A3F850
:10A97000207310BD70B5584D04460E35688829887F
:10A980000026884224D10D21204606F018F9FF2028
:10A990006070A070E070207160714D481030017BD4
:10A9A000A1710178E1710188090A217281786172CF
:10A9B0004188090AA1720179E17280880C21000A9C
:10A9C0002073601C00F077F82070434886701BE00D
:10A9D00068880D22FF30FF30023080B22146FFF739
:10A9E00008FB002807D068883F21103049028842C0
:10A9F00007D36E8008E00D21204606F0E0F8002025
:10AA000070BD688810306880012070BD70B5324C10
:10AA100005460E34E079A179884212D110212846EA
:10AA200006F0CDF8FF206870A870E8700C22284965
:10AA3000281D06F0ABF80F21681C00F03CF82870C8
:10AA400017E0E0791022FF3001302946FFF7D1FAF4
:10AA5000002805D0E0791030702807D3002007E0E7
:10AA60001021284606F0ABF8002070BDE0791030C8
:10AA7000E071012070BD18480E3041880088814285
:10AA800003D115488078002800D001207047124873
:10AA90000E30C1798079814201D0012070470020B9
:10AAA00070470D480E308188491C818070470A48E4
:10AAB0000E308088704710B503460022104603E030
:10AAC0009C5C6040521CD2B28A42F9D310BD000097
:10AAD000D82D0020E42200204C2200202420002039
:10AAE00007480121C16005221204426082680A43BE
:10AAF0008260044801607047044903480860704759
:10AB000000050140000001403546526E000601403C
:10AB1000FB480021416001707047F8B500260C46E3
:10AB2000002958D0F64DF74F6A68002A06D0012A4E
:10AB30001CD0022A22D0032A15D132E002290FD9D3
:10AB4000437802781B02D218EF4B92B29A4207D197
:10AB500001226A600022A41E2A70A4B2801C02E0B6
:10AB6000641EA4B2401C002CDED134E00278BA701E
:10AB70000222401C641EA4B26A60F4E70278FA70F4
:10AB8000002A01D0D02A02D90126002200E00322A7
:10AB9000641EA4B2401C6A60002C1CD0002EC3D0DE
:10ABA00019E02978FB7862189A420AD35A1A7B185E
:10ABB0001B1D0146184605F0E9FF012600206860CC
:10ABC00009E07B181B1D01462246184605F0DEFFF2
:10ABD0002878001928703046F8BD08B5CB490968B7
:10ABE000002913D100280DD0012810D002281DD033
:10ABF000012064210090322302220846FDF74DFA1D
:10AC000002211DE0FDF7A3FA01F02CF908BD09208F
:10AC10004B23DB000090032264215810FDF73DFA1E
:10AC200005210A2001F0E2F807200DE00220FF23B1
:10AC300002460090913364219620FDF72EFA0521FB
:10AC4000052001F0D3F80820FCF7D8FA08BDFEB5BE
:10AC5000064601200290FFF74FFFAD4DA94CE81DBD
:10AC6000211DFD30012E07D0022E05D0032E2DD040
:10AC7000042E2BD00020FEBD6279A64FFF2A0CD0F7
:10AC800000227A602246D378641D5F1811792970FA
:10AC900000216980291D019122E0E0789E4D401E2F
:10ACA000C2B2EA7020792871521EA11D681D05F0FC
:10ACB0006DFF681D7860E878401EC1B2681DFCF722
:10ACC0008EFB2079FFF789FF0120FEBD2246D27856
:10ACD000241D57188E4A6988121D8A180818019277
:10ACE0000090BC4265D22078002805D0012828D0E9
:10ACF00000200290688063E06888FF21083080B2FD
:10AD0000641C01316880884253D8012E11D008227A
:10AD10002146019805F03AFF0834082221460098A0
:10AD200005F034FF0834019808300190009808308D
:10AD3000D6E700232046009A0199FCF784FA1034E4
:10AD4000F1E7688878280FD1802068800821019871
:10AD500005F035FF0821009805F031FF0198083013
:10AD600001900098083000906888FF21103080B270
:10AD7000641C0131688088421BD8012E11D010223A
:10AD80002146019805F002FF103410222146009858
:10AD900005F0FCFE1034019810300190009810303E
:10ADA0009EE701232046009A0199FCF74CFA2034D3
:10ADB000F1E7012E01D0042E02D12878FFF70DFF14
:10ADC0000298FEBDF1B54F480024C2788AB0D02A5F
:10ADD00017D880780890070703093F0F002B11D080
:10ADE0004848012B81790391C679057A417A00910F
:10ADF000417900793AD0022B7ED0032B7DD0042BF1
:10AE00007CD0C3E145483B0005F06CFF06041B22E3
:10AE1000262F2A2FFFF74BFE39490831488206A812
:10AE200071DF374806A906220131143005F0AEFE65
:10AE3000334918220831684605F0A8FE012418227B
:10AE40004EE1FFF74CF8694601240870224648E1BC
:10AE500001680124062206E0016801240A2202E0BA
:10AE6000016801242022114301608FE13B0005F0BD
:10AE700039FF0A0630606E72868AA3A7E0A2062A0E
:10AE8000BFD17D22120180186A4650810B2900D95A
:10AE90000B21117203981E2800D91E201146D07173
:10AEA000172E00D9172608468E713B2D00D93B2559
:10AEB000457100983B2800D93B20087101A8FDF797
:10AEC00031F8FCF720FF002004900A98016904A8DB
:10AED0006FE0FCF71BFF00226946FCF76EFF684637
:10AEE000C1887D200001091A68460172017941720A
:10AEF000C1788172817813E09FE0F6E002E1000002
:10AF000064220020F82D002021FF000024200020D2
:10AF1000942B0020942D0020CC2E00201C200020FB
:10AF2000C17241780173017841730124062202A99C
:10AF3000D7E0022A99D3974A1378984200D010702C
:10AF40005078814200D05170FFF7ABFD32E0012410
:10AF500002229049C5E0052A87D1082885D28E4A69
:10AF6000800011548018039941708670C570FFF7F6
:10AF700098FD012000900A980169684619E00124B3
:10AF800020228549ADE0072AE6D10328E6D2062231
:10AF90005043824A11548018039941708670C570DD
:10AFA00000998180FFF77DFD022001900A980169D8
:10AFB00001A888470124E9E001241222774990E0A2
:10AFC0000124FFF76EFD764D764EE87802281BD3FC
:10AFD00031782879814209D0002800D001203070D2
:10AFE000032000900A98016968468847717868795B
:10AFF000814209D0002800D0012070700420009008
:10B000000A98016968468847E878032804D3A97933
:10B01000002900D00121B170042809D3E979F17029
:10B02000052805D3297A3171062801D3687A707111
:10B03000ACE0012407225B4953E03B0005F052FEDF
:10B04000080518292C3033393EA6062A0FD1564A56
:10B050009070D1700398002800D0012010715671B3
:10B0600000980124000228181080FFF71AFD8DE0D7
:10B070004D48694682780A70C2784A7002798A70AF
:10B080004279CA7000880871000A012448710622BA
:10B0900027E0FFF715F98DE701242146204605E05A
:10B0A0000124204607E001242146022000F0B3F9E4
:10B0B0006CE00124022000F0D4F967E0012404A828
:10B0C000FFF747FC6846017F0170417F4170817F37
:10B0D0008170C17FC17004A807C801AB07C31022EB
:10B0E0006946089800F0C8F850E0012F05D0022FFB
:10B0F00003D0032F01D0042F48D13846FFF7A7FD16
:10B10000044643E0002F02D0012F26D03EE0244D1C
:10B11000012A3BD1254E01243178032906D003288A
:10B1200008D001290AD001280CD00EE0032811D044
:10B13000002000E00120FBF736FA06E0012809D0E4
:10B140000D2000E00C20FCF759F82879042801D3E1
:10B15000002000E02879307018E0114F092A13D33D
:10B16000002811D00398BB7A00020818009A29021F
:10B170001B02D21893B27118FA7A3D7B80B289B261
:10B180000095FCF78AFF01E0FCF7E1FF20460BB0D9
:10B19000F0BD000018200020622B0020822B002030
:10B1A000F82D002048200020942000200C200020B2
:10B1B000F7B582B004980026001D0090C0B20127A8
:10B1C0001421401E05F09EFCA84C401C2178C5B2FD
:10B1D000607881422178607801D9081A01E0081A64
:10B1E0000930A84241DA002005B0F0BD6078152191
:10B1F00048439F494018002F19D022214170FF2158
:10B2000081700299C170002704990171002D08D046
:10B2100014210170401D1022039905F0B7FC10267F
:10B220001BE000990170401D049A039913E0002D62
:10B230000AD0142101700399401C8919142205F0C9
:10B24000A5FC1436F6B208E00499891BCAB2027054
:10B250000399401C891905F099FC6078401CC0B224
:10B2600060700A2801D30020607028466D1EEDB280
:10B270000028BBD10120B7E7F7B5012516460F46D8
:10B28000ED0301F0B7FA002800D07A4D774CA068A2
:10B2900001F087FB002811D020786178884207D11F
:10B2A000E06802F07BFE00222946E06802F00CFE16
:10B2B000324639460098FFF77BFFFEBDA078002894
:10B2C00001D00020A0700020FEBD7FB5674CE06873
:10B2D00002F064FE20786178674D002688422CD108
:10B2E000A07800280AD06249D039CA788878091D28
:10B2F000FFF7C2FF00285BD0A6701EE06068002840
:10B3000056D0C00708D0FFF7C2FB00283AD103E0AF
:10B310001022694623200EE0207980072FD5FFF701
:10B32000AAFB00282BD06846FFF724FB00283AD060
:10B330000D2269462520FFF73BFFE06802F02EFE54
:10B340002078152148434A4941180A78491CA068C9
:10B3500001F029FB00281BD02078401CC0B22070CF
:10B360000A2800D326702078617888421BD1207982
:10B37000C00711D0FFF78BFB002814D10CE0207917
:10B38000C00715D06846FFF741FB0028C0D10AE08E
:10B3900000220121890308E02079800709D5FFF701
:10B3A0006AFB002805D000222946E06802F08CFDE7
:10B3B0007FBD2079C007FBD000220F214904F4E7AC
:10B3C00010B52A498860002048700870486088706D
:10B3D00001462648294A0C3002F02FFD10BD10B559
:10B3E000224800214170017041608170C06802F004
:10B3F000D5FD10BD10B51D4C0120A07020786178DE
:10B40000884207D1E06802F0C9FD00221949E068CE
:10B4100002F05AFD10BDF8B501250F460646ED03B2
:10B4200001F0E8F9002800D0124D104CA06801F09E
:10B43000B8FA00280DD06068002F0BD03043606050
:10B440000AE0E06802F0AAFD00222946E06802F066
:10B450003BFDF8BD3042FCD0207861788842F0D0C6
:10B46000F8BD02494A6882434A607047842200203E
:10B470009C2F0020660600009A190000CBB2010044
:10B48000F8B50A26FF4C07460025380606D50820E1
:10B49000A0602069C008C007FBD002E00820A061BE
:10B4A000E0607806070E00BF0420E0612069800894
:10B4B000C007FBD00420FAF72DFE0420A061E06055
:10B4C0000220FAF727FE6D1CEDB2082DDDD300BF78
:10B4D0000827A76100BFE7610425E56120698008AE
:10B4E000C007FBD000BF06E0761EF6B20A20FAF7CE
:10B4F00011FE002E09D02069C008C007F4D100BF9A
:10B50000A561E56000BF0120F8BD00BFA561E56051
:10B5100000BF0020A760F8BDF8B50026D94C082070
:10B52000E0613746042500BFE56100BF206980085F
:10B53000C007FBD07006060E0120FAF7EBFD20696C
:10B54000C008C00701D0761CF6B20120FAF7E2FD70
:10B55000A561E5600120FAF7DDFD7F1CFFB2082F31
:10B56000E1D30820A0602069C008C007FBD000BF5D
:10B5700000BFE56120698008C007FBD00220FAF710
:10B58000C9FDA561E56000BF00BF00BF00BF304638
:10B59000F8BDF8B50026BB4C0820E061374604250D
:10B5A00000BFE56100BF20698008C007FBD07006BE
:10B5B000060E0120FAF7AEFD2069C008C00701D0D1
:10B5C000761CF6B20120FAF7A5FDA561E560012021
:10B5D000FAF7A0FD7F1CFFB2082FE1D30820A0617D
:10B5E000E0602069C008C007FBD100BF00BFE56173
:10B5F00020698008C007FBD00220FAF78BFDA56107
:10B60000E56000BF00BF00BF00BF3046F8BD70B5A9
:10B610009C4C0425E56120698008C007FBD0082602
:10B62000A6602069C008C007FBD00420FAF772FDAD
:10B63000A661E6600420FAF76DFDA561E56070BDC6
:10B6400070B5904C20690009C007FBD10425E56165
:10B6500020698008C007FBD00826A6602069C008C2
:10B66000C007FBD00420FAF755FDA661E660042070
:10B67000FAF750FDA561E56070BD70B5814C206999
:10B680000009C007FBD10425E56120698008C007D7
:10B69000FBD00826A6602069C008C007FBD00420A4
:10B6A000FAF738FDA661E6600420FAF733FDA561DC
:10B6B000E56070BD70B5734C0825A561E56001209B
:10B6C000FAF728FD0420E06120698008C007FBD05C
:10B6D0000120FAF71FFDA5602069C008C007FBD054
:10B6E000012004F0BDF870BDF8B545001C461646B3
:10B6F0000F46E8B2FFF7C4FE3846FFF7C1FEFFF77A
:10B70000BCFF6D1CE8B2FFF7BBFE012C09D9002578
:10B71000671E04E0FFF73DFF70556D1CEDB2BD42A2
:10B72000F8DBFFF7F9FE31192039C877F8BD70B59D
:10B7300040061D4616460C46000EFFF7A1FE2046A9
:10B74000FFF79EFE002404E0305DFFF799FE641CC5
:10B75000E4B2AC42F8D370BD08B54B490120487043
:10B760004A494B4A0978127811420CD100900023C3
:10B77000012232213C20FCF790FC4648007800284A
:10B7800002D0FAF70BFF08BD0320FBF737FD08BD19
:10B79000F0B53D4889B0404A0021001D02F04DFB44
:10B7A000002802D0002009B0F0BD364C1025A5615C
:10B7B000A5600F2004F054F8E5600F2004F050F865
:10B7C000A5600426E6610827E761E5610024684674
:10B7D0000470192141708470C470C2210171FFF797
:10B7E0002FFF05236A4609214420FFF7A0FFFFF73A
:10B7F00061FFFFF725FF02236A4600214420FFF77F
:10B8000073FFFFF757FF68460470FFF719FF012326
:10B810006A4619464420FFF78AFFFFF74BFF0F21C6
:10B8200068460170FFF70CFF01236A460D21442092
:10B83000FFF77DFFFFF73EFF0094FFF701FF0423B2
:10B840006A4607214420FFF772FFFFF733FF68467F
:10B850000470192141708470C470C2210171FFF716
:10B86000EFFE05236A4609214420FFF760FFFFF73A
:10B8700021FF512168460170492141704A2282709E
:10B88000C1700BE000050050942200200B20002026
:10B89000092000200A20002059B70100FFF7D0FE40
:10B8A00004236A4608214420FFF741FFFFF702FF07
:10B8B00068460570162141708170C17003210171C5
:10B8C000447150218171C671FFF7BAFE08236A46A0
:10B8D0000A214420FFF72BFFFFF7ECFE68460770B4
:10B8E0003021417040268670FFF7AAFE03236A4686
:10B8F0000B214420FFF71BFFFFF7DCFE0521684604
:10B900000170467012218170FFF79AFE03236A4688
:10B910000C214420FFF70BFFFFF7CCFE68460570B3
:10B92000FFF78EFE01236A4609214420FFF7FFFE40
:10B93000FFF7C0FE0A2003F093FFFFF781FE01230B
:10B940006A4619464420FFF7CFFEFFF7B3FE68466C
:10B9500000784007EED468460470592141700221F6
:10B960008170C470C2210171FFF76AFE05236A4627
:10B9700009214420FFF7DBFEFFF79CFE012012E7C0
:10B9800010B588B02021684605F019F9FFF758FE78
:10B9900002236A4601214420FFF7A6FEFFF76DFE51
:10B9A0006C460123A21C03214420FFF79DFEFFF7F4
:10B9B00064FE0323E21C02214420FFF795FEFFF7FB
:10B9C00079FE684644788078410822480BD0017897
:10B9D000002906D10121017000220904406802F00B
:10B9E00073FA08B010BD002101704278002A01D01E
:10B9F0004170F6E7406802F0D1FA17480078002855
:10BA0000EFD116480068002803D0FCF7E2F80028C0
:10BA1000E7D01348006800280AD11248124900886C
:10BA2000884205D1FCF7D5F8002801D0FAF7B2FE1C
:10BA3000600601D5002002E0E00903D00120FBF7F9
:10BA4000DDFBCEE7A007CCD50220F8E7014800785F
:10BA500070470000942200200A20002024200020AB
:10BA60002020002014200020FFFF0000012801D129
:10BA7000AF490870704710B5AD4900200870AD4956
:10BA800003F004FD002801D0002010BDAA490020C9
:10BA900005F088FB012010BD10B5002003F07EFDED
:10BAA000A64904200860091F0860A44908310860FD
:10BAB0000320091F08600120A149C004886010BD4F
:10BAC00018B500280AD0002908D00278401C6B461F
:10BAD0001A70802A04D20A80012018BD0E2018BDD9
