:020000040001F9
:10600000403E0020756101008F6101005D6201006A
:106010000000000000000000000000000000000080
:10602000000000000000000000000000936101007B
:106030000000000000000000956101009761010070
:10604000996101009961010099610100D5F9010090
:106050009961010000000000B1FE0100F9A00100FB
:10606000996101009961010071C30100996101000A
:106070009961010099610100996101009961010034
:106080009961010023E30100996101009961010018
:1060900039E30100996101005FEB010099610100A2
:1060A00099610100996101000000000000000000FA
:1060B00000000000000000000000000000000000E0
:1060C000034885460BF04CF800480047CB6B0100B5
:1060D000403E0020401E00BF00BF00BF00BF00BF09
:1060E00000BF00BF00BF00BF00BF00BF00BFF1D1B5
:1060F00070470000401E00BF00BF00BF00BF00BFD0
:1061000000BF00BF00BF00BF00BF00BF00BFF1D194
:1061100070470000401E00BF00BF00BF00BF00BFAF
:1061200000BF00BF00BF00BF00BF00BF00BFF1D174
:1061300070470000401E00BF00BF00BF00BF00BF8F
:1061400000BF00BF00BF00BF00BF00BF00BFF1D154
:1061500070470000401E00BF00BF00BF00BF00BF6F
:1061600000BF00BF00BF00BF00BF00BF00BFF1D134
:10617000704700000321094802680A43026008488A
:1061800002680A4302600748804707480047FEE765
:10619000FEE7FEE7FEE7FEE7FEE70000240500401D
:1061A00054050040B5610100C16001002349224847
:1061B0000860704710B500F01DF8002805D021498F
:1061C0001F484860C813204988612048018CC9B223
:1061D00001290ED1818C09070BD1018D0906090F08
:1061E000042906D1808D0006000F02D11849012034
:1061F000886010BD1548018CC9B2012917D1818C66
:10620000090714D1018D09060A0F03D1828D1206E8
:10621000120F0ED0090F012903D1828D1206120F21
:1062200007D0032903D1808D0006000F01D0002084
:1062300070470120704700000024F4000020002077
:10624000DFFF07C000050040006C0040C00F00F0F9
:106250000006004004F092FA00F095FD04F08EFA7A
:1062600000F091FD04F08AFA00F08DFD04F086FA4A
:1062700000F089FD7CB5FE4C07280CD0092838D1E8
:10628000206B08F083F9208AFA49884225D1002240
:106290000521090424E0684601F0A7FD684600785E
:1062A000002807D03C210D1A7D20C0004543012065
:1062B000207100E0F04DE06A08F068F9FF23690CF6
:1062C000E803F5330022C01851415A0000230AF0B8
:1062D000BDFE01460022E06A03E000220121C9035D
:1062E000206B08F0E9F8002803D004F047FA00F02A
:1062F0004AFD7CBD10B574DF002803D004F03EFADF
:1063000000F041FD10BD10B5D94C0120A071208ACC
:10631000D849884202D0132176DF06E0E0690028E0
:1063200003D0FFF7E7FF0020E06101F0AEFF01F0CE
:1063300009FF05F021FFCE480F3008F024FF206B45
:1063400008F024F9E06A08F021F902F009F90020C8
:106350000AF003FE00200AF0ECFD04F00FFA10BD75
:106360007CB503F00EFF0025C14C002810D16079E8
:1063700000280DD0A07A401CC0B2A072022809D318
:10638000E079002806D10120E071FFF7BCFF7CBD59
:10639000A572E57101F026FD0122694601F079FD43
:1063A000012001F023FE0646400709D501F02CFD2F
:1063B00003F0C6FF04F0B7FB0021012005F03CF913
:1063C000F00705D004F02AFB0021022005F034F983
:1063D000B00701D504F04FF8A548383000790028FF
:1063E00004D06079002801D0012000E000200AF0EC
:1063F000A0FD03F09EFE684603F0ACFF2079002864
:10640000C5D0E06A08F0C2F80F2100224904E06A12
:1064100008F052F8002803D004F0B0F900F0B3FC03
:1064200025717CBD10B50068002806D001280BD06E
:10643000022801D104F018F810BD0020FFF790FFEA
:106440000720FFF717FF10BD03F07AFF10BD70475C
:10645000F8B504464279214688480831844D012A1E
:1064600015D0032A12D106463278401C10187C221F
:106470000270401CE2880AF019FE3078A1794018B9
:106480003070A869FF2101310843A861F8BD7B4B3A
:10649000AE7B01275B1C7A4A012E0DD0042EF5D16C
:1064A00097740225176055609360A2790270401CB2
:1064B000E2880AF0FBFDF8BD97741760576093609F
:1064C000A2790270401CE2880AF0F0FDD9E708B515
:1064D0000168002908D0012907D003291CD004290C
:1064E00002D10830FFF7B4FF08BD61486946283083
:1064F00008F0ABFD00280BD10098002802D000F076
:106500005AFC08BD5A48283008F077FD0028F8D01A
:1065100004F034F900F037FC5549807A887308BDDF
:106520005349002088712DDF704770B5504C0546E7
:10653000606B08F02BF8002D0BD000225149606BE6
:1065400007F0BAFF02F0B9F800200AF040F90C2079
:1065500000E00D2001F0C6F870BD01B501226946CA
:10656000402005F031F808BD71B5ABB0002420A97A
:106570000C773F4828A9427B097B8A4250D041735F
:1065800028A871DF002847D110A81E94848718A876
:1065900004760124447600201EAD28A90622131A91
:1065A0002E18401CCB5CC0B2B3700628F7D33C2138
:1065B00068460AF094FD02200090684604812BA8EA
:1065C00026950390082120A8818224A80C903C21C4
:1065D0000FA80AF084FD27A8DF211390C94320A843
:1065E000018084702849818028498471487B0A7B16
:1065F0000102114320A8018120481038017B20A806
:106600008172032110A8018320A817900FA9684662
:1066100007F080FB002803D004F0B0F800F0B3FBD3
:106620002CB070BD30B5124C87B0206B07F0AEFFB8
:10663000A079002809D105A807F02BFA002844D139
:106640000598002803D00120E07007B030BD142168
:1066500068460AF044FD0648002538304079002895
:1066600022D0208A034988421ED0042010E0000076
:1066700004200020FFFF000060EA0000742A0020D0
:10668000402D00208F020000E7FE00006E2902006E
:10669000FFF76AFF03216846017001950572F7490B
:1066A0000182458273DF0EE00520FFF75DFF68463B
:1066B0000570019505723321018214214182022067
:1066C000E061684673DF0028BFD004F057F800F09F
:1066D0005AFBA7E73EB5EA4C207A032831D10025C2
:1066E00069460D7001956846029501F04AFF04E085
:1066F00001A801F065FF6D1CEDB268460078854287
:10670000F6D3E17ADE483F30002911D0217B417178
:10671000207B401C2073DA48062201A94B300AF086
:10672000C5FCD74912223F31D64806F0C4FB04E02D
:10673000062201A9801D0AF0B9FCE07A0121484037
:10674000E0723EBD10B58AB0684671DF002850D1B6
:10675000694670DF00284CD16A4690785178000273
:106760000843C9490AF048FC0846C5490024488244
:10677000039404940594C5A2069406CA0391049256
:106780000A210AF039FC30316A4611760A210AF0F2
:1067900033FC30316A46D1750A210AF02DFC3031C4
:1067A0006A469175303050752D2010751120107289
:1067B00003A80AF09FFC82B203A902A87CDF00288C
:1067C00017D15120800178DF002812D107942821A9
:1067D00068460894818319214901C183FF210484FB
:1067E000F531418407A87ADF002802D177DF00283D
:1067F00003D003F0C3FF00F0C6FA0AB010BD10B515
:106800000068002809D19E483B21008A76DF0028D5
:1068100003D003F0B3FF00F0B6FA10BD03F0AEFFF3
:1068200000F0B1FA70B50C460A4605460146954897
:10683000403006F01DF92178112905D19048042235
:10684000294628300AF032FC002070BD70B58C4A11
:106850000188383200255279894C19293FD00ADC49
:10686000102918D011291DD0152903D0172901D1BD
:1068700000F0A1FA70BD82483929008A03D052295C
:1068800029D05529F6D1132176DF0028F2D003F064
:1068900075FF00F078FA8088208229E00920FFF750
:1068A000E9FC70BD207A032802D10020FFF73DFEED
:1068B000207A012802D10B2000F014FF002025725D
:1068C000C0432082E56174DFA0690007800FE8D132
:1068D000FFF7A8FE70BD00221146A9DFD5E7807939
:1068E0000028F7D16648E561143040780028D5D1FA
:1068F000002AD3D170BD08B5684607F0CAF8002851
:1069000003D003F03BFF00F03EFA0098002803D0CC
:106910005B490120487008BD2DDF08BD08B56846F9
:1069200007F0B7F8002803D003F028FF00F02BFA97
:106930000098002803D052490120887008BDB1207A
:106940003CDF2DDF08BD10B5044608F011FE2146DE
:106950004C4806F051FA4B482146403006F090F87A
:1069600048482146203006F0AEFB204608F008F8E3
:106970002046FFF76BFF10BD10B5044606F019FE68
:10698000204600F008FB10BD3D4A032908D002292B
:106990000CD14021032801D0042807D1906903E0DD
:1069A000072803D19069802108439061704770B532
:1069B000001F00250122324C03000AF023FC0805C9
:1069C0000709090E14170E06226270BD256270BDFC
:1069D000C8B2626203F08DFF70BD04206062C8B26D
:1069E00003F087FFF2E701F088FE70BD01F065FE5D
:1069F00070BD70471CB50446684601F0F6F968465C
:106A00007D21C088C9000AF0F7FA21706846007934
:106A100060706846C078A07068468078E07068460C
:106A2000407820711CBD164910B5383149780029CD
:106A30000BD001280AD018480078002803D0174846
:106A40000068042801D101F020FC10BD0C48016A47
:106A50000029FAD180690028F7D1042000F042FE15
:106A600010BD38B5064CA0690006A06918D5802174
:106A70008843A06100F0A9F938BD000016080000A5
:106A800004200020242A00201027000042726163A5
:106A9000656C6935000000008420002098200020EB
:106AA000C005A06909D5FF2101318843A061206A92
:106AB0000028E1D100F04BFEDEE7400606D505F0E8
:106AC00083FDA06940218843A061D5E7A0698006C5
:106AD000A06906D520218843A061FE4808F053FB39
:106AE000CAE78107FC48A169008A05D502229143C3
:106AF000A161132176DFBFE74A07F8490CD5884228
:106B0000BAD1A06904218843A06103F037FE01F0E7
:106B1000BCFBFFF7F0FEAFE7A269120710D5884271
:106B2000AAD1A06908218843A0612021EC480AF07D
:106B3000D6FA03F023FE01F0A8FBFFF7EFFE9BE778
:106B4000A06980050AD50321162000F024F9A06968
:106B5000012149028843A06102201AE0A069400592
:106B6000A06919D5012189028843A061E079617982
:106B7000084281D1012002460090002332213C20AE
:106B800001F0F7FBA079002802D0FFF7C9FC73E7FA
:106B9000032000F0A7FD6FE70005A06905D50121DE
:106BA000C9028843A0610020F3E7C00406D5A069AC
:106BB000012109038843A0610120EAE70020A061C8
:106BC00007F050FA00F02DFA56E7C64888B00125C4
:106BD000456000F027F9C4480090C44B0C220B21FB
:106BE000002007F0CFFB00287ED1BA48C04A01211F
:106BF0001D3007F01AFCB748BE4A0021213007F0CB
:106C000014FCB448BC4A0121253007F00EFCBB49F6
:106C1000022009F0A7F90028E6D101F0B7F8002812
:106C200062D000F072FE04F0B9F805F0B6FC00285E
:106C3000F6D005F055FA01F0F4FA002854D001F02E
:106C400089FB002850D001F065FC00284CD000F0F2
:106C500038FD00287CD003F0B3FC002878D0A84988
:106C600003200860A74E6C07B460FF202D3009F0A8
:106C7000EFF8F46005F0CEF900F0B1F9A24A142162
:106C8000082007F065F9002862D100F055F9FFF7F8
:106C900059FD00F0F6F80520FFF766FC1C21684658
:106CA0000AF01DFA711301910F21090400200291CD
:106CB000009069460D73914928318A896946CA81D5
:106CC00008749248059092480690684607F003FEC3
:106CD00000283DD104F062F801F023FC7E4C00282E
:106CE00005D1607A022100E032E00843607203F0CF
:106CF000F6FA002802D1607A2843607205F0B8F8ED
:106D0000002803D1607A04210843607209F0F6F983
:106D100080480AF0D6F880480AF0E0F87F480AF088
:106D2000D7F87F480AF049F903F00AFB03F09CFB0F
:106D300001F03CF800280BD0FFF774FC03F0F9F9E0
:106D4000644800220321453000F082FF002803D070
:106D500003F014FD00F017F800F0A6FFA0698021F1
:106D60000843A0610720FFF785FA082000F0BAFC6D
:106D7000A069002802D0FFF774FEF9E707F072F966
:106D800000F04FF9F4E7BFF34F8F67496548C860DB
:106D9000BFF34F8FFEE75A4A89008000743A80188B
:106DA000016070471CB501910090604A0821684657
:106DB00007F0E2F81CBD514810B5683005F059FFE6
:106DC0004E48683005F05FFF10BD08B54D480069BA
:106DD0000006C00F00D001203F494A79904206D0FA
:106DE0004871002804D003F0A4F905F0C5F908BDE6
:106DF0008879002801D0FFF793FB00200AF0ADF856
:106E000000200AF096F8032000901921FF200023AB
:106E1000012249012D3001F0ACFA00211E2005F0BD
:106E20006FF908BD70B50024364E0325601F0300BE
:106E30000AF0E8F91A161618141414141414161675
:106E400014141420141418141414161614140E14F4
:106E50002B48001D05600120800710E0012102E0A1
:106E6000002100E003212046FFF795FF641C202C41
:106E7000DCD370BD2248283805600120C004B06012
:106E8000F4E700B52A4887B0426801680192009192
:106E9000C2688168039202914169006904901748B1
:106EA000059104A9683005F050FE00280DD1134863
:106EB0006946283005F0D6FF002806D10F4802A900
:106EC000483006F070F9002803D003F057FCFFF7B4
:106ED0005AFF2FE01320002004200020FFFF0000B5
:106EE000542D002040050040A56D0100E422002043
:106EF00061630100D3660100D5660100FC29002012
:106F00007407005000050050AC280020FF67010006
:106F10001D680100AF690100F3690100F569010016
:106F2000276A01000400FA0500ED00E03570010059
:106F30001017020007B000BD1FB506F0A1FB002826
:106F400024D16946087303A807F0C6FF00281DD1A5
:106F500001A8062102300AF0C2F81E206946C88046
:106F6000087A01221043E12108400C30DF2108405B
:106F700069460872072048721020887249480090BC
:106F80000A71494807F0FFFF002803D003F0F6FB21
:106F9000FFF7F9FE1FBD10B5022801D0032808D164
:106FA000414800210F380278002A03D0017000F018
:106FB0004DF810BD4278002A03D04170FFF79BFCCA
:106FC00010BD8278002A03D08170FFF7A7FC10BDA6
:106FD000C278002AFBD0C170FFF724FB10BD08B5B2
:106FE00032490120C863002350223149082007F0AC
:106FF00089FD002810D1694600900870684660DF5E
:10700000002809D12B4807F09AFD002804D12A480E
:1070100007F09DFD002803D003F0B0FBFFF7B3FE9F
:1070200008BD10B540DF002803D003F0A7FBFFF731
:10703000AAFE10BD10B50246082903D003F09EFB3E
:10704000FFF7A1FE11685068884710BD08B5684673
:1070500006F01FFD002819D10098002804D012491D
:1070600001200F39087008BD02220021052000F020
:1070700011F803220021104600F00CF80322002131
:10708000042000F007F834DF0028ECD003F076FB92
:10709000FFF779FE120489000A430849800040186E
:1070A0000260704725680100132000204000004066
:1070B0005C28002047690100796901000007005041
:1070C000FFB585B09646844600287CD000297AD04A
:1070D000002A78D00898002875D000252E4601E1B6
:1070E00070006246135AFA4A03939A1804922A2AA5
:1070F00001D31846F0E0002E14D04A1EB24218D137
:1071000060442038C48B03204002201AFF282ED967
:10711000F0482018AF282AD9EF4820188F2826D900
:10712000002424E060464388032000244002181A0B
:1071300013E060440246203AD48B03277F02E21B0F
:10714000FF2A08D9E34AA218AF2A04D9E24AA218B2
:107150008F2A00D900244388D81BFF2808D9DD488E
:107160001818AF2804D9DC4818188F2800D9002334
:10717000DA4F0398B8423AD1D8482238834208D02F
:10718000401C834205D0801C834202D0801C834275
:107190002DD1002007460090D1487A00805AA042A5
:1071A00002D10120009002E07F1C182FF4D3C84ABE
:1071B0000020521E9A180CD0012A05D0032A05D0AF
:1071C000052A06D104E092E0012002E0022000E05E
:1071D0000320C34A80007832821800986B00400078
:1071E000125A6D1C7046C252ADB2B61C7AE0002035
:1071F000C04302902046184301D103200290002C86
:107200001ED0002B10D10027B5487A00805AA0422A
:1072100002D10020029003E07F1CFFB2182FF3D3AD
:10722000002C0DD0002B44D0002001900746009088
:10723000AB487A00805AA04212D10120019013E09D
:10724000002B36D0A64C002030344700E25B9A4237
:1072500001D101203DE0401CC0B22428F5D328E034
:107260007F1CFFB2182FE3D39D4C00203034470021
:10727000E25B9A4202D10120009003E0401CC0B2C0
:107280002428F4D3009A0198104301D1401E0290A3
:107290000198012802D0002807D00AE0002A01D175
:1072A00000200290012A13D003E0012A01D101201D
:1072B0000290029803280ED804988A4A0006400DCE
:1072C000821802984000125A6B007046C25206E0C3
:1072D00002200290F0E703986B007246D0526D1CBA
:1072E000ADB2761C8E4200D2FAE60898058009B04D
:1072F000F0BDF0B5FF24E5B091342146684609F0B1
:10730000EEFE2146784809F0EAFE0024774F254634
:107310007E1C0BE0690068460918301904F02FFD47
:10732000002811D06D1C2018ADB284B23878A0426C
:10733000F0D86F4B6C4A29466846FFF7C1FE6D488E
:107340006949C16065B0F0BD641CA4B2EEE7F8B550
:1073500066480025441C0178401C0E182F4617E093
:10736000684607806946204604F009FD68460088A3
:1073700003214902411AFF2907D956494118AF296B
:1073800003D9554940188F2801D8012502E0641C13
:10739000B442E5D32846F8BDF0B5564C93B000266C
:1073A000268255481090FF3001300F90684686863F
:1073B000A568002D77D02068002874D04B4801784C
:1073C000401C0F1804F0B7FC00286AD063E00DA938
:1073D000284604F0D4FC0C9000280FD068460672B2
:1073E00002AA03A9808E04F0F9FC002851D0684657
:1073F000007B102804D020281DD04AE06D1C4AE0F4
:10740000208AFF2108300131884201D9A56044E07B
:10741000208203A908220131109809F047FE05A92E
:10742000082201310F9809F041FE109808301090A1
:107430000F9808302CE0208AF82801D078280FD146
:10744000083020820821109809F049FE08210F9881
:1074500009F045FE1098083010900F9808300F90F2
:10746000208AFF21103001318842CFD8208203A921
:1074700010220131109809F019FE07A910220131DC
:107480000F9809F013FE1098103010900F981030DC
:107490000F900C982D18BD4299D304F05DFCBD42AD
:1074A00001D3A660266013B0F0BDF0B5FFB0114D5A
:1074B00096B000202882E81FF93813900024EE6867
:1074C0001294009404F037FC002817D00027A5E0A0
:1074D000DFF9FFFFB004FFFF9001FFFF440600004B
:1074E000F8180200A8170200862D0020742A002038
:1074F00088200020402D0020402B00200020E86044
:1075000028607FB016B0F0BD00200D90308801904B
:10751000202801D101200D90002069460872242105
:1075200003A809F0DCFD02AA03A9019804F056FCA7
:10753000002871D0A44968460968007B02296BD1F4
:107540006946097A00290D9902D0012902D004E088
:10755000012961D100211291009140080190802001
:107560000D906868012801D00D9801E061200D9010
:10757000844219D2019821180D98814214D30099A0
:10758000401A9249488012984000301AE86014A8C6
:107590000019009909F0A3FD54A80019009909F0F9
:1075A0009EFD002000901290884801994088201A82
:1075B00042180D998A4213DB884211DA1298400072
:1075C000301AE86000980099201A84B214A80019B3
:1075D00009F085FD54A80019009909F080FD22E00A
:1075E00003A914A801310019019A09F05FFD01985F
:1075F00003A9401C411854A80019019A09F056FD2E
:1076000001980199201884B20098401880B2009027
:107610001298401C80B21290B61C7F1C6B48808868
:10762000874200DA70E704F097FB00222A82641E8A
:10763000674B20B254AE13990BE014AC245C1C7061
:10764000345C0C702C8A5B1C641C491C401E2C8210
:1076500000B20028F1DA5D488088874200D050E708
:10766000EA602A604DE770B55A4800250078574C0B
:10767000002800D02570E068102800D3E560E0689D
:107680005549C00040182178002911D02178491EA1
:107690002170E268A168914201D0E168A1600068B0
:1076A000804701210022C903206906F005FF70BD53
:1076B00000F048FD00F0E9FDE0680928F7D2E56038
:1076C00070BD424810B5454A0021103006F0ADFEAD
:1076D000002801D0002010BD3C480021C16001708D
:1076E000012010BD70B505463A480078002820D129
:1076F000364CE068102801D30020E060206906F0D5
:1077000045FFE0683449C0004618284602F097FC5F
:10771000002802D171682846884700F0B3FD002890
:1077200001D100F09EFD656100222D49206906F01F
:10773000C3FE70BD10B5FFF70AFE002804D0012873
:1077400001D1FFF7B2FE10BDFFF726FE10BD38B520
:1077500024484068002821D04B24E400012802D0AE
:1077600002281FD10AE005210A2004F0C9FC0920E3
:107770000322642100902346C82009E005210A2045
:1077800004F0BEFC02200246642100902346084615
:1077900000F0EFFD0720FFF7A5FF38BD04F0ECFC7B
:1077A00000F041FE012064210090322302220846AD
:1077B00000F0DFFD0221052004F0A2FCEAE7094801
:1077C0000021016081607047FC210020842000209E
:1077D000402B00200A2000202817020067760100B5
:1077E000CD0C0000402D0020F8B50C214843E74E99
:1077F000074680190090017901242046E44D884015
:10780000E860F15D20468840A8602046FEF762FCF3
:107810000098017920468840A860E861F05D8440C6
:10782000EC61F8BD70B50C22D84E5043821901238B
:1078300055681C46D64AAC409461305C8340D360A6
:1078400080200E46064201D0946000E0D46000BF64
:1078500000BF00BF00BF936000BF00BF00BF00BFFC
:10786000D3604008EDD1D461936000BF00BF00BF7A
:1078700000BF1069D360E840C007C017401C946186
:1078800070BDF3B504460C204443C04800252718BA
:107890003A7901239340BE4A81B0D3618026BB4828
:1078A0000121005D8140BA48816000BF00BF00BF78
:1078B00000BF02693B79DA40D20701D03543EDB20F
:1078C000C1600120FEF706FC00BF00BF00BF00BF83
:1078D0007608E4D13A79012108469040AC4AAB4B96
:1078E0009061029E002E01D0D06000E0906000BF49
:1078F00000BF00BF00BF185D8140916000BF00BFA6
:1079000000BF00BFD1602846FEBDF8B59F4E0027DE
:10791000377218203060172070609F499D480862B8
:10792000C86101249A4D2006A861A8604010E86152
:107930002046FEF7CFFB28697168C840C00718D100
:1079400020468840A861317820468840E8600120C0
:10795000FEF7C0FB00BF00BF00BF00BF307821466C
:107960008140A9600120FEF7B5FB7F1CFFB2092F03
:10797000E9D3317820468840A860A8613179204653
:107980008840A860A861002030750D20F0600C20B0
:10799000814930617F4840394863086301204003D2
:1079A000A861A8604010E8610120FEF793FB2969F7
:1079B0003069C140C90719D121468140A96100271A
:1079C000317B20468840E8600120FEF783FB00BF42
:1079D00000BF00BF00BF307B21468140A96001206D
:1079E000FEF778FB7F1CFFB2092FE9D3317B2046DD
:1079F0008840A860A861317C20468840A860A861C2
:107A000062490020203108700820B06109206249D5
:107A1000F0616048403908624862FF200130A86187
:107A2000A8604000E8610120FEF754FB2969F06975
:107A3000C140C90719D121468140A9610027317E83
:107A400020468840E8600120FEF744FB00BF00BFED
:107A500000BF00BF307E21468140A9600120FEF7B3
:107A600039FB7F1CFFB2092FE9D3317E20468840C5
:107A7000A860A861307F8440AC60AC61F8BDFFB500
:107A800081B01C46150013D001980C2148433F4992
:107A9000012247183A72019800F054F802990198AF
:107AA000FFF7C0FE060023D00298C0070BD118E0F4
:107AB000012005B0F0BD002C0BD001210198FFF78B
:107AC000E0FE28706D1C2046641EE4B20028F2D14E
:107AD0000EE00021F2E729780198FFF7A3FE0640A7
:107AE0006D1C2046641EE4B2002801D0002EF2D1A5
:107AF0000A983146814302D10198FFF775FE0020B4
:107B000038723046D5E7FFB5012481B01F461546CF
:107B10000E46002907D10120CBE731780198FFF705
:107B200081FE0440761C28466D1EEDB2002801D06F
:107B3000002CF2D12046B84302D10198FFF754FE41
:107B40002046B6E7F8B50C214843104E0746801989
:107B5000009001790124204688400D4D0146A8611E
:107B6000F25D20469040A861A960A8602046FEF71B
:107B7000B1FA0098017920468840E8600120FEF7BC
:107B8000A9FAF05D8440EC60F8BD0000182F0020D9
:107B9000000500500C0600004007005010B54D4A8B
:107BA0009368002B0BD004780A46806821469847DA
:107BB000002803D048A21A21FEF74CFB10BD022971
:107BC00008D001290CD00329F8D102788368104627
:107BD000984710BD0378826802211846904710BD6F
:107BE000027801218368F2E7F3B5002481B00F46E3
:107BF0000125384E28E00C20716860434018417818
:107C0000022904D0012909D003290FD01AE00178F4
:107C10002A468A403A4215D0022111E002782946CC
:107C20009140019A11420DD0012109E002782946C4
:107C300091400A463A4202D1019A114202D00321F0
:107C4000FFF7ACFF641CE4B230788442D3D3FEBDAE
:107C5000F8B5204B154658600024197022469D60E7
:107C600016E00C234B431B181E785D68B7001F4EAF
:107C7000AD00BE1935605D78AE0703D51F780126CB
:107C8000BE403243ED0703D01D780123AB401C43B7
:107C90000B46491EC9B2002BE3D10E48144B2146B6
:107CA000401C08F086F9F8BD10B50A484168002963
:107CB00003D0407808F0A0F910BD082010BD10B521
:107CC00004484168002903D0407808F0D6F910BD77
:107CD000082010BD9C2000202E2E5C68616C5C6129
:107CE00070705F696E7470696E2E630000070050DB
:107CF000E97B01003EB5002469460C70EE48019412
:107D000002940078002819D1EC480078032815D097
:107D1000084600F036FC0DE001A800F051FC6B466F
:107D20000822062104209A5E595E185E08F00BFBBB
:107D3000641CE4B2684600788442EDD33EBD70B561
:107D4000DF4C01216078DF4D4840607029680029D0
:107D500001D0002819D0FFF7CDFF6078002814D09B
:107D60006068401C606003F019F8D3480078002870
:107D70000BD1D2480078032807D009F06BF82968A6
:107D8000002902D1C0B202F0B4FD70BD10B5CC49DB
:107D900000204860CA48CC4A01210C3006F045FB5F
:107DA000002801D0002010BD012010BD10B5C4482E
:107DB000012100228903C06806F07EFB002801D063
:107DC000002010BD012010BD10B5BD48C06806F0F0
:107DD000DDFB002801D0002010BD012010BDB849F6
:107DE00048607047B64840687047B54910B50822EA
:107DF000103109F05BF910BD0146B14810B50822F9
:107E0000103009F053F910BDF8B5AD481030C778FF
:107E100004797F1CC688002C1CD0012C1AD0642148
:107E2000304609F0E9F8C5B264206843301AC6B29A
:107E3000A41C1A2060430A2109F0DEF8B208921946
:107E4000AB08D2186B00C0B2D21AF9B210184018A1
:107E5000801E10E0701E642109F0E4F8C5B26420B1
:107E60006843301A401EC6B220460E301A214843DD
:107E7000E1E7C01D00B20028FBDB072109F0D2F8C2
:107E80000620401A8E49C0B20870F8BD8C480078B0
:107E90007047F7B50C4682B000278C4909F0ACF862
:107EA0000D4606463C21284609F0A6F82170E1213E
:107EB0000901284609F0A0F8054608463C2109F0CA
:107EC0009BF86070A5707D200001B5B2E08010E0E5
:107ED0000099002924D06421304609F08DF800294A
:107EE00001D0B0071CD0FF206E30281A761C85B256
:107EF000E680E088FF210646913109F07DF8009187
:107F0000002910D06421304609F076F8002901D00C
:107F1000B00708D0FF206E30A842D9D900201DE05C
:107F2000FF206F30E1E7FF206F30F5E7E088FF21A9
:107F30000646913109F060F8002953D0642130469B
:107F400009F05AF8002901D0B0074BD00020217960
:107F500000F0A2F8281A85B22079401C2071E08830
:107F6000FF210646913109F047F800293CD06421F1
:107F7000304609F041F8002901D0B00734D0002084
:107F8000217900F089F8A842D0D9E9B2E1700498CB
:107F9000002825D04A481030C278914207D1217973
:107FA0000279914203D1E188C288914200D007272B
:107FB000A1788078814201D00320074360780521B1
:107FC00009F01AF83E494A88904202D048800120C0
:107FD00007438F603A4808222146103009F066F8BE
:107FE00005B0F0BD0120B2E70120C9E734498A6835
:107FF000002801D00020886010467047F8B504467C
:1080000080783C2148436178E57840183C2148431A
:10801000217846180427E75716E0E088FF219131C0
:10802000009008F0E9FF002916D06421009808F0BC
:10803000E3FF002902D0009880070DD00020F9B29C
:1080400000F02AF8401985B27F1E7FB2002FE4DAD3
:108050007D27E4883F0114E00120F0E7FF21913102
:10806000204608F0C9FF002913D06421204608F0FB
:10807000C3FF002901D0A0070BD0FF206E304019AC
:1080800085B2641EA4B2BC42E8D210484543A81988
:10809000F8BDFF206F30F2E702461F20012907D00C
:1080A000062901D9491EC9B2C90700D01E20704750
:1080B0001C32D0B2704700000A2000200C200020A3
:1080C000A8200020242000203F7D010080510100D5
:1080D0001CB5002269460A714871012000900223F4
:1080E00001AA78210020FFF7CAFC002800D0012057
:1080F0001CBD7CB50C460546402069460871002031
:10810000012301AA78210090FFF7B9FC0123224640
:1081100029460020FFF7F7FC002800D001207CBD95
:1081200010B50446B031C8B2FFF7D2FF0020FFF708
:10813000CFFF1020FFF7CCFF80212046FFF7D9FFAB
:10814000012010BD00B5A1B08021684608F0C7FF2E
:1081500000216846FFF7E4FF01216846FFF7E0FFD2
:1081600002216846FFF7DCFF03216846FFF7D8FFCE
:1081700021B000BD10B5AE20FFF7AAFF0020FFF729
:10818000A7FF1020FFF7A4FF0020FFF7A1FFB020FA
:10819000FFF79EFF8120FFF79BFFFF20FFF798FF6F
:1081A000A120FFF795FFA620FFF792FFA820FFF779
:1081B0008FFF1F20FFF78CFFC820FFF789FFD32018
:1081C000FFF786FF0020FFF783FFD520FFF780FF32
:1081D0008020FFF77DFFD920FFF77AFF0420FFF70B
:1081E00077FFDA20FFF774FF0220FFF771FFDB2033
:1081F000FFF76EFF3020FFF76BFF8D20FFF768FF62
:108200001420FFF765FFA420FFF762FFFFF79AFF36
:108210001E2000F04CF801202A498007C860012088
:1082200010BD10B5192000F042F8192000F045F8F3
:108230000A20FDF75FFF012022494006C8600A209E
:10824000FDF758FF1E2000F032F81E2000F035F830
:10825000642007F0FDFD192000F02FF8FFF78AFFDA
:1082600010BD10B5AF20FFF733FF642007F0F0FD1D
:108270001E2000F01CF81E2000F01FF812490120FB
:10828000087010BD10480078704710B5AE20FFF799
:108290001FFFFFF757FF0C49002008701E2000F059
:1082A00006F8012007498007C860012010BD074A71
:1082B000032180008018016070470121814001483E
:1082C0008160704700050050C0200020000700506A
:1082D000F8B5644E306806F059F9634C351D607A84
:1082E000E9790027884209D3604C032020601D20D3
:1082F00000F0B2F804202060EF71F8BD0120226880
:108300004107002A0ED06268012A0FD0227A521C3F
:10831000D2B22272AB799A4212D260605448816024
:10832000298808E0206060602772F7E71D206760F9
:1083300000F092F869880022306806F0BDF8F8BDB8
:108340002760A9880022306806F0B6F8607A401CE1
:108350006072F8BD10B5454904200860454A002107
:10836000404806F062F8002801D0002010BD01202E
:1083700010BDF8B50C4606463F48404900780978DC
:108380001D46174608424DD136490020091DC871C7
:108390003649032008601D2000F05EF8314800686F
:1083A00006F0F4F8322E00D23226322C00D23224DB
:1083B000002F00D10127322D00D23225FF23710C6E
:1083C000F003F5330022C01851415A00002308F091
:1083D0003DFE244EFF23361D3080610CE003F53353
:1083E0000022C01851415A00002308F02FFE70806F
:1083F000FF23690CE803F5330022C01851415A00ED
:10840000B771002308F022FEB0800698F07116497B
:1084100000200860486088600246301F32210068F2
:1084200006F04AF8F8BD10B50E48006806F0AEF840
:108430000C490020091DC8710C4C032020601D2030
:1084400000F00AF80420206010BD0648001DC07925
:10845000002800D001207047012181400448C160FC
:1084600070470000C4200020482F002074070050EF
:1084700000050050D18201000B20002009200020BF
:108480001CB5202168460171472141710124022356
:1084900001AA322120460094FFF7F1FA002838D0D3
:1084A00023216846017108214171022301AA32216A
:1084B00001200094FFF7E3FA00282AD0242168461F
:1084C000017140214171022301AA3221012000944F
:1084D000FFF7D5FA00281CD025216846017100213C
:1084E0004171022301AA322101200094FFF7C7FA4B
:1084F00000280ED02E216846017199214171022376
:1085000001AA322101200094FFF7B9FA002800D017
:1085100001201CBD10B5FFF7B3FF00F00EF90120DC
:1085200010BD1CB50F206946087100200123009082
:1085300001AA32211846FFF7A2FA00280DD0012027
:10854000034601AA33210090FFF799FA002804D0CE
:1085500068460079332801D000201CBD01201CBDD5
:108560001CB52021684601710821417101200223B8
:1085700001AA32210090FFF782FA002800D00120E2
:108580001CBD1CB504462F2069460871002001233C
:10859000009001AA32211846FFF771FA00280ED088
:1085A0000120034601AA33210090FFF768FA002852
:1085B00005D068460079C006C00E207001201CBDA1
:1085C0003EB50446A82069460871002001230090AA
:1085D00001AA32211846FFF752FA002818D00120CC
:1085E000062301AA33210090FFF749FA00280FD093
:1085F00068460421415E0811208068460621415EDC
:108600000811608068460821415E0811A0800120A1
:108610003EBD1CB539206946087100200123009039
:1086200001AA32211846FFF72AFA00280ED00120AD
:10863000034601AA33210090FFF721FA002805D054
:10864000684600795121084000D001201CBD1CB5AE
:108650003A2269460A7148710120022301AA322197
:108660000090FFF70CFA002800D001201CBD1CB5BB
:1086700038246B461C7100245C710123002801D052
:1086800068464371002905D06946487904210843AA
:1086900069464871002A05D0694648791021084387
:1086A000694648710093022301AA32210120FFF795
:1086B000E6F9002800D001201CBD1CB52021684629
:1086C0000171472141710124022301AA3221204670
:1086D0000094FFF7D4F900280ED02E2168460171CE
:1086E00099214171022301AA322101200094FFF750
:1086F000C6F9002800D001201CBD1CB52021684609
:108700000171272141710124022301AA322120464F
:108710000094FFF7B4F900280ED02E2168460171AD
:108720009F214171022301AA322101200094FFF709
:10873000A6F9002800D001201CBD1CB532216846D6
:108740000171362141710124022301AA3221204600
:108750000094FFF794F900281BD03321684601717B
:108760004471022301AA322101200094FFF787F906
:1087700000280ED03021684601717F21417102230B
:1087800001AA322101200094FFF779F9002800D0D6
:1087900001201CBDFFB581B000283ED00299002900
:1087A0003BD00399002938D00499002935D0FF4ED9
:1087B00080247168012900D16124318AFC4DA142D5
:1087C00009D2CCB2E91F621EF93908F06FFC621EB3
:1087D000294602981FE0F74A4D198F18F6490A8872
:1087E000B91A08F063FCF44802880298A91A08F044
:1087F0005DFCF148327C0088391A2D1A101AC6B275
:10880000A64200D92646891B3246039808F04EFC42
:10881000A91B3246049808F049FC05B0F0BDF0B53C
:10882000FFB0002588B02C46FFF7DCFA002201A932
:10883000FFF72FFB6846007A0C280BD26846C079F8
:108840001F2807D2684680793C2803D268464079C1
:108850003C2804D3D9A2DF490020FDF7FBFC80218E
:1088600046A808F03CFC802166A808F038FC80216E
:1088700006A808F034FC802126A808F030FCD64871
:10888000C078002806D0684680790C2802D90C38B8
:108890006946887100200390049068464379827984
:1088A000CEA103A808F09AFC03A808F023FCC7B2E5
:1088B0002CE003A8405D3A284DD03038C0B21321D7
:1088C0008600C9480091815946A80019009A08F00D
:1088D000EDFBC548009A3430815966A8001908F0AC
:1088E000E5FBC148009A6830815906A8001908F0D4
:1088F000DDFBBD48009A9C30815926A8001908F07C
:10890000D5FB009820186D1CC4B2EDB2BD42D0D387
:10891000B6481EAF01685EA8013005903EAE8030BB
:10892000013701360090002918D01F22B049059860
:1089300008F0BCFBAE491F221F39009808F0B6FBB7
:10894000AB491F223E39384608F0B0FBA8491F2228
:108950005D39304668E00A200C21B1E7662501F058
:1089600010FC502801D3052410E03C2801D3042436
:108970000CE0282801D3032408E0142801D30224A2
:1089800004E0022801D3012400E000249948007883
:10899000002820D01F229849384608F087FB9649C6
:1089A0001F221F39304608F081FB002626AF0FE05A
:1089B00006A840190422914908F078FB8F497819DC
:1089C0000422091D08F072FB2D1D761CEDB2F6B2D3
:1089D000A642EDD30BE088491F223E31384608F00D
:1089E00065FB85491F221F31304608F05FFB844834
:1089F00001888448814209D07F491F229B3905980C
:108A000008F054FB7C491F227C390CE07E4800684A
:108A100000280BD078491F225D39059808F046FBE5
:108A200075491F223E39009808F040FB002146A8F6
:108A3000FFF776FB012166A8FFF772FB022106A86B
:108A4000FFF76EFB032126A8FFF76AFB7FB008B093
:108A5000F0BDF8B506246D4D644F6D4E030008F06F
:108A6000D1FB091C0626303C1B1B1B421B002C7033
:108A7000FFF708FC00280FD0386800280CD15648B2
:108A80008079002806D05E485E490088884201D07F
:108A9000082000E005203060F8BD2C70FFF7F2FBE5
:108AA0000028F9D038680028F6D10220F3E72C70AE
:108AB000FFF7E8FB0028EFD038680028ECD1012050
:108AC000E9E72C70FFF7DEFB0028E5D038680028C6
:108AD000E2D0002008F041FAF8BDFFF7D3FB0028F0
:108AE000FAD12C70F8BD2C700C20D4E7F0B5FFB093
:108AF000002586B02C46FFF7C9F9FFF773F900226D
:108B000001A9FFF7C6F96846007A0C280BD268461F
:108B1000C0791F2807D2684680793C2803D268466E
:108B200040793C2805D3BD2124A2C9000020FDF7CF
:108B300091FB802145A808F0D2FA802165A808F0B1
:108B4000CEFA802105A808F0CAFA802125A808F0ED
:108B5000C6FA0020039004906846C379027A5B1C31
:108B6000521C2CA103A808F039FB03A808F0C2FA94
:108B7000C7B266E003A8405D2F287AD03038C0B273
:108B80001321860018480091815945A80019009AC0
:108B900008F08CFA1448009A3430815965A80019FD
:108BA00008F084FA10486830815939E0402D0020DF
:108BB000402C0020402B0020862000202E2E5C68B8
:108BC000616C5C6170705F646973705F7061676530
:108BD0002E630000350500003C2000202530326463
:108BE0003A25303264000000D020002024200020EC
:108BF000491D0200092000201923020080190200EB
:108C000014200020FFFF00002020002084200020EE
:108C100090200020253032642F253032640000007F
:108C200005A80019009A08F041FAFE48009A8159F7
:108C300025A8001908F03AFA009820186D1CC4B253
:108C4000EDB2BD4296D3FFF721F91DAB3DAC013328
:108C50000134002810D0012817D002281FD0032883
:108C600027D004282FD0052837D006283ED049E049
:108C7000FFE70B200C2184E71F22EB49184608F080
:108C800015FAE9491F221F3139E0E7491F223E3911
:108C9000184608F00BFAE4491F221F392FE0E24979
:108CA0001F227C39184608F001FADF491F225D397E
:108CB00025E0DD491F22BA39184608F0F7F9DA49EC
:108CC0001F229B391BE0D8491F22F839184608F0AB
:108CD000EDF9D5491F22D93911E01F22D349184691
:108CE00008F0E4F9D1491F221F3108E0CF491F22C3
:108CF0003E39184608F0DAF9CC491F221F392046C0
:108D000008F0D4F9002145A8FFF70AFA012165A867
:108D1000FFF706FA022105A8FFF702FA032125A8AA
:108D2000FFF7FEF97FB006B0F0BDF8B500270625C5
:108D3000BF4EC04C030008F065FA051704291E2534
:108D400016003570FFF79EFA00280CD0BA488079DB
:108D5000002806D0B948BA490088884201D00820C6
:108D600000E005202060F8BD3570FFF78BFA002881
:108D7000F9D00220F6E73570FFF784FA0028F2D127
:108D80002760F8BDFFF77EFA0028FAD13570F7E7C3
:108D9000F0B5FFB08CB0002580210BA808F09FF93A
:108DA00080212BA808F09BF980214BA808F097F9A7
:108DB00080216BA808F093F9684601F01DFF0020A0
:108DC000059004909FA104A8009A08F007FA04A84F
:108DD00008F090F9C6B2052E00D905260520801BA3
:108DE000132148431F30C4B227E004A8405D13227A
:108DF00030380006870D8B489C38C1590BA80019E4
:108E000008F054F9874813226838C1592BA8001973
:108E100008F04CF9834813223438C1594BA8001983
:108E200008F044F97F481322C1596BA8001908F0D3
:108E30003DF913346D1CE4B2EDB2B542D5D31F2217
:108E400081490BA808F032F97F491F221F392BA84E
:108E500008F02CF97C491F223E394BA808F026F96E
:108E600079491F225D396BA808F020F900210BA871
:108E7000FFF756F901212BA8FFF752F902214BA861
:108E8000FFF74EF903216BA8FFF74AF97FB00CB04A
:108E9000F0BDF8B500270624654D664E030008F0C6
:108EA000B1F905041E0B131A12002C70FFF7EAF932
:108EB000002808D0052005E02C70FFF7E3F9002812
:108EC00001D003203060F8BD2C70FFF7DBF90028DB
:108ED000F9D13760F8BDFFF7D5F90028FAD12C7029
:108EE000F7E7F0B5FFB08EB0002680210DA808F09E
:108EF000F6F880212DA808F0F2F880214DA808F09E
:108F0000EEF880216DA808F0EAF8684601F074FEDA
:108F100000200490059048488078012801981CD0D2
:108F20007D21C90008F068F80A21019008F064F872
:108F300082B20B0013D045A104A808F04FF904A891
:108F400008F0D8F8C5B2052D00D905250520401B2D
:108F5000132148431F30C4B20CE03E49E2E739A177
:108F600004A808F03BF9EAE704A8805D2E2805D0A4
:108F7000761CF6B2AE42F7D300262FE0E41DE4B231
:108F8000FAE704A8805D2E2871D03038C0B21321D2
:108F9000870024480B919C38C1590DA80019132251
:108FA00008F084F81F4813226838C1592DA8001909
:108FB00008F07CF81B4813223438C1594DA8001919
:108FC00008F074F817481322C1596DA8001908F069
:108FD0006DF80B982018761CC4B2F6B2AE42D0D30E
:108FE00019491F227C310DA808F060F816491F228C
:108FF0005D312DA808F05AF813491F223E314DA8C3
:1090000008F054F810491F221F316DA808F04EF8DF
:1090100000210DA8FFF784F801212DA8FFF780F8A3
:1090200002211AE06C210020EA240200B42302008D
:1090300084200020902000203C20002014200020CC
:10904000FFFF000025640000DD1A020025642E25C4
:10905000640000004906000009E04DA8FFF760F831
:1090600003216DA8FFF75CF87FB00EB0F0BD0C20B7
:1090700001468DE7F8B500270624F74DF74E0300AB
:1090800008F0C0F805041E0B131A12002C70FFF72D
:10909000F9F8002808D0052005E02C70FFF7F2F859
:1090A000002801D004203060F8BD2C70FFF7EAF8EA
:1090B0000028F9D13760F8BDFFF7E4F80028FAD1AD
:1090C0002C70F7E7F0B5FFB08CB0002580210BA81D
:1090D00008F005F880212BA808F001F880214BA8A2
:1090E00007F0FDFF80216BA807F0F9FF684601F04B
:1090F00083FD0020049005900A21029807F07CFF70
:109100000246D7A104A808F069F804A807F0F2FF06
:10911000C6B2052E00D905260520801B1321484321
:109120001F30C4B227E004A8405D13223038000687
:10913000870DCC48C1590BA8001907F0B7FFC948E3
:1091400013223430C1592BA8001907F0AFFFC548CE
:1091500013226830C1594BA8001907F0A7FFC14876
:1091600013229C30C1596BA8001907F09FFF1334DC
:109170006D1CE4B2EDB2B542D5D31F22BA490BA89B
:1091800007F094FFB8491F221F392BA807F08EFF64
:10919000B5491F223E394BA807F088FFB2491F226C
:1091A0005D396BA807F082FF00210BA8FEF7B8FF1E
:1091B00001212BA8FEF7B4FF02214BA8FEF7B0FF58
:1091C00003216BA8FEF7ACFF60E6F8B50027062484
:1091D000A14DA24E030008F015F805041E0B131A4A
:1091E00012002C70FFF74EF8002808D0052005E08B
:1091F0002C70FFF747F8002801D002203060F8BD3E
:109200002C70FFF73FF80028F9D13760F8BDFFF761
:1092100039F80028FAD12C70F7E700B5FFB082B01A
:109220008021684607F05BFF802120A807F057FFE8
:10923000802140A807F053FF802160A807F04FFF6E
:109240000CA81F22894907F031FF88492CA81F224A
:109250001F3907F02BFF85494CA81F223E3907F024
:1092600025FF82496CA81F225D3907F01FFF0021EE
:109270006846FEF755FF012120A8FEF751FF0221A5
:1092800040A8FEF74DFF032160A8FEF749FF7FB01D
:1092900002B000BDF8B500276F4E704C06250300E4
:1092A00007F0B0FF050B041E2C361B003570FEF7CF
:1092B000E9FF002811D002200EE03570FEF7E2FF32
:1092C00000280AD06A488079002807D069480188B8
:1092D0006948814202D008202060F8BD2760F8BDAF
:1092E0003570FEF7CFFF0028F9D062480188624848
:1092F000814201D02560F8BD0720EDE73570276079
:10930000FEF7C0FF0028F6D0012007F026FEF8BDCA
:10931000FEF7B8FF0028FAD13570DFE770B5FFB06F
:1093200081B08021684607F0DAFE802120A807F08E
:10933000D6FE802140A807F0D2FE802160A807F069
:10934000CEFE4C484C4A01880CA82CAE4CAD6CACFF
:10935000914215D045491F227C3107F0A7FE4349B1
:1093600030461F225D3107F0A1FE404928461F22EA
:109370003E3107F09BFE3D491F2220461F3114E07D
:109380003A491F22F83107F091FE384930461F2232
:10939000D93107F08BFE354928461F22BA3107F034
:1093A00085FE324920461F229B3107F07FFE0021B7
:1093B0006846FEF7B5FE012120A8FEF7B1FE0221A6
:1093C00040A8FEF7ADFE032160A8FEF7A9FE7FB01E
:1093D00001B070BDF8B5002706241F4D1F4E0300D5
:1093E00007F010FF050B041E25331B002C70FEF741
:1093F00049FF002811D002200EE02C70FEF742FF3A
:1094000000280AD01A488079002807D01948018816
:109410001948814202D008203060F8BD3760F8BD9D
:109420002C70FEF72FFF0028F9D00720F4E72C70EE
:10943000FEF728FF0028F2D00E4801880E4881422E
:10944000EDD00220FDF789F8F8BDFEF71BFF0028DC
:10945000FAD12C70E2E70000842000209020002048
:1094600025640000D0200020D51B0200491D020009
:109470003C20002014200020FFFF000000B5FFB0BA
:1094800082B08021684607F02AFE802120A807F0DC
:1094900026FE802140A807F022FE802160A807F068
:1094A0001EFE0CA81F22FD4907F000FEFB492CA858
:1094B0001F221F3907F0FAFDF8494CA81F223E3938
:1094C00007F0F4FDF5496CA81F225D3907F0EEFDA9
:1094D00000216846FEF724FE012120A8FEF720FEA9
:1094E000022140A8FEF71CFE032160A8FEF718FE2B
:1094F000CDE6F8B500270624E94DEA4E030007F053
:1095000081FE050B041E252D1B002C70FEF7BAFEF4
:10951000002811D002200EE02C70FEF7B3FE0028C8
:109520000AD0E1488079002807D0E048E049008867
:10953000884202D008203060F8BD3760F8BD2C703A
:10954000FEF7A0FE0028F9D00520F4E72C70FEF706
:1095500099FE0028F2D0FCF7D6FEF8BDFEF792FE89
:109560000028FAD12C70E8E770B5FFB081B08021F7
:10957000684607F0B4FD802120A807F0B0FD8021E7
:1095800040A807F0ACFD802160A807F0A8FDC748FF
:10959000C74A01880CA82CAE4CAD6CAC914215D0DA
:1095A000BE491F227C3107F081FDBC4930461F2295
:1095B0005D3107F07BFDB94928461F223E3107F097
:1095C00075FDB6491F2220461F3114E0B3491F2202
:1095D000F83107F06BFDB14930461F22D93107F051
:1095E00065FDAE4928461F22BA3107F05FFDAB4941
:1095F00020461F229B3107F059FD00216846FEF7E7
:109600008FFD012120A8FEF78BFD022140A8FEF767
:1096100087FD032160A8FEF783FDD8E6F8B5002793
:1096200006249F4D9F4E030007F0ECFD050C040F30
:109630000F1D0B002C70FEF725FE002801D0052021
:109640003060F8BD2C703760F8BD2C70FEF71AFE44
:109650000028F9D09548964900888842F4D0052022
:10966000FCF77BFFF8BDFEF70DFE0028EAD0F8BD41
:10967000F0B5FFB086B00025FEF7B4FB002201A9CB
:10968000FEF707FC6846007A0C280BD26846C079C2
:109690001F2807D2684680793C2803D26846407963
:1096A0003C2804D3834A84490020FCF7D3FD802161
:1096B00005A807F014FD802125A807F010FD8021E2
:1096C00045A807F00CFD802165A807F008FD764845
:1096D000C078002806D0684680790C2802D90C385A
:1096E0006946887100200390049068467149437967
:1096F0008279203103A807F071FD03A807F0FAFC76
:10970000C7B21F242CE003A8405D3A2854D030385B
:10971000C0B21321860069480091815905A800193B
:10972000009A07F0C3FC6548009A3430815925A897
:10973000001907F0BBFC6148009A6830815945A8C0
:10974000001907F0B3FC5D48009A9C30815965A868
:10975000001907F0ABFC009820186D1CC4B2EDB2E4
:10976000BD42D0D31F22564905A807F09FFC54499B
:109770001F221F3925A807F099FC51491F223E39A5
:1097800045A807F093FC4E491F225D3965A807F0F4
:109790008DFC002105A8FEF7C3FC012125A8FEF7DA
:1097A000BFFC022145A8FEF7BBFC032165A8FEF71C
:1097B000B7FC7FB006B0F0BD0A200C21AAE7F8B5CF
:1097C0000624374D3F4F374E030007F01BFD0504BD
:1097D0000413131512002C70FEF754FD002808D056
:1097E0003878012801D0002000E00D20306000F022
:1097F00027FEF8BD2C70F8BDFEF744FD0028F9D017
:10980000F8BDF0B5FFB086B00025FEF7EBFA0022F8
:1098100001A9FEF73EFB6846007A0C280BD2684689
:10982000C0791F2807D2684680793C2803D2684651
:1098300040793C2805D320491E4A70310020FCF7AE
:1098400009FD802105A807F04AFC802125A807F022
:1098500046FC802145A807F042FC802165A807F05E
:109860003EFC1148C078002806D0684680790C2854
:1098700002D90C386946887100200390049068462C
:109880000C4943798279203103A807F0A7FC03A88B
:1098900007F030FCC7B21F2443E00000BD1E0200E9
:1098A00084200020902000203C2000201420002054
:1098B000FFFF0000BC8B01000A090000D02000203F
:1098C000E51902000C20002003A8405D3A2852D080
:1098D0003038C0B213218600FC480091815905A898
:1098E0000019009A07F0E2FBF848009A34308159D9
:1098F00025A8001907F0DAFBF448009A683081596E
:1099000045A8001907F0D2FBF048009A9C30815915
:1099100065A8001907F0CAFB009820186D1CC4B296
:10992000EDB2BD42D0D31F22E94905A807F0BEFB26
:10993000E7491F221F3925A807F0B8FBE4491F2279
:109940003E3945A807F0B2FBE1491F225D3965A801
:1099500007F0ACFB002105A8FEF7E2FB012125A8DA
:10996000FEF7DEFB022145A8FEF7DAFB032165A81E
:10997000FEF7D6FB1DE70A200C21ACE7F8B506245C
:10998000D44DD54FD54E030007F03CFC050404131D
:10999000131512002C70FEF775FC002808D03878DB
:1099A000012801D0002000E00D203060FEF73BFDD3
:1099B000F8BD2C70F8BDFEF765FC0028F9D0F8BDA5
:1099C000F0B5FFB084B0802102A807F088FB8021A9
:1099D00022A807F084FB802142A807F080FB8021A9
:1099E00062A807F07CFBBE4CE01FF938616801906B
:1099F000012902D0022957D09FE0FDF7A8FC010001
:109A0000BB4AB84FB84EB9486A446F446E44684484
:109A1000009219D0134632463946FEF7BBFE1F228C
:109A2000B44902A807F042FBB2491F221F3922A8FD
:109A300007F03CFBAF491F223E3942A807F036FB36
:109A4000AC491F225D3975E0258A602D08D82A4669
:109A5000A949384607F02AFB228A3046019920E0BE
:109A60006022A54907F022FB60223846019907F0E1
:109A70001DFBA1492A4608466030C71D603AF937E8
:109A8000602A06DD01466022304607F00FFB6022A7
:109A900005E00146304607F009FB228A603A394664
:109AA000009807F003FBBAE7208A00282DD0FDF7C5
:109AB0004EFC002806D062AB42AA22A902A8FEF7FB
:109AC00069FE3AE0208A8025411BCCB2802802D270
:109AD000C5B2002402E0802C00D980242A468649A1
:109AE00002A807F0E3FA2A4622A8019907F0DEFA55
:109AF00081492246803142A807F0D8FA78492246A7
:109B0000803962A807F0D2FA17E07A491F227C3127
:109B100002A807F0CBFA77491F225D3122A807F08F
:109B2000C5FA74491F223E3142A807F0BFFA7149B5
:109B30001F221F3162A807F0B9FA002102A8FEF720
:109B4000EFFA012122A8FEF7EBFA022142A8FEF764
:109B5000E7FA032162A8FEF7E3FA7FB004B0F0BD94
:109B6000F8B506265B4F5E4C5C4D002809D00128F5
:109B700007D0042804D1FEF785FB002800D13E70F1
:109B8000F8BD3E70FEF77EFB0028F9D06068012822
:109B900002D10920FCF7E1FC4F480078012801D0F0
:109BA000002000E00D202860FEF73DFCFDF707FED9
:109BB000F8BDF0B5FFB084B000252C46802102A886
:109BC00007F08DFA802122A807F089FA802142A8A7
:109BD00007F085FA802162A807F081FA0020009042
:109BE0000190464846A10288684607F0F7FA6846A1
:109BF00007F080FAC7B227E06846405D132230388C
:109C00000006860D3148815902A8001907F04EFA66
:109C10002E4813223430815922A8001907F046FA41
:109C20002A4813226830815942A8001907F03EFAE9
:109C3000264813229C30815962A8001907F036FA91
:109C400013346D1CE4B2EDB2BD42D5D32E482F4E75
:109C500004786E44A0070BD51AA81F222C490130A6
:109C600007F024FA2A491F221F31304607F01EFA56
:109C7000284DE0076D440BD01F222549284607F0E8
:109C800015FA23497AA81F221F31013007F00EFA76
:109C900060070AD51F221E49304607F007FA1C4903
:109CA0001F221F31284607F001FA002102A8FEF703
:109CB00037FA012122A8FEF733FA022142A8FEF763
:109CC0002FFA032162A8FEF72BFA46E7D0200020E6
:109CD000611A0200842000200C2000209020002027
:109CE000402D0020A70000002701000027000000F1
:109CF000A7010000511C0200402B0020162000206C
:109D000025303464000000000D200020E900000030
:109D10004022020069010000F8B500240625ED4E3E
:109D2000ED4F030007F06EFA05040404040B0A006B
:109D30003570FEF7A7FA002800D03C60F8BDFEF7AA
:109D4000A1FA0028FAD13570F7E700B5FFB082B06C
:109D50008021684607F0C3F9802120A807F0BFF9E9
:109D6000802140A807F0BBF9802160A807F0B7F96F
:109D70000CA81F22D94907F099F9D8492CA81F220D
:109D80001F3907F093F9D5494CA81F223E3907F037
:109D90008DF9D2496CA81F225D3907F087F900219F
:109DA0006846FEF7BDF9012120A8FEF7B9F90221A6
:109DB00040A8FEF7B5F9032160A8FEF7B1F97FB01E
:109DC00002B000BD70B501260C25C24C030007F09F
:109DD00019FA0C07070707100F0F0F0F0F0F160FB9
:109DE0002570FEF74FFA002802D03046FCF7B5FB8D
:109DF00070BDFEF747FA0028FAD1257070BD062025
:109E00002070B5490020086070BD00B5FFB082B079
:109E10008021684607F063F9802120A807F05FF9E8
:109E2000802140A807F05BF9802160A807F057F96E
:109E3000AA490CA81F227C3107F038F9A7492CA8A1
:109E40001F225D3107F032F9A4494CA81F223E3190
:109E500007F02CF9A1496CA81F221F3107F026F941
:109E600000216846FEF75CF9012120A8FEF758F9A9
:109E7000022140A8FEF754F9032160A8FEF750F92B
:109E80009DE770B50C25934C032827D00CDC0028E7
:109E90001BD0012812D002280FD12570FEF7F2F94D
:109EA00000280AD0012016E004281ED00D2804D175
:109EB0000620207088490020086070BD2570FEF7DC
:109EC000E1F90028F9D00B2005E02570FEF7DAF95A
:109ED0000028F2D00A20FCF740FB70BD2570FEF789
:109EE000D1F90028F9D00720F5E7FEF7CBF90028D3
:109EF000F3D1257070BD70B5FFB081B08021684688
:109F000007F0EDF8802120A807F0E9F8802140A8AB
:109F100007F0E5F8802160A807F0E1F87048714A81
:109F200001880CA82CAE4CAD6CAC914242D06E496D
:109F30000978022928D01F226C4907F0B7F86B492D
:109F400030461F221F3907F0B1F8684928461F2202
:109F50003E3907F0ABF8654920461F225D3907F00E
:109F6000A5F800216846FEF7DBF8012120A8FEF7DE
:109F7000D7F8022140A8FEF7D3F8032160A8FEF726
:109F8000CFF87FB001B070BD58491F227C3907F06F
:109F90008DF8564930461F229B3907F087F84F4904
:109FA00028461F22BA3107F081F84C491F2220466B
:109FB0009B31D4E74D491F227C3107F077F84B499C
:109FC00030461F225D3107F071F8484928461F22AC
:109FD0003E3107F06BF845491F2220461F31BEE78E
:109FE00070B541490978022901D0032600E0042612
:109FF0000624384D030007F005F905040406141D76
:10A0000005002C7070BD2C70FEF73CF90028F9D0CB
:10A010003348344900888842F4D03046FCF79DFA32
:10A0200070BD2C70FEF72EF90028F9D02A490020C7
:10A03000086070BDFEF726F90028E2D070BDF8B5C3
:10A04000821E01260C2106272248234C284D13008E
:10A0500007F0D8F80B1F2727070A0D36273A273DA8
:10A0600027000170092029E001700A2026E007700E
:10A070000B2020601F48A8606868002822D0A87CB8
:10A0800000281FD0FDF763F901280FD1FDF731F942
:10A090000CE00770FEF7F6F8002813D020680B28B4
:10A0A00001D000260EE02868002802D0FDF742FB10
:10A0B00008E0FEF7B8F9FDF782FB0020206001E020
:10A0C000017021603046F8BD01700D20F6E7017087
:10A0D0000E20F3E784200020902000203120020091
:10A0E00014200020FFFF00000C200020A52102000A
:10A0F000402D0020752A002010B544480168002931
:10A1000016D00021016042488068424A012180B295
:10A1100051604B21090148433F49800A48437D2152
:10A12000090106F069FF80B200F02EF83B49087083
:10A1300010BD70B53A480124446035483949416042
:10A14000324E00253560046007202ADF002803D046
:10A1500035A28621FCF77EF8032107202BDF00289B
:10A1600003D031A28921FCF775F8072026DF0028EB
:10A1700003D02DA28C21FCF76DF8356025480460D2
:10A1800070BD2648007870477D2110B5490188428E
:10A1900001D3642010BD294A904205D3081A052135
:10A1A00006F040FF642108E024496439884207D35F
:10A1B000101A052106F036FF5021081AC0B210BD52
:10A1C0001E4AC83A904205D3081A052106F02AFF14
:10A1D0003C21F2E71A49884206D3101A40000F21A9
:10A1E00006F020FF2821E8E7154AB43A904205D34B
:10A1F000081A0A2106F016FF1421DEE71049FA3981
:10A20000884201D8002010BD012010BD007100401F
:10A210000075004000700040E02E0000A0210020EA
:10A2200000730040028000002E2E5C68616C5C624E
:10A230006174746572792E63000000003C0F0000A9
:10A24000DE0D000030B593B01D461446002920D025
:10A25000402C1ED8002C1CD0030A6A461371507182
:10A2600001A82246023006F021FF01200090A01C28
:10A27000C3B201AAA0210220FDF701FC002806D0EC
:10A28000002D03D0A000201805F0E2FD012013B03E
:10A2900030BD0020FBE77CB514460D001DD0402CDE
:10A2A0001BD8002C19D0020A69460A714871002097
:10A2B0000223009001AAA0211846FDF7E0FB002828
:10A2C0000AD00120009023462A46A1210220FDF752
:10A2D000D6FB002800D001207CBD00207CBD7CB5D1
:10A2E0000024684604714471AA2181710125032369
:10A2F00001AAA02102200095FDF7C1FB00281CD077
:10A30000052005F0A5FD684604714471022301AAE9
:10A31000A02118460094FDF7B2FB00280DD00123C0
:10A3200001AAA12102200095FDF7A9FB002804D075
:10A3300068460079AA2801D000207CBD01207CBDA0
:10A3400010B546490820087001464448401C06F0F4
:10A35000C6FE10BDFEB506460025FDF797FD01219E
:10A360008140B078CFB281018000081A717840181E
:10A3700080B201903A48A9000C18607838425AD04F
:10A380003648401C405D002855D1207800283CD03C
:10A39000A07881018000081AE1784018019980B204
:10A3A000884248D30A31814245D30199401AC0B24C
:10A3B000092806D0062806D0032806D0002805D094
:10A3C00039E0032002E0022000E00120029023484F
:10A3D00005700520FDF786F902980A2148432149B6
:10A3E00041180A7A0092CB880A7949888C461D491F
:10A3F000085A6146FDF7BDFF029800281BD160781E
:10A40000010618D47840607015E0B078A1788842D1
:10A4100011D17078E17888420DD10520FDF762F9FD
:10A420000A200090FF20FF23C33091330022014611
:10A43000FDF79FFFE3E76D1CEDB2082D9AD3FEBD3B
:10A4400010B5064C2078082802D20121621C115454
:10A45000FDF7E9FF0820207010BD0000A1210020B9
:10A46000542D0020B02802003A480021017041809C
:10A470000421416070477CB500240425FDF706FDEA
:10A4800001218140CEB26846FDF7AFFC6846324AF2
:10A4900081780620604380180378334206D04378E1
:10A4A0008B4203D88078884200D92546641CE4B2E8
:10A4B000032CEED3274842680021954202D0456024
:10A4C00001704180254A264B12781B68521E1A43A0
:10A4D00003D004224260017041807CBDF8B51D4C60
:10A4E00005466068042833D0FDF7D0FC0146012002
:10A4F00002468A406168D2B206235943164B267839
:10A50000C918CB78761CB34201D2658004E060881C
:10A51000401960802078401C20700878054615425C
:10A5200016D02578AB4213D88B886488A3420FD904
:10A53000030601D45040087006201923962100908C
:10A540005B0102220846FDF714FF0620FDF7CAF85A
:10A55000F8BD0000AC210020742D0020092000204F
:10A56000242000201CB50821FE4806F0B8FDFE4C52
:10A57000002020606060A0601021E060601806F09C
:10A58000AEFD2021F94806F0AAFD6846FDF72DFC36
:10A590006946C8887D210901411A2046E1731030BF
:10A5A000C17269460979A17381726946C97861737C
:10A5B000417269468978017269464978C1711CBD4A
:10A5C00070B58CB0242102A806F089FD0821E54869
:10A5D00006F085FDE44C002626606660A66010212A
:10A5E0006018E66006F07BFD2021E04806F077FD6C
:10A5F000FDF7F8FB01226946FDF74BFC6946C88868
:10A600007D210901411A2046E1731030C17269466B
:10A610000979A17381726946C9786173417269468B
:10A620008978017269464978C171CE4D0120083D93
:10A63000A870042202A910206E60FFF72CFE0028EB
:10A6400010D06846007ADD280BD1032102A800F063
:10A6500085FB6946C97A814221D16846007ADD28A6
:10A6600002D001200CB070BD6946C148497A017022
:10A670006946897A4170082202A92020FFF70BFE63
:10A680000028EFD0072102A800F068FB6946C97BCB
:10A69000814204D1072202A9B64806F007FD05222F
:10A6A00002A93020FFF7F7FD0028DBD0042102A823
:10A6B00000F054FB6946097B81420AD1029E304674
:10A6C000FDF78DFB012269463046FDF7E2FBFDF701
:10A6D0009BFB212202A94020FFF7DDFD0028C1D00D
:10A6E000202102A800F03AFB08A9097A814204D18E
:10A6F000202202A99D4806F0D9FC072202A9702059
:10A70000FFF7C9FD0028ADD0062102A800F026FB06
:10A710006946897B814204D1062202A9964806F047
:10A72000C5FC092202A98020FFF7B5FD002899D0B9
:10A73000082102A800F012FB6946097C814204D17D
:10A74000082202A9874806F0B1FC0D2202A9B02018
:10A75000FFF7A1FD002885D083480D2202A9103003
:10A7600006F0A4FC102202A99020FFF794FD002817
:10A7700087D002A80FC80FC4686072E700B589B01F
:10A780002421684606F0ABFC07227A49684606F0A9
:10A790008DFC0721684600F0E1FA6946C871012383
:10A7A00008222020FFF74EFD002877D0FDF71AFB86
:10A7B00000900421684600F0D1FA6946087101232F
:10A7C00005223020FFF73EFD002867D02022674990
:10A7D000684606F06BFC2021684600F0BFFA08A925
:10A7E00008700123212269464020FFF72BFD002835
:10A7F00054D006226049684606F058FC0621684697
:10A8000000F0ACFA69468871012307227020FFF737
:10A8100019FD002842D008225249684606F046FC3D
:10A820000821684600F09AFA694608720123092255
:10A830008020FFF707FD002830D04B490D22103152
:10A84000684606F033FC01230D226946B020FFF76D
:10A85000F9FC002822D0444B0FCB03936B4607C36F
:10A860000123102269469020FFF7ECFC002815D048
:10A87000DD20694608703E4802784A70407888704A
:10A880000321684600F06AFA6946C8700123042271
:10A890001020FFF7D7FC002800D0012009B000BD30
:10A8A00038B53A2069460870012401231A466946E2
:10A8B0000020FFF7C7FC2146641CE4B20A2902D23B
:10A8C0000028F2D001E0002812D0012401226946BC
:10A8D0000020FFF7E0FC002803D0694609783A29F8
:10A8E00006D02146641CE4B20A2901D20028EDD02A
:10A8F00038BDFEB504461C481F4D01680026288857
:10A90000374681420BD20919814208D303204B23D9
:10A91000DB000090581002220146FDF72AFD17487F
:10A92000016811481030002904D0154904800978C5
:10A930000173FEBD052C01D3052300E02346094920
:10A940000839002C0BD0AA780E4DEB5C5A436243B9
:10A95000960A0B786208D718E207D20F0A700288AD
:10A96000121911E0BC210020542F0020542D00208A
:10A97000182000203C2000207C20002024200020E3
:10A9800028200020D828020002804288F94D921920
:10A9900042808288D21982802868001928606A68FB
:10A9A00092196A60AA680E46D219AA60496888425C
:10A9B00001D9401A00E0081A80B20A28B9D9EE4F2E
:10A9C000386802F017FC002821D00A21686806F0D8
:10A9D00013FB04460A21A86806F00EFB0146072275
:10A9E000684602702A684270130A8370120CC270A3
:10A9F0000471220A4271220C8271C1710A0A027228
:10AA0000090C417201460A22386802F0F5FB002168
:10AA1000012000F011FE28687060FEBDF0B5D54C35
:10AA200087B010342088FFF759FDE27AD34E0A2A06
:10AA300052D92088002805D1217B002902D17178C4
:10AA4000002949D000270297039704970597E379D7
:10AA500069464B72237A8B72637ACB72A37A0B733B
:10AA60004A73227B8A73C873000A0874608848742A
:10AA7000000A8874A088C874000A087502A80C210E
:10AA8000013000F06BF9BD4DA071694608720835C0
:10AA900028880123FF30FF30023080B20D2202A946
:10AAA000FFF7D0FB002817D028883F21103049023B
:10AAB000884201D32F8002E02888103028806888DF
:10AAC0002A88904208D168881030884201D36F806C
:10AAD00002E06888103068800120B07000210220F8
:10AAE00000F0AAFDA3480D21103006F0F8FA6846E0
:10AAF000FDF77BF968464078E071684680782072FF
:10AB00006846C078607268460079A0726846C0885E
:10AB10007D210901401AE072207B7070984800780E
:10AB2000207307B0F0BD70B5924D0026E87B88B069
:10AB30000A2846D96A7B69464A70AA7B8A70C8701F
:10AB400028680871020A4A71020C8A71000EC871E5
:10AB500068680872020A4A72020C8A72000EC87291
:10AB6000A8680873020A4A73020C8A73000EC8733D
:10AB700000A80F21013000F0F1F8804C28736946DD
:10AB800008700834A0790123FF3001301022FFF74C
:10AB900059FB002815D0A0791030702801D3A67178
:10ABA00002E0A0791030A071E079A179884208D143
:10ABB000E0791030702801D3E67102E0E0791030BE
:10ABC000E0710021012000F037FD2E606E60AE6064
:10ABD00004A8EE60FDF709F96846C07C6873684612
:10ABE000007DA8736846C08A7D210901401AE87378
:10ABF0006248466008B070BD10B55E4B04460FCB8E
:10AC00000FC4103CFF206073A073E07320460F2137
:10AC10000D3000F0A3F8207310BD70B5574D0446F9
:10AC20000835688829880026884224D10D212046CD
:10AC300006F055FAFF206070A070E070207160711E
:10AC40004C481030017BA1710178E1710188090A3B
:10AC50002172817861724188090AA1720179E172D9
:10AC600080880C21000A2073601C00F077F82070A7
:10AC7000424886701BE068880D22FF30FF300230AA
:10AC800080B22146FFF707FB002807D068883F21E4
:10AC900010304902884207D36E8008E00D2120461B
:10ACA00006F01DFA002070BD688810306880012011
:10ACB00070BD70B5314C05460834E079A179884201
:10ACC00012D11021284606F00AFAFF206870A870F9
:10ACD000E8700C222749281D06F0E8F90F21681CAE
:10ACE00000F03CF8287017E0E0791022FF300130C6
:10ACF0002946FFF7D0FA002805D0E07910307028F7
:10AD000007D3002007E01021284606F0E8F90020CC
:10AD100070BDE0791030E071012070BD1748083037
:10AD200041880088814203D114488078002800D0EF
:10AD30000120704711480830C1798079814201D0E3
:10AD400001207047002070470C4808308188491C5A
:10AD500081807047094808308088704710B50346E5
:10AD60000022104603E09C5C6040521CD2B28A4232
:10AD7000F9D310BD542F002050220020B421002010
:10AD80002420002007480121C160052212044260EE
:10AD900082680A438260044801607047044903489E
:10ADA0000860704700050140000001403546526EC2
:10ADB00000060140FEB5064601200290FFF7EEFFB7
:10ADC000FF4DFE48E91DF931CD1D021DF935012E5B
:10ADD00007D0022E05D0032E0FD0042E0DD0002058
:10ADE000FEBDC378441D9F1800222A82F44B0193B4
:10ADF000009100796860AA7459E0C07814468718F9
:10AE0000288AEF4A8218401801924FE020780028E3
:10AE100005D001281DD000200290288253E0288A06
:10AE2000FF2108300131884243D8641C288208225F
:10AE30002146019806F03AF9083408222146009884
:10AE400006F034F901980834083001900098083071
:10AE50002CE0288A782810D10821019806F03FF9C3
:10AE60000821009806F03BF9288A083028820198CA
:10AE700008300190009808300090288AFF21103097
:10AE80000131884215D8641C28821022214601987D
:10AE900006F00CF9103410222146009806F006F94D
:10AEA0000198103410300190009810300090BC428E
:10AEB000ACD3012E01D0042E05D1C2480168FF2277
:10AEC0000132114301600298FEBDBF490020486075
:10AED0000870BE49086088607047F8B500260C46C7
:10AEE000002958D0B84DB54F6A68002A06D0012A0B
:10AEF0001CD0022A22D0032A15D132E002290FD910
:10AF0000437802781B02D218B14B92B29A4207D111
:10AF100001226A600022A41E2A70A4B2801C02E0F2
:10AF2000641EA4B2401C002CDED134E00278BA705A
:10AF30000222401C641EA4B26A60F4E70278FA7030
:10AF4000002A01D0D02A02D90126002200E00322E3
:10AF5000641EA4B2401C6A60002C1CD0002EC3D01A
:10AF600019E02978FB7862189A420AD35A1A7B189A
:10AF70001B1D0146184606F099F80126002068605E
:10AF800009E07B181B1D01462246184606F08EF884
:10AF90002878001928703046F8BDF1B5874800249C
:10AFA000C2788CB0D02A17D8807808900707030998
:10AFB0003F0F002B11D08148012B81790391C67975
:10AFC000057A417A0091417900793CD0022B7DD0FD
:10AFD000032B7CD0042B7BD0D2E17A483B0006F0D7
:10AFE00011F906041D2428312C317A480068002804
:10AFF00002D075490831087609A871DF724809A99D
:10B0000006220131143006F051F86F491C22083134
:10B01000684606F04BF80124192254E1FFF7B1F815
:10B0200069460124087022464EE101680124062287
:10B0300006E0016801240A2202E0016801242022BE
:10B04000114301609CE13B0006F0DCF80A06304F3A
:10B050005D6175799296E691062ABDD17D22120135
:10B0600080186A4650810B2900D90B211172039870
:10B070001E2800D91E201146D071172E00D9172680
:10B0800008468E713B2D00D93B25457100983B2821
:10B0900000D93B20087101A8FCF7B0FFFCF79FFE28
:10B0A000002004900C98016904A85EE0FCF79AFE69
:10B0B00000226946FCF7EDFE6846C1887D2000014C
:10B0C000091A684601720179417202E0A8E0FFE0C6
:10B0D00012E1C17881728178C1724178017301787F
:10B0E00041730124062202A9EEE0022AAAD33A4AB9
:10B0F0001378984200D010705078814200D051707F
:10B10000FFF722FE32E0012402223349DCE0052A67
:10B1100098D1082896D2820030488154101803999B
:10B1200041708670C570FFF70FFE012000900C98EB
:10B130000169684619E0012420222849C4E0072A51
:10B140008BD10328E6D206225043254A1154801899
:10B15000039941708670C57000998180FFF7F4FDF6
:10B16000022001900C98016901A88847012407E199
:10B17000012412221A49A7E00124FFF7E5FD0F4D33
:10B18000184EE878022832D331782879814209D0E4
:10B19000002800D001203070032000900C98016935
:10B1A0006846884771786879814220D0002800D0AD
:10B1B00001207070042000900C9815E0742F00207E
:10B1C000402B00201C200020C4210020402D002006
:10B1D00021FF0000FC21002018200020542D002019
:10B1E000742D00203C200020016968468847E878DB
:10B1F000032804D3A979002900D00121B1700428C3
:10B2000009D3E979F170052805D3297A3171062827
:10B2100001D3687A7071B3E001240722664953E0D4
:10B220003B0005F0EFFF080518292C3033393EADFF
:10B23000062A0FD1614A9070D1700398002800D07F
:10B240000120107156710098012400022818108006
:10B25000FFF77AFD94E05948694682780A70C2780F
:10B260004A7002798A704279CA7000880871000AAF
:10B2700001244871062227E0FFF774F976E70124DC
:10B280002146204605E00124204607E0012421460E
:10B29000022000F0D1F973E00124022000F007FA47
:10B2A0006EE0012404A8FFF7A7FC6846017F017047
:10B2B000417F4170817F8170C17FC17004A807C840
:10B2C00001AB07C310226946089800F07DF957E0EA
:10B2D000012F06D0022F04D0032F04D0042F02D058
:10B2E0004EE0FF2903D03846FFF764FD02E0384600
:10B2F00000F049F8044643E0002F02D0012F26D089
:10B300003EE02F4D012A3BD12E4E012431780329F6
:10B3100006D0032808D001290AD001280CD00EE05D
:10B32000032811D0002000E00120FBF7FEF806E022
:10B33000012809D00B2000E00A20FCF7D3F9287976
:10B34000042801D3002000E02879307018E01C4F59
:10B35000092A13D3002811D00398BB7A00020818D9
:10B36000009A29021B02D21893B27118FA7A3D7B17
:10B3700080B289B20095FCF7FCFF01E0FDF753F8BD
:10B3800020460DB0F0BD10B50F4801220C490260F7
:10B390000B7943608274C878891D801EC2B20B4845
:10B3A0000270401C05F082FE09480168FF2201324C
:10B3B00011430160012010BD3C2000207C200020B2
:10B3C000742F00200C200020402D0020742A002023
:10B3D0001C200020F7B582B004980026001D0090C4
:10B3E000C0B201271421401E05F01CFEB24C401CC7
:10B3F0002178C5B2607881422178607801D9081A35
:10B4000001E0081A0930A84241DA002005B0F0BD79
:10B41000607815214843A9494018002F19D02221EE
:10B420004170FF2181700299C17000270499017158
:10B43000002D08D014210170401D1022039905F041
:10B4400035FE10261BE000990170401D049A0399F7
:10B4500013E0002D0AD0142101700399401C8919B2
:10B46000142205F023FE1436F6B208E00499891B75
:10B47000CAB202700399401C891905F017FE607862
:10B48000401CC0B260700A2801D3002060702846BA
:10B490006D1EEDB20028BBD10120B7E730B587B0F3
:10B4A00004A87BDF844CE06803F070F820786178B2
:10B4B0007D25ED0088421ED1606800286AD0C00753
:10B4C00008D0FFF737FC002838D103E01022694686
:10B4D00023200EE0207980072DD5FFF71FFC0028E0
:10B4E00029D06846FFF799FB002834D00D22694621
:10B4F0002520FFF76FFF2078152148436F49411839
:10B500000A78491CA06801F0D6FC002823D02078D6
:10B51000401CC0B220700A2801D30020207020787F
:10B520006178884217D12079C0070DD0FFF702FC5F
:10B53000002810D108E02079C0072BD06846FFF71B
:10B54000B8FB0028C2D106E02079800719D5FFF7A3
:10B55000E5FB002815D06846008A5949FF23484377
:10B56000400AC117420CC903C003F5331143C01888
:10B57000002251412A46002305F068FD00220146C1
:10B5800005E02079C00705D000220F214904E068BA
:10B5900002F092FF07B030BD10B547498860002027
:10B5A00048700870486001464348464A0C3002F033
:10B5B0003CFF10BD10B54048002141700170416052
:10B5C000C06802F0E3FF10BDF7B582B00127154651
:10B5D0000E46FF0368467BDF01F08DFB002813D089
:10B5E000684600883649FF234843400AC117420C89
:10B5F000C9031143C003F5330022C01851415A005A
:10B60000002305F023FD07462B4CA06801F051FCF8
:10B61000002810D020786178884207D1E06802F0D5
:10B62000B5FF00223946E06802F046FF2A4631465F
:10B630000298FFF7CFFEE9E6FEB5064601250F4664
:10B64000ED0368467BDF01F056FB002813D0684607
:10B6500000881B49FF234843400AC117420CC90315
:10B660001143C003F5330022C01851415A00002392
:10B6700005F0ECFC0546104CA06801F01AFC00280F
:10B680000DD06068002F0BD0304360600AE0E068A6
:10B6900002F07CFF00222946E06802F00DFFFEBDAB
:10B6A0003042FCD0207861788842F0D0FEBD02495B
:10B6B0004A6882434A607047E821002048300020F1
:10B6C000E20400009DB40100F0B5F94D0C46297864
:10B6D0008BB01646002921D1032269460A71020C5B
:10B6E0004A71020A8A71C871201D009002AB0422BF
:10B6F00001A9002004F085FA07000AD1201DFAF7FD
:10B7000009FD2878002809D0224603A9304605F013
:10B71000CDFC0020287038460BB0F0BD1120FBE7AF
:10B72000012801D1E2490870704710B50A46002887
:10B7300050D0002A4ED003461121203BC9015F2B77
:10B7400003D800014318102109E027235B02D94CDC
:10B75000C31AA3420DD8D849400143182021002B19
:10B760003AD01170521C1846FFF7AEFF002833D1B3
:10B7700030E0D24BC3185D2B04D8FF232133C0180F
:10B7800080B2DEE703210903884202D11523DB01E1
:10B7900004E0CB49884203D139239B011021E0E723
:10B7A000C749491C884202D15B235B01F6E7C449C3
:10B7B0003123C91D9B018842F0D04C1C63214901F3
:10B7C000A04205D0641CA042E8D0631C984203D17B
:10B7D0000B46E3E7012010BD002010BD024610B566
:10B7E000203A03015F2A02D85B2080014BE0024629
:10B7F000A03ADF2A02D85320800144E00246FF3AF3
:10B80000A13A2F2A02D84B2080013CE00246FF3AA1
:10B81000F13A0F2A02D84320800134E0212212019C
:10B82000821A0F2A02D83F2080012CE0F522520113
:10B83000821A5F2A01D8A34825E037221201821A12
:10B840005F2A01D8C0331FE001229202821A5F2AC8
:10B8500002D8092080010EE049221201821A6F2AC3
:10B8600002D81520800106E059221201821A6F2A9F
:10B8700003D8392080011B1A06E007225202801AE1
:10B880005F280CD890481B18002B08D01020087097
:10B890004A1C01461846FFF717FF002801D0002078
:10B8A00010BD012010BD38B50C4688A10968009173
:10B8B0000146874AA0394300914202D8FF3B413BF1
:10B8C0002DE08449844A4118914201D8834825E0FB
:10B8D00003217F4A0903411A2432914201D880484A
:10B8E0001CE02721734A4902411A521E914201D895
:10B8F0007C4813E07149D13141183B2901D87A487D
:10B900000CE06E4941185D2901D8784806E06B4982
:10B91000DF394018052835D873486E381B18002BBE
:10B9200030D02020207072486A4602211818FFF794
:10B93000CBFE002826D168460078002803D169464E
:10B94000497800291ED0694602464978A13A082A5A
:10B9500007D8A12905D35E2042435018400165490C
:10B9600009E0B03847280DD8A1290BD35E225043F7
:10B970004018614940014018621C2021FFF7A4FED5
:10B98000002801D0002038BD012038BD38B50C4654
:10B990004EA1096800910146A2394300552902D8F9
:10B9A000FF3B413B2BE05549FF22411803329142B6
:10B9B00001D8534822E04749474AC91E4118D21EC0
:10B9C000914201D84F4819E00321414A0903411A25
:10B9D0002432914201D84C4810E02721354A4902CF
:10B9E000411A0A3A914201D8484807E03349D13117
:10B9F0004018FF21CE31884242D845481B18002B01
:10BA00003ED02020207043486A4602211818FFF7D4
:10BA10005BFE002834D168460178002902D14078C5
:10BA200000282DD068464078A439222928D802461B
:10BA3000403A3E2A04D89D2251430818403807E076
:10BA40000246A13A5D2A1BD89D225143081862384C
:10BA50003149400040186A460221FFF735FE0028B0
:10BA60000ED168460078621C0102684640780818CA
:10BA70002A49400140182021FFF726FE002801D066
:10BA8000002038BD012038BD38B50C46002100919A
:10BA900003462349203B8B4262D30121204A4903BC
:10BAA000411A203291423DD2C1214901431A57E047
:10BAB000F8210020A651000020610000FF00FFFFD8
:10BAC00001300000C047FEFFC071FFFF00000A0008
:10BAD000B1030000F0DFFFFF3206000044C7FFFFA4
